:020000040800F2
:10000000B80F00209D820008E18200088178000876
:10001000E5820008E9820008ED8200080000000087
:10002000000000000000000000000000F182000855
:10003000F582000800000000F9820008E978000855
:10004000FD82000801830008058300080983000879
:100050000D83000811830008D3810008D9810008AE
:10006000DF810008E5810008EB81000815830008A6
:10007000198300081D8300082183000825830008D8
:10008000298300082D830008A17700083183000828
:1000900035830008398300083D830008CD810008BE
:1000A0004183000845830008498300084D83000808
:1000B000F77700085183000855830008598300082A
:1000C0005D83000861830008658300086983000878
:1000D0006D83000813780008718300087583000899
:1000E000798300087D83000881830008D3770008A6
:1000F000C377000885830008898300088D83000882
:100100009183000895830008998300089D83000867
:10011000A1830008A5830008A9830008AD83000817
:10012000B1830008B5830008B9830008BD830008C7
:10013000C1830008C5830008C9830008CD83000877
:10014000D1830008D5830008D9830008DD83000827
:10015000E1830008E5830008E9830008ED830008D7
:10016000F1830008F5830008F9830008FD83000887
:1001700001840008058400080984000800000000CC
:100180000D84000811840008002848BF40427047D1
:1001900010B5DFF8484300F086FC6060A168606835
:1001A000091AE160E06810BD10B5DFF83043DFF8F0
:1001B000F0172DED028BE068206142F21070B1F96A
:1001C000002012FB00F0831300EB5340C01300EE3D
:1001D000100AB8EEC08AFAEE000A68EE200AFDEEB8
:1001E000E00AC4ED030A00F05EFC6060B0EE480A6D
:1001F000BDEC028B10BD30B5DFF8E412DFF8DC5245
:100200000C6881B0204600F06DF9B4F9384005F172
:10021000540000F011F80146601864286C64A96469
:10022000C8BF642004DC6FF063018842B8BF084691
:1002300000B201B030BD000010B5044600F033FC40
:1002400000EE100AB8EEC00ADFEDA20A20EE200A86
:1002500084ED000AD4ED010AD4ED031A94ED022ACC
:10026000D4ED042A84ED010A30EE601A61EE811AA1
:1002700032EE602A32EE011A41EE221ABDEEE10A98
:1002800010EE100AC4ED020A00B210BDDFF84C02F5
:100290004068704742F28E31DFF840224843906058
:1002A0007047000070B5F9EE080A2DED028BB0EE34
:1002B000408AB4EE608AF1EE10FA0446B9EE000A04
:1002C00026DBB4EE408AF1EE10FA21D500250D6050
:1002D00001264E6018EE100A00F006FC0022DFF83E
:1002E000C43600F025FC00224FF0404300F02EFD04
:1002F00000F012FE206018EE100A00F0F5FB00225C
:10030000DFF8EC3600F014FC0022DFF89C36D9E070
:10031000B4EE408AF1EE10FA28DBB8EE000AB4EE33
:10032000408AF1EE10FA21D50120086002224A60CD
:1003300018EE100A00F0D8FB0022DFF8683600F053
:10034000F7FB0022DFF8AC3600F000FD00F0E4FD22
:10035000206018EE100A00F0C7FB0022DFF890368C
:1003600000F0E6FB00224FF08043ABE0B8EE000A5D
:10037000B4EE408AF1EE10FA1BDBB5EE408AF1EEE6
:1003800010FA16D5022008600322BEEE000A4A6069
:1003900028EE000A84ED000A18EE100A00F0A4FB13
:1003A0000022DFF84C3600F0C3FB0022DFF84836AD
:1003B00088E0B5EE408AF1EE10FA24DBB0EE000AD8
:1003C000B4EE408AF1EE10FA1DD503200860042235
:1003D0004A6018EE100A00F087FB0022DFF8C435EF
:1003E00000F0A6FB0022DFF8103600F0AFFC00F0B2
:1003F00093FDB6EE000A206028EE000A84ED010AA3
:10040000BDEC028B70BDF0EE000AB4EE608AF1EE36
:1004100010FA28DBB1EE000AB4EE408AF1EE10FAD1
:1004200021D50420086005224A6018EE100A00F069
:100430005BFB0022DFF86C3500F07AFB00224FF006
:10044000804300F083FC00F067FD206018EE100A86
:1004500000F04AFB0022DFF8983500F069FB00222B
:10046000DFF890352EE0B1EE000AB4EE408AF1EEEE
:1004700010FA2CDBDFED180AB4EE608AF1EE10FA08
:1004800025D50520086006224A6018EE100A00F003
:100490002BFB0022DFF80C3500F04AFB0022DFF8CE
:1004A000083500F053FC00F037FD206018EE100A0C
:1004B00000F01AFB0022DFF8383500F039FB00228B
:1004C0004FF0404300F042FC00F026FD6060BDECC0
:1004D000028B70BD0000B43B0100C0400806002044
:1004E000640700202DE9F041804600240027002504
:1004F00000262DED0A8BD8F80C00D8F81010D8ED96
:100500000A0A00EE100AB8EEC00A20EE20AA401A2D
:100510009FEDBEBA00EE900AB4EE4BAAF8EEE00AE8
:1005200098ED0B0AF1EE10FA9FEDB99ADFEDB89A4B
:100530009FEDB78ADFEDB68A60EE80BAF9EE08AAC1
:10054000A8BFB1EE08AA06DAB4EE6AAAF1EE10FA74
:1005500048BFB0EE6AAAF4EE4BBAF1EE10FAA8BFAB
:10056000F1EE08BA06DAF4EE6ABAF1EE10FA48BF14
:10057000F0EE6ABAB4EE6AAAF1EE10FAB9EE00CA69
:1005800024DBB4EE4CAAF1EE10FA1FD51AEE100AD5
:1005900000F0AAFA0022DFF80C3400F0C9FA0022B9
:1005A0004FF0404300F0D2FB00F0B6FC09EE100A19
:1005B0001AEE100A00F098FA0022DFF8343400F046
:1005C000B7FA04270022DFF8E033C8E0B4EE4CAA03
:1005D000F1EE10FA27DBB8EE000AB4EE40AAF1EE15
:1005E00010FA20D51AEE100A00F07EFA0022DFF889
:1005F000B43300F09DFA0022DFF8F83300F0A6FBD8
:1006000000F08AFC09EE100A1AEE100A00F06CFAEB
:100610000022DFF8DC3300F08BFA042408270022E4
:100620004FF080439BE0B8EE000AB4EE40AAF1EE32
:1006300010FA17DBB5EE40AAF1EE10FA12D5BEEEB5
:10064000000A2AEE009A1AEE100A00F04DFA002273
:10065000DFF89C3300F06CFA08240C270022DFF846
:1006600098337CE0B5EE40AAF1EE10FA1FDBB0EE55
:10067000000AB4EE40AAF1EE10FA18D51AEE100AEC
:1006800000F032FA0022DFF81C3300F051FA0022A9
:10069000DFF8643300F05AFB00F03EFCB6EE000ACF
:1006A0000C24102709EE100A6AEE009A5DE0F0EEC5
:1006B000000AB4EE60AAF1EE10FA27DBB1EE000AF0
:1006C000B4EE40AAF1EE10FA20D51AEE100A00F0AE
:1006D0000BFA0022DFF8CC3200F02AFA00224FF0A9
:1006E000804300F033FB00F017FC09EE100A1AEE0D
:1006F000100A00F0F9F90022DFF8F43200F018FADD
:10070000102414270022DFF8EC3228E0B1EE000AB2
:10071000B4EE40AAF1EE10FA27DBB4EE4BAAF1EEEC
:1007200010FA22D51AEE100A00F0DEF900229D4BD5
:1007300000F0FEF900229C4B00F008FB00F0ECFBFF
:1007400009EE100A1AEE100A00F0CEF90022A84BAA
:1007500000F0EEF91424182700224FF0404300F077
:10076000F5FA00F0D9FB09EE900AF4EE6ABAF1EE60
:1007700010FA21DBF4EE4CBAF1EE10FA1CD51BEEA8
:10078000900A00F0B1F90022864B00F0D1F9002266
:100790004FF0404300F0DAFA00F0BEFB08EE100A1A
:1007A0001BEE900A00F0A0F90022914B00F0C0F976
:1007B0001C2600227C4BC2E0F4EE4CBAF1EE10FA9B
:1007C00028DBB8EE000AF4EE40BAF1EE10FA21D5BB
:1007D0001BEE900A00F088F90022724B00F0A8F995
:1007E0000022844B00F0B2FA00F096FB08EE100AEB
:1007F0001BEE900A00F078F900227D4B00F098F98A
:100800001C25382600224FF0804398E00100C040AC
:1008100000000000B8EE000AF4EE40BAF1EE10FA63
:1008200015DBF5EE40BAF1EE10FA10D5BEEE000A77
:100830002BEE808A1BEE900A00F056F900226C4BDA
:1008400000F076F93825542600226B4B77E0F5EE60
:1008500040BAF1EE10FA1DDBB0EE000AF4EE40BA39
:10086000F1EE10FA16D51BEE900A00F03DF90022C9
:100870004C4B00F05DF900225F4B00F067FA00F08E
:100880004BFBB6EE000A5425702608EE100A6BEEFC
:10089000808A5AE0F0EE000AF4EE60BAF1EE10FA47
:1008A00024DBB1EE000AF4EE40BAF1EE10FA1DD5E9
:1008B0001BEE900A00F018F900223A4B00F038F9CC
:1008C00000224FF0804300F041FA00F025FB08EED3
:1008D000100A1BEE900A00F007F90022444B00F0CA
:1008E00027F970258C260022424B28E0B1EE000A41
:1008F000F4EE40BAF1EE10FA27DBF4EE4BBAF1EE6B
:1009000010FA22D51BEE900A00F0EEF80022254BDB
:1009100000F00EF90022244B00F018FA00F0FCFA67
:1009200008EE100A1BEE900A00F0DEF80022304BB1
:1009300000F0FEF88C25A82600224FF0404300F07E
:1009400005FA00F0E9FA08EE900A2C49B8F83000F0
:100950004A1922444B198D193B442C44314492EDE1
:10096000000AD3ED000A94ED001A394428EE000A7B
:1009700008EEA00A28EE011AD1ED001A60EE090A6D
:1009800008EEA11A41EE290AFDEEE01A11EE902AB6
:1009900010FB02F0A8F83800BDEC0A8BBDE8F0812E
:1009A000080900200000E0BF000008408183704774
:1009B0000184704780ED0A0A704780ED0B0A70478A
:1009C000018670474186704780ED030A704780EDCD
:1009D000040A7047B0F91C0070470948094A816849
:1009E00081FB0232101300EBD07000B270470000A0
:1009F0000000E03F0000F0BF0000F03FC47F0008AF
:100A00000806002087EB33732DE9F0412C4CD4F815
:100A1000900084B000F0B4FA054600F0B3FA064640
:100A2000D4F8BC0001A900F0B0FA019800F0CEFAA9
:100A30000746314600F0EEFA0090B4F91010BDF907
:100A40000000091AD4F8980000F018FBADF808006F
:100A5000B4F91210BDF90200091AD4F89C0000F094
:100A60000DFBADF80A000299D4F8C40000F046FB73
:100A70008046284600F06DFB3146404600F06CFB96
:100A80000546D4F8BC00294600F085FB0199009A80
:100A9000C4F816806760C4F81A5026842160E260AA
:100AA00004B0BDE8F081064800B5D0F8900081B0F0
:100AB00000F066FA01B05DF804EB00F03EBC000007
:100AC000C0060020074890F87C10012900D070472C
:100AD00000B581B0002000F04FFC01B05DF804EBE0
:100AE00000F031BDC0060020C0F3C75181B1FF291D
:100AF00006D0C110400721F0E04101F1605170477C
:100B000041020CBF40F4E0016FF00041002070474B
:100B100000F0004100020AD0B0FA80FC00FA0CF0AC
:100B200001F16051A1EB0C5101EBD0214005704760
:100B3000B0B581EA030C0CF0004C40F2FF7515EAE9
:100B400011541DBF15EA1357AC42AF4239E0E41906
:100B500023EA455343F48013C90241F0004141EABE
:100B6000505EC7021100A7FB020200284FF00000F0
:100B7000EEFB01204FF00001E3FB072118BF42F01C
:100B80000102401800214941E3FB0E01A4F58064F5
:100B90000F0302D252004041494154F101046CDD7F
:100BA000470872F1004250F1000051EB0451A1F5E9
:100BB00080115CBF41EA0C01B0BD4CEA0551002038
:100BC000B0BD05EA1357AC4214BFAF4241E050EA52
:100BD000410E1CBF52EA430E02E061460020B0BD48
:100BE00024423C441BD15FEA070EF6D0090302BF42
:100BF00001460020AEF1140EB1FA81F7AEEB070406
:100C000001FA07FE0C37C7F1200100FA07F7C840C8
:100C10004EEA000E23EA455343F48013A2E733F073
:100C20000043B3FA83F704BFB2FA82FE77440B3F66
:100C3000E41BB7F1200E2FBF02FA0EF3BB40C7F141
:100C4000200E22FA0EFE38BF43EA0E03BA40641C9F
:100C500082E750EA410E14BF52EA430E6FF00001E2
:100C60004FF4001717EB430F8ABF194617EB410FDC
:100C7000B5E74CEA05510020B0BDD4F10104B4F150
:100C800020070FDAC4F12007520828BF42F0010202
:100C900010FA07F501FA07F7E1BF2A43E0403843AD
:100CA000E1400FE0352C98DCC7F1200452EA400205
:100CB00020FA07F218BF42F0010231FA07F0A14012
:100CC0000A43002172F1004250F1000051EB0C0187
:100CD000B0BDF0B40246106895681318506803EB75
:100CE0005004C0071DD54D441BE013F8017B05F8E7
:100CF000017B491EF9D1A0B1B60813F8011B06F01B
:100D00000306032E08BF13F8016B01EB06214942CD
:100D1000801C294405D011F8016B05F8016B401EB9
:100D2000F9D1A3420ED013F8016B16F0030104BFF2
:100D300013F8011BC91C30090F28DAD113F8010B75
:100D40000F30D6E7F0BC02F10C00704770B44FF0E2
:100D5000004591EA030F40F11F846B40841A71EB48
:100D6000030604D26E40001BB141121973414FF4C7
:100D7000001C1CEB410F34BF7CEB430683E00C0DE1
:100D8000A4EB1356362E00F37C80012E45EAC323D4
:100D900041DC43EA525312BFD20292025B0824059F
:100DA00045EAC12141EA5051D2EBC020994125D4F6
:100DB00007D1B0FA80F610FA06F162D00020203692
:100DC00008E0B1FA81F6B140C6F1200220FA02F241
:100DD0001143B0404FEAF474B4EB465434F00106CA
:100DE0004FEA74040AD8D6F50016760D04F00044D4
:100DF000F04061FA06F25040F1404840C00A40EA33
:100E0000415021F0004128BF5FEA500550F1000039
:100E100044EBD12135E0DB0A45EAC121C90AB6F12C
:100E200020050EDD42EA0242120CC5F1200603FA4B
:100E300006F6EB4042EA06056D42984161F1000179
:100E40000DE062FA06F5F240554063FA06FC82EACC
:100E50000C02F3405A406D42904161EB030111F4E2
:100E6000801F05D1641E620502D06D0040414941DA
:100E700021F48011430875F1004350F1000041EB6B
:100E8000045170BC70471CEB410F15D223F0004396
:100E900052EA43060BD04FEA4C0CBCEB410F04D88E
:100EA0000C0D661E342EB7DDEBE7801A994150EA2F
:100EB000410608BF0021E4E708BF1CEB430F28BF31
:100EC0006FF00001DDE770B4826F9268136A23F45B
:100ED0008053136290F87320102A18D2826F90F812
:100EE0007240C36D02EB84056E6A326890F87240FE
:100EF000D318826FC36502EB8405EE6B036E326814
:100F0000D318036690F873305B1C80F873300020B0
:100F10000880488070BC704701F000428B1AA3F132
:100F20006051B1F5801F0ADBB1F17F6F1FD242EA39
:100F3000C102C10071F1004142EB507070470B15C6
:100F4000C3F10903212B10D2890241EA905180029A
:100F50000128494141F0004121FA03F0C3F1200387
:100F6000994071F1004150417047100070476FF097
:100F7000000013EB103F5CBF000E42EAC050704708
:100F800040697047B0F9040070474268104770B478
:100F9000826F9268136A23F48053136290F873206F
:100FA000102A0ED2826F90F87240436E02EB8405D5
:100FB000EE6B3268D318436690F873305B1C80F890
:100FC000733000200880488070BC704701B481B045
:100FD00044F6E612BDF90400ADF8000001460B48E6
:100FE00011FB00F0BDF9061011FB02F2A0EB42006C
:100FF000C01300F30F00ADF8020010F5004F04BF5E
:101000000349ADF80210009802B070471AB6FFFF0E
:101010000180FFFF71B583B008B200F039FB019089
:10102000BDF90420BDF90C30BDF90600BDF90E1064
:1010300013FB02F400FB1144E41304F30F04ADF8B6
:10104000004013FB00F0BDF900500A4CA54204BF5C
:10105000094EADF8006011FB0200C01300F30F0051
:10106000ADF80200A04204BF0349ADF80210009899
:1010700004B070BD0080FFFF0180FFFFF0B4B0F945
:101080000430B0F91450B0F91660B0F9062000240D
:101090004B430AB9002115E0514382688F1806D5E9
:1010A000002AC8BF002906DD6FF0004703E0002AD0
:1010B00044BF0029104FC168B94203DB0169B9423E
:1010C000B8BF3946878B81603B41C78B0A4642FADD
:1010D00007F1CB189D4206DAEC1AA4182B4684605F
:1010E00018B2F0BC7047B342BCBFF41A3346A41820
:1010F000846018B2F0BC70470100008002B481B077
:101100000091BDF90430BDF9062013FB03F112FB79
:10111000021C01884943614518D290F8B2104FEA89
:101120001C6CACEB010C5FFA8CFC00EB4C00808873
:10113000434342439913901303EB514302EB504254
:10114000DB13D213ADF80030ADF80220009802B0E6
:101150007047B0F91000704731B582B008B200F0A6
:1011600097FA0190BDF90430BDF90840BDF90610A9
:10117000BDF90A2014FB03F512FB03F012FB015525
:1011800001FB1401ED13C913ADF80050ADF80210C6
:10119000009803B030BD70B481B002B481B0B0F833
:1011A0005030BDF90650BDF90420018E5D436D42FB
:1011B0004A436D005119AA1A01EBD17102EBD272A8
:1011C00049105210002948D5002A17D5042480F868
:1011D0003A408C1A651404EB9534A41404EB930381
:1011E00014140D1402EBD43201EBD53103EB62423F
:1011F000A3EB61410C461D46164675E02C14002DEC
:1012000005EBD43414DC0321AD1A80F83A106E14C7
:1012100005EB9635AD14111405EB930302EBD132B7
:1012200003EB6242A2EB64410C4615461E465BE0AE
:1012300002224D1B80F83A206E1405EB9635AD1452
:101240000A1405EB930301EBD231A3EB614101EBEF
:10125000644214460D461E4646E0002A16D4012478
:1012600080F83A408C1A651404EB9534A41404EB0E
:101270009303141402EBD4320D1403EB624201EB1E
:10128000D531A3EB614114461D462CE02C14002DF2
:1012900005EBD43414DC05224D1B80F83A206E1483
:1012A00005EB9635AD140A1405EB930301EBD2312F
:1012B000A3EB614101EB64421C460D46164613E068
:1012C0000021AD1A80F83A106E1405EB9635AD1476
:1012D000111405EB930302EBD13203EB6242A2EB54
:1012E00064411C4615460E46C186A0F84060C5877D
:1012F000848743868286B0F84E10012919D1B0F94F
:101300004830418EB0F85420002BCCBF5118891AB8
:101310004186B0F94A30818E002BCCBF5118891A12
:101320008186B0F94C30C18E002BCCBF52188A1A7E
:10133000C286816903B070BC08478068704730B4CA
:10134000002513E050F8042BD30744BFA9F1010393
:101350009A18091F042942F8045BFAD213468C0735
:1013600044BF15809B1CC90748BF1D7050F8041B63
:101370000029E7D130BC70472DE9F04304462748E7
:10138000DFF89C90008881B0A046ADF8000009EB22
:101390008805D5F8B80000F0D1F93DF8186006408E
:1013A000D5F8BC0000F0E8F90643200007D1BDF8ED
:1013B0000070D9F8B40000F0E1F907403E4308EBB3
:1013C000480009EB4007F04382B2314607F1E800DC
:1013D00000F01DFA07F1E80000F02EFA0A2808D004
:1013E0000B2804BFD5F8BC0000F028FA01B0BDE816
:1013F000F083D5F8B00010B1002100F021FAD5F843
:10140000BC0000F01BFA204600F01CFAD5F8C00022
:1014100000F04EFA01B0BDE8F08300BFB8820008CA
:10142000C006002070B40146FF220E79584C0023FC
:1014300004F1240050F8230018B9042A0ADD1A46E2
:1014400008E00579B54202BF00680D68A84204BFF4
:101450001A4604235B1CDBB2042BE9DB104604288C
:1014600041DA04F12403002543F8201044F83050F9
:1014700008688368DB0711D4446824F020044460C2
:101480006FF0020303606FF00403446824F08004EB
:1014900044600360846844F001048460C36A23F4F8
:1014A0007003C3620B790A2B06D203EB430443EAB1
:1014B000045343F0007305E0A3F10A0404EB440471
:1014C00043EA0453DC0D0C3004F00404896820184E
:1014D0001B0D03F01F03046807259D40AC4301FA70
:1014E00003F323430360104670BC7047284901EBA7
:1014F0008000406A01790A2906D201EB410241EAE3
:10150000025141F0007105E0A1F10A0202EB420232
:1015100041EA025102682C3201F01F0152F8083FE3
:101520005B0941EA4311116001230168CA6C194A41
:10153000083102EB4112136001680A689207FCD57A
:10154000C86C80B2704730B5114C94F82100012866
:1015500081B01BD194F82000FFF7C8FF022194F856
:10156000203084F8211060841D4654F8351069B18C
:10157000002284F8212004EBC5014A680146184680
:1015800054F8353001B0BDE83040184701B030BDE7
:101590004C0B002078000042841A71EB030603D242
:1015A000001BB141121973414FF4001C1CEB410F99
:1015B00034BF7CEB430442E00C0DA4EB1356352EF4
:1015C0004FDC45EAC323DB0A45EAC121C912B6F163
:1015D00020050DDD63FA05F6EB4086EA03051242AD
:1015E00018BF45F00105C01851F100010CD213E0FD
:1015F00062FA06F5F2405540F3415A40B340F340D9
:101600005A408018594107D349085FEA30005FEA21
:10161000350528BF45F0010501F58011420875F137
:10162000004250F1000041EB04514E0016F5001F3E
:1016300070BC38BF70470020090D090570471CEBCE
:10164000410F10D252EA43060BD0BCEB410F05D834
:101650000C0DAB43661E342EB6DD02E0AB438018A2
:10166000594170BC704770BC704790F81C1169B943
:101670000022012180F81D2180F81C11D0F82001E2
:10168000C16841F02001C16002207047012070470D
:10169000A0F500410904890D11F4407081B028D0F3
:1016A000B0F5807F37D0B0F5007F05D0B0F5407F32
:1016B00012D0009801B070471F48CAB230F81230FB
:1016C000ADF80230C1F1FF01C9B230F91100ADF837
:1016D0000000009801B07047174AC1F1FF00C0B286
:1016E00032F81030ADF80230C9B232F91110494267
:1016F0001DE01148CAB230F912305B42C1F1FF015E
:10170000ADF80230C9B230F911004042ADF8000026
:10171000009801B07047084AC1F1FF00C0B232F929
:1017200010305B42ADF80230C9B232F91110ADF899
:101730000010009801B070471874000810B50446F6
:101740002078A8B994F82600FFF7D0FE4FF6FF7175
:10175000884207D0218B238A4A1E03FB0200B0FB7C
:10176000F1F02082204600F0AFF8E082E08A10BD60
:101770000020E082E08A10BDC1690847F0B5044648
:1017800081B094F82600FFF7B1FE4FF6FF72904249
:10179000014636D0226A94F8250022F81010002362
:1017A000208B0025F8B1EEB232F816606D1C9B1943
:1017B000EFB2874217D2EEB232F816606D1C9B1959
:1017C000EFB287420FD2EEB232F816606D1C9B1951
:1017D000EFB2874207D2EEB232F816606D1C9B1949
:1017E000EFB28742DFD3B3FBF0F0E080A180228B21
:1017F00094F82500521E9042B4BF401C002084F88B
:101800002500204600F06DF8208101B0F0BD30B415
:1018100003465C889D8818780C4324EA0202294319
:101820000A285A80998002D122B90B2001E00AB11E
:101830000A20187030BC70470078704781680847EC
:10184000C173704770B51649164A174D174B096892
:1018500012682E68262414FB00F41C440025266020
:101860006260E1602161E583C4F81610C4F81A20B3
:10187000258403EB80040021D4F8980000F03EF8A2
:10188000D4F89C00002100F039F8D4F8900000F062
:1018900037F8D4F8BC00BDE87040FFF7CFBF00BFF9
:1018A000B0820008B4820008AC820008C0060020A4
:1018B00010B504464FF4807100F02AF80022A4F815
:1018C0000021A4F8022110BD018A428B8A4201D274
:1018D00008207047828B914201D200207047C08A55
:1018E0007047C188428B8A4201D202207047808BA8
:1018F000814201D204207047002070478160704708
:101900000178012903D100690021FFF7F7BF704773
:10191000002200F00BB80146002091F87420012A43
:1019200003D10022402081F874207047401810F045
:10193000030308D0C91A1FD3DB0748BF00F8012DE5
:1019400028BF20F8022D130030B414461546103974
:1019500028BF20E93C00FAD8490728BF20E90C003D
:1019600048BF40F8042D890028BF20F8022D48BF49
:1019700000F8012D30BC7047C91818BF00F8012DC0
:10198000CB0728BF00F8012D7047000001000200BE
:10199000DFF80806016B41F214324A60042300228A
:1019A000CA608B600B61DFF8F825B2F880300B75E8
:1019B000B2F98010036B09125975036BB2F88210EB
:1019C0009975006BB2F982100912C1757047000059
:1019D000F0B58BB000F00EFB00F0C8F801A80021B4
:1019E000002200230EC006C00024DFF8B805DFF88F
:1019F000AC550094016841F010010160026802F0EA
:101A000010020092002200990092036843F0020342
:101A10000360016801F002010091009900920368DF
:101A200043F001030360016801F001010091009996
:101A30000092036843F480730360016801F48071CD
:101A4000009100990092036843F0800303600168ED
:101A500001F0800100910099009201210368DFF8F4
:101A6000482543F004030360006800F00400009080
:101A70000098DFF8380501910292039401A900F063
:101A8000D5FA00F0D9FB00F0F7F800F05EF900F0AD
:101A9000DDFC02A80021002200230EC00EC00EC0F3
:101AA000012204924FF0804006220FF23854069231
:101AB000D4E90067DFF8E84420646164002041F65F
:101AC0003F71A064E1642065012208920021032097
:101AD000CDE90067A16502900391059107910991F5
:101AE00006220A9202A904F1400000F083FD0021C1
:101AF0000091019104F14000694600F0F5FF00F00B
:101B000081F901F06DF801F0C3F8DFF8A40420605A
:101B10004FF4E1310C20002260616160A260E2605C
:101B20002261A261E261204601F0F4F801F0BEF901
:101B300001F0DEF900F06BF800F069F801F07AFAD4
:101B400001F08FFA01F09EFA0021284601F032FDE3
:101B500094F890000128FBD1FFF71AFF0A212846CC
:101B600001F022FC002084F89000F1E7F0B593B07A
:101B700006A800210022002300241EC01EC01EC093
:101B800001AD002600278E46A5E8C040C0C50091E3
:101B90004FF48033DFF81C04016841F0805101608C
:101BA000006800F0805000900098DFF80C0400926C
:101BB000026842F4804202600122006800F4804022
:101BC000009006A80099069202214FF480020C9121
:101BD0000D920421A8220E910F9202210422079354
:101BE0001091119201F05AFD0F21019102220292EF
:101BF0004FF480514FF4A0520591049203940521B3
:101C000001A801F007FF01F094FF13B0F0BD00B58B
:101C100081B000220221122001F0F1FF122002F017
:101C200017F8002201212C2001F0E9FF2C2002F0FE
:101C30000FF8012204212B2001F0E1FF2B2002F0FC
:101C400007F8002203211C2001F0D9FF1C2001F01D
:101C5000FFFF01220321252001F0D1FF252001F003
:101C6000F7FF00220321062001F0C9FF01B05DF853
:101C700004EB062001F0ECBFF0B58DB004A8002104
:101C80000022002300241EC01EC0CC4CCC48206083
:101C90006D46012020610026CA48A06200278C46BC
:101CA0008E464FF4803185E8C0506160A260227694
:101CB00084F82020E26284F8302002204FF4006192
:101CC000E0610122E1606261204601F0FDFF062132
:101CD000049101220592032108914FF460220A9297
:101CE0004FF480110B9101228DF8242006968DF877
:101CF0002560079604A9204602F04AF908210491BC
:101D00000222059204A9204602F042F90921049119
:101D10000322059204A9204602F03AF90A21009113
:101D2000012203210291019203966946204601F0A7
:101D3000F6FF0D210091022201920292039669465C
:101D4000204601F0ECFF0DB0F0BDF0B58DB0684657
:101D500000210022002300241EC01EC09A4C9B4874
:101D6000206008AD0120206100269648A06200276F
:101D70008C468E464FF4803185E8C050616001206A
:101D80004FF40061E0616061A260227684F8202057
:101D9000E262E16084F83020204601F095FF0621E0
:101DA000009101220192032104914FF460220692D6
:101DB0004FF48011079101228DF8142002968DF8BE
:101DC000156003966946204602F0E2F8082100916A
:101DD000022201926946204602F0DAF809210091B8
:101DE000032201926946204602F0D2F80620012122
:101DF000089009910A9608A9204601F090FF0DB0BD
:101E0000F0BD0000F0B597B011A80021002200231A
:101E10000EC006C075A46846D4E90067CDE907671F
:101E200000241EC00EC009AD002600278C468E4639
:101E3000A5E8C050A5E8C050654C664820606160C8
:101E400041F23A202022E0600121A2604FF4807527
:101E50006161A3612561204600F070FB204600F01F
:101E600087FB062111911022129211A9204600F041
:101E700089FC0796089607A9204600F035FE6020E9
:101E80000090002202920492069201960396059613
:101E90006946204600F0FAFB04226946204600F01D
:101EA000F5FB08226946204600F0F0FB702141F264
:101EB00039220091019269460C22204600F0E6FB8F
:101EC0004FF480610A914FF40060102109900C9149
:101ED0000B950D960E96109609A9204600F04EFE21
:101EE000204602F02CFA17B0F0BD704730B501283B
:101EF00081B001460AD12D4800F072F908B902F00C
:101F0000BFFA35490120086001B030BD022806D172
:101F1000264800F065F900283CD1052005E004289A
:101F200008D1224800F05CF9A0BB01B0BDE8304008
:101F3000FEF7B0B9082807D11C4800F051F948BB9A
:101F40002649087001B030BD102808D1174800F0AC
:101F500047F9F8B901B0BDE8304002F097BA40281F
:101F600018D11F4C00224FF40041204600F03FF9E9
:101F70000A2000BF401EFCD1094D05F1800001F090
:101F800074F801224FF40041204600F030F901209E
:101F900085F8900001B030BD000000001C09002051
:101FA0008808002030380240000021100010024054
:101FB000001001404038024000700040FC09002041
:101FC000002001400100000F440A002000210140D0
:101FD0000C0B002000040140143C01403E0700208F
:101FE0000018024000000000000000000000000097
:101FF0000000000000B50C4881B0016841F4007198
:102000000160026842F480620260016841F48071FC
:102010000160032001F0E6FD042002F03DFA02F029
:1020200081F8002001B000BD003C02402DE9F04FD6
:1020300003460C464FF0000881B0C146C2467248C4
:102040007249734A0125266805FA08F505EA060E65
:10205000AE4540F0B780032606FA09F66FEA060C93
:102060006668012E18BF022E03D0112E18BF122E43
:1020700011D19E68E7680CEA060607FA09F73E43A5
:102080009E605E6826EA05056668C6F3001606FAD5
:1020900008F635435D60DD68A6680CEA050506FABA
:1020A00009F63543DD606568022D18BF122D12D187
:1020B0004FEAD80503EB85050AF01C062F6A4FF09E
:1020C0000F0B0BFA06FB27EA0B07D4F810B00BFA3C
:1020D00006F63E432E621D680CEA0506257905F0DA
:1020E000030505FA09F535431D606568ED0069D5FE
:1020F000002600964FEA980C156845F48045156057
:10210000166806F4804600960F26009D51F82C7044
:102110000AF00C05AE4027EA06063E4FBB4208BF58
:10212000002723D03C4FBB4208BF01271ED03B4FA6
:10213000BB4208BF022719D0394FBB4208BF032753
:1021400014D0384FBB4208BF04270FD0364FBB42D4
:1021500008BF05270AD0354FBB4208BF062705D068
:10216000334FBB420CBF0727082700BF07FA05F50E
:10217000354341F82C506FEA0E0C056866680CEA8E
:102180000505F70348BF4EEA050505604568666822
:102190000CEA0505B70348BF4EEA050545608568AA
:1021A00066680CEA0505F70248BF4EEA050585603A
:1021B000C56866680CEA0505B60248BF4EEA050523
:1021C000C0F80C5008F10108B8F10F0F0AF1040A29
:1021D00009F102097FF636AF01B0BDE8F08F0000CB
:1021E00000690140481E8041C043C00F704702B9DA
:1021F0000904816170470F4A136803421CBF1060D5
:10220000FFF774BE70470000003C014008380140F1
:10221000443802400000024000040240000802402E
:10222000000C02400010024000140240001802405E
:10223000001C0240143C01402DE9F04786B068467E
:102240000021002200230EC006C005917648774C7D
:102250000168774D774E784FDFF8E081DFF8E09145
:10226000DFF8E0A141F010010160026802F0100205
:102270000592002205990592036843F0200303604C
:10228000016801F02001059105990592036843F06A
:1022900080030360016801F08001059105990592B2
:1022A000036843F001030360016801F00101059137
:1022B00005990592036843F008030360016801F083
:1022C0000801059105990592036843F00403036032
:1022D000016801F00401059105990592036843F036
:1022E00040030360016801F04001059105990592E2
:1022F0000122036843F0020303602021006800F01C
:10230000020005902046059BFFF771FF002208217F
:102310002846FFF76CFF01224FF480513046FFF74B
:1023200066FF00224FF400513046FFF760FF0022A5
:1023300080213846FFF75BFF00224FF48061404662
:10234000FFF755FF01224FF400414846FFF74FFFCA
:1023500000224FF480715046FFF749FF2021009181
:102360000122002102910391019269462046FFF764
:102370005DFE08210091012201920021029103914A
:1023800028466946FFF752FE40202F4900900191F0
:102390000122029269462846FFF748FE4FF4405159
:1023A0000091012200210291039101926946304679
:1023B000FFF73CFE80210091012200210291039150
:1023C000019269463846FFF731FE4FF48061009173
:1023D0000122002102910391019269464046FFF7D4
:1023E00025FE4FF40041009101220021029103914A
:1023F000019269464846FFF719FE4FF4807100913B
:102400000122002102910391019269465046FFF793
:102410000DFE00220121172001F0F1FB172001F031
:1024200017FC06B0BDE8F0873038024000100240CB
:1024300000140240000C024000080240000002406C
:1024400000180240000402400000211036483749BD
:102450004FF4827200B5016042604FF40061C160C8
:10246000022208210261C16100234FF400720A2197
:10247000836043618261036243628362C16281B0AF
:1024800002F02EF820B101B05DF804EBFFF72DBD8E
:1024900001B000BD30B587B001A90022002300249F
:1024A0001CC10CC10068214DA8423AD120480092BD
:1024B000416941F480514161416901F480510091C9
:1024C00000990092036843F001030360016801F082
:1024D00001010091009900922021036843F002035A
:1024E00003600222006800F002000090009811488A
:1024F0000191029201210391032205210591049289
:1025000001A9FFF793FD30210191022201210391DE
:102510000292052103220591049201A90648FFF7C2
:1025200085FD07B030BD0000A40900200030014047
:1025300030380240000002400004024010B50400A0
:1025400001D1012010BD94F83D0028B9002184F884
:102550003C10204601F0E0FE022084F83D00211DE1
:10256000206800F03AF9012084F83D00002010BDF9
:1025700010B5040001D1012010BD94F83D0028B928
:10258000002184F83C10204600F065FB022084F80E
:102590003D00211D206800F020F9012084F83D0055
:1025A000002010BD0068012201F01F01036A02FA39
:1025B00001F18B430362026A11430162DFF82C10C0
:1025C00088421CBFDFF82820904203D1416C41F4BF
:1025D00000414164816801F00701062903D00168C8
:1025E00041F001010160002070470000000001403F
:1025F00000040140F0B5040081B00D4608BF012081
:1026000041D094F83D0028B9002184F83C102046C0
:1026100001F01BFE022084F83D002168DFF858011C
:102620008A6802408A60211D206800F0D6F822687E
:10263000DFF8481193689769166AA8680F40074346
:10264000A869DFF83C1147EA0027E8680F40E9690C
:102650000743286947EA0127296A47EA001747EA3A
:1026600001376868696926F0AA06064328680343AB
:1026700046EA0116936021688F6101212068066295
:1026800084F83D10002001B0F0BD000030B50446D4
:1026900081B094F83C0001280D4608BF022068D0A4
:1026A000012084F83C0002210C2A84F83D1059D8FE
:1026B000DFE802F0075858581B58585830585858F7
:1026C00044002068294600F0DAF82068816941F06A
:1026D000080181612068816921F00401816121681C
:1026E0008A69286902438A613CE02068294600F033
:1026F000F4F82068816941F4006181612068816992
:1027000021F480618161206881692A6941EA02219E
:10271000816127E02068294600F011F92068C1692D
:1027200041F00801C1612068C16921F00401C16163
:102730002168CA6928690243CA6113E020682946F2
:1027400000F02EF92068C16941F40061C161206880
:10275000C16921F48061C1612068C1692A6941EAC7
:102760000221C161012084F83D00002184F83C1061
:10277000002001B030BD0000F8BFFFFFFCFCFFFFF0
:102780000303FFFF10B5044694F83C00012801D173
:10279000022010BD012084F83C00022284F83D2074
:1027A000204600F021F930B1012084F83D000021DD
:1027B00084F83C1010BD2068C16821F04001C16060
:1027C0002068C16821F48041C160012084F83D0087
:1027D000002184F83C10002010BD30B4DFF8DC325A
:1027E0000468984218BFB0F1804F0CD0DFF8D022B7
:1027F00090421CBFB34DA84205D0B34A90421CBFC3
:10280000B24DA84210D14A6824F070041443984293
:1028100018BFB0F1804F1BD0A94A90421FBFA94DED
:10282000A842A94A904213D0A84DA8421CBFA84A6A
:1028300090420DD0A74DA8421CBFA74A904207D096
:10284000A64DA8421FBFA64A9042A64DA84203D15A
:10285000CA6824F4407414434A6924F08004144381
:10286000046098428C68C4620A68826219BF974B00
:102870009842096901630122426130BC7047F0B49B
:10288000026A520852000262066A446885690B684F
:102890008A6825F073051D4326F002061643874B10
:1028A00098421CBF894FB84207D1CA6826F0080673
:1028B0001643984226F0040602D0844B984205D174
:1028C0004B698A6924F440741C4314434460856155
:1028D000496841630662F0BC704770B4026A22F036
:1028E00010020262056A436884690A6824F4E644B7
:1028F00044EA02248A6825F0200545EA02156F4A59
:1029000090421CBF714EB04208D1CE6825F08005C0
:1029100045EA0615904225F0400502D06B4A9042E8
:1029200006D14E698A6923F44063164343EA86035D
:102930004360846149688163056270BC704770B40C
:10294000026A22F480720262056A4368C4690A68F6
:102950008E6824F07304144325F40075574A45EA41
:10296000062590421CBF594EB04208D1CE6825F4CE
:10297000006545EA0625904225F4806502D0534A59
:10298000904206D14E698A6923F44053164343EAC4
:1029900006134360C4614968C163056270BC704737
:1029A00070B4026A454E22F480520262B042046A58
:1029B0004268C3690D6823F4E64343EA05238D6842
:1029C00024F4005444EA05341CBF404DA84204D10D
:1029D0004D6922F4804242EA85124260C36149682F
:1029E0000164046270BC70470368D3F808C04A6889
:1029F00008682CF0700C42EA0C0C4FEADC0C40EA40
:102A0000CC0CC3F808C04A68402A14D0502A26D0FB
:102A1000602A3DD0702A4FD108698A68C968D3F806
:102A200008C02CF47F4C41EA0C010A4342EA002220
:102A30009A60002070470868052801D1012070477E
:102A4000186A1A6A520852001A629A69096922F0D1
:102A5000F00242EA01129A61186200207047086988
:102A600089681A6AD3F820C04FEA5C0C4FEA4C0C14
:102A7000C3F820C022F00A02D3F818C02CF0F00CE2
:102A80004CEA001CC3F818C01143196200207047BB
:102A9000086989681A6A22F010021A629A69D3F8E2
:102AA00020C022F4704242EA00322CF0A00C9A615D
:102AB0004CEA011CC3F820C0002070470000014010
:102AC0000004004000080040000C004000040140E9
:102AD000004001400044014000480140001800400F
:102AE000001C00400020004030B490F83C20012A37
:102AF00008BF022032D0012280F83C20022380F857
:102B00003D3004686568A3680A6825F070051543C0
:102B100065600268124CA24218BFB2F1804F11D01A
:102B2000104CA2421CBF104DAA420BD00F4CA24227
:102B30001CBF0F4DAA4205D00E4CA2421CBF0E4D29
:102B4000AA4204D1496823F080030B439360012219
:102B500080F83D20002180F83C10002030BC7047F8
:102B6000000001400004004000080040000C00404C
:102B700000040140004001400018004090F83C2053
:102B8000012A01D102207047012280F83C20D1F8AF
:102B90000CC08A684B682CF4407C42EA0C0C2CF484
:102BA000806C43EA0C0C0A680B692CF4006C42EA56
:102BB0000C0C2CF4805C43EA0C0C4A69C9692CF4B7
:102BC000005C42EA0C0C02682CF4804C41EA0C0CCC
:102BD000C2F844C0002380F83C3000207047000059
:102BE00070B500BF28A08AB0D0E90023CDE900234A
:102BF00002A9002000240025002671C131C1532103
:102C00001E4C1F4A6160A06063212061A0612260A8
:102C1000E1602046FFF7ACFC08B1FFF766F90095CC
:102C2000019569462046FFF75FFF08B1FFF75DF9A0
:102C3000622203926021029100220692049502A969
:102C40002046FFF723FD08B1FFF74FF9204601F0BA
:102C500076FB0AB070BD81B00068094988420BD18B
:102C6000002208480092016841F0020101600068FA
:102C700000F002000090009801B070478C0A00201C
:102C80000004004040380240000000000000000046
:102C9000D0B58CB002A80021002200230EC00EC0C7
:102CA0000EC0184819A40391D4E90067164C059189
:102CB000A2602060012204924FF6FF700F2206925C
:102CC000E060012208920320CDE900676160216184
:102CD0006161A1610290079109910F220A9202A9F4
:102CE0002046FFF787FC08B1FFF7FFF800210091AD
:102CF000019120466946FFF7F7FE08B1FFF7F5F8A6
:102D00000CB0D0BD00000140CC0A00200000000043
:102D10000000000010B5040001D1012010BD94F89E
:102D2000390028B9002184F83810204601F05CFBF6
:102D3000242084F839002068C16821F40051C16062
:102D4000204600F017F82068016921F490410161E4
:102D50002068416921F02A0141612068C16841F47D
:102D60000051C1600020E063202184F8391084F80C
:102D70003A1010BD70B5044622681169E06821F46C
:102D8000405101431161D3684448A1680340206960
:102D90000B4361690343E0690B430343D36051690B
:102DA000A06921F44071014351613D48E169B1F5E9
:102DB000004F48D182421CBF3A48824221D100F0E4
:102DC000C9FE62681921D30FA1FB0001520001F076
:102DD00037FE354EA0FB0665AA09642101FB1200EF
:102DE000C0003230304DA0FB05539809410001F47A
:102DF000F87101EB0211226800F0070040189060A2
:102E000070BD00F09DFE62681921D30FA1FB000187
:102E1000520001F015FE244DA0FB05539A096421D0
:102E200001FB1200C00032301F4DA0FB0553980972
:102E3000410001F4F87101EB0211226800F0070073
:102E40004018906070BD82421CBF1648824202D179
:102E500000F080FE01E000F073FE62681921930F1C
:102E6000A1FB0001920001F0EBFD0F4DA0FB05530B
:102E70009A09642101FB1200000132300A4DA0FBC7
:102E80000553980900F0F00101EB0211226800F0EF
:102E90000F004018906070BD00000000F369FFFF54
:102EA00000100140001401403E0AD7A310B582B0C3
:102EB00000F043FE0B4A0C4CA0FB0221080A00F074
:102EC000DFFE211D204601F0D3FE01F0C5FF0748BB
:102ED0000090231D2246012104F1080002F05CF855
:102EE00002B010BD986E1283B00700203482000833
:102EF00030B587B0002005904A4C4B484B4D0168D7
:102F000041F010010160026802F0100205920022F7
:102F100005990592036843F010030360016801F00E
:102F20001001059105990592036843F010030360B1
:102F3000016801F01001059105990592036843F0BD
:102F400010030360016801F01001059105990592D5
:102F50000121036843F010030360006800F01000D3
:102F60000590059800910291019469462846FFF763
:102F70005DF80121022202910092019469462846DF
:102F8000FFF754F804210091019401210291284691
:102F90006946FFF74BF80821009101940121029145
:102FA00028466946FFF742F810210091019401215B
:102FB000029128466946FFF739F84FF4F060002186
:102FC000009001910222029269461948FFF72EF8FB
:102FD00001220221062000F012FE062000F038FE39
:102FE00001220221072000F00AFE072000F030FE37
:102FF00001220221082000F002FE082000F028FE35
:1030000001220221092000F0FAFD092000F020FE33
:10301000012202210A2000F0F2FD0A2000F018FE31
:1030200007B030BD000021103038024000100240CF
:103030000014024010B5104C002208212046FFF772
:10304000D6F8012208212046FFF7D1F8142000BF4E
:10305000401EFCD12046BDE8104000220821FFF7A9
:10306000C6B800210548FFF79DBA01464FF47A73B0
:103070000822034801F073BA001402408C0A0020B1
:10308000A40900203E4810B53E4C2060032004F106
:103090004401606021634FF4C00000216061A160C1
:1030A000E16001204FF4A021E06120622161002055
:1030B00004F1640200216062A062E0626263A161C7
:1030C0008AB0204600F066F80021059100220692A1
:1030D00000920192029203920492012107910891B9
:1030E0000E2209926946204600F0F2F80AB010BD9F
:1030F00000682349884200D0704710B586B000228E
:10310000214800924FF40074016941F0007101619F
:10311000016901F00071009100990092036843F485
:1031200080730360016801F480710091009900923E
:103130000222036843F002030360006800F002000B
:1031400000900099114802920021039109220592F2
:10315000019401A9FEF76AFF02200290049009225F
:103160000592019401A90A48FEF760FF00220021A0
:10317000142000F044FD142000F06AFD06B010BDDC
:10318000006400401C090020303802400004024066
:103190000020024030B5040081B000F0818094F836
:1031A0003C0028B9002184F83D102046FFF7A0FF1D
:1031B000022084F83C002068016821F002010160CF
:1031C0002068026842F00102026001F035FF054606
:1031D00020684168CA0766D401F02EFF401B0B2807
:1031E000F6D3032084F83C00002184F83D1001B0A0
:1031F00030BD016821F080010160E069012820688C
:1032000001680CBF41F0400121F040010160206ADB
:103210000128206801680CBF41F0200121F0200145
:103220000160606A0128206801680CBF41F010014C
:1032300021F010010160A06A0128206801680CBF1C
:1032400041F0080121F008010160E06A01282068CE
:1032500001680CBF41F0040121F004010160A26883
:10326000E0682169024360690A436168024320689B
:10327000491E0A43C261206801684908490001608B
:1032800001F0DAFE054620684168CA0716D501F04C
:10329000D3FE401B0B28F6D3A3E7042084F83C00A0
:1032A000012001B030BD4168CA07F6D5A1690129E6
:1032B0009FD1026842F0800202609EE74068C10729
:1032C000EBD400202064012184F83C1001B030BD13
:1032D000F0B44A69DFF8B033012000FA02F218684E
:1032E00040F0010018601C6824F47C541C601868CD
:1032F0004C6A40EA04201860D443DD692540DD6152
:10330000C869B8B9D8682040D860CF68DFF87C03B6
:10331000D1F804C04E6900F51075CCEA074745F8AE
:10332000367000F511708E680F684D69C7EA064C5B
:1033300040F835C0C869012817D1D8681043D86053
:103340000F68DFF84803D1F804C04E6900F5107526
:10335000CCEA074745F8367000F511708E68CF68E3
:103360004D69C7EA064640F8356088690028586804
:103370000CBF204010435860086910B958690440D8
:103380005C610869012802D1586910435861086AD4
:10339000012802D1D8690243DA610020196849087E
:1033A00049001960F0BC70472DE9F04706460D460C
:1033B000306881684A0106D481680A0103D48168B3
:1033C000CA0040F1F18096F83D10012908BF0220A3
:1033D00000F0EE80012186F83D1096F83C20222A6C
:1033E00004D0322A06D0622A06D009E0422186F8AB
:1033F0003C1008E0522204E0722186F83C1002E002
:10340000122286F83C2081684A0148BF002404D477
:1034100081680A014CBF01240224210100F5C07219
:1034200000F5C070535803F001034350336B376805
:10343000DA68986838B907F5C07047581B6842EADF
:1034400043523A430BE007F5C07C5CF801E05B684F
:1034500040EAC300024342EA0E0207F5C070425040
:10346000306BDFF82C82027CDFF82892DFF828A28C
:1034700002F00F020261306800F5C27200F5C270FE
:1034800053581B091B014350326802F5C27302F501
:10349000C2725F58336B186907435750306B837D96
:1034A000C27D1B0443EA0263427D007D43EA02239E
:1034B00032680A440343C2F88831306B837EC27E8F
:1034C0001B0443EA0263427E007E43EA0223326821
:1034D0000A440343C2F88C31306800F5C07300F52C
:1034E000C0705A5842F00102425001F0A5FD074653
:1034F0003068DCB980680AEA0000504500F01D80A1
:1035000015F1010FF4D025B101F096FDC01B8542E5
:10351000EED2032086F83C00306834BB8021816005
:10352000002086F83D000320BDE8F087012C80686C
:1035300016D109EA00004845E2D196F83C1042292C
:1035400027D0522927D072290CBF6220012086F88B
:103550003C00002186F83D100020BDE8F08700BF48
:1035600008EA00004045CBD1E7E7012C08D14FF431
:1035700000418160002086F83D000320BDE8F0870F
:103580004FF400028260002086F83D000320BDE871
:10359000F0872220DBE7322186F83C100020002152
:1035A00086F83D10BDE8F087042186F83C10012024
:1035B000BDE8F0870A0010D190F83C20222A1FBFF6
:1035C00090F83C20422A90F83C20622A1BD090F8C8
:1035D0003C20722A13D10220704701290FD190F8A4
:1035E0003C20322A1CBF90F83C20522A0BD090F885
:1035F0003C20622A1CBF90F83C20722A03D090F82D
:103600003D20012A01D102207047012280F83D208F
:103610000B0090F83C200BD1122A05D0322A12D090
:10362000522A12D0222215E0422380F83C3013E0C7
:10363000122A04D0222A06D0422A06D009E05223B8
:1036400080F83C3008E0622204E0722380F83C30CD
:1036500002E0322280F83C200023036402685369B0
:1036600043F40F4343F001035361002280F83D20EF
:103670000029006841690CBF41F00A0141F0500186
:103680004161002070470000006600400064004077
:103690000000031000030008030000042DE9F041BE
:1036A000040082B000F03D812078DFF85C63C10740
:1036B00013D5B06800F00C00042807D0B06800F003
:1036C0000C00082841D1706841023ED53068810362
:1036D00003D56068002800F024812178880719D577
:1036E000B16811F00C0F07D0B06800F00C0008288A
:1036F00066D17068410263D43068810703D5E06801
:10370000012840F00E813168206921F0F80141EA7A
:10371000C00131602178080740F107816069BB4929
:10372000002872D00122C1F8802E01F085FC0546E8
:10373000706F810700F1F98001F07EFC401B0228C8
:10374000F6D9032002B0BDE8F0816068B0F5803F93
:1037500004D1306840F48030306011E0B0F5A02F23
:10376000306806D140F480203060316841F4803107
:1037700005E020F480303060316821F48021316030
:10378000606870B101F058FC054630688103A4D42C
:1037900001F052FC401B6528F7D3032002B0BDE8BE
:1037A000F08101F049FC05463068810395D501F0B0
:1037B00043FC401B6528F7D3032002B0BDE8F0812D
:1037C000E068924988B101220A6001F035FC0546A3
:1037D0003068810700F1D38001F02EFC401B0228E5
:1037E000F6D9032002B0BDE8F081086001F024FCA6
:1037F0000546316888078DD501F01EFC401B022864
:10380000F7D9032002B0BDE8F081C1F8800E01F0C5
:1038100013FC0546706F810740F1878001F00CFCB6
:10382000401B0228F6D9032002B0BDE8F08105282C
:10383000306F06D140F004003067306F40F0010077
:1038400005E0400840003067306F20F0040030672A
:10385000A06888B101F0F0FB074641F28938306F6B
:10386000810700F19C8001F0E7FBC01B4045F6D3C7
:10387000032002B0BDE8F08101F0DEFB074641F213
:103880008938306F810740F18A8001F0D5FBC01B79
:103890004045F6D3032002B0BDE8F08101F0CCFB37
:1038A000C01B022840F28F80032002B0BDE8F081E7
:1038B00001F0C2FB001B022840F29D80032002B0F1
:1038C000BDE8F0810020286601F0B6FB04463068B0
:1038D000810140F1948001F0AFFB001B0228F6D972
:1038E000032002B0BDE8F08101281AD07068E269B7
:1038F00000F48001914202BF00F03F01226A914230
:103900000FD147F6C071626A0140914202BF00F4D4
:103910004031A26A914202BF00F07060E16A8842C1
:103920006DD0012002B0BDE8F081207841073BD581
:10393000306C0025C1000AD400950125316C41F09E
:1039400080513164306C00F0805000900098304F0E
:103950003868C1051BD4386840F48070386001F0C5
:103960006BFB80463868C10511D401F065FBA0EB04
:1039700008000228F6D9032002B0BDE8F0813068C3
:10398000216920F0F80040EAC1003060C2E6A0687A
:1039900001287FF44CAF306F40F0010057E71DB1B4
:1039A000306C20F080503064A06940B3B16801F001
:1039B0000C01082998D00228144D83D100202866D4
:1039C00001F03AFB0746306881013FF567AFE269D5
:1039D000206A616A0243A06A400842EA8112401EDE
:1039E00042EA0042E06A42EA00627260012129660E
:1039F00001F022FB0446306881017FF559AF0020B9
:103A000002B0BDE8F08100BF00380240000047422C
:103A1000007000402DE9F04104000E4600F0868061
:103A2000514DD5F8000400F00F00B04207D285F8E0
:103A30000064D5F8000400F00F00B04276D1206891
:103A4000810712D5400703D5A96841F4E051A96068
:103A50002078010703D5A86840F46040A860A968F1
:103A6000A06821F0F0010143A9602178C8074FD573
:103A70006068012802D129688A0305E0022818BF7E
:103A8000032805D129688A0105D40120BDE8F08109
:103A900029688A074AD5A968890840EA8100A86090
:103AA00041F2893801F0C8FA0746A868616800F059
:103AB0000C00B0EB810F2BD001F0BEFAC01B4045CB
:103AC000F3D30320BDE8F0812078410705D5AA682B
:103AD000E06822F4E0520243AA602178080706D584
:103AE000A968206921F4604141EAC001A96000F0A1
:103AF00049F8AA681D491E4BC2F30312895CC840ED
:103B000018601C48006800F0C7FC0020BDE8F08188
:103B1000D5F8000400F00F008642D5D285F8006485
:103B2000D5F8000400F00F00B042CDD00120BDE870
:103B3000F08112490120086070470D480068704705
:103B40000B480D4A006813680D49C3F38222895C53
:103B5000C84070470648084A006813680849C3F31C
:103B60004232895CC84070470038024094810008A6
:103B7000C8070020C4070020083802404C00474214
:103B8000C882000830B5144C606800F00C000428AE
:103B900003D0082803D0114830BD114830BD226839
:103BA00020680023410202F03F0204D525680C4939
:103BB000C5F3881003E020680849C0F38810A1FB12
:103BC000000100F03DFF2168C1F30141491C49009B
:103BD000B0FBF1F030BD00BF043802400024F40017
:103BE00000127A002F4B19684FF6FF0200021140B5
:103BF00000F4E06008432C4908431860704730B473
:103C0000284B1C68C4F30223C3F10704052C28BF0A
:103C100004241D1D072D34BF0023DB1E012505FADA
:103C200004F4641E2140994005FA03F35B1E1A4018
:103C300011430901020003D41C48815430BC704771
:103C40001B4B02F00F021A4402F8041C30BC7047F0
:103C5000010007D4012200F01F01164B8A404009E1
:103C600043F820207047BFF34F8F0E4912480A686F
:103C700002F4E06202430A60BFF34F8F00BFFDE72A
:103C8000401EB0F1807F01D3012070470B4948608E
:103C9000F02081F8130D00228A60072008600020C0
:103CA000704700000CED00E00000FA0500E400E0C1
:103CB00018ED00E000E100E00400FA0510E000E08B
:103CC00000F000B87047000030B581B00446002510
:103CD00014B9012001B030BD206C28B9204600F095
:103CE0003EFA656484F83C50206CC10610D4206C08
:103CF00020F4885040F002002064204600F0C2F812
:103D00006564216C21F0020141F00101216400E0B1
:103D10000125002084F83C0001B0284630BD70B475
:103D200081B002460020009092F83C30012B08BF81
:103D3000022000F0A480012082F83C0007240B68D8
:103D400010680A2B12D30A3BC56803EB43039C405F
:103D500025EA0404C460C3680D688C68A5F10A06EE
:103D600006EB4606B4402343C3600FE0056903EB4E
:103D7000430304FA03F325EA0303036103690D68AF
:103D80008C6805EB4505AC40234303611F244B6859
:103D9000072B11D25B1E456B03EB83039C4025EA86
:103DA00004044463436B4D680C886E1E06EB860664
:103DB000B4402343436325E00D2B11D2DB1F056B79
:103DC00003EB83039C4025EA04040463036B4D6802
:103DD0000C88EE1F06EB8606B4402343036311E014
:103DE0000D3BC56A03EB83039C4025EA0404C462CF
:103DF000C36A4D680C88A5F10D0606EB8606B44033
:103E00002343C3625F4B984235D10868122804D11E
:103E10005D48036843F4800303600868102818BFF6
:103E2000112828D15848036843F400030360086848
:103E3000102820D15249514C0868A0FB0443DB0CE8
:103E400003EB83056D0000950098A0B10098401E1B
:103E50000090009878B10098401E0090009850B1F2
:103E60000098401E0090009828B10098401E0090D5
:103E700000980028EAD1002182F83C10002001B00F
:103E800070BC7047404A116821F4403111601368DA
:103E900041680B4313600268536823F480735360D6
:103EA0005168036941EA03215160516821F0407172
:103EB0005160536881680B435360936823F4006337
:103EC00093609368C1680B4393603049836A8B4267
:103ED00010D0936823F0706393609368816A0B43FA
:103EE0009360936823F0405393609368C16A0B43D7
:103EF000936007E0916821F070619160916821F012
:103F000040519160916821F0020191609168037EB7
:103F100041EA4301916090F82010002951680CD0CB
:103F200041F400615160516821F460415160516871
:103F3000436A5B1E41EA433101E021F400615160B4
:103F4000D16A21F47001D162D16AC3695B1E41EA72
:103F50000351D162916821F400719160916890F8E9
:103F6000303041EA43219160916821F48061916091
:103F70009168406941EA80219160704706BD3786AB
:103F8000C807002000200140042301400100000F69
:103F900070B490F83C20012A08BF022000F0BA80DB
:103FA000012280F83C2007240A6803680A2A12D3F9
:103FB0000A3ADD6802EB4202944025EA0404DC6020
:103FC000DA680D688C68A5F10A0606EB4606B4406F
:103FD0002243DA600FE01D6902EB420204FA02F2AA
:103FE00025EA02021A611A690D688C6805EB45051D
:103FF000AC4022431A611F259A6B22F440129A6347
:104000009A6B0C69641E42EA04529A639C6B4E6878
:104010000A69F61CB61A06EB8606B540AC439C63EB
:104020009C6B4E680A690D88F61CB61A06EB86066C
:10403000B5402C439C638A69394CA2429A6822F4A9
:1040400070229A600CD09C688A6914439C609C68BA
:1040500024F440149C609C68CA6914439C6003E08B
:104060009A6822F440129A604A7D002A5A6814BF66
:1040700042F4806222F480625A600A7D002A5A6803
:1040800014BF42F4805222F480525A604A68012AD6
:1040900004D01ED3032A13D009D31AE05C69240B81
:1040A00024035C615C69CA6814435C6119E09A6925
:1040B000120B12039A619C69CA6814439C6110E058
:1040C000DA69120B1203DA61DC69CA681443DC6135
:1040D00007E01A6A120B12031A621C6ACA681443B8
:1040E0001C620D4CA34211D10A68122A04D10B4A5A
:1040F000136843F4800313600968102918BF11295D
:1041000004D106490A6842F400020A60002180F8DE
:104110003C10002070BC7047002001400423014087
:1041200001000F0082B0002000900022DFF8180389
:10413000416841F480414160416801F4804100914F
:1041400000990092036843F080530360006800F018
:10415000805000900098042002B0FFF743BD30B5B6
:1041600087B069460022002300241CC10CC10068EE
:10417000DFF8D852A84233D1DFF8D4020592416962
:1041800041F480714161416901F4807105910599A3
:104190000592036843F004030360016801F0040121
:1041A000059105990592036843F0010303600168D6
:1041B00001F001010591059905920921036843F079
:1041C000020303600322006800F0020005900598D6
:1041D000A0480091019202946946FDF727FF21E073
:1041E0009D4988422FD19A480592416941F4007156
:1041F0004161416901F400710591059905920368D7
:1042000043F001030360016801F001010591059984
:104210000592036843F002030360006800F00200A7
:10422000059005988D480294402100910322019247
:104230006946FDF7FBFE0320009001900294694659
:104240008748FDF7F3FE07B030BD10B586B069466C
:104250000022002300241CC10CC10068B0F1804F73
:1042600033D17B480592016941F001010161016987
:1042700001F00101059105990592036843F00203DD
:104280000360016801F0020105910599059208217A
:10429000036843F0010303600222006800F001009C
:1042A000059005986E4800910192012104910294B5
:1042B00003946946FDF7BAFE4FF4004100910222D3
:1042C00001920294039401211FE06749884221D1A1
:1042D0005F480592416941F001014161416901F086
:1042E00001010591059905924FF44071036843F06F
:1042F000010303600222006800F0010005900598A8
:10430000009101920121029103940491694653485E
:10431000FDF78CFE06B010BD81B00068534988429D
:104320000BD100224F480092016841F00201016068
:10433000006800F002000090009801B0704730B5AE
:1043400087B069460022002300241CC10CC100680C
:10435000474DA84215D13E4805920222016841F01E
:10436000040101604021006800F0040005900598F8
:104370003848009101920221049102930393694607
:104380002EE03A4988422DD131480592016841F426
:1043900080710160026802F4807205920222059920
:1043A0000593E021036843F080030360006800F098
:1043B0008000059005982F480091019203210491F7
:1043C000029203926946FDF731FE4FF460400221EC
:1043D00000900191029103910322049269462648BC
:1043E000FDF724FE07B030BD30B587B001A900222B
:1043F000002300241CC10CC10068204DA84220D11C
:1044000013480092416941F010014161416901F096
:104410001001009100990092C021036843F002034B
:1044200003600222006800F00200009000980C482F
:1044300001910292072105910394049401A9FDF7CB
:10444000F5FD07B030BD00004038024000200140BB
:1044500030380240000802400021014000000240C4
:1044600000040240443802400000014000040140C2
:104470000004004000200240001C024000100140E7
:104480000148006800F0DEBDB00700200148006868
:1044900000F0E2BDB007002030B50F4D0F4B2A7879
:1044A00004464FF47A711868B1FBF2F281B0B0FBA8
:1044B000F2F0FFF7E5FB58B9102C09D20022214693
:1044C0004FF0FF30FFF79BFBAC60002001B030BD28
:1044D000012001B030BD00BFBC070020C80700208C
:1044E00010B5040001D1012010BD0021A16294F893
:1044F000510020B984F850102046FDF7CBFF022070
:1045000084F851002068016821F040010160626870
:10451000A168E06823680A432169024360690A438D
:10452000A169024301F40071E0690A43216A024370
:10453000A06A0A4302431A60A169606A2268090CF2
:1045400001F00401014351602068C16921F4006158
:10455000C16100206065012184F8511010BD2DE972
:10456000F043074681B078680026B0F5827F04BF2B
:10457000B8680028894615461C460BD1042687F8E2
:10458000516000942B464A46384600F08DF801B041
:10459000BDE8F08397F85000012808BF022000F022
:1045A0008080012087F8500000F046FD804697F893
:1045B0005100012818BF02266CD1B9F1000F18BFB5
:1045C000002D66D0042087F851007E65C7F838902A
:1045D000BD87FD873E63BE86FE863E647E64B96805
:1045E000B1F5004F04D13868016821F480410160C1
:1045F000386801684A0603D4016841F0400101604F
:10460000F86838BB08E0007BB96B0870B86B421CD7
:10461000BA63F88F411EF987F88F80B338688168D4
:10462000CA07F0D400F008FDA0EB0800A04204D3B4
:1046300014F1010FF0D003262CE0002CECD103265E
:1046400028E0C068B96B0880B86B821CBA63F88F29
:10465000411EF987F88F90B138688168CA07F0D495
:1046600000F0EAFCA0EB0800A04204D314F1010F13
:10467000F0D003260EE0002CECD103260AE04246DF
:104680002146384600F062F908B120207865786D3F
:1046900000B10126012087F85100002187F8501051
:1046A000304601B0BDE8F0832DE9F047054682B001
:1046B00095F85000002601280C4691461F464FF001
:1046C000010808BF022000F0388185F8508000F012
:1046D000B3FC95F85120012A824609D06868B0F5EC
:1046E000827F02BFA8680028042A01D002261DE1AB
:1046F000002C18BFB9F1000F00D00FB9012615E149
:1047000095F8510004281CBF052285F851206E65DC
:10471000C5F83890EF87AF872C63EF86AF862E649D
:104720006E64286803685A0603D4036843F04003A4
:104730000360E8680A9CB0F5006F686845D10028FE
:1047400018BF012F09D1286B2A680188D160286B16
:10475000811C2963E88E411EE986E88E002804BF8B
:10476000E88F002800F0B8802968886882070FD594
:10477000E88E002818BFB8F1000F09D0286B028816
:10478000CA60B046286B811C2963E88E411EE98609
:1047900029688868C2070DD5E88F58B1C868A96B29
:1047A00008804FF00108A86B821CAA63E88F411EA5
:1047B000A5F83E1000F040FCA0EB0A00A042CCD3CC
:1047C00014F1010FC9D00326B0E0002818BF012F53
:1047D00009D1286B2A6801781173286B411C296361
:1047E000E88E411EE986E88E002804BFE88F002885
:1047F00072D02968886882070FD5E88E002818BF14
:10480000B8F1000F09D0286B02780A73B046286B04
:10481000411C2963E88E411EE98629688868C20721
:104820000CD5E88F50B1C868A96B08704FF001082B
:10483000A86B421CAA63E88F411EE98700F0FCFBCD
:10484000A0EB0A00A04204D314F1010FCBD0032641
:104850006CE0002CC7D1032668E028688168080650
:104860005BD514F1010FF8D000F0E6FBA0EB0A00D5
:10487000A04201D2002CF0D12868416821F0E0016B
:1048800041606868B0F5827F0BD1A868B0F5004F31
:1048900018BFB0F5806F04D12868016821F040018D
:1048A0000160A86AB0F5005F09D12868016821F4A9
:1048B000005101602868026842F400520260012041
:1048C00085F8510085F850600126686D40F02000A1
:1048D00068652020686529E0DFF86410DFF864006F
:1048E0000A68A2FB00831B09DFF85C00A3FB009EA3
:1048F0004FEADE4E4FF47A7010FB0EFECDF800E06A
:104900006968B1F5827FA8D0009830B10098401E48
:104910000090296888680106F6D4A86830B9009626
:104920002968CA680092896800910098012185F879
:104930005110002085F85000304602B0BDE8F087E5
:10494000C8070020ABAAAAAA06BD378670B50546DF
:104950000C466868B0F5827F16460BD1A868B0F5A2
:10496000004F18BFB0F5806F08D12868016821F0AA
:10497000400101606868B0F5827F1ED1A868B0F57B
:10498000806F57D029688868010657D514F1010F48
:10499000F8D000F051FB801BA0421CD2002CF1D1BA
:1049A00019E000BF14F1010F44D000F045FB801B5B
:1049B000A04210D2002C3DD10DE028688168C807C4
:1049C0003CD514F1010FF8D000F036FB801BA0425B
:1049D00001D2002CF1D12868416821F0E00141604A
:1049E0006868B0F5827F0BD1A868B0F5004F18BF9A
:1049F000B0F5806F04D12868016821F040010160A2
:104A0000A86AB0F5005F09D12868016821F4005157
:104A100001602868026842F400520260012085F8B3
:104A20005100002185F85010686D40F02000686545
:104A3000032070BD28688168C807B3D4002070BD0A
:104A4000BBBBE1B1B2F5803F80F07E80022A1ED967
:104A50008C46B1FBF2F102FB11C31B0443EA104385
:104A6000B3FBF2FC02FB1C3380B240EA0343B3FB0E
:104A7000F2F002FB103240EA0C4000237047022A99
:104A800005D98446B0FBF2F002FB10C270474AB170
:104A900005D100F0010249085FEA300070470022AA
:104AA0000023704700F0DCBA0B0002000021002058
:104AB0007047904271EB030CF6D3B3F5803F2FD2D1
:104AC000F0B5B3FA83F7B1FA81F4A7F10F0E3D1BED
:104AD0005340CEF1200602FA0EF2F3415340B5F1F5
:104AE0000F0746D80F3C2C444140C4F12006A0409B
:104AF000F1414140B1FBF3F603FB1611A2FB064561
:104B0000001BA94102D2761E8018594180EA010299
:104B100021FA0EF362FA0EF200215A403046F0BD3F
:104B200030B4B1FBF3FC03FB1C11A2FB0C45001BD2
:104B3000A94103D2ACF1010C8018594130BC0246A6
:104B40000B46604600217047B2F1807F65D3F0B517
:104B5000B2FA82F7B1FA81F4C7F10F063D1B22FACF
:104B600006F307F1110EF24120355A40B5F10F0757
:104B7000B8D94140C4F12006A040F1414140B1FB09
:104B8000F3FC03FB1C11A2FB0C45001BA94103D243
:104B9000BCF1010C801859410F2F12D30F3FC903EC
:104BA00041EA5041B1FBF3F603FB1611A2FB0645A7
:104BB000D4EBC030A94102D2761E8018594146EA92
:104BC000CC3C07B34140C7F12006B840F141414019
:104BD000B1FBF3F603FB1611A2FB0645001BA9412E
:104BE00002D2761E8018594180EA010221FA0EF3A2
:104BF000C7F1200462FA0EF20CFA07F05A402CFAC0
:104C000004F13043F0BD80EA010221FA0EF30021E5
:104C100062FA0EF260465A40F0BD8C46B1FBF2F1EA
:104C200002FB11C31B0243EA1063B3FBF2FC02FB5D
:104C30001C331B024CEA002043EA1063B3FBF2FC76
:104C400002FB1C331B024CEA002043EA1063B3FB57
:104C5000F2FC02FB1C331B024CEA002043EA106307
:104C6000B3FBF2FC02FB1C324CEA0020002370472D
:104C70002DE9F0430446664E81B00D4606F1E8008A
:104C800000F0EFF96348644FDFF89081DFF890910E
:104C9000C6F8C4000021634886F87C10C6F8BC0042
:104CA00000F0E4F900F04EFA384600F07DFAC6F85C
:104CB00094705D485D4FC6F89000384600F088FA61
:104CC000D6F890103B464A46404600F0DEFAD6F849
:104CD0009410D6F89000C6F8B0803A4600F0DCFA9E
:104CE000484600F0EBFADFF84881DFF8489140468B
:104CF00000F0B6FB484600F0B3FB4F484F49C6F8FA
:104D0000A000C6F8A810C6F89880C6F89C904C4839
:104D10004C49DFF83481C6F8A400C6F8AC104B4803
:104D2000C6F8B40000F0A6FB4948D6F8B410C6F89F
:104D3000C000C0F81011C0F80C61404600F0A7FB9D
:104D40004448C6F8C800C6F8B88000F0B3FB00209D
:104D5000FCF778FD012086F82400D6F8900000F0DA
:104D6000B1FB3061D6F8900000F0ACFB009006F18A
:104D7000CC01BDF80200B082C6F88C103346D6F8DC
:104D8000902006F1E80106F1CC0000F0A6FBD6F871
:104D9000900000F0ACFB0146D6F88C00002200F039
:104DA000A9FBD6F88C00206037640122D6F8941055
:104DB000D6F89800B162F0620020D6F89C103163FA
:104DC0007063F0637064B06406F1E800D6F8BC105C
:104DD000B1633065D6F89010D6F8B400F164B065D0
:104DE0000020D6F8B810716530660021F165B06614
:104DF000F06630677067B067D6F8C010716606F16C
:104E00002801296086F87C2001B0BDE8F08300BF4E
:104E1000C006002018040020400100209403002058
:104E2000E00200206402002030020020180300206D
:104E300090010020E00100205C060020000000201E
:104E40000806002020000020B0030020D803002026
:104E50002C0000200004002070B4484881B04FF4BA
:104E6000903101604FF40052026001604FF48043C2
:104E7000016800914FF4A031009A01600360016065
:104E80002025016800914FF4C031009A01604FF471
:104E9000004202600160802603680093009C384B4A
:104EA000C0F80034C0F80054C0F800344025D0F8F1
:104EB00000340093009C334BC0F80034C0F8005419
:104EC000C0F80034D0F800440094009D2E4CC0F887
:104ED0000044C0F80064C0F800440825D0F800047D
:104EE0000090009C29482A4CC0F80044C0F80054A7
:104EF000C0F80044D0F800540095009E01600260A4
:104F00000160016800914021009A03600160036024
:104F100008220368009301230099C0F80048C0F8F4
:104F20000028C0F800480224D0F8001800914FF083
:104F30000111009AC0F80014C0F80034C0F8001441
:104F4000D0F800240092009B124AC0F80024C0F858
:104F50000044C0F80024D0F8002400920122009BF5
:104F6000C0F80018C0F80028C0F80018D0F80008F1
:104F70000090009901B070BC704700BF1C1C02403B
:104F80002000010040000100800001001C000240E0
:104F900008000100020001002DE9F04FDFF85490F5
:104FA0000D4616461F46C9F8B09083B01249DDF889
:104FB000308091E80C5C89E80C5C0446DFF83CA08A
:104FC000504600F09EFA0E49D9F8B0000D4B0E4A3B
:104FD0000091CDF80480514600F096FAD9F8B0005F
:104FE00000943B463246294600F0B0FA03B0BDE8D3
:104FF000F08F00BFD4070020800B0020CC040020DD
:10500000D18200086B160008E97C0008094908886D
:1050100010B10A88501E08804A88022A02D34888A4
:10502000421E4A808888022802D38888421E8A80CD
:10503000704700BFCC07002001484068704700BFA0
:10504000BC07002010B504460321206800F08AFA4E
:10505000012808BF207610BD0068072100F082BA41
:1050600070470021017041808180704770B4856F66
:10507000AC682A686B68266876087600266095F822
:10508000901031B16FF080062661E16841F0800137
:10509000E160616941F00101616195F88C100229BC
:1050A00010D195F88D10012904BF95F88E100329B1
:1050B0000BD1012525630325616941F0010161617F
:1050C000256302E090F8461019B9B0F87010491E37
:1050D00061624FF48011194E194DB44205D12C680C
:1050E00044F001042C600C4605E02E6846F00206F0
:1050F0002E604FF4F01484666FF00405946844F059
:10510000010494609C6844F001049C60156054683C
:1051100044F080045460D46A24F47004D462946B24
:1051200024F4401494639A6B22F440129A63C1668B
:105130000021A0F84E1070BC704700BF0000014075
:105140000C2004E01648174981B00268D20712D437
:10515000036843F001030360026802F00102009259
:10516000009A0B6943F001030B610168490849008B
:10517000016001B0704708680A6822F0700242F0CE
:1051800020020A6000F070000A6942F001020A6120
:105190000B6823F070031843086001B0704700BF2C
:1051A0004038024004000040018842888180C2806B
:1051B000018C826B41844263016BB0F84220C16272
:1051C000A0F84020C18F81870021816081627047F3
:1051D00070B402460021106A41624FF0FF33B2F80A
:1051E0006E10B3FBF1F19166B2F86C30C3EB0311B2
:1051F0008900516200F1180392F877101C680905C4
:1052000024F0F00444EA11441C6092F877101C6802
:10521000090524F4704444EA11241C606FF0010174
:105220000161C36843F00103C3600023016841F0DA
:105230000101016092F87500002824DD10F00301DF
:1052400000F0098002F128050024DEB25B1C45F85D
:105250002640491EF6D1800800F0158002F128048E
:105260000021DDB244F825105B1CDDB244F82510A6
:105270005B1CDDB244F825105B1CDDB25B1C44F8FE
:105280002510401EEAD170BC7047016042600021C9
:1052900083608173C17370470161426190F82A1085
:1052A0000170B0F92C20B0F92E10120442600904EC
:1052B000002281604280C2608261704700F0C2B902
:1052C00080ED0B0A704780ED0D0A704781877047AB
:1052D000A0F8401070470000F0B581B004462DEDF5
:1052E000028B88B002A80022C0E9002204AD06A803
:1052F000C5E90022C0E90022CDE90022A06AD4ED70
:105300000B0A00EE101AB8EEC00A091A20EE200AA5
:1053100001EE101AB8EEC11AD4ED0D0A21EE208A62
:10532000DFED4D0AB4EE600AF1EE10FAA8BFB1EE5F
:10533000080A08DAB9EE081AB4EE410AF1EE10FADA
:1053400048BFB0EE410AB4EE608AF1EE10FAA8BF91
:10535000B1EE088A08DAF9EE080AB4EE608AF1EED6
:1053600010FA48BFB0EE608A02A904A8FAF79AFFC3
:1053700006A9B0EE480A6846FAF794FF0798069B1C
:1053800036499DED001ADDED010A9DED050AC0EBE1
:10539000C00201EB8200C3EBC30501EB8501029D56
:1053A000039AA38F01EB850601EB8207D6ED001A65
:1053B00097ED002A21EE211A00EE821ADDED041A83
:1053C0009DED002A00EB850621EE211AD6ED001A8C
:1053D000B4F8406000EB820762EE211A97ED002AD4
:1053E00040EE821A01EE801ABDEEC11A11EE105A7B
:1053F00013FB05F3A4F844309DED001A029B01EB6A
:10540000830501EB8201D5ED311A91ED312A21EEB0
:10541000211A00EE821ADDED041A9DED002A00EB40
:10542000830321EE211AD3ED311A00EB820062EEE4
:10543000211A90ED312A40EE821A01EE801ABDEE5B
:10544000C10A10EE101A16FB01F1A4F8461008B0BC
:10545000BDEC028B01B0F0BD0100C0401876000821
:10546000018842888180C2800022018C4184826050
:105470008262704710B5044604F10C00FBF7D2FFBE
:1054800084F826002046BDE8104000F0F2B810B5C0
:105490000446207848B9201DFBF7C4FF84F8260095
:1054A0002046BDE8104000F014B9618A2182002036
:1054B000E08210BD002181604160C1600161012175
:1054C0004161704781B0B0F92E10ADF80010008E28
:1054D000ADF80200009801B0704701604260002101
:1054E00083600173C1810182C18201767047B0F986
:1054F0002C00704701230373C181C2820376437677
:10550000704700F0E9B80000F0B581B004460846E5
:10551000069F0799C4F8A810A06115460849094AD2
:1055200000911E46084B214600F0EBF8E56126622B
:105530006762204601B0BDE8F04000F0EDB800BF62
:10554000D9820008DD8200083557000881B0DDF8F7
:1055500004C0017182600021C3600175C0F810C0F1
:1055600001B0704710B502780024142A0ED8DFE885
:1055700002F01821572D475557595B610D0D0B2728
:10558000292B3739414E3F000A0057D003291CBF51
:105590000129072903D000228021FCF738F9204691
:1055A00010BD0A46032A49D0012A45D101240170C1
:1055B000204610BD072918BF0D293FD00E2934E021
:1055C0000E2918E00F2916E0022914E0072918BF58
:1055D000102933D0042918BF11292FD0012924E024
:1055E000112908E0122918BF072927D014291CE027
:1055F000122900E0042913D101240170204610BDB6
:105600000A46132A06D101240170204610BD0A461D
:10561000042A13D0072A11D0052A06E006290DD046
:10562000072902E0082900E00929AFD1012401700F
:10563000204610BD0A0001D00C2AA7D10124017018
:10564000204610BD002101708180C1808181C1810F
:1056500041820170016241620185018680F82C104F
:1056600080F82D1080F8321080F83310C28EC28579
:10567000704730B4418B828B5218018B5208002343
:1056800001B3016A9CB221F814205B1C048B9DB20B
:10569000A54217D29CB221F814205B1C048B9DB24A
:1056A000A5420FD29CB221F814205B1C048B9DB242
:1056B000A54207D29CB221F814205B1C048B99B23E
:1056C000A142DED300218280C28080F8251030BC48
:1056D00070470021018270470021418201754175A8
:1056E00080F8961080F8971080F8981080F899103C
:1056F00080F89A1080F81B1180F81C1180F81D1199
:10570000704781B030B1DDF804C001604260836051
:10571000C0F80CC001B0704710B50446A069616ABA
:105720008847802084F8AC00216AA069BDE8104059
:1057300008470000F0B589B004460F461546002022
:105740007A091E468DF800000BD0521E002120461B
:1057500000F0B2FA18B90B208DF8010094E207F0BE
:105760001F07122F00F28D82DFE817F08E02130060
:10577000AA0074018B028B027E01C801ED012F0289
:1057800039024A025C02DD018B028B028B028B0222
:105790008E022978052092298DF8010000F28C8074
:1057A000DFE801F04A8A8A528A5D5D5D5D5D5D5D7C
:1057B0005D5D5D5D67678A8A5D5D5D5D5D8A8A8A24
:1057C00059598A8A8A8A8A8A8A8A8A8A8A8A8A8A9B
:1057D0008A8A8A8A8A8A8A8A8A8A8A8A8A8A8A8A29
:1057E0008A8A8A8A8A5D8A8A8A8A6767678A8A8AAF
:1057F0008A8A8A5D8A8A8A5D5D5D5D5D5D5D8A6794
:105800008A8A8A8A8A5D8A8A5D5D8A8A8A8A8A8A7F
:105810008A8A8A8A8A8A8A8A5267676767678A8ACF
:105820008A67678A8A8A8A8A678A5D5D5D77777701
:10583000775D5D77775D5D006A780021204600F036
:105840003BFA8DF800001FE26A78204600F034FA37
:105850008DF8000018E201218DF8001017E26A7837
:10586000A87802EB0022204600F026FA8DF800000E
:105870000AE26878AA782B7900EB0222E87802EB3A
:10588000004202EB0362204600F016FA8DF8000099
:10589000FAE16878AA7800EB0223E8782A7903EB2A
:1058A000004303EB0263019308469DED010A00F0FB
:1058B000F5FA8DF80000E7E102218DF80110E3E12F
:1058C0002978032288298DF8012000F2DD81DFE8A4
:1058D00011F08900A50089008900A50097009700B4
:1058E0009700970097009700970097009700970000
:1058F00097009700970097009700970097009700F0
:1059000097009700970097009700DB01DB01A50047
:105910009700970097008900DB01DB01DB01DB01C9
:10592000DB01DB01DB01DB01DB01DB01DB01DB0197
:10593000DB01DB01DB01DB01DB01DB01DB01DB0187
:10594000DB01DB01DB01DB01DB01DB01DB01DB0177
:10595000DB01DB019700DB01DB01DB01DB01A500E3
:10596000A500A50097009700970097008900A50063
:10597000970097009700970097009700970097006F
:105980009700970097008900A500DB01970097001A
:10599000970097009700DB01DB01970097008900D3
:1059A0008900A500A500A500A500A5008900970015
:1059B0009700A500DB01970097008900A500A500CE
:1059C000A500A500A500A500A500A500A500A500AF
:1059D000A5008900DB018900B300B300B300970084
:1059E000970097006A46204600F0B4FA01909DF8AF
:1059F0000000012840F04881012301AAF02152E172
:105A00006A46204600F0A6FA01909DF800000128A1
:105A100040F03A81022301AAF02144E16A4620467F
:105A200000F098FA01909DF80000012840F02C81C8
:105A3000042301AAF02136E16A46204600F08AFAE2
:105A400001909DF80000012840F01E81042301AA66
:105A5000F02128E1297807228DF80120204600F066
:105A600063FC8DF800000FE101A800210022002353
:105A700000252EC02EC0D4F8A8201278092A01A82B
:105A800022D0C2705FF001010DF10703D4F8A82005
:105A9000525C092A18D05A54491CD4F8A820525CE8
:105AA000092A11D05A54491CD4F8A820525C092A5A
:105AB0000AD05A54491CD4F8A820525C092A03D0B1
:105AC0005A54491C1C29E1DDD4F8A820531D5D5C03
:105AD0008DF80450D4F8A8200A44D3794370D4F840
