:020000040800F2
:10000000D00C00209D010008A5010008492300082C
:10001000A9010008AB010008AD01000800000000C4
:10002000000000000000000000000000AF01000818
:10003000B101000800000000B301000831450008CC
:10004000B7010008B7010008B7010008B7010008B0
:10005000B7010008B701000861030008B7010008F4
:10006000B7010008B7010008B7010008B701000890
:10007000B7010008B7010008B7010008B701000880
:10008000B7010008B7010008DD020008B701000849
:10009000B7010008B7010008B7010008B701000860
:1000A000B7010008B7010008B7010008B701000850
:1000B000B7010008B7010008B7010008B701000840
:1000C000B7010008B7010008B7010008B701000830
:1000D000B701000865580008B7010008B70100081B
:1000E000B7010008B7010008B7010008754600080D
:1000F0009D460008B7010008B7010008B7010008D5
:10010000B7010008B701000839460008B701000828
:10011000B7010008B7010008B7010008B7010008DF
:10012000B7010008B7010008B7010008B7010008CF
:10013000B7010008B7010008B7010008B7010008BF
:10014000B7010008B7010008B7010008B7010008AF
:10015000B7010008B7010008B7010008B70100089F
:10016000B7010008B7010008B7010008B70100088F
:10017000B7010008B7010008B7010008000000003F
:10018000B7010008B7010008DFF80CD000F068F8EC
:1001900000480047F9580008D00C00200648804766
:1001A00006480047FEE7FEE7FEE7FEE7FEE7FEE75C
:1001B000FEE7FEE7FEE7FEE7E145000889010008EB
:1001C0002DE9F05F0546002092469B46884606468C
:1001D000814640241BE0284641464746224600F01F
:1001E0002FF853465A46C01A914110D3114618466B
:1001F000224600F016F82D1A67EB01084F462246FA
:100200000120002100F00DF817EB00094E41201EDF
:10021000A4F10104DFDC484631462A464346BDE8E6
:10022000F09F202A04DB203A00FA02F100207047F8
:100230009140C2F1200320FA03F319439040704724
:10024000202A04DB203A21FA02F00021704721FA2B
:1002500002F3D040C2F12002914008431946704792
:10026000064C074D06E0E06840F0010394E8070003
:1002700098471034AC42F6D3FFF78AFF9461000828
:10028000B461000870B58C1810F8015B15F0070315
:1002900001D110F8013B2A1106D110F8012B03E01F
:1002A00010F8016B01F8016B5B1EF9D12B0705D427
:1002B0000023521E0DD401F8013BFAE710F8013B70
:1002C000CB1A921C03E013F8015B01F8015B521E8C
:1002D000F9D5A142D8D3002070BD000009480168BB
:1002E00011F0040F05D0016821F00C01016004F049
:1002F0004FBBD0F8001221F00C01C0F8001204F03E
:1003000047BB00000020014010B4024608460FFA27
:1003100081FC1CFB0CF40B1413FB03411488644395
:100320008C4224BF10BC704792F8B240C4EB1161FC
:10033000C9B202EB41018A8810BC0CFB02F14FEA02
:10034000E17C01EB5C41C91361F30F0003FB02F197
:10035000CA1701EB5241C91361F31F4070470000F7
:100360000448016811F0010F08BF704701210160C6
:1003700005F032B9143C0140002190B14378017876
:1003800000221944002B09D900EB020C521C9CF8E6
:1003900002C0D2B2614489B29342F5D801EB112078
:1003A000C1B208467047002141820175417580F84D
:1003B000961080F8971080F8981080F8991080F8BF
:1003C0009A1080F81B1180F81C1180F81D117047DD
:1003D000DDF800C0002818BF80E80E10704700004C
:1003E00000EB400101EB001210B5084901EB42049B
:1003F00094F82410002918BF10BD054951F82000B9
:1004000003F028FFE083208210BD00005407002085
:100410008805002010B5044600EB440000EB0412F0
:100420001248002100EB4202114811605160D16076
:100430001161D183C2F81610C2F81A10118450F855
:10044000240002F086FE0B48002150F8240002F040
:1004500080FE094850F8240003F02AFF074850F8AE
:100460002400BDE8104002F0FFBF00005407002048
:10047000900500209405002088050020A00500209C
:10048000704770B50D460446B0F99A1090F849309F
:10049000C26A0020002B53D0926AB4F8B0309A425E
:1004A00024BFE081288045D2E1810A0041D0A1F536
:1004B000FE43FF3B08BFB4F8B2003AD094F8C7201F
:1004C000012A08BFA4F8AE000ED0B4F8AA20A4F800
:1004D000AC20A388D21A12B2A4F8A820B4F8C43071
:1004E00092FBF3F2A4F8AE2094F8A320012A14D1D1
:1004F00094F84D3094F82620934238BFA4F8A41005
:1005000009D3D4F89C1091FBF2F2D4F8B41091FB0B
:10051000F2F1A4F8A41084F8A300B4F9A400618B4C
:1005200000EB8000400048436278E169514390FB52
:10053000F1F028802946204603F05CFE014604E0E5
:10054000E2782270E081002128802888A081084676
:1005500070BDB0F90E10B0F90420A1F5FE43FF3BC9
:1005600011D0B0F8AA300B44A0F8AA30B0F8AC30E3
:100570000B44A0F8AC30B0F8AE300B441A44828083
:10058000A0F8A01003E0B0F8A01011448180B0F9E9
:1005900004007047C26AD16821F00201D1600021D5
:1005A00080F84A1080F84B10012380F849304182CE
:1005B00080F84C1080F84D1080F84E10A0F8AE1066
:1005C00080F8A23080F8981080F8A3100170B0F87D
:1005D000B03093625162116841F001011160D1683D
:1005E00041F00201D16000F09FB8000070B4C38AEE
:1005F0004278B0F814C053430CFB02F292B24FF6AB
:10060000FF7C0CEA4202D0F828C01B04C16A4FEA02
:100610001C449B0CA0F8C24008BF962306D003EBF5
:1006200043035B0042F21075B5FBF3F3A0F8C03052
:100630009BB263434FF47A7493FBF4F3A0F8B030A9
:100640001B04C0F8B830354BA0F8B220A3FB0CC394
:10065000B0F81AC09B08B3FBFCF403EB83035B0008
:10066000B3FBF2F2C5696C43C0F8B440C0F8BC20DB
:1006700090F8C620838C0CFB02F2B2FBF3F2521E00
:10068000A0F8C420012280F8492090F8482001F108
:10069000180C1305224A127862441468DFF884C0EB
:1006A000F0269CF800509CF800C006FA05F51B0CDB
:1006B000AC4303FA0CF323431360B0F8B0208A6212
:1006C0004A6942F001024A6100220A610B6843F064
:1006D00004030B60CB6843F00203CB60CB6843F0AC
:1006E0000103CB604A620A6A42F001020A620A68A8
:1006F00042F001020A6090F826200021002A9CBFE7
:1007000070BC704700EB810C491CD0F8B830C9B2FE
:10071000CCF850308A42F5D870BC7047ABAAAAAA70
:10072000706100087761000870B4D0E90C31D0E93D
:100730000F4290F82060D0F844C0856BA6B12D69B7
:10074000AC430CBF0124002484F001041269A4000E
:100750003CEA02020CBF0122002244EA42021B6969
:10076000994316D0002115E012693CEA020214BF39
:10077000002201229200D5F810C034EA0C0C0CBF04
:100780004FF0010C4FF0000C42EA4C021B699943F8
:10079000E8D10121114380F8A610C9B2072926D259
:1007A000DFE801F0250A151020041B00418C41F2FE
:1007B0005552114481801DE0418C43F6FF72114473
:1007C000818017E0418C46F6AA22114403E0418C57
:1007D000A1F5D441AA3981800CE0418CA1F57C516E
:1007E000FF39F8E7418CA1F5A8515539F3E700210D
:1007F00080F849108188A0F8AA1070BC70470000EA
:100800002DE9F00790F84910C26A002900F06681CE
:1008100090F8A61090F9A25090F82030EBB1D0E9F2
:100820000E73D0E91046D0E90C8C3F69BB430CBF76
:100830000123002383F0010324699B0036EA0404AA
:100840000CBF0124002443EA4403D8F810403CEADA
:10085000040C1CD04FF0000C1BE0D0E91084D0E950
:100860000E37D0E90C6CD8F8108034EA080414BFB5
:1008700000240124A4001B6937EA03030CBF0123F1
:10088000002344EA430334693CEA040CE2D14FF00C
:10089000010C43EA0C0380F8A63003F0FF094FF087
:1008A000FF34660C012342F6AA2745F255584FF053
:1008B000000CB9F1070F67D2DFE809F066133122A7
:1008C00055044200042908BF80F8A2305AD00129FB
:1008D0005CD180F8A240418C01EB0701A0F8AA107E
:1008E00054E0052902D0032905D04FE080F8A2305A
:1008F000418C3944F2E780F8A240418C4144EDE755
:10090000012902D0022905D040E080F8A230418CB4
:100910004144E3E780F8A240418C3144DEE70329FB
:1009200002D0062905D031E080F8A230418C314454
:10093000D4E780F8A240418CA1F5AA415539CDE712
:10094000022902D0042907D020E080F8A230418C8F
:10095000A1F5AA415539C1E780F8A240418CA1F523
:100960002851AA39BAE7062905D0052908BF80F819
:10097000A24007D00AE080F8A230418CA1F52851AE
:10098000AA39ABE7418CA9E780F849C090F9A210D9
:10099000A94205D080F84DC080F898C080F8A330F7
:1009A00090F8C710012904BFB0F8AA10818090F810
:1009B0004C1001B390F84D1090F82640A14204D29B
:1009C00090F84D10491C80F84D10516B8CB2916A13
:1009D00090F84E5089B290F84E7004EB0545E7B19F
:1009E000491C89B290F84B406943002C18BF80F82D
:1009F0004BC007D027E090F84C10491C80F84C10F1
:100A0000506B6BE0946AB0F8B050AC421BD2946A61
:100A1000641C946280F84B3015E090F84A702FB156
:100A2000891C89B2694380F84AC00CE0491C89B22C
:100A30006943B4F5AA4F06D2946A24B1946A641E3D
:100A4000946280F84A30D0F8BC208A4284BFA0F873
:100A50009A6080F8A3C03FD890F89840D0F89C20C6
:100A600000EB8404246D121BC0F89C20D0F8B82041
:100A7000914208D390F9A240624390F8984000EB6D
:100A80008404226511E090F8982000EB8202116541
:100A900090F8982090F9A24000EB82024C43146534
:100AA000D0F89C202244C0F89C20D0F8B420B2FB9F
:100AB000F1F190F9A2205143A0F89A1090F8981003
:100AC000491CC9B280F8981090F82620914208BFBE
:100AD00080F898C080F8A33080F84EC0BDE8F007D9
:100AE0000020704770B50446C16A90F8490000289C
:100AF0003BD094F84E00401C84F84E00886A4FF4B6
:100B00007A71401C4843B4F8C010B4F8C220514375
:100B1000B1FBF0F094F84E1080B2814225D300254D
:100B2000E5812046FFF700FE84F84E5084F84C50D3
:100B300094F82610002000290BD900BF04EB800296
:100B4000D4F8B8101165401C94F82610C0B2814248
:100B5000F4D884F84D50A4F89A5084F89850D4F8FA
:100B6000B800C9B24843C4F89C00002070BD000022
:100B700010B490F83C20012A02BF022010BC70473C
:100B8000012280F83C200A680723D0F800C0092A17
:100B900018D9DCF80C400A3A02EB420203FA02F2DE
:100BA00024EA0202CCF80C200B788A680A3B03EB9B
:100BB000430302FA03F30268D2F80CC043EA0C03C1
:100BC000D36015E0DCF8104002EB420203FA02F2B7
:100BD00024EA0202CCF810200B788A6803EB430366
:100BE00002FA03F30268D2F810C043EA0C0313615F
:100BF0000268936B23F4401393630268936BB1F81C
:100C000010C05B4C04EB0C5C43EA0C0393630A7961
:100C10000B7CD21AD21C02EB82021F239340026883
:100C2000D2F838C02CEA030393630A790B7CD21AFA
:100C30000B88D21C02EB82029BB293400268D2F86E
:100C400038C043EA0C0393638A696FF47023DA4275
:100C50000268936823F4702393600268936808BF66
:100C600023F440130FD0D1F818C043EA0C0393606B
:100C70000268936823F44013936002689368D1F884
:100C80001CC043EA0C0393604A7D002A0268536843
:100C900014BF43F4806323F4806353600A7D002A09
:100CA0000268536814BF43F4805323F480535360A5
:100CB0004A68012A1BD0022A26D0032A026830D0B3
:100CC000136A6FF30B0313620268136AD1F80CC046
:100CD00043EA0C031362284BD0F800C0254A9C4518
:100CE00004BFD1F800C0BCF1120F2CD125E002687E
:100CF00053696FF30B03536102685369D1F80CC059
:100D000043EA0C035361E6E7026893696FF30B0350
:100D1000936102689369D1F80CC043EA0C039361B4
:100D2000D9E7D3696FF30B03D3610268D369D1F8B4
:100D30000CC043EA0C03D361CDE7D2F804C04CF4F5
:100D4000800CC2F804C0D0F800C09C4508D10968E6
:100D5000102918BF112903D1516841F400015160D5
:100D60004FF0000180F83C1010BC084670470000AE
:100D70000000F0FF002301400020014030B482B0A9
:100D80004FF0000CCDF804C090F83C20012A01BFC0
:100D9000022002B030BC7047012280F83C200A6873
:100DA00007230468092A14D9E5680A3A02EB4202CB
:100DB00003FA02F225EA0202E2600B788A680A3B33
:100DC00003EB430302FA03F30268D4682343D360BE
:100DD00011E0256902EB420203FA02F225EA02025F
:100DE00022610B788A6803EB430302FA03F302687B
:100DF0001469234313614A681F23072A16D2046823
:100E0000656B521E02EB820203FA02F225EA02022D
:100E100062630B790A885B1E92B203EB830302FACA
:100E200003F30268546B234353632DE004680D2AD7
:100E300015D2256BD21F02EB820203FA02F225EAD9
:100E4000020222630B790A88DB1F92B203EB830351
:100E500002FA03F30268146B2343136314E0E56A98
:100E60000D3A02EB820203FA02F225EA0202E26282
:100E70000B790A880D3B92B203EB830302FA03F36A
:100E80000268D46A2343D362254B0468234A9C42F8
:100E900004BF0C68122C03D1546844F480045460DD
:100EA00004689C422FD10B68102B18BF112B2AD13C
:100EB000536843F4000353600968102923D119498A
:100EC000194A0968B1FBF2F101EB81014900019176
:100ED000009118D0B1F1004F1BD20029D8BF0021DA
:100EE00005DD11F0010102D0019A521E0192009A13
:100EF000491C521C914206DA019B891C5B1E5B1E39
:100F000001939142F8DB80F83CC002B0002030BC75
:100F100070470199491E0191FCD1F4E7002301407B
:100F200000200140D405002040420F0070B50400AD
:100F30004FF0000504BF012070BD206C002628B9C9
:100F4000204600F0ADF8666484F83C60206C10F038
:100F5000100F18BF012503D084F83C60284670BDEF
:100F6000206C20F4885040F0020020644948416819
:100F700021F440314160416862681143416020685A
:100F8000416821F48071416020684168226941EA2A
:100F9000022141602068416821F040714160206871
:100FA0004168A268114341602068816821F40061B2
:100FB000816020688168E26811438160A06A6FF0F7
:100FC0007061C8422068816821F07061816020688A
:100FD000816808BF21F040510BD0A26A11438160A3
:100FE0002068816821F04051816020688168E26A50
:100FF000114381602068816821F0020181602068CE
:101000008168227E41EA4201816094F82000002834
:101010002068416808BF21F400610ED041F40061EE
:1010200041602068416821F4604141602068416866
:10103000194B626A03EB4232114341602068C16A76
:1010400021F47001C1622068C16AA28B134B03EBCB
:1010500002521143C1622068816821F400718160ED
:101060002068816894F8302041EA4221816020683C
:10107000816821F48061816020688168626941EA49
:10108000822181606664206C20F0020040F0010043
:10109000206461E70023014000E0FFFF0000F0FF53
:1010A0002DE9F04186B00024009401940294039449
:1010B000049402683848394903254026384FDFF840
:1010C000E480A2F18043B3F590332DD0364B9A42A1
:1010D0001CBF06B0BDE8F081026842F400720260F5
:1010E000006800F400700590086840F00100086096
:1010F000086800F001000590086840F002000860F0
:101100000868694600F002000590CDE900653846A0
:1011100000F04EF80095CDE901546946404600F0D4
:1011200047F806B0BDE8F081026842F480720260C0
:10113000006800F480700590086840F004000860C2
:10114000086800F004000590086840F0010008609D
:10115000086800F001000590086840F0020008608F
:101160000868694600F0020005900920CDE90005F5
:101170000E4800F01DF80096CDE901546946384646
:1011800000F016F80095CDE901546946404600F09C
:101190000FF806B0BDE8F081443802403038024014
:1011A000000002400004024000210140000802400B
:1011B0002DE9F84F0022884EDFF820E201274FF09A
:1011C000030A4FF00F0800BF0B6807FA02F4234030
:1011D000A34240F0FB80D1F804C0BCF1020F18BF5D
:1011E000BCF1120F15D14FEAD20C00EB8C0CDCF8DD
:1011F00020504FEA42794FEAD96908FA09FB25EAFB
:101200000B05D1F810B00BFA09F949EA0505CCF83D
:101210002050D0F800904FEA420C91F804B00AFA3E
:101220000CF50BF0030B29EA05090BFA0CFB4BEA52
:101230000909C0F80090D1F80490B9F1010F18BF66
:10124000B9F1020F05D0B9F1110F18BFB9F1120FA2
:1012500018D1D0F80890D1F80CB029EA05090BFA9A
:101260000CFB4BEA0909C0F80890D0F8049029EA71
:10127000040491F80490C9F3001909FA02F949EA43
:1012800004044460C46824EA05048D6805FA0CFC73
:101290004CEA040CC0F80CC0D1F804C01CF0805F0C
:1012A0007ED0D6F800C04CF4804CC6F800C0D6F80A
:1012B00000C00CF4804CCDF800C022F0030C0CF1FF
:1012C000804505F59835D5F808C84FEA82744FEA8D
:1012D000147408FA04F92CEA090CA0F18049B9F554
:1012E000003938D0A0F18049B9F5013908BF4FF075
:1012F000010930D0A0F18049B9F5023908BF4FF09B
:10130000020928D0A0F18049B9F5033908BF4FF090
:10131000030920D0A0F18049B9F5043908BF4FF086
:10132000040918D0A0F18049B9F5053908BF4FF07C
:10133000050910D0A0F18049B9F5063908BF4FF072
:10134000060908D0A0F18049B9F507390CBF4FF064
:1013500007094FF0080909FA04F444EA0C0CC5F82F
:1013600008C8DEF800C04C682CEA030C14F4803F77
:1013700018BF4CEA030CCEF800C0194CD4F800C0DA
:101380004D682CEA030C15F4003F18BF4CEA030C1F
:10139000C4F800C0134CD4F800C02CEA030C00E0E1
:1013A00014E04D6815F4801F18BF4CEA030CC4F814
:1013B00000C00D4CD4F800C04D682CEA030C15F4A5
:1013C000001F18BF4CEA030CC4F800C0521C102ABE
:1013D000FFF4FAAEBDE8F88F44380240003C01400B
:1013E000043C0140083C01400C3C0140014880683D
:1013F00070470000C8050020024881680278114447
:1014000081607047C80500200B4810B5016841F4A1
:1014100000710160016841F480610160016841F47C
:1014200080710160032000F085F8042000F006F8C8
:1014300000F024F8002010BD003C024070B50D4DB6
:1014400004464FF47A712878B1FBF0F00A49096834
:10145000B1FBF0F000F078FB48B9102C07D2002265
:101460002146501E00F034F800206C6070BD012051
:1014700070BD0000C8050020D40500200A4881B0D6
:10148000016841F480410160006800F480400090F0
:101490000648016841F080510160006800F080500A
:1014A000009001B0704700004438024040380240CC
:1014B0000028B8BF704700F01F01012202FA01F1B5
:1014C0004009800000F1E020C0F8001170470000E2
:1014D000174B10B41B68C3F30223C3F1070CBCF114
:1014E000040F88BF4FF0040C1C1D072C34BF0023D1
:1014F000DB1E012404FA0CFCACF1010C0CEA010126
:10150000994004FA03F35B1E1A40114300284FEA86
:101510000111A1BF00F1E02080F8001410BC704759
:1015200000F00F0000F1E02080F8141D10BC70479F
:101530000CED00E0074900F007000A684FF6FF03D2
:101540001A4042EA002040F0FD7040F080600860E0
:10155000704700000CED00E0BFF34F8F05480168B5
:10156000054A01F4E06111430160BFF34F8F00BFF2
:10157000FDE700000CED00E00400FA05002804BFC0
:10158000012070472DE9F0474D4E04460F46306864
:1015900001F0FF0800F00F00B84206D286F8008084
:1015A000306800F00F00B84261D12068454D10F05E
:1015B000020F14D010F0040F03D0286840F4E0505C
:1015C0002860207810F0080F03D0286840F46040AD
:1015D00028602868A16820F0F0000843286020787F
:1015E00010F0010F37D060683749012823D0022856
:1015F00018BF0328096823D011F0020F37D02968DB
:1016000021F0030141EA00002860FFF7EFFE814668
:101610002868616800F00C00B0EB810F18BF41F240
:10162000883A18D0FFF7E2FEA0EB090050450BD92D
:101630000320BDE8F087096811F4003FDFD116E010
:1016400011F0007FDBD112E02868616800F00C0027
:10165000B0EB810FE6D1306800F00F00B84209D935
:1016600086F80080306800F00F00B84202D00120F8
:10167000BDE8F087207810F0040F05D02868E168F5
:1016800020F4E05008432860207810F0080F06D0BE
:101690002868216920F4604040EAC100286000F019
:1016A00045F82968094AC1F30311515CC84008494B
:1016B00008600420FFF7C2FE0020BDE8F0870000AC
:1016C000003C0240083802400038024058610008DF
:1016D000D405002001490120C8647047000047423A
:1016E0000148006870470000D405002004480549FF
:1016F00000680968044AC1F38221515CC840704700
:10170000D4050020083802406861000804480549F3
:1017100000680968044AC1F34231515CC84070470F
:10172000D4050020083802406861000818480068A5
:1017300010F00C02174808BF70471749042A04BF6D
:1017400008467047082A18BF704710B5134C226826
:10175000236802F03F0213F4800F08D020680023B2
:10176000C0F38810A0FB0101FEF72AFD07E0216805
:101770000023C1F38811A1FB0001FEF721FD2168C0
:10178000C1F30141491C4900B0FBF1F010BD00005C
:10179000083802400024F40000127A0004380240A5
:1017A000002804BF012070472DE9F84F0446007857
:1017B000DA4D10F0010F59D0D948016801F00C0141
:1017C00004290AD0006800F00C0008280ED105F1A9
:1017D0000400006810F4800F08D0286810F4003F5F
:1017E00044D06068002800F096813FE06068B0F562
:1017F000803F19D0B0F5A02F28680CBF40F480209E
:1018000020F48030286028680CBF40F4803020F439
:10181000802028606068B8B1FFF7E8FD06462868B8
:1018200010F4003F05D021E0286840F480302860A3
:10183000F0E7FFF7DBFD801B642800F22A812868AF
:1018400010F4003FF5D011E0FFF7D0FD0646286800
:1018500010F4003F0AD000BFFFF7C8FD801B6428CA
:1018600000F21781286810F4003FF5D12078AD4FC1
:1018700010F0020F4FF0000847D0A948016811F09E
:101880000C0F16D0006800F00C00082804D1A64800
:10189000006810F4800F0CD0E06820B34FF0010016
:1018A0003860FFF7A3FD0646286810F0020F09D044
:1018B00011E0286810F0020F1CBFE06801280AD070
:1018C00000F029B9FFF792FD801B02287ED8286816
:1018D00010F0020FF6D02868216920F0F80040EAE5
:1018E000C100286011E0C7F80080FFF77FFD0646C1
:1018F000286810F0020F08D0FFF778FD801B02283F
:1019000064D8286810F0020FF6D1207810F0080F84
:101910002AD08648864E616999B101210160FFF79E
:1019200065FD8146306810F0020F1DD1FFF75EFDA6
:10193000A0EB0900022849D8306810F0020FF5D05A
:1019400012E0C0F80080FFF751FD8146306810F0CA
:10195000020F09D0FFF74AFDA0EB0900022835D895
:10196000306810F0020FF5D1207810F0040F77D016
:1019700070484FF0000B006810F0805F0AD16D488E
:10198000016841F08051016000684FF0010B00F0E8
:1019900080500090684E306810F4807F14D1306819
:1019A00040F480703060FFF721FD8146306810F40C
:1019B000807F09D1FFF71AFDA0EB0900022868D843
:1019C000306810F4807FF5D05C4E00E061E0A068E4
:1019D00001281BD0052830680CBF40F0040020F01F
:1019E0000100306030680CBF40F0010020F00400BE
:1019F000C6F80000A06841F2883AB8B1FFF7F6FCDB
:101A00008146306810F0020F05D021E0306840F0C8
:101A100001003060EEE7FFF7E9FCA0EB090050455C
:101A200037D8306810F0020FF5D011E0FFF7DEFC78
:101A30008146306810F0020F0AD000BFFFF7D6FCD5
:101A4000A0EB0900504524D8306810F0020FF5D102
:101A5000BBF1000F04D03748016821F080510160CC
:101A6000A069E8B32E49096801F00C01082952D099
:101A70000228C7F860800FD0FFF7B8FC044628683A
:101A800010F0007F44D000BFFFF7B0FC001B02281D
:101A90003AD90320BDE8F88FFFF7A8FC064628686E
:101AA00010F0007F09D000BFFFF7A0FC801B0228C8
:101AB000EFD8286810F0007FF6D1D4E90701084379
:101AC000A16A1F4A490802EB0141626A41EA821198
:101AD000084394F82C1040EA01611348016000E0CB
:101AE00016E001203866FFF781FC0446286810F0F4
:101AF000007F0DD1FFF77AFC001B0228C9D82868A7
:101B000010F0007FF6D003E0286810F0007FBBD112
:101B10000020BDE8F88F0120BDE8F88F00380240B2
:101B2000083802400000474204380240800E474215
:101B30007438024040380240007000407038024063
:101B40000000FFFF70470000411EB1F1807F24BFFD
:101B5000012070474FF0E0204161054AF02182F8F2
:101B6000141D0021816107210161002070470000E0
:101B70000FE000E010B5FFF7E5FF10BD90F83C2046
:101B8000012A04BF02207047012280F83C20CA6865
:101B90008B6822F440721A434B6822F480621A4325
:101BA0000B6822F400621A430B6922F480521A4334
:101BB0004B6922F400521A43C96922F4804211434E
:101BC00002685164002180F83C10084670470028E4
:101BD00004BF0120704770B5044690F83D0088B0FE
:101BE0000E46002520B984F83C50204600F04DF800
:101BF000022084F83D00211D206802F05BFDB368DF
:101C000031680322206802F062FE2068816921F0B9
:101C10000C018161206881697268114381612068CB
:101C2000416841F0800141602068816821F07001C5
:101C300081602068816841F040018160206881688E
:101C400021F0070181602068816841F00401816012
:101C50007020059504950695039502950090F0680F
:101C600001906946206802F08BFD2068416821F0F0
:101C7000700141602068416841F0500141600120DD
:101C800084F83D0008B0002070BD704790F83C20FB
:101C9000012A04BF0220704730B4012380F83C3091
:101CA000022280F83D2002685468D2F808C00D680E
:101CB00024F0700449682C432CF0800C41EA0C019C
:101CC00054600268916080F83D30002180F83C103B
:101CD00030BC08467047002804BF0120704710B58B
:101CE000044690F83D0028B9002084F83C002046C6
:101CF00000F00CF8022084F83D00211D206802F05D
:101D0000D9FC012084F83D00002010BD00B587B04B
:101D10000021009101910291039104910068A0F1CA
:101D20008041B1F5406111D0A0F18041B1F582311F
:101D30001CBF07B000BD1548016841F002010160F9
:101D4000006800F00200059007B000BD104801686F
:101D500041F008010160006800F0080005900D489E
:101D6000016841F0800101600068694600F0800070
:101D700005904FF4E05000900220019003900490F1
:101D80000548FFF715FA07B000BD000044380240CF
:101D90004038024030380240001C024090F83C209D
:101DA000012A0DBF0220012380F83C30704730B477
:101DB000022280F83D20D0F800C0DCF8082022F094
:101DC000770222F47F42CCF808200A68502A3DD0DE
:101DD0000CDC202A74D004DC002A18BF102A51D150
:101DE0008CE0302A6CD0402A6CD091E0602A4AD036
:101DF000702A06D0B2F5805F44D0B2F5005F12D0F1
:101E000086E0D1E9014C0268C968956844EA01217D
:101E100025F47F4541EA0C012943916001688A68F5
:101E200042F0770210E00268D1F804C08C68C968FB
:101E300095684CEA012125F47F45214329439160AF
:101E400001688A6842F480428A6061E00268D1F8E1
:101E500004C0C968146A156A25F001051562956900
:101E600024F00A0425F0F00545EA011144EA0C0CBF
:101E70009161C2F820C001688A6822F0700242F0C5
:101E800057028A6044E00268D1F804C0C968146A45
:101E900024F0100414629569146A25F4704545EA2B
:101EA000013124F0A00444EA0C1C9161C2F820C066
:101EB00001688A6822F0700242F067028A6027E0B7
:101EC0001CE0FFE70268D1F804C0CC68116A156A0B
:101ED00025F001051562956921F00A0125F0F0054C
:101EE00045EA041441EA0C019461116201688A68B0
:101EF00022F0700242F047028A6009E00168D1F8DE
:101F000008C02CF0700C4CEA020242F007028A6012
:101F100080F83D30002180F83C1030BC0846704706
:101F200030B587B000210091019102910391049195
:101F30000068A0F18041B1F582311CBF07B030BD0F
:101F40001448016841F480710160016801F48071F6
:101F50000591016841F0800101600068022400F0F1
:101F600080000590E020CDE9000403250294694635
:101F70000948CDE90345FFF71BF94FF46040CDE96F
:101F80000004029469460548CDE90345FFF710F9BE
:101F900007B030BD3038024000200240001C024033
:101FA00090F83C30012B04BF022070472DE9F0016E
:101FB000012480F83C40022380F83D308A4BDFF852
:101FC0002CC242B1042A49D0082A7DD00C2A00F044
:101FD000CE8000F0FFB80268156A25F00105156291
:101FE000156A56689769D1F8008027F0730748EAA8
:101FF0000707D1F8088025F0020548EA05059A424E
:1020000018BF624507D1D1F80C8025F0080548EAD1
:10201000050525F004059A4218BF624509D1D1F89B
:1020200014C026F440734CEA0303D1F818C04CEAFC
:102030000306566097614B685363156202689369A3
:1020400043F0080393610268936923F004039361EA
:1020500002689369096943EA010143E00268156A6D
:1020600025F010051562156A56689769D1F8008049
:1020700027F4E64747EA0827D1F8088025F020052D
:1020800045EA08159A4218BF624507D1D1F80C807D
:1020900025F0800545EA081525F040059A4218BF4D
:1020A000624509D1D1F814C026F4406343EA8C0399
:1020B000D1F818C043EA8C06566097614B68936369
:1020C00015620268936900E00EE043F400639361D7
:1020D0000268936923F480639361026893690969D4
:1020E00043EA0121916175E00268156A25F4807563
:1020F0001562166A5568D769D1F8008027F0730712
:1021000048EA0707D1F8088026F4007646EA082650
:102110009A4218BF624507D1D1F80C8026F40066B8
:1021200046EA082626F480669A4218BF624509D11D
:10213000D1F814C025F4405343EA0C13D1F818C069
:1021400043EA0C155560D7614B68D3631662026889
:10215000D36943F00803D3610268D36923F0040311
:10216000D3610268D369096943EA010131E0026879
:10217000156A25F480551562176A5568D669D1F835
:10218000008026F4E64646EA0826D1F8088027F4BF
:10219000005747EA08379A4218BF624505D1D1F87F
:1021A00014C025F4804343EA8C155560D6614B6812
:1021B000136417620268D36943F40063D361026851
:1021C000D36923F48063D3610268D369096943EA60
:1021D0000121D16180F83D404FF0000180F83C10B2
:1021E000BDE8F001084670470000014000040140CE
:1021F000002804BF0120704710B5044690F83D0048
:1022000028B9002084F83C00204600F00CF8022099
:1022100084F83D00211D206802F04CFA012084F86A
:102220003D00002010BD704770B5044690F83C009A
:10223000012804BF022070BD012584F83C50022013
:1022400084F83D00204602F0D3FA01004FF0000070
:1022500005D084F83D5084F83C00012070BD216811
:10226000CA6822F04002CA602168CA6822F480422B
:10227000CA6084F83D5084F83C00002070BD0028FE
:1022800004BF0120704770B5044690F8390000255E
:1022900020B984F83850204600F022F8242084F831
:1022A00039002068C16821F40051C160204602F065
:1022B000F7FC2068016921F49041016120684169BF
:1022C00021F02A0141612068C16841F40051C160D8
:1022D000E563202084F8390084F83A00002070BDBE
:1022E00000B587B000210091019102910391049102
:1022F0000068A0F18041B1F588311CBF07B000BD76
:102300000E48016841F010010160006800F0100003
:1023100005900B48016841F00201016000686946C0
:1023200000F002000590C0200090022001900720DC
:1023300004900448FEF73CFF07B000BD443802405B
:10234000303802400004024082B002F011FB184C09
:10235000D4F82001006810F0080F0AD0144802F0E9
:1023600045FED4F82001016800914068009003F018
:102370006DF9D4F82001006810F0800F1CBF0C48E4
:1023800002F0DDFED4F82001016811F0200FDFD04B
:102390004068C1B2064802F033FE0088012804D02C
:1023A000022808BF03F052F9D2E703F049F9CFE75A
:1023B00040040020012908BF002115D0042908BFCE
:1023C000012111D0102908BF02210DD0402908BFDA
:1023D000032109D0B1F5807F08BF042104D0B1F5F5
:1023E000806F0CBF05210621084B18305B5C184438
:1023F000D0F800C0064B595C73238B402CEA0303D2
:1024000002FA01F119430160704700007E61000883
:102410008561000810B50446406801F0A2FFA1687C
:10242000086110BD0068012102F003B8002808BF50
:10243000704710B50446007E012818BF10BD217BEF
:102440000020012904D0022910D003291ED026E043
:10245000A16881F824000121606801F0B0FFE28AE0
:10246000B4F90E10606801F02BFF0CE0A16881F850
:1024700024000021606801F0A2FFE28AB4F9101084
:10248000606801F01DFF50B1022009E0A168012041
:1024900081F82400A068D4F812100161F4E7032049
:1024A000207610BD01230373C181C2820376437677
:1024B0007047022303730182C28201210176002149
:1024C00041767047006801F082BF10B5406801F0A6
:1024D0005EFFBDE8104001F07ABE407E7047806824
:1024E000006870478068406870478068C0687047BF
:1024F000806800697047027B0021012A08BFB0F99B
:102500000E1008467047406801F035BF006801F0C2
:1025100089BF8068B0F91E0070478068D0F81A0043
:1025200070478068D0F8160070478360C0E90012D9
:1025300000210173C1810182C182017670470322AB
:1025400002734182091481820121017600214176C2
:1025500070478268518280688182704710B5044656
:102560000068032101F065FF00281CBF01212176CE
:1025700010BD0068072101F05CBF406801F023BF77
:10258000014661F30F0044F6E61211FB02F244F635
:10259000E61311FB23F10A4411444942C913B1F572
:1025A000004FA8BF47F6FF7104DA11F5004FB4BF22
:1025B000054909B261F31F4011F5004F04BF48F20D
:1025C000010161F31F4070470080FFFF70B50546B1
:1025D000084600F059F82AB203B212FB03F14FEAA1
:1025E000254C05141CFB05F0081AC0131649B0F55C
:1025F000004FA8BF47F6FF7004DA10F5004FB4BFD4
:10260000084600B260F30F04104E10F5004F08BFEB
:1026100066F30F0412FB05F01CFB03F21044C01319
:10262000B0F5004FA8BF47F6FF7103DA10F5004F71
:10263000A8BF01B2204661F31F4011F5004F08BF4B
:1026400066F31F4070BD00000080FFFF0180FFFFA8
:1026500010B50446084600F017F814FB00F12214E8
:10266000031412FB03FC61444FEAE13C29466CF37E
:102670000F0114FB03F312FB00F0C01AC01360F348
:102680001F41084610BD000000F50041890911F402
:10269000407C00F50041C1F387121749C2F1FF03E6
:1026A00019D0BCF5807F1FD0BCF5007F0AD0BCF5E7
:1026B000407F18BF704731F8133031F8121063F3C0
:1026C0001F400FE031F8122031F8131062F31F4061
:1026D00061F30F00704731F8122031F813105242A5
:1026E00062F31F404942F3E731F8133031F812101A
:1026F0005B4263F31F40EBE7C25E0008F8B5044697
:10270000DDE90670A161C4F8A8008C4608481E46A1
:1027100015460090074B084A21466046FDF758FED3
:102720006762C4E90756204600F044FBF8BD00008C
:102730003D27000845270008AD2D000810B500F022
:1027400039FB10BDF0B58DB0054600208DF80400B2
:102750001F4614460E4648090AD0421E002128464C
:1027600002F086FF00280CBF0B2006F01F0676D073
:10277000132E80F00483DFE806F0A00A8E9F9E9E51
:102780009D9C9B9A999897969E9E9E9EA0002178CC
:1027900005208DF8080047296CD028DC0F2961D06E
:1027A0000BDC0F2975D2DFE801F055747455745DA8
:1027B0005D5D5D5D5D5D5D5D5D00172952D009DC8D
:1027C000A1F11000072864D2DFE800F054546363DD
:1027D0004C4C4C001D2943D004DC182942D01C2944
:1027E0003ED056E041293DD0462943D051E06529ED
:1027F00038D01EDC572935D00EDC542932D006DC07
:10280000482937D04F2918BF53292BD041E05529EB
:1028100018BF56293DD125E05B292BD004DC58296F
:1028200018BF592935D11DE0612918BF642930D15D
:1028300018E0A1F1740015282BD2DFE800F00B1B83
:102840001B1B1B1B2A2A2A1B1B2A2A2A2A2A2A2A42
:10285000131313006278284602F00AFFEBE186E1C9
:102860000120E8E16078A27800EB0222284602F01D
:10287000FFFEE0E16078A278237900EB0220E278A5
:10288000120402EB03620244284602F0F1FED2E198
:10289000FFE702206BE1217803208DF808008929E9
:1028A00080F064810AE0B3E149E232E220E2F8E13B
:1028B000C4E19AE16AE162E25DE162E2880000BFA0
:1028C0007844406887440000240200006A02000047
:1028D00024020000240200006A02000046020000F8
:1028E00046020000460200004602000046020000C8
:1028F00046020000460200004602000046020000B8
:1029000046020000460200004602000046020000A7
:102910004602000046020000460200004602000097
:102920004602000046020000460200004602000087
:102930004602000046020000BA040000BA0400008B
:102940006A02000046020000460200004602000043
:1029500024020000A4020000A4020000A40200005F
:10296000A4020000A4020000A4020000A4020000CF
:10297000A4020000A4020000A4020000A4020000BF
:10298000A4020000A4020000A4020000A4020000AF
:10299000A4020000A4020000A4020000A40200009F
:1029A000A4020000A4020000A4020000A40200008F
:1029B000A4020000A4020000A4020000A40200007F
:1029C000A4020000A4020000A402000046020000CD
:1029D000A4020000A4020000A4020000A40200005F
:1029E0006A0200006A0200006A020000460200005B
:1029F00046020000460200004602000024020000D9
:102A00006A02000046020000460200004602000082
:102A10004602000046020000460200004602000096
:102A20004602000046020000460200004602000086
:102A3000240200006A020000A40200004602000016
:102A40004602000046020000460200004602000066
:102A5000A4020000A402000046020000460200009A
:102A600024020000240200006A0200006A02000042
:102A70006A0200006A0200006A02000024020000EC
:102A800046020000460200006A020000A4020000A4
:102A90004602000046020000240200006A02000014
:102AA0006A0200006A0200006A0200006A02000076
:102AB0006A0200006A0200006A0200006A02000066
:102AC0006A0200006A02000024020000A402000062
:102AD000240200008E0200008E0200008E02000020
:102AE00046020000460200004602000001AA2846F5
:102AF00002F0B4FB00909DF80400002800F04A8129
:102B0000D5E9060C01236A46F02100F015B901AAA7
:102B1000284602F0A3FB00909DF80400002800F076
:102B20003981D5E9060C02236A46F021E0470DB051
:102B3000F0BD01AA284602F091FB00909DF8040028
:102B4000002800F02781D5E9060C04236A46F0210D
:102B5000E0470DB0F0BD01AA284602F07FFB0090CF
:102B60009DF804000028EED100F014B903208DF880
:102B7000080000F006B9217807208DF808002846E3
:102B800002F00FFB8DF8040000F0FBB8002004A950
:102B900002460A54401CC0B22028FAD3002005E0A7
:102BA0000B18401CC0B2DA701D2804D2D5F8A8203A
:102BB000125C092AF4D1D5F8A810421D20238A5CA2
:102BC0008DF81020C21D0930895C8DF81110D5F8E0
:102BD000A81004AA085C8DF81200D5E9060CF021B3
:102BE000E04701208DF80400CEE020796179E37898
:102BF00000EB012082B22078617800EB0120A178FF
:102C0000090401EB03610144284602F003FB12E0D2
:102C100020796179E37800EB012082B22078617835
:102C200000EB0120A178090401EB0361084401B223
:102C3000284602F007FB8DF80400A2E006A80090E9
:102C4000217807AB03AA284602F0A0FCBDF91C00BE
:102C50005349C0EB0010800081FB00108110A1EBF4
:102C6000E0708DF81000010A8DF81110010C8DF83C
:102C70001210000E8DF81300BDF818008DF8140026
:102C8000000A8DF81500BDF80C008DF81600000A3A
:102C90008DF81700D5E9060C082304AAF021E047B7
:102CA0006FE0E279207A237902EB00201FFA80FCA2
:102CB0006078A278217800EB0220E278120402EB1F
:102CC0000362104400EB8000364B40000022C3FB3F
:102CD00000204211A2EBE07003B26079A27900EB10
:102CE000022000B200906246284602F067FDA2E78B
:102CF00020786178E27800EB012001B2A07800EB47
:102D0000022002B2284602F0A7FC01208DF8040040
:102D10003AE00C208DF8080004948DF814702249D4
:102D200004A802F098FA8DF8040050B31E48F02170
:102D300003790268D5E9060CE0470DB0F0BD00202C
:102D400004A904E00A54401CC0B220280DD2D5F8D2
:102D5000A820125C002AF5D1202838BF002204D216
:102D60000A54401CC0B22028FAD3D5E9060C20230F
:102D70000A46F021E04701208DF8040004E001201C
:102D8000F5E69DF8040028B10023D5E9060C1A46A3
:102D9000F021D1E7D5E9060C012302AAFF21CBE7F8
:102DA00067666666898888880C00002010B500F088
:102DB00001F810BD10B504468069616A884780201B
:102DC00084F8AC00216AA069BDE810400847000003
:102DD00001480068FFF79ABB04000020064800780D
:102DE000002808BF704710B500F008F801F0E6FEB3
:102DF000BDE8104002F006BC7C05002010B50E4C6A
:102E00002078012818BF10BD608800281CBF60888A
:102E1000401E02D101F022FE03206080A08810B184
:102E2000A088401EA080E088002808BF10BDE08870
:102E3000401EE08010BD00007C05002001480068B5
:102E4000FFF78CBB0400002001480068FFF791BB2E
:102E5000040000202DE9F35F524801F0E5FA524EDC
:102E6000002406F12C01347050480860A1F10808D4
:102E70004F48C8F8000000F08FFC02F09DFF4D485D
:102E800000F05DF906F1100B4A48CBF8000006F19E
:102E90000C05494828604948FDF7A8FBDBF80010FD
:102EA000464A286801F07BFA454800F048F9454851
:102EB00000F045F905F108094148C9F8000005F19D
:102EC0000C0A4048CAF800003F48F06101F074F96C
:102ED00005F11C013D480860F1693D4FC0E94371AF
:102EE0003C4800F001F905F114003A49016005F190
:102EF00024013948086001F0D9F80020FDF78AFA6A
:102F0000012087F82400286801F02BFA386128682E
:102F100001F027FA0014B88207F128002F1FA0F152
:102F20002803386005F128012A68FFF7FEFA2868AF
:102F300001F027FA3B68014600221846FFF7B2FA73
:102F40000098396801602548DBF800100160D9F865
:102F500000104160DAF80010C0E90214D8F800103F
:102F6000C0E904141549C0E90614046229684162E5
:102F700005F12801816214390968C162F169C0E96B
:102F80000C1405F11C0184630968C0E90F14446442
:102F90008464C4640465019908600120307002B043
:102FA000BDE8F09FB00500207C0500208C030020C8
:102FB000E001002028010020AC0100205C0200207C
:102FC00054010020800100204C0300201400002048
:102FD00054070020240300207403002098070020D9
:102FE000B0F80031002220F81310B0F80031A0F83A
:102FF00002315B1C9BB2A0F80031802B24BF002360
:10300000A0F800315FF0000330F913C05B1C9BB2E5
:103010006244802BF8D3D31702EB5362D211A0F88D
:1030200004210846704700210A4620F81120491C57
:1030300089B28029F9D3A0F80021A0F802217047B5
:10304000B0F904017047000008B5FEF749FB4FF4E2
:10305000FA61B0FBF1F0FEF777FD0749081FFFF7B3
:10306000F9FE02F01FFE044B04481A1F00900121D4
:10307000101F02F0BFFB08BD080000207E5E0008A4
:1030800010B504460078002818BF002012D194F82B
:10309000260000F027FFA0F57F41FF3907D0218BE4
:1030A000238A4A1E03FB0200B0FBF1F02082204677
:1030B00000F02CF8E08280B210BD00210182704740
:1030C0000178002918BF808A01D000B27047018AB8
:1030D000026A891AB0F91E20808C5143CA1701EB8D
:1030E000124100EB2140F0E710B50446007820B112
:1030F0000020E082608A208210BD201D00F054FF75
:1031000084F826002046FFF7D8FF10BD018A428BC5
:10311000914284BF08207047828B8A428CBF002076
:10312000C08A7047B0F922007047B0F906007047B6
:10313000408B7047B0F904007047008B70470188DE
:1031400081804188C180018C41840021816081623D
:1031500070478160704741847047C18070478180AB
:103160007047000070B4B0F90420002402FB01F69F
:10317000B0F90620B0F914C0B0F91630002A04BF27
:103180000021816014D085684A43A91805D5002D17
:10319000C4BF002A6FF0004103E0002DBCBF002A2D
:1031A0000F49C2688A42A5BF02699142826081606C
:1031B000827F8168057F41FA02F246FA05F52A44CA
:1031C0006245C4BFACEB0204624603DC9342C4BF59
:1031D0009C1A1A462144816070BC10B270470000EE
:1031E0000100008070B5D0F80C110446C868D1F811
:1031F000161010FB01F210FB3121C81701EB104033
:103200000514D4F8100102F063FBD4F80811484308
:103210004FF4167190FBF1F0684300EB4000084951
:10322000400081FB00108110A1EBE071C81701EB99
:10323000104001142046BDE87040FFF7D1BE0000E9
:1032400067666666C169084770B50446002511B116
:10325000012908D017E000F007F9B4F85200A4F8EB
:10326000440080B90BE0B4F84400002808BF0125F1
:1032700009D0401E0004000CA4F8440003D12169C9
:10328000204688470125284670BD4268104730B463
:10329000038E0AB253430A14B0F850104A43520046
:1032A000524202EB030CA2EB03030CEBDC7C03EBBE
:1032B000D3735FEA6C0C4FEA63034FEA910153D575
:1032C000002B18DA042280F83A20ACEB0302D41762
:1032D00002EB943201EBA241DA1703EBD23201EB9D
:1032E00062434FEAEC720CEBD232A1EB624CA0F8D5
:1032F0003CC0C1876CE0002A1BDC4FF0030C80F857
:103300003AC0A2EB030C4FEAEC740CEB943C01EBDB
:10331000AC414FEAE37C03EBDC334FEAE27C01EBA8
:10332000634302EBDC32A3EB624CA0F83CC0C387E2
:1033300017E0022380F83A30ACEB0203DC1703EB12
:10334000943301EBA3414FEAEC730CEBD333A1EBC5
:10335000634CD31702EBD3320CEB62438387A0F8A4
:103360003EC0A0F8401052E0002B17DB012280F88D
:103370003A20ACEB0302D41702EB943201EBA241EA
:10338000DA1703EBD23201EB62434FEAEC720CEB3B
:10339000D2328387A1EB624CC18736E0002A1ADC67
:1033A000052380F83A30ACEB0203DC1703EB9433CF
:1033B00001EBA3414FEAEC730CEBD333A1EB634C6D
:1033C000D31702EBD33281870CEB6243A0F83EC0E7
:1033D000A0F840301BE04FF0000C80F83AC0A2EBA0
:1033E000030C4FEAEC740CEB943C01EBAC414FEA5C
:1033F000E37C03EBDC3301EB63434FEAE27C02EB5B
:10340000DC328187A3EB624CC387A0F840C089B24D
:103410009AB2418682861FFA8CF3C386B0F84EC0FA
:10342000BCF1010F02D0816930BC0847B0F948C037
:10343000BCF1000FB0F854C0CCBF6144A1EB0C014B
:103440004186B0F94A1000291FFA8CF1CCBF114413
:10345000511A8186B0F94C1000291FFA8CF1CCBFAB
:103460001944591AC186DEE781680847816F91F8CF
:103470008F20022A0DD1CA68098B09049161826FDD
:103480001169928B12048A61816F4A69098C09045F
:103490009161012180F87410463070472DE9F047A2
:1034A0000446806F00278568E7652766676684F8AD
:1034B0007370286A20F0550020F4A060286240490B
:1034C000616040490326A16184F87260204684F857
:1034D0003A6000F00AFCA06F04F1730304F13801B4
:1034E00090F88E20284602F097FC204600F0D4FB8E
:1034F00084F873703449616084F87270204684F8EF
:103500003A7000F0F2FBA06F04F1730304F138018C
:1035100090F88E20284602F07FFC204600F0BCFB8D
:10352000E06D2C4BC108E165206E05F11809C1085A
:103530002166606EC1086166244961602449A16109
:10354000187800EB09021168D81D4FF0080890F8B0
:1035500000C008FA0CFC21EA0C011160997849447A
:10356000D1F800A0877808FA07F72AEA070AC1F815
:1035700000A01B794B44D3F80090007908FA00F8BA
:1035800029EA08001860B4F870006863B4F87000A5
:10359000A863B4F87000E863106840EA0C0010609B
:1035A000086838430860186840EA0800186084F822
:1035B0003A60296A40F2555008432862BDE8F08716
:1035C00005370008CF3B00085B370008D9350008F5
:1035D000133C00087E61000870B4826F9268136A21
:1035E00023F48053136290F83AC02422836F02EBD5
:1035F0008C029A5814684FF6FF7202EA44053C2484
:1036000004EB8C041B591B6802EA43043C4A530C2C
:10361000BCF1060F66D2DFE80CF01D414103031D2B
:10362000D0F85CC0ACEB050C1CF5004FD8BF0A808D
:1036300005DDBCF5004FACBF0B80A1F800C0D0F891
:1036400060C0ACEB040C1CF5004F47DDBCF5004F2F
:103650003FDA45E0D0F860C0ACEB050C1CF5004F3C
:10366000D8BF4A8005DDBCF5004FACBF4B80A1F848
:1036700002C0D0F864C0ACEB040CB1F90240A44421
:10368000CCF1000CBCF5004FA8BF0B802ADA1CF56A
:10369000004FD4BF0A80A1F800C023E0D0F85CC07E
:1036A000ACEB050C1CF5004FD8BF0A8005DDBCF55E
:1036B000004FACBF0B80A1F800C0D0F864C0ACEBE9
:1036C000040CB1F90040A444CCF1000CBCF5004F4F
:1036D00001DB4B8006E01CF5004F01DC4A8001E075
:1036E000A1F802C00A88A0F848204A88A0F84A2019
:1036F0000A88498811444942A0F84C1070BC7047B0
:103700000180FFFF826F9268136A23F48053136273
:1037100090F87320102A1CD290F872304FF0240CCD
:10372000826F0CEB8303D2581268C36D4FF03C0CD0
:103730001A44C26590F87230826F0CEB8303D25842
:103740001268036E1A44026690F87320521C80F8C7
:1037500073200020088048807047826F9268136A47
:1037600023F48053136290F87320102A10D290F83B
:1037700072304FF03C0C826F0CEB8303D25812680E
:10378000436E1A44426690F87320521C80F87320EE
:10379000002008804880704730B4836F9968D3E96F
:1037A0000023D1F800C02CF0010CC1F800C0D0F803
:1037B00078C09CF890C0BCF1000F09D06FF0800C6D
:1037C000C1F810C0D1F80CC04CF0800CC1F80CC08E
:1037D000D1F814C04CF0010CC1F814C0D0F878C076
:1037E0009CF88C40022C05D090F846C0BCF1000F2C
:1037F00017D01CE09CF88D40012C04BF9CF88EC0B3
:10380000BCF1030F0DD14FF0010CC1F830C0D1F85D
:1038100014C04CF0010CC1F814C04FF0030CC1F8F7
:1038200030C0B0F870C0ACF1010CC1F824C0DFF8B2
:103830006CC0A1F180454FF48014DCF80C10B5F594
:1038400080350CBF41F0010141F00201CCF80C10B1
:103850000EBF84664FF4F0118166916841F001015A
:103860009160996841F0010199606FF00401116065
:10387000516841F080015160D16A21F47001D16238
:10388000916B21F440119163996B21F4401199637C
:103890000021C466A0F84E1030BC7047002004E040
:1038A00090F874200021012A03D14021002280F8E1
:1038B000742008467047000070B50546806F846824
:1038C00095F84700012818BF70BD602201212046ED
:1038D000FEF770FD206A40F001002062A86F90F8AA
:1038E0008F00012804BF206A40F0040005D00228A0
:1038F00004BF206A20F0040000D12062B5F87000F7
:1039000040086063602210212046FEF753FD206AC4
:1039100040F010002062A86F90F88F00012804BFCB
:10392000206A40F0400005D0022804BF206A20F041
:10393000400000D12062B5F870004008A06360220A
:103940004FF480712046FEF735FD206A40F4807008
:103950002062A86F90F88F00012804BF206A40F40D
:10396000806005D0022804BF206A20F4806000D166
:103970002062B5F870004008E063064868600648B9
:1039800068610648E8600648A860002085F847009E
:1039900070BD0000D9350008993E0008EB3C0008D6
:1039A000993C000870B50546806F846895F847001B
:1039B00000283ED1602201212046FEF7FBFC206A50
:1039C00040F001002062206A20F004002062002004
:1039D0006063A86F90F88F00012802D002280DD0F4
:1039E00019E0102211462046FEF7E4FC206A20F080
:1039F00010002062206A40F040000BE020221021DD
:103A00002046FEF7D7FC206A40F010002062206AB2
:103A100020F04000206270224FF480712046FEF7B3
:103A2000C9FC206A20F480702062206A20F4806043
:103A3000206206486860064868610648E8600648F3
:103A4000A860012085F8470070BD0000913A000889
:103A5000893B0008D93A0008993C0008836FB0F808
:103A600070C002469B680CFB01F1090C418659634A
:103A7000032180F83A10186A10F4805018BF012012
:103A8000118F012918BF704701200021118770474D
:103A9000826F9268136A23F48053136290F83A306D
:103AA0004FF03C0C826F0CEB8303D2581268006E0F
:103AB000524200EB4200074A9042D8BF104605DD53
:103AC00047F6FF729042A8BF47F6FF700880488013
:103AD000704700000180FFFF10B4816F6FF0010399
:103AE00089680B610A6912F0010FFBD00B6101229A
:103AF0004A63B0F87020521F0A640A6912F0010F7D
:103B0000FBD00B614A6C42F480624A644A6C42F416
:103B100000424A64826F92F88FC0BCF1020F2CD130
:103B2000D1F820C040F255541CEA040FD2F80CC062
:103B300010D09269CCF81820D0F878C0DCF81020AA
:103B4000DCF81CC0C2F818C0826F5069128C1204D5
:103B5000826112E0128B1204CCF81820D0F878C0E1
:103B6000DCF81020BCF81CC04FEA0C4CC2F818C09E
:103B7000806F4269008C000490610B61C86840F05E
:103B80000100C86010BC7047816F002289684A63D9
:103B9000931E0B610A6912F0010FFBD00B614A6C96
:103BA00042F400424A64816F91F88F20022A18BFC4
:103BB0007047CA6889699161826F1169928B12049A
:103BC0008A61806F4169008C0004886170474FF4FE
:103BD0008011C16690F8721080F83A10B0F8701039
:103BE000491E8AB20146806F4B8E806843638B8E7C
:103BF0008363CB8EC3630264006A10F4805018BFE5
:103C000001200A8F012A18BF7047012000220A876D
:103C1000704730B4856F818FB0F87020B5F886405A
:103C2000A2EB010CC38F1FFA8CFCA44506D903211B
:103C300080F83A1091B2491E89B215E0CB1A9BB2B6
:103C4000B3EB4C0F84BFB5F88820891A0BD82144F8
:103C500089B2914208D34FF40012C266B0F87020C6
:103C6000C1EB4201491E89B2AB680246408E5863DF
:103C7000908E9863D08ED8631964186A10F48050BF
:103C800018BF0120118F01291CBF30BC70470120D3
:103C90000021118730BC7047816F8968CA6822F0A3
:103CA0000102CA60002280F842204A6C22F40042DD
:103CB0004A64826F92F88F30022B0DD1D368128B39
:103CC00012049A61836F1A699B8B1B049361826F44
:103CD0005069128C120482616FF001020A61086956
:103CE00010F0010FFBD00A61704710B4816F002201
:103CF000896880F84220B0F8702052084A63B0F812
:103D0000702052088A63B0F870205208CA63B0F875
:103D10007020521F0A646FF001030B610A6912F0F0
:103D2000010FFBD00B614A6C42F480624A644A6C1A
:103D300042F400424A64826F92F88FC0BCF1020FD5
:103D40001BD1D1F820C040F2555434EA0C0CD2F803
:103D50000CC019D0128B1204CCF81820D0F878C0FF
:103D6000DCF81020BCF81CC04FEA0C4CC2F818C09C
:103D7000826F5069128C120482610B61C86840F036
:103D80000100C86010BC70479269CCF81820D0F8C8
:103D900078C0DCF81020DCF81CC0C2F818C0826FB4
:103DA0005069126AE8E730B4D0F878C0DCE9001254
:103DB000DCF808300C6804F00C04082C05D0002C4A
:103DC00008BFBCF884C008D018E0D1F800C00CF0DF
:103DD0000C0CBCF10C0FF8D110E05C6A6445FCD30C
:103DE000D1F800C00CF00C0CBCF1080F06D1D1F8D2
:103DF00000C00CF00C0CBCF10C0FF8D1D1F808C0CD
:103E00002CF4401CC1F808C0D2F808C02CF4401CA7
:103E1000C2F808C0D0F878C010F83A4F542505EB26
:103E200084045CF804C0C1F838C0D0F83EC010F873
:103E30002E4B6C2505EB84045CF804C0C2F838C036
:103E4000D0F800C08C680CF4702C24F4702444EA80
:103E50000C0CC1F808C050F804CB94680CF4702C1A
:103E600024F4702444EA0C0CC2F808C0D3F820C033
:103E70004CF4805CC3F820C00368D1F808C04CEA59
:103E800003038B6001689368194391604FF48011BC
:103E900040F8261930BC7047816F0122D31E896813
:103EA00080F842200B6100224A638A63CA630A6970
:103EB00012F0010FFBD00B614A6C42F400424A64DD
:103EC000816F91F88F20022A18BF7047CA688969EC
:103ED0009161816F0A69C9699161816F4869096A55
:103EE000816170471D4910B451F82020D2F800C0FC
:103EF000127902EB4203092A99BF4FF0007444EA99
:103F00000353174C04EB03531A434FF4407494FAD1
:103F1000A4F44FF40073B4FA84F4E3400CEB83038D
:103F2000D3F82CC002F01F022CF01F0C4CEA020246
:103F3000DA6251F820201268D36C0123520102F199
:103F40008442C2F8783151F820000068016811F00D
:103F5000020FFBD0C06C10BC80B27047EC07002091
:103F6000000020FE10B50E4C6078012818BF10BD6F
:103F70002078FFF7B7FF6080014602206070094A91
:103F8000207852F83030002B08BF10BD4FF0000CE5
:103F900002EBC00284F801C05268BDE81040184727
:103FA000B6050020FC07002070B4FF223C4B002126
:103FB00053F821C0BCF1000F1DD09CF804400579D6
:103FC000AC4206D1DCF800C00468A44504BF0A4630
:103FD0000421491CC9B20429EAD3042A5CD243F85B
:103FE0002200304B002143F8321001688B6813F037
:103FF000010F1AD103E0042A88BF0A46E9E74B689B
:1040000023F020034B6001686FF002030B6001682E
:104010004B6823F080034B6001686FF004030B6072
:1040200001688B6843F001038B600168CB6A23F45D
:104030007003CB620179D0F800C04FF000740929F9
:1040400001EB410392BF44EA0353174D05EB0353C1
:104050001943836894FAA4F401F00070B4FA84F46C
:10406000E0400CEB8000C46801F0F87C4FF0F87180
:1040700091FAA1F5B5FA85F591FAA1F12CFA05F5B9
:104080000726B1FA81F106FA05F52CFA01F1AC43E5
:1040900003FA01F12143C16070BC10467047000073
:1040A000EC070020FC070020000020FE00218160BA
:1040B0004160C160016101214161704790F8480091
:1040C000704701EB410100EB81008089704701EBF3
:1040D000410100EB8100B0F90E00704701EB410196
:1040E00000EB8100B0F91000704701EB410100EBDB
:1040F00081008281704701EB410100EB8100C281A8
:10410000704701EB410100EB810002827047000023
:1041100070B5044690F82600FFF7E4FEA0F57F4155
:104120008446FF3921D094F82510206A20F811C068
:104130000021228B0846002A88BF236A07D900BFC6
:1041400033F81050401CC0B229448242F8D8B1FB69
:10415000F2F0E080A4F804C094F82500511E8842D3
:10416000B4BF401C002084F82500204600F002F86F
:10417000208170BDC188428B914284BF022070476C
:10418000808B88428CBF042000207047418B828B3B
:10419000038B11444A080021002B07D9036A23F836
:1041A0001120491C038B89B28B42F7D88280C280D0
:1041B000002180F82510704710B504460C30FFF739
:1041C000F3FE84F826002046FFF7E0FF10BDB0F9AB
:1041D0000C007047B0F904007047B0F91000704748
:1041E000B0F90C10B0F91400C1EBC13191FBF0F043
:1041F00000B2704730B4B1F90050012490F803C008
:1042000000230278002DBABF694289B20988858AE5
:104210008D4238BF0123C58A8D4288BF0123B0F982
:1042200012100029BABF494289B2418A058B8D42DA
:1042300028BF002B04D062453CBF511CCAB202E02B
:10424000624538BF0022624508BF00240270204644
:1042500030BC704770B50546007800280CBFAC68CC
:104260006C68E968012904D9AA69A1F10101144423
:1042700005E005D169884FEA01444FF00001E9608B
:10428000012805D0E01704EB10400014AC6070BDAD
:10429000E01704EB104006146869FFF798FF301A26
:1042A00001B22869FEF75EFF0104C5E9014170BD56
:1042B0000178012918BF704700690021FEF749BF46
:1042C0002DE9F0410446007817460D46012660B1FD
:1042D0006068C11700EB1140E18B0014A942A4BF34
:1042E000B4F924108D4212DA0FE0204600F051F8A4
:1042F000E18CA94205DAB4F9281000268D421CDAB7
:1043000003E0B4F928108D4208DA002615E0218C6C
:104310008D42BCBFB4F92210A942F6DB87B165809B
:10432000A18B4FF47A727943B1FBF2F1491C281A40
:10433000000490FBF1F0E160A0613046BDE8F0813F
:1043400021782804012914BFA06060600020E0608B
:10435000F2E710B504464069FFF739FF00046060DA
:1043600010BD0146C28D098E62F30F0061F31F403C
:104370007047C08B70474068C11700EB11400014B4
:104380007047B0F92C007047B0F9240070474069BD
:1043900070478068C11700EB114000147047C0E9F6
:1043A000041290F82A100170818D09044160C18DBA
:1043B0000904816000214180C16081617047017002
:1043C0000021C16070470021C1608161704702789F
:1043D00000210B2A04D109210170002181800121D3
:1043E00008467047B0F802C003784CEA010C2CEA8A
:1043F00002024280B0F804C00A2B4CEA010181801D
:1044000005D012B10A2101700B4618467047002AE8
:10441000FBD10B2101700B46F7E78188408841EA08
:104420000040704700787047002101704180818012
:10443000704710B502780024152A6CD2DFE802F02C
:104440000E1B3033525E636669706B6B0B21262B3B
:104450003D424D584800002966D05CE003291CBF4E
:1044600001290C2960D0072903D000228021FFF701
:10447000B9FF204610BD07291CBF0D290E2953D0B6
:1044800049E00E2918BF07294ED044E00F2918BF74
:10449000072949D03FE0022918BF072944D03AE054
:1044A000072941D037E0072918BF10293CD004293B
:1044B0001CBF1129012937D02DE0112918BF072968
:1044C00032D028E012291CBF072914292CD022E061
:1044D000122918BF072927D01DE0042918BF072972
:1044E00022D018E013291CBF072905291CD012E08F
:1044F00004291CBF0729052916D00CE0062918BF7E
:10450000072911D007E007290ED004E008290BD0B5
:1045100001E0092908D0032918BF0129A9D0A2E781
:10452000002918BF0C29F6D14FF001040170A0E753
:1045300010B5084C2078022805D1FCF75DFFFDF787
:1045400019FB00202070C0B2401C2070BDE8104054
:10455000FEF744BCBA05002030B593B000241E48D5
:1045600002940394049405940C940D940E940F9467
:104570001094016841F080510160006800F08050A3
:1045800011901648016841F48041016000680225DD
:1045900000F48040119001200090000401908001FF
:1045A000CDE906500420CDE90A50A821CDE9080143
:1045B0006846FDF7F5F80F20CDE90C054FF4A05043
:1045C000CDE90E40E802109005210CA8FCF7D6FFBB
:1045D000FDF780F813B030BD403802400070004055
:1045E0000F48016841F4700101600E48016841F014
:1045F000010101600C4A00211160026822F41022BE
:1046000022F080720260031D084A1A60026822F4D8
:10461000802202600648016006495806086070471B
:1046200088ED00E0003802400838024010300024D5
:104630000C38024008ED00E010B50D4CE06A01694D
:1046400011F0010F05D06FF0010101612046FCF768
:1046500049FAE06A016911F0020F08BF10BD6FF05E
:1046600002010161BDE810400148FCF7C9B8000033
:104670005C020020084810B5806F8068016911F065
:10468000800F05D06FF0800101610348FEF7EEFE58
:10469000BDE81040FEF7B2BBE001002004486FF017
:1046A0000101806F806801610148FFF77CBB000059
:1046B000E0010020F0B402682C4B2D4C2D4D2E4E05
:1046C000DFF8B8C0984218BFB0F1804F07D0A042C1
:1046D00018BFA84203D0B04218BF604504D14F684C
:1046E00022F0700247EA0202984218BFB0F1804FF0
:1046F00025D0A04218BFA84221D0B04218BF6045C3
:104700001DD0A0F18044B4F5A0341CBFA0F18044BA
:10471000B4F5A23413D0A0F18044B4F5A4341CBF86
:10472000A0F18044B4F5C05409D0A0F18044B4F5A0
:10473000E0541CBFA0F18044B4F5005403D1CC6810
:1047400022F4407222434C6922F08002224302602C
:104750008A68C2620A688262984212BF604509692B
:1047600001634FF001014161F0BC7047000001405E
:104770000004004000080040000C0040000401401C
:1047800070B4026A22F010020262026A4368D0F832
:1047900018C00C682CF4E64C4CEA042C8C6822F00F
:1047A000200242EA0412104C104DA04218BFA84249
:1047B00006D1CE6822F0800242EA061222F04002C0
:1047C000A04218BFA84207D14C6923F4406343EAD2
:1047D00084038C6943EA84034360C0F818C04968C5
:1047E0008163026270BC7047000001400004014018
:1047F00002689368D1F804C023F070034CEA030305
:10480000D1F800C023F007034CEA030393604A6821
:1048100012F00F0F59D11211082A56D2DFE802F018
:1048200055555555122B41040068D1E90232D1F893
:1048300010C0816843EA0C2321F47F411A431143DD
:10484000816042E00A68052A04BF012070470268BF
:10485000136AD2F820C02CF0010CC2F820C0026804
:10486000D2F818C009692CF0F00C4CEA01119161E2
:104870000068036229E000680B698A68016AD0F861
:1048800020C02CF0010CC0F820C0D0F818C021F0D6
:104890000A012CF0F00C4CEA03131143836101620E
:1048A00013E000688A680969036A23F01003036251
:1048B000D0F818C0036A2CF4704C4CEA013123F094
:1048C000A00343EA0212816102620020704730B403
:1048D000D0F820C02CF0010CC0F820C0D0F818C0CF
:1048E000046AA0F18045B5F5803518BFB0F1804F5E
:1048F0001FD0A0F18045B5F580651CBFA0F18045B3
:10490000B5F5006515D0A0F18045B5F540651CBF33
:10491000A0F18045B5F582350BD0A0F18045B5F505
:10492000A0351EBFA0F18045B5F5C0554CF0010281
:1049300003D12CF0030C4CEA02024FF0F00C22F0F1
:10494000F0020CEA03131A4324F00A0301F00A01EF
:1049500019438261016230BC7047000003490020A6
:104960008988002908BF0120704700007C050020CD
:10497000054810B50068FFF78FF90022BDE8104028
:1049800080210248FFF72EBDA0050020B0050020C1
:104990002DE9F84F4FF0000A2C48FBF7DAFD2C48C0
:1049A0000068FFF7F4FC8346FFF714FCDFF8A490DF
:1049B00007466946D9F80000FEF767FC0098FDF746
:1049C000DFFD80463946FDF701FE234C064631B235
:1049D000B4F91000411AA9F110000068FEF7C2FBFB
:1049E00060F30F05B4F91200A0EB2641A9F10C0009
:1049F0000068FEF7B7FB294660F31F4109F1080084
:104A00000068FBF781FC05465846FFF7E6FB394690
:104A10002846FDF71DFE83465946D9F80000FEF7EB
:104A200036FCC4F816500099E660C4E90018C4F8D2
:104A30001AB02784012805D10022012109F11000B4
:104A4000FFF7D0FC5046BDE8F88F00005C02002064
:104A500088050020A00500205407002038B500205C
:104A6000ADF8000069464F48FBF70BFD04464E4881
:104A70000068FEF7B7FB4D48FFF7D4FCC01E1028B6
:104A800028BF38BDDFE800F00842475A6A7E881325
:104A9000131313131314233045480068FFF7FCF970
:104AA000142000F0E7F810214048FFF7C2FC38BDA1
:104AB000FFF754FF002808BF38BD3D4800210068BB
:104AC000FEF7C2FB11213948FFF7B3FC38BD384867
:104AD00001210068FEF7B8FB002808BF38BD12218D
:104AE0003248FFF7A6FC38BD2E48FBF753FD0421E2
:104AF0002E48FFF79EFC002808BF38BD0020FBF7BA
:104B000089FC2B480068FFF7F0F838BD05212748DD
:104B1000FFF78FFC38BD0020FBF7B2FC0020FBF74D
:104B20005FFC06212148FFF784FC22480068FFF75C
:104B300010FC21480068FDF779FC38BD1E4800686C
:104B4000FDF774FC0020FBF74BFC002C18BF38BDB0
:104B5000002220211548FFF745FC38BD14480068A5
:104B6000FFF79AF80020FBF755FC0F480068FEF7A6
:104B70005AFA4FF4487000F083F808210B48FFF709
:104B800058FC38BD00F082F8002808BF38BD092164
:104B90000648FFF74EFC38BD00210448FFF749FCEA
:104BA00038BD00005C020020A4050020B0050020F4
:104BB000A005002088050020840500200648007814
:104BC000012818BF704710B5002000F007F8BDE8B5
:104BD0001040FFF7C7B900007C050020F8B5044677
:104BE0001F48006800901F4850F82400FEF748FA5C
:104BF0003DF814101C4F00EA010557F82400FEF799
:104C000021FB054344B9A7F12400C069FFF780FAEE
:104C1000BDF8001008400543E84382B2134804EB96
:104C2000440100EB410629463046FFF7DBFB3046E6
:104C3000FFF7F8FB0A2806D00B2804BF57F824001A
:104C4000FEF712FCF8BD57F82400FEF70DFC2046D5
:104C5000FBF7E0FB064850F82400FEF7E4F9F8BD46
:104C6000C05E00089C050020A0050020B0050020C3
:104C7000A405002001498880704700007C050020C1
:104C80000149C880704700007C05002003490020CE
:104C9000C988002908BF0120704700007C0500205A
:104CA0002DE9F041044600680169E26821F44051B1
:104CB000114301612169A068E269084361691143F8
:104CC00008432168CA6822F4037222F41442104394
:104CD000C86020684169A26921F4407111434161B3
:104CE000E2693226B2F5004FBA48BB49BB4D226893
:104CF0005DD08A4218BF824240F01281FCF706FD67
:104D000000EBC00101EB001061688900B0FBF1F716
:104D1000FCF7FCFC00EBC00101EB001061688900AE
:104D2000B0FBF1F0A5FB001040096FF018014843FB
:104D300007EB800006EB0010A5FB0010400900F017
:104D4000F007FCF7E3FC00EBC00101EB0010616829
:104D50008900B0FBF1F0A5FB0010400907EB00173C
:104D6000FCF7D4FC00EBC00101EB00106168890086
:104D7000B0FBF1F8FCF7CAFC00EBC00101EB00103E
:104D800061688900B0FBF1F0A5FB001040096FF0ED
:104D90001801484308EB800006EB0010A5FB00104B
:104DA0002168C0F3431038448860BDE8F0818A422E
:104DB00018BF824259D1FCF7A9FC00EBC00101EBFE
:104DC000001061684900B0FBF1F0A5FB001040093C
:104DD0000701FCF79BFC00EBC00101EB00106168D0
:104DE0004900B0FBF1F8FCF791FC00EBC00101EBCE
:104DF000001061684900B0FBF1F0A5FB001040090C
:104E00006FF01801484308EB800006EBC000A5FBDB
:104E10000010400900F0F80007EB4007FCF776FCB3
:104E200000EBC00101EB001061684900B0FBF1F834
:104E3000FCF76CFC00EBC00101EB0010616849005D
:104E4000B0FBF1F0A5FB001040096FF018014843DA
:104E500008EB800006EBC000A5FB00102168C0F342
:104E6000421038448860BDE8F081FCF73FFC00EB5D
:104E7000C00101EB001061684900B0FBF1F0A5FB37
:104E8000001040090701FCF731FC00EBC00101EB09
:104E9000001061684900B0FBF1F8FCF727FC00EB5B
:104EA000C00101EB001061684900B0FBF1F0A5FB07
:104EB000001040096FF01801484308EB800006EB32
:104EC000C000A5FB0010400900F0F80007EB400708
:104ED000FCF70CFC00EBC00101EB0010616849001D
:104EE000B0FBF1F8FCF702FC00EBC00101EB001095
:104EF00061684900B0FBF1F0A5FB001040096FF0BC
:104F00001801484308EB800006EBC000A5FB001029
:104F10002168C0F3421038448860BDE8F08100BFCA
:104F2000FCF7E4FB00EBC00101EB001061688900B5
:104F3000B0FBF1F7FCF7DAFB00EBC00101EB00106E
:104F400061688900B0FBF1F0A5FB001040096FF02B
:104F50001801484307EB800006EB0010A5FB00108A
:104F6000400900F0F007FCF7C1FB00EBC00101EBCA
:104F7000001061688900B0FBF1F0A5FB001040094A
:104F800007EB0017FCF7B2FB00EBC00101EB0010D0
:104F900061688900B0FBF1F8FCF7A8FB00EBC001E9
:104FA00001EB001061688900B0FBF1F0A5FB001077
:104FB00040096FF01801484308EB800006EB001031
:104FC000A5FB00102168C0F3431038448860BDE899
:104FD000F081000000140140001001401F85EB51DA
:104FE000002180F81C117047FBF7DDB908B50821D6
:104FF0008DF8001001236A46FF2100F075F808BD06
:1050000038B590F81C212B4D0446002A4FD094F857
:105010001D31C9B28BB10022012B15D094F89AC072
:105020000CF1020C63451AD204F19900195494F85A
:105030001D01401C84F81D0139E084F89910208A74
:1050400060821D4D0120F5E784F89A10022084F853
:105050001D01C8B2802828BF84F81D2127E084F8EC
:105060001B116282D4F82001144DC16821F0200187
:10507000C16084F81C2104F19900FBF77DF994F8D4
:105080001B1188420AD1D4F808C094F89A3094F8D9
:10509000991004F19B022068E04708E00A208DF88F
:1050A000000001236A46FF21204600F01DF8284633
:1050B00038BD00008C6100088E6100089061000816
:1050C00090F81C1100291CBF01207047002180F8B6
:1050D0001D11012180F81C11D0F82001C16841F098
:1050E0002001C1600220704710B5044690F8970077
:1050F00000281CBF012010BD04F1160C2175581E9C
:105100006375C0B207D300BF12F8011B401E0CF834
:10511000011BC0B2F8D204F11400FBF72DF984F89A
:105120009600002184F89810012184F89710D4F893
:105130002001C16841F08001C160022010BD90F8DB
:1051400097200146002A08BF704791F89820002A4E
:1051500008BF0A7D0CD0012A08BF4A7D08D04B7DCC
:105160009B1C9A423ABF01F11403D25C91F896203D
:10517000D0F820315A604B7D91F898209B1C9A42C0
:105180003EBF501C81F898007047D1F82001C268DA
:1051900022F08002C260002081F89700D1E900016E
:1051A000084770B58268007D01240F2952F820500D
:1051B0002DD2DFE801F02C1915081D2D112024280F
:1051C0002C2C2C2C15002846FDF7A0F9062804BF2E
:1051D0002846FDF7D2F91BE02846FDF797F918B1EC
:1051E0002846FDF7C6F913E02846FDF7B7F90FE0AA
:1051F000FCF7B2F90CE02846FDF764F908E0284610
:10520000FDF710F904E02846FDF704F900E000245A
:10521000204670BD10B58368007D01EB8101DFF889
:1052200020C053F820004B000021CCFB0313591180
:10523000A1EBE37109B2FDF735F9012010BD0000C3
:105240008988888810B58368007D53F82000FDF7B1
:1052500030F9012010BD0020704700002DE9F04119
:105260008446C368007DDCF80840012553F82030EF
:1052700054F820600020002A18BF1570C04C232964
:1052800000F0548115DC232941D2DFE801F04C51B4
:1052900056965B686D7290BCC1C6CBD1D6DB4040E0
:1052A00040404040404040777CE0404081FCFB4033
:1052B000FA0002272F2978D00BDCA1F124010B2959
:1052C00025D2DFE801F0E9E8E7E0DFE6E5E4E3E244
:1052D000E1006E296AD00DDC402900F00B8104DC6E
:1052E00030297DD03F297CD011E041297AD05B293B
:1052F00068D00CE0722904BF0420BDE8F0810CDC0A
:105300006F297BD0702904BF9E48BDE8F081002A38
:105310001CBF00211170BDE8F081732918BF8129DD
:10532000F5D1BDE8F081604600F054F9BDE8F081A8
:10533000986ABDE8F041FFF770B8986ABDE8F0419F
:10534000FFF770B83046FDF7DEF8C0EB00108000C4
:1053500084FB00108110A1EBE070BDE8F0811868BB
:10536000BDE8F041FDF7E6BE1868BDE8F041FDF785
:10537000DCBE1868BDE8F041FDF7D4BE186BBDE88F
:10538000F04100F0A5BAD86ABDE8F041FDF798BE3B
:105390003046FDF79AF8C0EB0010800084FB001047
:1053A0008110A1EBE070BDE8F08155E021E03046CE
:1053B000FDF79EF800B2BDE8F0813046BDE8F0414F
:1053C000FDF78BB83046FDF788F80128BAD1304692
:1053D000FDF791F8C0EB0010800084FB001003E0A3
:1053E00063E07CE01EE009E08110A1EBE070BDE825
:1053F000F0811868BDE8F041FDF79FBE1868BDE870
:10540000F041FDF795BE5868BDE8F041FDF792BE4A
:105410005868BDE8F041FDF788BE5868BDE8F04126
:10542000FDF780BE3046FDF763F80014BDE8F0815B
:105430009868BDE8F041FDF77DBE9868BDE8F04191
:10544000FDF773BE9868BDE8F041FDF76BBED86B01
:10545000BDE8F041FDF7F4BD9CF81420DCF8101015
:1054600051F822200021B7EB127F14BFB5EB127F59
:105470009969C2F30362022A14BF012AD96900297B
:105480000BE04BE046E041E076E071E06CE067E085
:1054900062E05DE058E053E04DE008BFBDE8F08118
:1054A0000846BDE8F041FEF795BE9CF81420DCF8F4
:1054B000101051F822200021B7EB127F14BFB5EB7A
:1054C000127F9969C2F30362022A14BF012AD969C3
:1054D0000029ABD0BDE8F0410846FEF781BE586A0E
:1054E000FEF747FFC0EB001027498000A1FB00102A
:1054F000C0089BE7586AFEF747FFC0EB001080002A
:1055000084FB00108110A1EBE0708FE73046FCF7C0
:10551000ECFF0EE03046FCF7E8FF0FE05969002988
:1055200084D0BDE8F0410846FEF7C8BD3046FCF720
:10553000D6FF00B27AE73046FCF7D1FF001475E7DA
:105540003046FCF7CFFFF4E73046FCF7CBFFF5E73A
:105550003046FCF7CDFFECE73046FCF7C9FFEDE73E
:105560003046FCF7DEFFE4E73046FCF7DAFFE5E71C
:105570003046FCF7D2FFDCE73046FCF7CEFFDDE734
:10558000676666667A84A634CDCCCCCC2DE9F0472C
:105590008946C168007D0124DDF8208051F8200093
:1055A0001E4617464569002D08BF00240FD0494606
:1055B0002846FEF786FD388049462846FEF787FDD7
:1055C000308049462846FEF789FDA8F800002046AD
:1055D000BDE8F087007D704710B5FDF7F9FB18B105
:1055E000BDE81040FDF730BCBDE81040FDF726BC1B
:1055F000DDF800C001710021C0E902230175C0F887
:1056000010C070470948418811B14188491E418046
:105610008188012902D98188491E81800188012958
:1056200098BF70470188491E01807047BC05002063
:10563000037901228B4294BF002201751046704706
:1056400001494F2088807047BC0500200149002097
:1056500088807047BC050020D0F808C0007D61F349
:105660000F0319465CF8200062F31F41FCF767BF87
:105670002DE9F041154602468368007D01262CB2D3
:1056800053F82070D3680A2953F8200068D008DC4A
:105690000A2916D2DFE801F01915153E152F343905
:1056A000555F0E2979D006DC0B295ED00C2961D01C
:1056B0000D296DD005E00F2974D0412977D05B29E1
:1056C00009D000263046BDE8F081E9B21046FFF768
:1056D000AFFF0646F6E705EB8500374A400000219C
:1056E000C2FB00104111A1EBE07001B2002238466C
:1056F000FCF7D8FEE6E700682146FDF730FDE1E75C
:1057000000682146FDF729FDDCE700682146FDF72A
:1057100022FDD7E715F0FF0F07D13846FCF7F9FE59
:10572000014600223846FCF7C4FEE8B20128C9D180
:105730003846FCF7E8FE014600223846FCF7B2FE88
:10574000C0E73846FCF7D4FE64F30F000146384644
:10575000FCF7F5FEB6E740682146FDF700FDB1E72E
:1057600040682146FDF7F9FCACE740682146FDF7AB
:10577000F2FCA7E73846FCF7BBFE64F31F40014686
:105780003846FCF7DCFE9DE707E001E00AE00EE0AA
:1057900080682146FDF7E3FC94E780682146FDF729
:1057A000DCFC8FE780682146FDF7D5FC8AE72146BF
:1057B0003846FCF7CEFE85E7898888882DE9F041D8
:1057C0000F46C168007D1D46069E51F820003946EF
:1057D00044692046FEF789FC2A4639462046FEF7F2
:1057E0008AFC324639462046FEF78BFC0120BDE894
:1057F000F08100002DE9F04F83B0144CDFF850B079
:10580000DFF844C00C9E1F46904689460546C4F802
:1058100008C09BE80F0C8CE80F0C0E48FFF7E4FB68
:105820000D48CDE900060D4B0D4A0A49A068FCF76A
:1058300065FF00953B4642464946A068FFF7D8FE03
:1058400003B0BDE8F08F00001C080020BC0500205C
:105850002807002040040020E14F0008C150000844
:10586000E950000838B5194CD4F82001016811F04E
:10587000200F0ED04068C1B22046FFF7C1FB008860
:10588000012804D0022808BFFFF7E0FE01E0FFF77F
:10589000D7FED4F82001006810F0800F1CBF0B4821
:1058A000FFF74DFCD4F82001006810F0080F08BF86
:1058B00038BD0648FFF79AFBD4F820010168009133
:1058C00040680090BDE83840FFF7C0BE40040020AB
:1058D000C18840884843000C704702E008C8121F86
:1058E00008C1002AFAD170477047002001E001C1C9
:1058F000121F002AFBD1704798B0FBF785FDFEF719
:105900002BFE0024D948029403940494016841F0CA
:1059100010010160016801F010010591016841F07A
:1059200002010160016801F002010591016841F482
:1059300080710160016801F480710591016841F096
:1059400080010160016801F080010591016841F06A
:1059500004010160016801F004010591016841F052
:10596000010101600068012500F001000590C048B8
:105970006946CDE90050BF48FBF71AFC009401943A
:10598000BE480294039404940594069407940894E2
:1059900009940A94B8490B94016029040561C0E98F
:1059A0000114047680F820404FF400680226C0F805
:1059B0000C80B349C661C0E90A1480F830404561E3
:1059C000FBF7B4FA28054FF4602ACDE906A04FF0A2
:1059D00006090327CDF800900497CDE901548DF80E
:1059E00015408DF814506946A4480394FBF7C0F89D
:1059F0004FF0080BCDE900B66946A048FBF7B8F8B0
:105A00000920CDE9000769469C48FBF7B1F80A2058
:105A1000CDE90805CDE90A7408A99848FBF7AEF965
:105A20000D20CDE90806CDE90A6408A99348FBF7E3
:105A3000A5F9009401949449029403940494059464
:105A400006940794089409940A948E480B9408606D
:105A500028044860084684600561047680F8204088
:105A6000C462874888620846C0F80C80C56180F827
:105A700030404561FBF75AFA2805CDE906A0CDF87C
:105A800000900497CDE901548DF815408DF814501D
:105A900069467D480394FBF76BF8CDE900B669468B
:105AA0007948FBF765F80920CDE900076946764893
:105AB000FBF75EF8CDF82090CDE9095408A97248AB
:105AC000FBF75CF9724804940594069407940394D8
:105AD00000940194029408946C490994C0E900145C
