:020000040800F2
:10000000B80F0020A18C0008E58C000801830008CF
:10001000E98C0008ED8C0008F18C0008000000005D
:10002000000000000000000000000000F58C000847
:10003000F98C000800000000FD8C000869830008AE
:10004000018D0008058D0008098D00080D8D000840
:10005000118D0008158D0008A38B0008A98B0008DE
:10006000AF8B0008B58B0008BB8B0008198D00080A
:100070001D8D0008218D0008258D0008298D0008A0
:100080002D8D0008318D000821820008358D000873
:10009000C18B0008398D00083D8D00089D8B00083C
:1000A000418D0008458D0008498D00084D8D0008E0
:1000B00077820008518D0008558D0008598D000881
:1000C0005D8D0008618D0008658D0008698D000850
:1000D0006D8D000893820008718D0008758D0008F1
:1000E000798D00087D8D0008818D000853820008FD
:1000F00043820008858D0008898D00088D8D0008D9
:10010000918D0008958D0008998D00089D8D00083F
:10011000A18D0008A58D0008A98D0008AD8D0008EF
:10012000B18D0008B58D0008B98D0008BD8D00089F
:10013000C18D0008C58D0008C98D0008CD8D00084F
:10014000D18D0008D58D0008D98D0008DD8D0008FF
:10015000E18D0008E58D0008E98D0008ED8D0008AF
:10016000F18D0008F58D0008F98D0008FD8D00085F
:10017000018E0008058E0008098E000800000000AE
:100180000D8E0008118E00082DE9F84C2DED0A8B1C
:1001900082B041EC190B149C43EC182B0CB10020DD
:1001A000206051EC180B20F0000631F0004708BF2A
:1001B000002E14D053EC192B0020DFF8241600F089
:1001C00063FB0CD0DFF8141600F05EFB0FD151EC8E
:1001D000180B48004015401C09D1090307D102B093
:1001E0000020BDEC0A8BDFF8F815BDE8F48C51EC6B
:1001F000190B48004015401C0DD051EC190B31F083
:10020000004108BF002806D051EC180B48004015EB
:10021000401C40F0F58051EC190B48004015401C83
:1002200005D1090318BF51EC190B40F0CF8251ECF6
:10023000180B48004015401C05D1090318BF51ECAC
:10024000180B40F0C38251EC180B480001244015F4
:10025000401C61D051EC180B4B0043EAD0734200B4
:10026000002B08BF002A04D1B0EE48AAF0EE68AA1D
:1002700019E040F23345A5EB5352352A04DB00F078
:10028000000001F000410CE0202A03DD203AD140BB
:10029000914000E001D1002003E0002AC4BFD0401B
:1002A000904041EC1A0B53EC182B51EC1A0B00F058
:1002B000EBFA18BF00244B0043EAD0734200002B36
:1002C00008BF002A04D1B0EE4A0AF0EE6A0A19E02B
:1002D00040F23445A5EB5352352A04DB00F0000010
:1002E00001F000410CE0202A03DD203AD14091408A
:1002F00000E001D1002003E0002AC4BFD0409040BC
:1003000041EC100B44B153EC1A2B51EC100B00F0E4
:10031000BBFA0CBF0024012451EC190B4800401516
:10032000401C0ED109030CD151EC190BC80F25D17B
:1003300053EC182BDA0F0CBF9FED8C0B9FED8D0B40
:1003400042E251EC180B48004015401C28D109032B
:1003500026D153EC192B23F00041B1F5801F22F078
:1003600000002ED20022002908BF002800922DD0C4
:100370006A4651EC190B00F097FA27E051EC180B84
:10038000C80F06D1002C0CBF9FED780B9FED7B0BA7
:100390001AE2002C0CBF9FED770B9FED7A0B13E256
:1003A000002C1ABF51EC190BC80F002053EC182B6E
:1003B000DA0F1ED100280CBF9FED6E0B9FED710B65
:1003C00002E2DFF8204404EB1150009051EC180BCE
:1003D000C80F009806D10028CCBF9FED640B9FED9D
:1003E000650BF1E10028CCBF9FED620B9FED5F0B29
:1003F000EAE100280CBF9FED5D0B9FED600BE3E190
:1004000051EC180B4B0043EAD0734200002B08BF9D
:10041000002A04D1B0EE48AAF0EE68AA19E040F232
:100420003345A5EB5352352A04DB00F0000001F000
:1004300000410CE0202A03DD203AD140914000E049
:1004400001D1002003E0002AC4BFD040904041EC1D
:100450001A0B51EC190BC80F11D053EC182B51EC9F
:100460001A0B00F011FA0AD0AFF3008002B04FF07F
:10047000FF30BDEC0A8B6FF00041BDE8F48C53EC0B
:10048000192B23F00041B1F5801F22F000000BD2A0
:100490000022002908BF0028009211D06A4651ECC2
:1004A000190B00F001FA09E0CE4E06EB1150009056
:1004B000DFF89C13CC4803401046194341EC190B5C
:1004C00051EC190BC80F36D021F0004053EC192B1A
:1004D000034643EC192B51EC1A0B4B0043EAD07343
:1004E0004200002B08BF002A04D1B0EE4A0AF0EE09
:1004F0006A0A19E040F23445A5EB5352352A04DB71
:1005000000F0000001F000410CE0202A03DD203A59
:10051000D140914000E001D1002003E0002AC4BF97
:10052000D040904041EC100B53EC1A2B51EC100BC7
:1005300000F0AAF901D1002600E001260098012868
:1005400024D151EC190BA94AA94B00F0E5F91DD2B1
:1005500053EC192B00204FF0804100F031FA0025B8
:100560009FEDC0BB41EC190B2EE000BF0000000066
:100570000000F07F0000000000000000000000000C
:100580000000F0FF000000000000008053EC192B79
:100590000020984900F014FA9FED97AB53EC1A2B0A
:1005A00000F008FB00F0E2FBA0F12005284600F077
:1005B00017FC0022924B00F003FA53EC1A2B00F0C8
:1005C000F9FA41EC1B0B6D0151EC190B53EC1B2B91
:1005D00000F02AFC41EC1A0B53EC192B51EC1B0BCD
:1005E00000F0E8FA02460B4651EC1A0B00F098FCBA
:1005F00041EC190B53EC192B00F0E2F941EC1C0B08
:1006000053EC1C2B7F48804900F0DAF97F4A804B7D
:1006100000F0D0FA53EC1C2B00F0D2F97D4A7E4B4F
:1006200000F0C8FA53EC1C2B00F0CAF97B4A7C4B53
:1006300000F0C0FA53EC1C2B00F0C2F9794A7A4B57
:1006400000F0B8FA53EC1C2B00F0BAF9774A784B5B
:1006500000F0B0FA53EC1C2B00F0B2F9754A764B5F
:1006600000F0A8FA53EC1C2B00F0AAF953EC1A2B5B
:1006700000F0DAFB07468B460020594953EC1B2B50
:1006800000F0D2FB00224FF0804300F099F93A4687
:100690005B4600F08FFA53EC192B00F091F953EC04
:1006A0001A2B00F087FA41EC190B00984A4F7F444F
:1006B00007F593772F4400F093FBD7E9002300F070
:1006C00079FA41EC1A0B53EC192B5C485C4900F0A9
:1006D00077F953EC1A2B00F06DFA53EC182B00F05D
:1006E0006FF90022574B00F017F941EC1B0B68D350
:1006F0000122554B00F03AFD59D9C80F53EC1B2B82
:100700001ABF00205149524900F054FA00F02EFB64
:10071000054653EC192B51EC180B00F051F98246A9
:100720008B46D7E90201D7E9042300F043FA53ECE2
:10073000182B00F045F99FED47BB53EC1B2B00F045
:100740003FF952465B4600F035FACDE9000153EC23
:100750001A2B51EC180B00F033F907468B4628464C
:1007600000F03EFB02460B463846594600F05CFB63
:1007700053EC1B2B00F024F9DDE9002300F01AFAFA
:100780000CB12560002500950022154B00F006FDF8
:1007900020F0000231F0004308BF002A41EC100BAA
:1007A0000FD048004015401C03D1090301D19FED33
:1007B0002B0B4EB151EC100B81F0004141EC100BB2
:1007C00002E09FED2A0BF4E751EC100B02B0BDECF8
:1007D0000A8BBDE8F48C00BFC06400000000F0BFCD
:1007E0000000F03F02FCFFFFFFFF0F80CD3B7F6664
:1007F0009EA0E63F00005040000000000000E03FE7
:100800000000903FF7DE29BFD8F8C23FF4B3FECC1A
:100810001A99C33F62CB68D96F46C73FC6C912DA7F
:10082000C471CC3F4AE98A942449D23FF75F979933
:100830009999D93FBC5555555555E53FFE822B65D5
:100840004715F73F0000E0C00000E0400000E0BFB7
:100850000000E03FEF39FAFE422EE63F00000000C4
:100860000000F07F000000000000F03F00000000EA
:100870000000000080B541EC100B0020009051EC0E
:10088000100BFFF781FC04BD90420CD141EA030C30
:1008900050EA4C0C07D0994205D14FF4001C1CEBD8
:1008A000410F38BF8942704710B5144600F002F876
:1008B000226010BDC1F30A5343B14A0012F5001F74
:1008C00028D2A3F2FE32A1EB0251704750EA410C4C
:1008D00020D001F0004C31EA0C01B1FA81F204BFE2
:1008E000B0FA80F3D2180B3AB2F120032CBF00FA11
:1008F00003F1914041EA0C013EBFC2F1200C20FA05
:100900000CF319439040524240F2FD33D21A01EBEE
:1009100003517047002270474FF4001C1CEB410F3D
:1009200094BF1CEB430F09E041EA030C50EA4C0C66
:1009300052EA0C0C03D2994208BF9042704714BF90
:100940008B4282427047F0B40246106895681318D3
:10095000506803EB5004C0071DD54D441BE013F84D
:10096000017B05F8017B491EF9D1A0B1B60813F847
:10097000011B06F00306032E08BF13F8016B01EB01
:1009800006214942801C294405D011F8016B05F865
:10099000016B401EF9D1A3420ED013F8016B16F083
:1009A000030104BF13F8011BC91C30090F28DAD159
:1009B00013F8010B0F30D6E7F0BC02F10C007047C2
:1009C000B0B581EA030C0CF0004C40F2FF7515EA5B
:1009D00011541DBF15EA1357AC42AF4239E0E41978
:1009E00023EA455343F48013C90241F0004141EA30
:1009F000505EC7021100A7FB020200284FF0000062
:100A0000EEFB01204FF00001E3FB072118BF42F08D
:100A10000102401800214941E3FB0E01A4F5806466
:100A20000F0302D252004041494154F101046CDDF0
:100A3000470872F1004250F1000051EB0451A1F55A
:100A400080115CBF41EA0C01B0BD4CEA05510020A9
:100A5000B0BD05EA1357AC4214BFAF4241E050EAC3
:100A6000410E1CBF52EA430E02E061460020B0BDB9
:100A700024423C441BD15FEA070EF6D0090302BFB3
:100A800001460020AEF1140EB1FA81F7AEEB070477
:100A900001FA07FE0C37C7F1200100FA07F7C8403A
:100AA0004EEA000E23EA455343F48013A2E733F0E5
:100AB0000043B3FA83F704BFB2FA82FE77440B3FD8
:100AC000E41BB7F1200E2FBF02FA0EF3BB40C7F1B3
:100AD000200E22FA0EFE38BF43EA0E03BA40641C11
:100AE00082E750EA410E14BF52EA430E6FF0000154
:100AF0004FF4001717EB430F8ABF194617EB410F4E
:100B0000B5E74CEA05510020B0BDD4F10104B4F1C1
:100B100020070FDAC4F12007520828BF42F0010273
:100B200010FA07F501FA07F7E1BF2A43E04038431E
:100B3000E1400FE0352C98DCC7F1200452EA400276
:100B400020FA07F218BF42F0010231FA07F0A14083
:100B50000A43002172F1004250F1000051EB0C01F8
:100B6000B0BD70B4826F9268136A23F4805313622D
:100B700090F87320102A18D2826F90F87240C36DDB
:100B800002EB84056E6A326890F87240D318826F67
:100B9000C36502EB8405EE6B036E3268D3180366FF
:100BA00090F873305B1C80F8733000200880488018
:100BB00070BC704770B44FF0004591EA030F40F1EC
:100BC0003B816B40841A71EB030604D26E40001B1C
:100BD000B141121973414FF4001C1CEB410F34BF9B
:100BE0007CEB430683E00C0DA4EB1356362E00F38A
:100BF0007C80012E45EAC32341DC43EA525312BFF5
:100C0000D20292025B08240545EAC12141EA505113
:100C1000D2EBC020994125D407D1B0FA80F610FA62
:100C200006F162D00020203608E0B1FA81F6B1402A
:100C3000C6F1200220FA02F21143B0404FEAF474E8
:100C4000B4EB465434F001064FEA74040AD8D6F5E2
:100C50000016760D04F00044F04061FA06F25040B0
:100C6000F1404840C00A40EA415021F0004128BF0D
:100C70005FEA500550F1000044EBD12135E0DB0A7A
:100C800045EAC121C90AB6F120050EDD42EA024259
:100C9000120CC5F1200603FA06F6EB4042EA0605FF
:100CA0006D42984161F100010DE062FA06F5F240F3
:100CB000554063FA06FC82EA0C02F3405A406D424A
:100CC000904161EB030111F4801F05D1641E6205A0
:100CD00002D06D004041494121F48011430875F173
:100CE000004350F1000041EB045170BC70471CEB15
:100CF000410F15D223F0004352EA43060BD04FEACE
:100D00004C0CBCEB410F04D80C0D661E342EB7DD25
:100D1000EBE7801A994150EA410608BF0021E4E759
:100D200008BF1CEB430F28BF6FF00001DDE770B474
:100D3000826F9268136A23F48053136290F87320D1
:100D4000102A0ED2826F90F87240436E02EB840537
:100D5000EE6B3268D318436690F873305B1C80F8F2
:100D6000733000200880488070BC7047C1F30A537C
:100D700040F2FE329B1A14DDD3F120034FEAE172F8
:100D800008DDC90241EA505141F00040D8408018C6
:100D90005040704703F2E13010B1D24382F000407E
:100DA00070470020704730B4002513E050F8042B42
:100DB000D30744BFA9F101039A18091F042942F877
:100DC000045BFAD213468C0744BF15809B1CC907ED
:100DD00048BF1D7050F8041B0029E7D130BC704794
:100DE000C11768B14840401AB0FA80F29040D21C56
:100DF000C907C2F5846241EA025202EBD0214005E4
:100E0000704790F81C1169B90022012180F81D215A
:100E100080F81C11D0F82001C16841F02001C160A8
:100E2000022070470120704770B44FF0004591EAEE
:100E3000030F7FF5C7AE6B40841A71EB030603D234
:100E4000001BB141121973414FF4001C1CEB410F00
:100E500034BF7CEB430442E00C0DA4EB1356352E5B
:100E60004FDC45EAC323DB0A45EAC121C912B6F1CA
:100E700020050DDD63FA05F6EB4086EA0305124214
:100E800018BF45F00105C01851F100010CD213E064
:100E900062FA06F5F2405540F3415A40B340F34040
:100EA0005A408018594107D349085FEA30005FEA89
:100EB000350528BF45F0010501F58011420875F19F
:100EC000004250F1000041EB04514E0016F5001FA6
:100ED00070BC38BF70470020090D090570471CEB36
:100EE000410F10D252EA43060BD0BCEB410F05D89C
:100EF0000C0DAB43661E342EB6DD02E0AB4380180A
:100F0000594170BC704770BC70470146002091F891
:100F10007420012A03D10022402081F874207047F8
:100F2000F0B540F2FF7581EA030C0CF0004C15EAB5
:100F300011541DBF15EA1357AC42AF42E5E0BC4166
:100F4000C1F31301C3F31303801A994143F48013CF
:100F500004D2641E4000494180185941C90241EA47
:100F60005051B1FBF3F603FB1611A2FB0675D7EB4C
:100F7000C020A94102D2761E80185941C90241EA17
:100F80005051B1FBF3FE03FB1E11A2FB0E75D7EB14
:100F9000C020A94103D2AEF1010E80185941890247
:100FA00041EA9051760546EA8E2EB1FBF3F603FB3B
:100FB0001611A2FB0675D7EB8020A94102D2761E3E
:100FC00080185941C90241EA50514EEA060EB1FB60
:100FD000F3F603FB1611A2FB0675D7EBC020A9415F
:100FE00002D2761E80185941C90241EA5051B1FB24
:100FF000F3F703FB1711A2FB0735D3EBC020A94180
:1010000067F100070CBF004247F0010766F3D527E0
:101010004FEA1E31B80814F5806412DDBD0775F182
:10102000004250EB0E5051EB045111F5801F5CBF94
:1010300041EA0C01F0BD4CF07F6141F0E04100203D
:10104000F0BDBD076D0840EA0E5041F48011D4F1A7
:101050000104B4F120060ADAC4F120060200E040DF
:1010600001FA06F3E1401843B24015430EE0342C78
:1010700013DCC6F1200445EA40056D0820FA06F2AB
:10108000154321FA06F0A1400D43002175F10042FD
:1010900050F1000051EB0C01F0BD00205FEA0C01A3
:1010A000F0BDCFB992185B41B3FA83F704BFB2FA2F
:1010B00082F6BF190B3FB7F120062FBF02FA06F3E5
:1010C000BB40C7F1200622FA06F638BF3343BA40C8
:1010D0001CB1E419641E33E77F4231F00041B1FADC
:1010E00081F404BFB0FA80F6A4190B3CB4F12006D9
:1010F0002FBF00FA06F1A140C4F1200620FA06F63F
:1011000038BF3143A0403C1B1AE7AC421ABF05EA86
:101110001357AF4212E050EA41061CBF52EA4306A1
:10112000BFE750EA4107304661461CBF41EA05511E
:10113000F0BD52EA430C08BFC143F0BD00204FF49C
:10114000001616EB410F98BF16EB430F08BF16EBC6
:10115000410F24BFC14305E016EB430F0CBF6146AE
:101160004CEA0551F0BD0000010002004FF4001CE4
:101170001CEB410F94BF1CEB430F09E041EA030C49
:1011800050EA4C0C52EA0C0C03D28B4208BF82424C
:10119000704714BF9942904270470000F8B52DED9A
:1011A0000A8B41EC1A0B48004015109D401C43EC83
:1011B000182B23D051EC1A0B31F0004108BF002846
:1011C0001CD051EC180B48004015401C16D051ECB7
:1011D000180B31F0004108BF00280FD051EC1A0B5A
:1011E0000022DFF84833FFF797FB80F0A38055EC2F
:1011F000184B9FED800B05F00042ACE051EC1A0B50
:1012000048004015401C02D1090340F0898151EC8F
:10121000180B48004015401C01D1090353D151EC73
:10122000180B31F0004308BF002A08D151EC1A0B0B
:1012300048004015401C46D1090344D10DE0480048
:101240004015401C12D1090310D151EC1A0B480073
:101250004015401C37D1090335D1AFF30080BDECF8
:101260000A8B4FF0FF306FF00041F4BD51EC1A0BC8
:1012700031F0004108BF002828D151EC180B48007C
:10128000400D05EB000234D151EC180B31F0004158
:1012900008BF002806D02A4651EC180B00F072F95E
:1012A00041EC180B51EC180B20F0000231F0004318
:1012B00008BF002A05D048004015401C03D109038F
:1012C00001D1AFF3008051EC180B2BE151EC1A0B5C
:1012D00048004015401C26D1090324D153EC1A2B99
:1012E00051EC180BBDEC0A8B01B0BDE8F040FFF7E4
:1012F00067BB002AC8DD40F2FF70824209DB9FED28
:101300009F0B53EC102B01F000410B4343EC182BC7
:10131000C8E76FF31E5141EA025155EC184B0D46D8
:1013200045EC184BBEE755EC184B9FED320B05F022
:10133000004210E001227E4BFFF718FF11D89FED0D
:101340008F0B51EC100B55EC184BAFF3008005F0F0
:10135000004040EA010251EC100BBDEC0A8B114633
:10136000F4BD53EC1A2B73487349FFF729FB41EC8A
:10137000100B53EC102B9FED719B03F0004251ECCE
:10138000190B0C46144353EC192B51EC100B23464C
:10139000FFF710FCFFF7EAFC0446FFF721FD41ECE4
:1013A0001B0B53EC1B2B4FF078406649FFF708FBF3
:1013B00002460B4651EC1A0BFFF736FD06460F4668
:1013C00053EC1B2B60486149FFF7FAFA02460B46C3
:1013D00030463946FFF728FD41EC1A0B21F0004159
:1013E00000225B4BFFF798FA08D2B0EE48AAF0EE65
:1013F00068AA55E0000000000000000053EC1A2B22
:1014000051EC1A0BFFF7DCFA41EC1B0B53EC1B2BD6
:1014100050485149FFF7D4FA504A514BFFF7CAFBE5
:1014200053EC1B2BFFF7CCFA41EC1C0B53EC1B2BA2
:101430004C484D49FFF7C4FA4C4A4D4BFFF7BAFBF5
:1014400053EC1B2BFFF7BCFA53EC192BFFF7B2FB45
:1014500053EC1A2BFFF7B4FA41EC190B53EC1C2B8D
:10146000FFF7A8FB9FED43AB53EC1A2BFFF7A2FB52
:1014700006460F4651EC1C0B53EC192BFFF7D4FC1E
:1014800053EC1A2BFFF796FB02460B4630463946C3
:10149000FFF746FD53EC182BFFF792FA41EC1A0BBD
:1014A00051EC1A0B2A194800400D02EB000319D029
:1014B000002B17DD40F2FF70834209DB9FED2F0BFD
:1014C00053EC102B01F000410B4343EC1A2B16E0B8
:1014D0006FF31E5141EA035155EC1A4B0D4645EC92
:1014E0001A4B0CE051EC1A0B31F0004108BF0028F8
:1014F00005D051EC1A0B00F045F841EC1A0B51ECF9
:101500001A0B20F0000231F0004308BF002A05D07A
:1015100048004015401C03D1090301D1AFF30080FE
:1015200051EC1A0BBDEC0A8BF4BD000000C89CC046
:1015300000C89C40FE822B654715F73F0000000065
:101540000000E03F422EE63FF2E4D5BCE7E84B3E28
:101550000000903C112E5781A03F503F5843128C01
:101560008F71BC3F4BE8A541B752013F0BBDF3DA89
:10157000E8708C3F000000000000F03F0000000019
:101580000000F07F124254D440F2FF7C1CEA115359
:101590000FD0634531D09B1863453CBF01EB02512E
:1015A000704701F0004141EA0C510020AFF3008088
:1015B000704750EA410320D001F0004C91EA0C0141
:1015C0001CD0B1FA81F30B3B9A420DD9D21A994043
:1015D00051EA0C01C3F1200C20FA0CFC6144984044
:1015E000531C40F2FF7CD7E7914041EA0C01C2F165
:1015F000200C20FA0CF3194390407047B0FA80F3A6
:101600001533202BE0D3202AEED3203A203B9A42F8
:1016100009D9D21A00FA03F141EA0C010020531C47
:1016200040F2FF7CB8E700FA02F141EA0C01002029
:101630007047524240F2FF7C1CEA11530DD06345C3
:10164000DBD0B2EB030C3CBFA1EB025170470CF1B5
:10165000010221EA035141F4801150EA410CCCD03F
:1016600001F0004C352A27DC30B481EA0C01B2F1DC
:10167000200309DAC2F12003044601FA03F5D04041
:101680002843D1409C400CE0C3F12002450020FAE1
:1016900003F418BF44F0010421FA03F091400C4315
:1016A000002174F1004550F1000051EB0C0124427F
:1016B00030BC7FF47BAF70476146002076E70000C6
:1016C00030B5040081B000F0818094F83C0028B966
:1016D000002184F83D10204600F04FFB022084F8E2
:1016E0003C002068016821F0020101602068026866
:1016F00042F00102026000F093FB05462068416859
:10170000CA0766D400F08CFB401B0B28F6D30320DD
:1017100084F83C00002184F83D1001B030BD016820
:1017200021F080010160E0690128206801680CBF98
:1017300041F0400121F040010160206A0128206849
:1017400001680CBF41F0200121F020010160606AB6
:101750000128206801680CBF41F0100121F0100140
:101760000160A06A0128206801680CBF41F00801EF
:1017700021F008010160E06A0128206801680CBFBF
:1017800041F0040121F004010160A268E0682169D0
:10179000024360690A43616802432068491E0A43A4
:1017A000C2612068016849084900016000F038FB07
:1017B000054620684168CA0716D500F031FB401B7A
:1017C0000B28F6D3A3E7042084F83C00012001B0E5
:1017D00030BD4168CA07F6D5A16901299FD10268C9
:1017E00042F0800202609EE74068C107EBD400200F
:1017F0002064012184F83C1001B030BDF0B44A6986
:10180000DFF8A433012000FA02F2186840F001006A
:1018100018601C6824F47C541C6018684C6A40EA08
:1018200004201860D443DD692540DD61C869B8B97A
:10183000D8682040D860CF68DFF87003D1F804C0C2
:101840004E6900F51075CCEA074745F8367000F58B
:1018500011708E680F684D69C7EA064C40F835C0B4
:10186000C869012817D1D8681043D8600F68DFF81D
:101870003C03D1F804C04E6900F51075CCEA074767
:1018800045F8367000F511708E68CF684D69C7EA6B
:10189000064640F835608869002858680CBF20402B
:1018A00010435860086910B9586904405C610869C0
:1018B000012802D1586910435861086A012802D1F1
:1018C000D8690243DA6100201968490849001960A3
:1018D000F0BC70470A0010D190F83C20222A1FBFAC
:1018E00090F83C20422A90F83C20622A1BD090F8C5
:1018F0003C20722A13D10220704701290FD190F8A1
:101900003C20322A1CBF90F83C20522A0BD090F881
:101910003C20622A1CBF90F83C20722A03D090F829
:101920003D20012A01D102207047012280F83D208C
:101930000B0090F83C200BD1122A05D0322A12D08D
:10194000522A12D0222215E0422380F83C3013E0C4
:10195000122A04D0222A06D0422A06D009E05223B5
:1019600080F83C3008E0622204E0722380F83C30CA
:1019700002E0322280F83C200023036402685369AD
:1019800043F40F4343F001035361002280F83D20EC
:101990000029006841690CBF41F00A0141F0500183
:1019A00041610020704770B5044600202268D66867
:1019B000002100255369F60605D51B0703D510261F
:1019C0004FF40075D660226816695369F60605D58E
:1019D0005B0603D5102645F48065166122685369BD
:1019E000DE0751D59668744B1E409E429668714B37
:1019F00008BF01201E409E4296686D4B08BF012122
:101A00001E409E420CBF01230023084318433BD0D5
:101A10009068916893684008490A00F0010001F05D
:101A200001015B0C084303F00103184325D0506902
:101A300040084000506194F83C00122804D120680E
:101A4000416921F40F41416194F83C00422809D0DA
:101A5000522805D0722809D1622184F83C1008E090
:101A6000322004E0222184F83C1002E0012084F8B6
:101A70003C00204600F0DAF901E045F400652168F9
:101A80004E488A6802438A602068C168406911F044
:101A9000030F05D0800703D50021204600F092F8FF
:101AA00020680169406911F0030F05D0C00603D515
:101AB0000121204600F086F8206C0543256420684B
:101AC000836941694269DB0707D5C90505D5120459
:101AD00003D5216C41F001012164836941694269A8
:101AE0009B0707D5890505D5120403D5216C41F064
:101AF000020121648369416942695B0707D5490591
:101B000005D5120403D5216C41F0040121648169DB
:101B100001F070014B1E416942699B41DB0F2FD1DF
:101B200009052DD512042BD5816901F0700110290A
:101B30000AD020290CD030290ED0402910D05029AD
:101B400012D0602914D017E0216C41F0080112E096
:101B5000216C41F010010EE0216C41F020010AE0FF
:101B6000216C41F0400106E0216C41F0800102E06F
:101B7000216C41F480712164816921F070018161DF
:101B8000206C78B1206804214160012284F83C2057
:101B900021680B484A6902404A612046BDE870400E
:101BA00000F045B970BD00000066004000640040D0
:101BB00000000310000300080300000419050100E1
:101BC000A470FFFF70B50A0002680CBF436B836B03
:101BD0000C0102F5D8752A5912F004029A600568C2
:101BE00005F5D872155907BF6D0D1D60ED085D60D4
:101BF000026802F5D8752E5906F00206DE6002680A
:101C00002244D2F8B451596205F00F051D610268F3
:101C10002244D2F8B451C5F307221A620268224462
:101C2000D2F8B8511D7502682244D2F8B8512D0A75
:101C30005D7502682244D2F8B8512D0C9D7502687A
:101C40002244D2F8B8512D0EDD7502682244D2F834
:101C5000BC511D7602682244D2F8BC512D0A5D7633
:101C600002682244D2F8BC512D0C9D7602682244B1
:101C7000D2F8BC41240EDC760B00026806D1202489
:101C8000D4600268536923F00A0305E0202313613E
:101C90000268536923F05003536190F83C20222AD4
:101CA00018BF322A04D10268536923F40F435361E9
:101CB000002990F83C100CD1422911D0622902D0A1
:101CC000722904D016E0322280F83C2015E052211F
:101CD00011E0522904D0622906D0722906D009E009
:101CE000122280F83C2008E0222104E0422280F801
:101CF0003C2002E0012180F83C1000F08AF900202D
:101D000070BD0000414810B5414C2060032004F133
:101D10004401606021634FF4C00000216061A16054
:101D2000E16001204FF4A021E061206221610020E8
:101D300004F1640200216062A062E0626263A1615A
:101D40008AB02046FFF7BCFC00210591002201214A
:101D50000791069249F6A401019100924FF6FF7196
:101D60000291039104920E21012209910892694681
:101D70002046FFF743FD0AB010BD006823498842A2
:101D800000D0704710B586B00022224800924FF470
:101D90000074016941F000710161016901F0007195
:101DA000009100990092036843F480730360016816
:101DB00001F480710091009900920222036843F0BF
:101DC00002030360006800F00200009000991248CE
:101DD00002920021039109220592019401A900F0C9
:101DE0002FFB02200290049009220592019401A980
:101DF0000A4800F025FB00220121142000F033FCEA
:101E0000142000F059FC06B010BD00000064004032
:101E100088080020303802400004024000200240C0
:101E200001484068704700BFBC07002070477047FA
:101E3000D0B58CB000F08AFC00F0FBF801A80021BE
:101E4000002200230EC006C00024DFF89405009491
:101E5000016841F010010160026802F01002009276
:101E6000002200990092036843F0020303600168B6
:101E700001F00201009100990092036843F0010310
:101E80000360016801F0010100910099009203686C
:101E900043F480730360016801F48071009100993C
:101EA0000092036843F080030360016801F0800141
:101EB00000910099009201210368DFF8282543F082
:101EC00004030360006800F0040000900098DFF84D
:101ED000180501910292039401A900F0B1FA00F0F3
:101EE00051FC00F008F900F06FF900F055FD02A870
:101EF0000021002200230EC00EC00EC00122049259
:101F00004FF0804006220FF228540692D4E9006771
:101F1000DFF8D84420646164002041F63F71A0647A
:101F2000E16420650122089200210320CDE90067C9
:101F3000A1650290039105910791099106220A92E9
:101F400002A904F1400000F0FBFD00210091019185
:101F500004F14000694601F095F800F091F901F0B4
:101F60000DF901F063F9DFF888044FF4E131002244
:101F700020606160A260E26022610C206061A26169
:101F8000E261204601F094F901F05EFA01F07EFA78
:101F900000220221122000F066FB122000F08CFBD0
:101FA000002201212C2000F05EFB2C2000F084FB9D
:101FB000012204212B2000F056FB2B2000F07CFB9B
:101FC000002203211C2000F04EFB1C2000F074FBBB
:101FD00001220321252000F046FB252000F06CFBA8
:101FE00000220321062000F03EFB062000F064FBE7
:101FF00001F0EEFA01F003FBFFF784FE0021DFF8A9
:10200000F403FFF767FC3C21DFF8EC0300F0E4FD8C
:10201000FEE7416B4A6841F214339A4206D1CA7D09
:10202000897D41EA0221DFF8D42311800021FFF7E6
:1020300051BCF0B593B006A8002100220023002473
:102040001EC01EC01EC001AD002600278E46A5E89A
:10205000C040C0C500914FF48033DFF8A40301688D
:1020600041F080510160006800F0805000900098BD
:10207000DFF890030092026842F48042026001227D
:10208000006800F48040009006A8009906920221A2
:102090004FF480020C910D920421A8220E910F9210
:1020A0000221042207931091119201F0B1FA0F213D
:1020B0000191022202924FF480514FF4A0520591F7
:1020C00004920394052101A801F05EFC01F0EBFCF1
:1020D00001F0EDFCCC4AA0FB0221480A00F004FB11
:1020E000042000F012FB002200214FF0FF3000F02E
:1020F000BAFA13B0F0BDF0B58DB004A800210022EB
:10210000002300241EC01EC0C04CC14820606D4684
:10211000012020610026BF48A06200278C468E4621
:102120004FF4803185E8C0506160A260227684F867
:102130002020E26284F8302002204FF40061E06148
:102140000122E1606261204601F006FD0621049152
:1021500001220592032108914FF460220A924FF464
:1021600080110B9101228DF8242006968DF82560B0
:10217000079604A9204601F053FE0821049102228B
:10218000059204A9204601F04BFE09210491032287
:10219000059204A9204601F043FE0A210091012284
:1021A00003210291019203966946204601F0FFFC4B
:1021B0000D21009102220192029203966946204667
:1021C00001F0F5FC0DB0F0BDF0B58DB06846002112
:1021D0000022002300241EC01EC08F4C8F482060A8
:1021E00008AD0120206100268A48A06200278C46A5
:1021F0008E464FF4803185E8C050616001204FF475
:102200000061E0616061A260227684F82020E262D1
:10221000E16084F83020204601F09EFC0621009108
:1022200001220192032104914FF4602206924FF49F
:102230008011079101228DF8142002968DF8156007
:1022400003966946204601F0EBFD08210091022229
:1022500001926946204601F0E3FD09210091032225
:1022600001926946204601F0DBFD0620012108901D
:1022700009910A9608A9204601F099FC0DB0F0BD1D
:10228000F0B597B011A80021002200230EC006C0AF
:1022900069A46846D4E90067CDE9076700241EC039
:1022A0000EC009AD002600278C468E46A5E8C0501A
:1022B000A5E8C0505A4C5B48206061604FF4AF50B5
:1022C0002022E0600121A2604FF480756161A3616A
:1022D0002561204600F0D8FB204600F0EFFB0621E8
:1022E00011911022129211A9204600F019FD0796B3
:1022F000089607A9204600F0C5FE60200090002245
:10230000029204920692019603960596694620462B
:1023100000F08AFC04226946204600F085FC082271
:102320006946204600F080FC702141F2DF520091A6
:10233000019269460C22204600F076FC4FF4806141
:102340000A914FF40060102109900C910B950D96A5
:102350000E96109609A9204600F0DEFE204601F0F8
:1023600039FF17B0F0BD704700B5012881B00146B4
:102370000AD11D4800F03EF908B901F0CBFF2A4907
:102380000120086001B000BD022805D1164800F008
:1023900031F908BB052005E0042808D1124800F0F7
:1023A00029F9C8B901B05DF804EB02F047B8082874
:1023B00007D10D4800F01EF970B91C49087001B032
:1023C00000BD102808D1084800F014F920B901B068
:1023D0005DF804EB02F062B801B000BD000000003F
:1023E0003038024000002110001002401409002083
:1023F0000010014088080020BC0A00209C0B00202F
:102400004038024000700040986E1283EC090020B2
:10241000002001400100000F340A0020002101408B
:10242000FC0A002000040140143C01403E0700204B
:10243000000000000000000000000000000000009C
:102440002DE9F04F03460C464FF0000881B0C1461D
:10245000C24672487249734A0125266805FA08F592
:1024600005EA060EAE4540F0B780032606FA09F6E7
:102470006FEA060C6668012E18BF022E03D0112EDB
:1024800018BF122E11D19E68E7680CEA060607FAFB
:1024900009F73E439E605E6826EA05056668C6F356
:1024A000001606FA08F635435D60DD68A6680CEA9A
:1024B000050506FA09F63543DD606568022D18BF8B
:1024C000122D12D14FEAD80503EB85050AF01C0640
:1024D0002F6A4FF00F0B0BFA06FB27EA0B07D4F815
:1024E00010B00BFA06F63E432E621D680CEA050694
:1024F000257905F0030505FA09F535431D60656882
:10250000ED0069D5002600964FEA980C156845F451
:1025100080451560166806F4804600960F26009DDB
:1025200051F82C700AF00C05AE4027EA06063E4F23
:10253000BB4208BF002723D03C4FBB4208BF012746
:102540001ED03B4FBB4208BF022719D0394FBB42B8
:1025500008BF032714D0384FBB4208BF04270FD051
:10256000364FBB4208BF05270AD0354FBB4208BFD4
:10257000062705D0334FBB420CBF0727082700BFF3
:1025800007FA05F5354341F82C506FEA0E0C056843
:1025900066680CEA0505F70348BF4EEA05050560C5
:1025A000456866680CEA0505B70348BF4EEA0505AD
:1025B0004560856866680CEA0505F70248BF4EEA83
:1025C00005058560C56866680CEA0505B60248BF62
:1025D0004EEA0505C0F80C5008F10108B8F10F0FDC
:1025E0000AF1040A09F102097FF636AF01B0BDE82D
:1025F000F08F000000690140481E8041C043C00FB9
:10260000704702B90904816170470F4A1368034299
:102610001CBF1060FFF7A8BE70470000003C0140DF
:1026200008380140443802400000024000040240E3
:1026300000080240000C024000100240001402405A
:1026400000180240001C0240143C0140364B19683F
:102650004FF6FF020002114000F4E06008433349E6
:1026600008431860704730B42F4B1C68C4F3022332
:10267000C3F10704052C28BF04241D1D072D34BFFA
:102680000023DB1E012505FA04F4641E2140994055
:1026900005FA03F35B1E1A4011430901020003D43B
:1026A0002348815430BC7047224B02F00F021A4479
:1026B00002F8041C30BC7047010007D4012200F06E
:1026C0001F011D4B8A40400943F820207047BFF38B
:1026D0004F8F154919480A6802F4E06202430A6004
:1026E000BFF34F8F00BFFDE7401EB0F1807F01D3E5
:1026F0000120704712494860F02081F8130D002234
:102700008A60072008600020704704280C4904D123
:10271000086840F00400086070470A6822F004026C
:102720000A607047000000000CED00E00000FA05B0
:1027300000E400E018ED00E000E100E00400FA052C
:1027400010E000E000F000B87047000000B50C4851
:1027500081B0016841F400710160026842F4806256
:102760000260016841F4807101600320FFF76EFF91
:10277000042001F099FE01F01DFC002001B000BD15
:10278000003C02402DE9F04786B068460021002257
:1027900000230EC006C005917648774C0168774D3E
:1027A000774E784FDFF8E081DFF8E091DFF8E0A1C5
:1027B00041F010010160026802F01002059200224F
:1027C00005990592036843F020030360016801F056
:1027D0002001059105990592036843F08003036089
:1027E000016801F08001059105990592036843F0A5
:1027F00001030360016801F001010591059905924B
:10280000036843F008030360016801F008010591C3
:1028100005990592036843F004030360016801F021
:102820000401059105990592036843F04003036094
:10283000016801F0400105910599059201220368A4
:1028400043F0020303602021006800F002000590BD
:102850002046059BFFF7D5FE002208212846FFF7FA
:10286000D0FE01224FF480513046FFF7CAFE00220D
:102870004FF400513046FFF7C4FE00228021384655
:10288000FFF7BFFE00224FF480614046FFF7B9FE1C
:1028900001224FF400414846FFF7B3FE00224FF4F7
:1028A00080715046FFF7ADFE2021009101220021EA
:1028B00002910391019269462046FFF7C1FD08216C
:1028C000009101220192002102910391284669465C
:1028D000FFF7B6FD40202F4900900191012202929E
:1028E00069462846FFF7ACFD4FF4405100910122A4
:1028F000002102910391019269463046FFF7A0FD45
:1029000080210091012200210291039101926946E8
:102910003846FFF795FD4FF48061009101220021B8
:1029200002910391019269464046FFF789FD4FF4F9
:102930000041009101220021029103910192694618
:102940004846FFF77DFD4FF4807100910122002180
:1029500002910391019269465046FFF771FD0022F2
:1029600001211720FFF77FFE1720FFF7A5FE06B015
:10297000BDE8F087303802400010024000140240E9
:10298000000C024000080240000002400018024013
:102990000004024000002110364837494FF482728B
:1029A00000B5016042604FF40061C160022208215D
:1029B0000261C16100234FF400720A218360436108
:1029C0008261036243628362C16281B001F090FD63
:1029D00020B101B05DF804EBFFF7C5BC01B000BD4C
:1029E00030B587B001A90022002300241CC10CC10E
:1029F0000068214DA8423AD120480092416941F433
:102A000080514161416901F4805100910099009227
:102A1000036843F001030360016801F001010091C4
:102A2000009900922021036843F002030360022210
:102A3000006800F002000090009811480191029295
:102A400001210391032205210591049201A9FFF7B9
:102A5000F7FC30210191022201210391029205210C
:102A600003220591049201A90648FFF7E9FC07B08B
:102A700030BD000094090020003001403038024091
:102A8000000002400004024010B5040001D1012002
:102A900010BD94F83D0028B9002184F83C10204670
:102AA00001F085FB022084F83D00211D206800F024
:102AB00062F9012084F83D00002010BD10B504002B
:102AC00001D1012010BD94F83D0028B9002184F8FF
:102AD0003C10204600F08DFB022084F83D00211DB3
:102AE000206800F048F9012084F83D00002010BD66
:102AF0000068012201F01F01036A02FA01F18B4311
:102B00000362026A11430162DFF82C1088421CBF85
:102B1000DFF82820904203D1416C41F40041416428
:102B2000816801F00701062903D0016841F0010125
:102B300001600020704700000000014000040140D7
:102B4000F0B5040081B00D4608BF012041D094F8D3
:102B50003D0028B9002184F83C10204601F0C0FA5D
:102B6000022084F83D002168DFF8A8018A6802404D
:102B70008A60211D206800F0FEF82268DFF89811B5
:102B800093689769166AA8680F400743A869DFF839
:102B90008C1147EA0027E8680F40E9690743286974
:102BA00047EA0127296A47EA001747EA01376868B8
:102BB000696926F0AA0606432868034346EA011617
:102BC000936021688F6101212068066284F83D10BE
:102BD000002001B0F0BD000011B1042909D00AE0C5
:102BE00001680A6A520852000A620A6A42F0010247
:102BF00011E0016808E001680A6A520852000A629E
:102C00000A6A42F001020A620A6A22F010020A62AB
:102C10000A6A42F010020A620068016841F001018C
:102C2000016000207047000030B5044681B094F880
:102C30003C0001280D4608BF022068D0012084F81E
:102C40003C0002210C2A84F83D1059D8DFE802F03C
:102C5000075858581B58585830585858440020683E
:102C6000294600F0DAF82068816941F008018161A5
:102C70002068816921F00401816121688A692869DD
:102C800002438A613CE02068294600F0F4F820689D
:102C9000816941F4006181612068816921F480616A
:102CA0008161206881692A6941EA0221816127E006
:102CB0002068294600F011F92068C16941F0080137
:102CC000C1612068C16921F00401C1612168CA693C
:102CD00028690243CA6113E02068294600F02EF9F2
:102CE0002068C16941F40061C1612068C16921F4B3
:102CF0008061C1612068C1692A6941EA0221C1611C
:102D0000012084F83D00002184F83C10002001B02F
:102D100030BD0000F8BFFFFFFCFCFFFF0303FFFF17
:102D200010B5044694F83C00012801D1022010BDE2
:102D3000012084F83C00022284F83D20204600F067
:102D400021F930B1012084F83D00002184F83C10C5
:102D500010BD2068C16821F04001C1602068C168D1
:102D600021F48041C160012084F83D00002184F8F5
:102D70003C10002010BD30B4DFF8DC32046898420B
:102D800018BFB0F1804F0CD0DFF8D02290421CBFAA
:102D9000B34DA84205D0B34A90421CBFB24DA842E1
:102DA00010D14A6824F070041443984218BFB0F15F
:102DB000804F1BD0A94A90421FBFA94DA842A94AE3
:102DC000904213D0A84DA8421CBFA84A90420DD0F3
:102DD000A74DA8421CBFA74A904207D0A64DA842C3
:102DE0001FBFA64A9042A64DA84203D1CA6824F448
:102DF000407414434A6924F08004144304609842E8
:102E00008C68C4620A68826219BF974B984209694C
:102E100001630122426130BC7047F0B4026A52087B
:102E200052000262066A446885690B688A6825F068
:102E300073051D4326F002061643874B98421CBFBC
:102E4000894FB84207D1CA6826F00806164398424F
:102E500026F0040602D0844B984205D14B698A695A
:102E600024F440741C431443446085614968416301
:102E70000662F0BC704770B4026A22F0100202626F
:102E8000056A436884690A6824F4E64444EA022433
:102E90008A6825F0200545EA02156F4A90421CBF5A
:102EA000714EB04208D1CE6825F0800545EA06157E
:102EB000904225F0400502D06B4A904206D14E69FF
:102EC0008A6923F44063164343EA860343608461BE
:102ED00049688163056270BC704770B4026A22F46D
:102EE00080720262056A4368C4690A688E6824F0C9
:102EF0007304144325F40075574A45EA06259042A9
:102F00001CBF594EB04208D1CE6825F4006545EA91
:102F10000625904225F4806502D0534A904206D19E
:102F20004E698A6923F44053164343EA061343600B
:102F3000C4614968C163056270BC704770B4026ABD
:102F4000454E22F480520262B042046A4268C3696C
:102F50000D6823F4E64343EA05238D6824F4005406
:102F600044EA05341CBF404DA84204D14D6922F407
:102F7000804242EA85124260C3614968016404628A
:102F800070BC70470368D3F808C04A6808682CF022
:102F9000700C42EA0C0C4FEADC0C40EACC0CC3F893
:102FA00008C04A68402A14D0502A26D0602A3DD052
:102FB000702A4FD108698A68C968D3F808C02CF410
:102FC0007F4C41EA0C010A4342EA00229A60002049
:102FD00070470868052801D101207047186A1A6AED
:102FE000520852001A629A69096922F0F00242EA14
:102FF00001129A61186200207047086989681A6A8C
:10300000D3F820C04FEA5C0C4FEA4C0CC3F820C048
:1030100022F00A02D3F818C02CF0F00C4CEA001C85
:10302000C3F818C011431962002070470869896805
:103030001A6A22F010021A629A69D3F820C022F4A8
:10304000704242EA00322CF0A00C9A614CEA011C5A
:10305000C3F820C000207047000001400004004079
:1030600000080040000C0040000401400040014006
:10307000004401400048014000180040001C00408E
:103080000020004030B490F83C20012A08BF022004
:1030900032D0012280F83C20022380F83D300468C1
:1030A0006568A3680A6825F07005154365600268C5
:1030B000124CA24218BFB2F1804F11D0104CA24264
:1030C0001CBF104DAA420BD00F4CA2421CBF0F4D8B
:1030D000AA4205D00E4CA2421CBF0E4DAA4204D1FA
:1030E000496823F080030B439360012280F83D2060
:1030F000002180F83C10002030BC704700000140E7
:103100000004004000080040000C004000040140A2
:10311000004001400018004090F83C20012A01D1F5
:1031200002207047012280F83C20D1F80CC08A6848
:103130004B682CF4407C42EA0C0C2CF4806C43EA83
:103140000C0C0A680B692CF4006C42EA0C0C2CF491
:10315000805C43EA0C0C4A69C9692CF4005C42EAC1
:103160000C0C02682CF4804C41EA0C0CC2F844C0F0
:10317000002380F83C3000207047000070B500BF8D
:1031800028A08AB0D0E90023CDE9002302A90020BD
:1031900000240025002671C131C153211E4C1F4A55
:1031A0006160A06063212061A0612260E16020462F
:1031B000FFF784FC08B1FFF7D6F800950195694642
:1031C0002046FFF75FFF08B1FFF7CDF862220392B8
:1031D0006021029100220692049502A92046FFF781
:1031E00023FD08B1FFF7BFF8204600F0F3FF0AB057
:1031F00070BD81B00068094988420BD1002208489F
:103200000092016841F002010160006800F00200D4
:103210000090009801B070477C0A00200004004034
:10322000403802400000000000000000D0B58CB023
:1032300002A80021002200230EC00EC00EC01848B4
:1032400019A40391D4E90067164C0591A26020608F
:10325000012204924FF6FF700F220692E0600122D5
:1032600008920320CDE90067616021616161A1617D
:103270000290079109910F220A9202A92046FFF7B6
:103280005FFC08B1FFF76FF8002100910191204623
:103290006946FFF7F7FE08B1FFF765F80CB0D0BD3F
:1032A00000000140BC0A00200000000000000000F7
:1032B00010B5040001D1012010BD94F8390028B9DF
:1032C000002184F83810204600F0D9FF242084F82B
:1032D00039002068C16821F40051C160204600F027
:1032E00017F82068016921F4904101612068416963
:1032F00021F02A0141612068C16841F40051C16098
:103300000020E063202184F8391084F83A1010BDC1
:1033100070B5044622681169E06821F44051014308
:103320001161D3684448A168034020690B43616977
:103330000343E0690B430343D3605169A06921F45F
:103340004071014351613D48E169B1F5004F48D1F9
:1033500082421CBF3A48824221D100F0B5FB62682C
:103360001921D30FA1FB0001520001F001F9354EE4
:10337000A0FB0665AA09642101FB1200C0003230DF
:10338000304DA0FB05539809410001F4F87101EBA1
:103390000211226800F007004018906070BD00F034
:1033A00089FB62681921D30FA1FB0001520001F0D3
:1033B000DFF8244DA0FB05539A09642101FB12009C
:1033C000C00032301F4DA0FB05539809410001F4A5
:1033D000F87101EB0211226800F0070040189060BC
:1033E00070BD82421CBF1648824202D100F06CFBC5
:1033F00001E000F05FFB62681921930FA1FB00015F
:10340000920001F0B5F80F4DA0FB05539A09642115
:1034100001FB1200000132300A4DA0FB0553980950
:1034200000F0F00101EB0211226800F00F004018DB
:10343000906070BD00000000F369FFFF00100140C4
:10344000001401403E0AD7A310B582B000F02FFB54
:103450000B4A0C4CA0FB0221080AFFF745F9211D7D
:10346000204601F09DF901F08FFA07480090231DD6
:103470002246012104F1080001F026FB02B010BD34
:10348000986E1283B0070020388C000830B587B0E2
:10349000002005904A4C4B484B4D016841F010010B
:1034A0000160026802F0100205920022059905925F
:1034B000036843F010030360016801F010010591F7
:1034C00005990592036843F010030360016801F059
:1034D0001001059105990592036843F010030360FC
:1034E000016801F010010591059905920121036819
:1034F00043F010030360006800F010000590059889
:1035000000910291019469462846FEF799FF012136
:10351000022202910092019469462846FEF790FF2C
:103520000421009101940121029128466946FEF789
:1035300087FF0821009101940121029128466946E4
:10354000FEF77EFF1021009101940121029128468F
:103550006946FEF775FF4FF4F0600021009001917D
:103560000222029269461948FEF76AFF01220221EF
:103570000620FFF778F80620FFF79EF801220221C7
:103580000720FFF770F80720FFF796F801220221C5
:103590000820FFF768F80820FFF78EF801220221C3
:1035A0000920FFF760F80920FFF786F801220221C1
:1035B0000A20FFF758F80A20FFF77EF807B030BD61
:1035C0000000211030380240001002400014024078
:1035D00010B50D4C002208212046FFF712F80122F9
:1035E00008212046FFF70DF8142000BF401EFCD133
:1035F0002046BDE8104000220821FFF702B8002154
:103600000248FFF775BA0000001402407C0A00204F
:103610002DE9F041040082B000F03D812078DFF810
:103620005C63C10713D5B06800F00C00042807D014
:10363000B06800F00C00082841D1706841023ED506
:103640003068810303D56068002800F02481217868
:10365000880719D5B16811F00C0F07D0B06800F0D9
:103660000C00082866D17068410263D43068810775
:1036700003D5E068012840F00E813168206921F00F
:10368000F80141EAC00131602178080740F1078163
:103690006069BB49002872D00122C1F8802EFEF774
:1036A000BFFB0546706F810700F1F980FEF7B8FB9C
:1036B000401B0228F6D9032002B0BDE8F081606803
:1036C000B0F5803F04D1306840F48030306011E0C4
:1036D000B0F5A02F306806D140F48020306031680A
:1036E00041F4803105E020F480303060316821F40D
:1036F00080213160606870B1FEF792FB054630684A
:103700008103A4D4FEF78CFB401B6528F7D303206C
:1037100002B0BDE8F081FEF783FB05463068810307
:1037200095D5FEF77DFB401B6528F7D3032002B03B
:10373000BDE8F081E068924988B101220A60FEF795
:103740006FFB05463068810700F1D380FEF768FB08
:10375000401B0228F6D9032002B0BDE8F0810860C2
:10376000FEF75EFB0546316888078DD5FEF758FBEE
:10377000401B0228F7D9032002B0BDE8F081C1F850
:10378000800EFEF74DFB0546706F810740F1878084
:10379000FEF746FB401B0228F6D9032002B0BDE825
:1037A000F0810528306F06D140F004003067306F9B
:1037B00040F0010005E0400840003067306F20F025
:1037C00004003067A06888B1FEF72AFB074641F283
:1037D0008938306F810700F19C80FEF721FBC01B08
:1037E0004045F6D3032002B0BDE8F081FEF718FB98
:1037F000074641F28938306F810740F18A80FEF731
:103800000FFBC01B4045F6D3032002B0BDE8F0819A
:10381000FEF706FBC01B022840F28F80032002B097
:10382000BDE8F081FEF7FCFA001B022840F29D8003
:10383000032002B0BDE8F08100202866FEF7F0FA10
:1038400004463068810140F19480FEF7E9FA001BDC
:103850000228F6D9032002B0BDE8F08101281AD071
:103860007068E26900F48001914202BF00F03F01FC
:10387000226A91420FD147F6C071626A01409142BB
:1038800002BF00F44031A26A914202BF00F07060B2
:10389000E16A88426DD0012002B0BDE8F081207855
:1038A00041073BD5306C0025C1000AD400950125A5
:1038B000316C41F080513164306C00F080500090E8
:1038C0000098304F3868C1051BD4386840F48070C8
:1038D0003860FEF7A5FA80463868C10511D4FEF7B6
:1038E0009FFAA0EB08000228F6D9032002B0BDE839
:1038F000F0813068216920F0F80040EAC1003060B2
:10390000C2E6A06801287FF44CAF306F40F00100A0
:1039100057E71DB1306C20F080503064A06940B38F
:10392000B16801F00C01082998D00228144D83D108
:1039300000202866FEF774FA0746306881013FF5DB
:1039400067AFE269206A616A0243A06A400842EAFE
:103950008112401E42EA0042E06A42EA006272605E
:1039600001212966FEF75CFA0446306881017FF583
:1039700059AF002002B0BDE8F08100BF003802401E
:1039800000004742007000402DE9F04104000E465F
:1039900000F08680514DD5F8000400F00F00B042D1
:1039A00007D285F80064D5F8000400F00F00B0429B
:1039B00076D12068810712D5400703D5A96841F464
:1039C000E051A9602078010703D5A86840F4604061
:1039D000A860A968A06821F0F0010143A9602178DE
:1039E000C8074FD56068012802D129688A0305E01D
:1039F000022818BF032805D129688A0105D40120AF
:103A0000BDE8F08129688A074AD5A968890840EA93
:103A10008100A86041F28938FEF702FA0746A868DB
:103A2000616800F00C00B0EB810F2BD0FEF7F8F9C5
:103A3000C01B4045F3D30320BDE8F0812078410747
:103A400005D5AA68E06822F4E0520243AA60217812
:103A5000080706D5A968206921F4604141EAC00140
:103A6000A96000F049F8AA681D491E4BC2F3031271
:103A7000895CC84018601C48006800F015FD0020F3
:103A8000BDE8F081D5F8000400F00F008642D5D2E1
:103A900085F80064D5F8000400F00F00B042CDD0E6
:103AA0000120BDE8F08112490120086070470D48EF
:103AB000006870470B480D4A006813680D49C3F34E
:103AC0008222895CC84070470648084A006813682B
:103AD0000849C3F34232895CC8407047003802404D
:103AE000308B0008C8070020C407002008380240B7
:103AF0004C004742CC8C000830B5144C606800F094
:103B00000C00042803D0082803D0114830BD114808
:103B100030BD226820680023410202F03F0204D534
:103B200025680C49C5F3881003E020680849C0F3F4
:103B30008810A1FB000100F01BFD2168C1F30141C9
:103B4000491C4900B0FBF1F030BD00BF0438024011
:103B50000024F40000127A0030B581B0044600253C
:103B600014B9012001B030BD206C28B9204600F006
:103B70003EFA656484F83C50206CC10610D4206C79
:103B800020F4885040F002002064204600F0C2F883
:103B90006564216C21F0020141F00101216400E023
:103BA0000125002084F83C0001B0284630BD70B4E7
:103BB00081B002460020009092F83C30012B08BFF3
:103BC000022000F0A480012082F83C0007240B684A
:103BD00010680A2B12D30A3BC56803EB43039C40D1
:103BE00025EA0404C460C3680D688C68A5F10A0660
:103BF00006EB4606B4402343C3600FE0056903EBC0
:103C0000430304FA03F325EA0303036103690D6820
:103C10008C6805EB4505AC40234303611F244B68CA
:103C2000072B11D25B1E456B03EB83039C4025EAF7
:103C300004044463436B4D680C886E1E06EB8606D5
:103C4000B4402343436325E00D2B11D2DB1F056BEA
:103C500003EB83039C4025EA04040463036B4D6873
:103C60000C88EE1F06EB8606B4402343036311E085
:103C70000D3BC56A03EB83039C4025EA0404C46240
:103C8000C36A4D680C88A5F10D0606EB8606B440A4
:103C90002343C3625F4B984235D10868122804D190
:103CA0005D48036843F4800303600868102818BF68
:103CB000112828D15848036843F4000303600868BA
:103CC000102820D15249514C0868A0FB0443DB0C5A
:103CD00003EB83056D0000950098A0B10098401E8D
:103CE0000090009878B10098401E0090009850B164
:103CF0000098401E0090009828B10098401E009047
:103D000000980028EAD1002182F83C10002001B080
:103D100070BC7047404A116821F44031116013684B
:103D200041680B4313600268536823F48073536047
:103D30005168036941EA03215160516821F04071E3
:103D40005160536881680B435360936823F40063A8
:103D500093609368C1680B4393603049836A8B42D8
:103D600010D0936823F0706393609368816A0B436B
:103D70009360936823F0405393609368C16A0B4348
:103D8000936007E0916821F070619160916821F083
:103D900040519160916821F0020191609168037E29
:103DA00041EA4301916090F82010002951680CD03D
:103DB00041F400615160516821F4604151605168E3
:103DC000436A5B1E41EA433101E021F40061516026
:103DD000D16A21F47001D162D16AC3695B1E41EAE4
:103DE0000351D162916821F400719160916890F85B
:103DF000303041EA43219160916821F48061916003
:103E00009168406941EA80219160704706BD37861C
:103E1000C807002000200140042301400100000FDA
:103E200070B490F83C20012A08BF022000F0BA804C
:103E3000012280F83C2007240A6803680A2A12D36A
:103E40000A3ADD6802EB4202944025EA0404DC6091
:103E5000DA680D688C68A5F10A0606EB4606B440E0
:103E60002243DA600FE01D6902EB420204FA02F21B
:103E700025EA02021A611A690D688C6805EB45058E
:103E8000AC4022431A611F259A6B22F440129A63B8
:103E90009A6B0C69641E42EA04529A639C6B4E68EA
:103EA0000A69F61CB61A06EB8606B540AC439C635D
:103EB0009C6B4E680A690D88F61CB61A06EB8606DE
:103EC000B5402C439C638A69394CA2429A6822F41B
:103ED00070229A600CD09C688A6914439C609C682C
:103EE00024F440149C609C68CA6914439C6003E0FD
:103EF0009A6822F440129A604A7D002A5A6814BFD8
:103F000042F4806222F480625A600A7D002A5A6874
:103F100014BF42F4805222F480525A604A68012A47
:103F200004D01ED3032A13D009D31AE05C69240BF2
:103F300024035C615C69CA6814435C6119E09A6996
:103F4000120B12039A619C69CA6814439C6110E0C9
:103F5000DA69120B1203DA61DC69CA681443DC61A6
:103F600007E01A6A120B12031A621C6ACA68144329
:103F70001C620D4CA34211D10A68122A04D10B4ACB
:103F8000136843F4800313600968102918BF1129CE
:103F900004D106490A6842F400020A60002180F850
:103FA0003C10002070BC70470020014004230140F9
:103FB00001000F0082B0002000900022DFF81C03F7
:103FC000416841F480414160416801F480410091C1
:103FD00000990092036843F080530360006800F08A
:103FE000805000900098042002B0FEF72FBB30B53F
:103FF00087B069460022002300241CC10CC1006860
:10400000DFF8DC52A84234D1DFF8D80205924169CA
:1040100041F480714161416901F480710591059914
:104020000592036843F004030360016801F0040192
:10403000059105990592036843F001030360016847
:1040400001F001010591059905920921036843F0EA
:10405000020303600322006800F002000590059847
:10406000DFF884020091019202946946FEF7E8F9B4
:1040700023E0DFF87812884230D1DFF86802059239
:10408000416941F400714161416901F40071059198
:1040900005990592036843F001030360016801F08C
:1040A0000101059105990592036843F0020303603D
:1040B000006800F00200059005988D4802944021A8
:1040C0000091032201926946FEF7BAF9032000909D
:1040D0000190029469468748FEF7B2F907B030BDF7
:1040E00010B586B069460022002300241CC10CC113
:1040F0000068B0F1804F33D17A480592016941F0F0
:1041000001010161016901F0010105910599059223
:10411000036843F002030360016801F002010591A6
:10412000059905920821036843F001030360022208
:10413000006800F00100059005986E48009101921A
:1041400001210491029403946946FEF779F94FF432
:1041500000410091022201920294039401211FE088
:104160006649884221D15F480592416941F00101C9
:104170004161416901F001010591059905924FF4F2
:104180004071036843F0010303600222006800F0FD
:10419000010005900598009101920121029103947C
:1041A000049169465248FEF74BF906B010BD81B044
:1041B0000068534988420BD100224F4800920168A1
:1041C00041F002010160006800F0020000900098D8
:1041D00001B0704730B587B0694600220023002443
:1041E0001CC10CC10068474DA84215D13D4805923D
:1041F0000222016841F0040101604021006800F0E2
:10420000040005900598384800910192022104911C
:104210000293039369462EE0394988422DD13148F3
:104220000592016841F480710160026802F48072B5
:104230000592022205990593E021036843F080036B
:104240000360006800F08000059005982E480091FA
:10425000019203210491029203926946FEF7F0F85D
:104260004FF46040022100900191029103910322DA
:10427000049269462548FEF7E3F807B030BD30B533
:1042800087B001A90022002300241CC10CC10068D2
:104290001F4DA84220D113480092416941F01001FE
:1042A0004161416901F01001009100990092C02123
:1042B000036843F0020303600222006800F002007A
:1042C000009000980B4801910292072105910394F8
:1042D000049401A9FEF7B4F807B030BD403802409D
:1042E0000020014030380240000802400021014017
:1042F0000000024000040240443802400000014037
:10430000000401400004004000200240001C024064
:10431000001001400148006800F026BCB0070020F2
:10432000002848BF4042704710B5584C00F075FC5B
:104330006060E0682061A1686068091AE160E06877
:1043400010BD10B5514C52492DED028BE068206133
:1043500042F21070B1F9002012FB00F0831300EB61
:104360005340C01300EE100AB8EEC08AF0EE480ABF
:10437000FEEEEE0AC4ED030A00F04FFC6060B0EE02
:10438000480ABDEC028B10BD30B5404C81B0E168ED
:10439000B4F91C00B4F91E204143B4F9200091FB8C
:1043A000F2F578B1616AE268B4F92230504390FBCB
:1043B000F3F0411840F6B8308142616202DC3548C2
:1043C000814200DA6062606A451900F026FC00EE66
:1043D000100AD4ED181A94ED172AB8EEC00ADFEDD2
:1043E0002A0A20EE200AD4ED160AD4ED192A84ED0B
:1043F000150A30EE601A61EE811A32EE602A32EE52
:10440000011A41EE221A84ED160ABDEEE10A10EE01
:10441000101A09B248196428C4ED170AC8BF6420ED
:1044200004DC10F1640FB8BF6FF063006564A16431
:1044300000B201B030BD15484068704742F28E317D
:10444000124A48439060704781837047018401B9E4
:104450004162704780ED030A704780ED040A70479F
:1044600070477047704770477047B0F91C0070473D
:104470000648094A816881FB0232101300EBD070B4
:1044800000B27047000000000000B43B08060020A6
:104490009C0B002048F4FFFF87EB33730148006852
:1044A00000F0DCBBB007002030B50F4D0F4B2A7871
:1044B00004464FF47A711868B1FBF2F281B0B0FB98
:1044C000F2F0FEF711F958B9102C09D2002221465A
:1044D0004FF0FF30FEF7C7F8AC60002001B030BDF0
:1044E000012001B030BD00BFBC070020C80700207C
:1044F00010B5040001D1012010BD0021A16294F883
:10450000510020B984F850102046FEF769FA0220C5
:1045100084F851002068016821F040010160626860
:10452000A168E06823680A432169024360690A437D
:10453000A169024301F40071E0690A43216A024360
:10454000A06A0A4302431A60A169606A2268090CE2
:1045500001F00401014351602068C16921F4006148
:10456000C16100206065012184F8511010BD000078
:10457000BBBBE1B1B2F5803F80F07E80022A1ED93C
:104580008C46B1FBF2F102FB11C31B0443EA10435A
:10459000B3FBF2FC02FB1C3380B240EA0343B3FBE3
:1045A000F2F002FB103240EA0C4000237047022A6E
:1045B00005D98446B0FBF2F002FB10C270474AB145
:1045C00005D100F0010249085FEA3000704700227F
:1045D0000023704700F046BB0B00020000210020C2
:1045E0007047904271EB030CF6D3B3F5803F2FD2A6
:1045F000F0B5B3FA83F7B1FA81F4A7F10F0E3D1BC2
:104600005340CEF1200602FA0EF2F3415340B5F1C9
:104610000F0746D80F3C2C444140C4F12006A0406F
:10462000F1414140B1FBF3F603FB1611A2FB064535
:10463000001BA94102D2761E8018594180EA01026E
:1046400021FA0EF362FA0EF200215A403046F0BD14
:1046500030B4B1FBF3FC03FB1C11A2FB0C45001BA7
:10466000A94103D2ACF1010C8018594130BC02467B
:104670000B46604600217047B2F1807F65D3F0B5EC
:10468000B2FA82F7B1FA81F4C7F10F063D1B22FAA4
:1046900006F307F1110EF24120355A40B5F10F072C
:1046A000B8D94140C4F12006A040F1414140B1FBDE
:1046B000F3FC03FB1C11A2FB0C45001BA94103D218
:1046C000BCF1010C801859410F2F12D30F3FC903C1
:1046D00041EA5041B1FBF3F603FB1611A2FB06457C
:1046E000D4EBC030A94102D2761E8018594146EA67
:1046F000CC3C07B34140C7F12006B840F1414140EE
:10470000B1FBF3F603FB1611A2FB0645001BA94102
:1047100002D2761E8018594180EA010221FA0EF376
:10472000C7F1200462FA0EF20CFA07F05A402CFA94
:1047300004F13043F0BD80EA010221FA0EF30021BA
:1047400062FA0EF260465A40F0BD8C46B1FBF2F1BF
:1047500002FB11C31B0243EA1063B3FBF2FC02FB32
:104760001C331B024CEA002043EA1063B3FBF2FC4B
:1047700002FB1C331B024CEA002043EA1063B3FB2C
:10478000F2FC02FB1C331B024CEA002043EA1063DC
:10479000B3FBF2FC02FB1C324CEA00200023704702
:1047A0002DE9F0430446664E81B00D4606F1E8005F
:1047B00000F059FA6348644FDFF89081DFF8909178
:1047C000C6F8C4000021634886F87C10C6F8BC0017
:1047D00000F04EFA00F0B8FA384600F0E7FAC6F8F2
:1047E00094705D485D4FC6F89000384600F0F2FACC
:1047F000D6F890103B464A46404600F048FBD6F8B3
:104800009410D6F89000C6F8B0803A4600F046FB07
:10481000484600F055FBDFF84881DFF848914046F4
:1048200000F08AFC484600F087FC4F484F49C6F824
:10483000A000C6F8A810C6F89880C6F89C904C480E
:104840004C49DFF83481C6F8A400C6F8AC104B48D8
:10485000C6F8B40000F07AFC4948D6F8B410C6F89F
:10486000C000C0F81011C0F80C61404600F07BFC9D
:104870004448C6F8C800C6F8B88000F087FC00209D
:1048800000F08CFC012086F82400D6F8900000F09F
:10489000C1FC3061D6F8900000F0BCFC009006F13D
:1048A000CC01BDF80200B082C6F88C103346D6F8B1
:1048B000902006F1E80106F1CC0000F0B6FCD6F835
:1048C000900000F0BCFC0146D6F88C00002200F0FD
:1048D000B9FCD6F88C00206037640122D6F8941019
:1048E000D6F89800B162F0620020D6F89C103163CF
:1048F0007063F0637064B06406F1E800D6F8BC1031
:10490000B1633065D6F89010D6F8B400F164B065A4
:104910000020D6F8B810716530660021F165B066E8
:10492000F06630677067B067D6F8C010716606F140
:104930002801296086F87C2001B0BDE8F08300BF23
:10494000C00600201804002040010020940300202D
:10495000E002002064020020300200201803002042
:1049600090010020E00100205C06002000000020F3
:104970000806002020000020B0030020D8030020FB
:104980002C0000200004002070B4484881B04FF48F
:10499000903101604FF40052026001604FF4804397
:1049A000016800914FF4A031009A0160036001603A
:1049B0002025016800914FF4C031009A01604FF446
:1049C000004202600160802603680093009C384B1F
:1049D000C0F80034C0F80054C0F800344025D0F8C6
:1049E00000340093009C334BC0F80034C0F80054EE
:1049F000C0F80034D0F800440094009D2E4CC0F85C
:104A00000044C0F80064C0F800440825D0F8000451
:104A10000090009C29482A4CC0F80044C0F800547B
:104A2000C0F80044D0F800540095009E0160026078
:104A30000160016800914021009A036001600360F9
:104A400008220368009301230099C0F80048C0F8C9
:104A50000028C0F800480224D0F8001800914FF058
:104A60000111009AC0F80014C0F80034C0F8001416
:104A7000D0F800240092009B124AC0F80024C0F82D
:104A80000044C0F80024D0F8002400920122009BCA
:104A9000C0F80018C0F80028C0F80018D0F80008C6
:104AA0000090009901B070BC704700BF1C1C024010
:104AB0002000010040000100800001001C000240B5
:104AC00008000100020001002DE9F04FDFF85490CA
:104AD0000D4616461F46C9F8B09083B01249DDF85E
:104AE000308091E80C5C89E80C5C0446DFF83CA05F
:104AF000504600F0AEFB0E49D9F8B0000D4B0E4AFF
:104B00000091CDF80480514600F0A6FBD9F8B00022
:104B100000943B463246294600F0C0FB03B0BDE896
:104B2000F08F00BFD4070020700B0020CC040020C1
:104B3000D58C0008030E0008698700080949088819
:104B400010B10A88501E08804A88022A02D3488879
:104B5000421E4A808888022802D38888421E8A80A2
:104B6000704700BFCC07002010B504460321206821
:104B700000F0A0FB012808BF207610BD2DE9F04110
:104B80002C4CD4F8900084B000F004FC054600F0F2
:104B900003FC0646D4F8BC0001A900F000FC019813
:104BA00000F000FC0746314600F020FC0090B4F90C
:104BB0001010BDF90000091AD4F8980000F04AFC62
:104BC000ADF80800B4F91210BDF90200091AD4F8C2
:104BD0009C0000F03FFCADF80A000299D4F8C40034
:104BE00000F078FC8046284600F09FFC31464046A5
:104BF00000F09EFC0546D4F8BC00294600F0B7FC46
:104C00000199009AC4F816806760C4F81A50268487
:104C10002160E26004B0BDE8F081064800B5D0F83C
:104C2000900081B000F0B6FB01B05DF804EB00F03D
:104C300070BD0000C0060020074890F87C100129D4
:104C400000D0704700B581B0002000F065FD01B0D4
:104C50005DF804EB00F047BEC006002000680721A5
:104C600000F028BB704700210170418081807047AF
:104C700070B4856FAC682A686B6826687608760021
:104C8000266095F8901031B16FF080062661E168DA
:104C900041F08001E160616941F00101616195F8D5
:104CA0008C10022910D195F88D10012904BF95F8B8
:104CB0008E1003290BD1012525630325616941F07D
:104CC00001016161256302E090F8461019B9B0F85E
:104CD0007010491E61624FF48011194E194DB44293
:104CE00005D12C6844F001042C600C4605E02E68C8
:104CF00046F002062E604FF4F01484666FF004054F
:104D0000946844F0010494609C6844F001049C6041
:104D10001560546844F080045460D46A24F470042C
:104D2000D462946B24F4401494639A6B22F440127E
:104D30009A63C1660021A0F84E1070BC704700BF96
:104D4000000001400C2004E01648174981B00268B9
:104D5000D20712D4036843F001030360026802F033
:104D600001020092009A0B6943F001030B61016894
:104D700049084900016001B0704708680A6822F0DC
:104D8000700242F020020A6000F070000A6942F0EE
:104D900001020A610B6823F070031843086001B038
:104DA000704700BF4038024004000040018842883C
:104DB0008180C280018C826B41844263016BB0F8B8
:104DC0004220C162A0F84020C18F8187002181600C
:104DD0008162704770B402460021106A41624FF050
:104DE000FF33B2F86E10B3FBF1F19166B2F86C309C
:104DF000C3EB03118900516200F1180392F8771098
:104E00001C68090524F0F00444EA11441C6092F87F
:104E100077101C68090524F4704444EA11241C60CE
:104E20006FF001010161C36843F00103C360002317
:104E3000016841F00101016092F87500002824DD4D
:104E400010F0030100F0098002F128050024DEB211
:104E50005B1C45F82640491EF6D1800800F01580FD
:104E600002F128040021DDB244F825105B1CDDB2FC
:104E700044F825105B1CDDB244F825105B1CDDB244
:104E80005B1C44F82510401EEAD170BC70470160DD
:104E90004260002183608173C17370470161426188
:104EA00090F82A100170B0F92C20B0F92E101204DD
:104EB00042600904002281604280C26082617047C2
:104EC00000F03ABD80ED0B0A704780ED0D0A704787
:104ED00081877047A0F8401070470000F0B581B09E
:104EE00004462DED068B88B002A80022C0E90022FE
:104EF00004AD06A80026C5E90062C0E90022CDE99C
:104F0000006200EE101AB8EEC00AD4ED0B0A60EE93
:104F1000209AA1F59670A56AD4ED0D8A4D1BFBF77A
:104F20005FFF41EC100B53EC102BFBF749FD002207
:104F30007A4BFBF7F5FF41EC100B00F018FD9FEDED
:104F4000780A08EE105AF4EE409AB8EEC88AF1EEEC
:104F500010FA28EE289AA8BFF1EE089A08DAF9EEBE
:104F6000080AF4EE609AF1EE10FA48BFF0EE609A8B
:104F7000B4EE409AF1EE10FAA8BFB1EE089A08DA42
:104F8000B9EE080AB4EE409AF1EE10FA48BFB0EE5E
:104F9000409A02A9B0EE690A04A8FFF765FA06A9CB
:104FA000B0EE490A6846FFF75FFA0798069B5D492D
:104FB0009DED001ADDED010A9DED050AC0EBC00272
:104FC00001EB8200C3EBC30501EB8501029D039A4F
:104FD000A38F01EB850601EB8207D6ED001A97ED52
:104FE000002A21EE211A00EE821ADDED041A9DED51
:104FF000002A00EB850621EE211AD6ED001AB4F83E
:10500000406000EB820762EE211A97ED002A40EE25
:10501000821A01EE801ABDEEC11A11EE105A13FB6E
:1050200005F3A4F844309DED001A029B01EB8305C3
:1050300001EB8201D5ED311A91ED312A21EE211AD1
:1050400000EE821ADDED041A9DED002A00EB8303C9
:1050500021EE211AD3ED311A00EB820062EE211A03
:1050600090ED312A40EE821A01EE801ABDEEC10A9F
:1050700010EE101A16FB01F1F1EE080AA4F8461022
:105080009FED291BC9EEA00AB0EE418AF0EE618ABD
:1050900010EE900A00F07AFC41EC100BB0EE481ACA
:1050A000F0EE681A00F069FCB0EE40AAB1EE080A12
:1050B00089EE000AF0EE60AA10EE100A00F066FC1D
:1050C00041EC100BB0EE481AF0EE681A00F055FCF7
:1050D0009FED179BB0EE408AF0EE608A53EC1A2BDE
:1050E00051EC190BFBF76CFC53EC192BFBF762FD31
:1050F00000F070FCA06453EC182B51EC190BFBF77B
:105100005FFC53EC192BFBF755FD00F063FCE064EA
:1051100008B0BDEC068B01B0F0BD00000088C3C034
:105120000100C040988000089A9999999999E93F9F
:10513000000000000000E03F018842888180C280BA
:105140000022018C418482608262704710B504465F
:1051500004F10C0000F036FB84F826002046BDE880
:10516000104000F06BBC10B50446207848B9201DF3
:1051700000F028FB84F826002046BDE8104000F02F
:105180008DBC618A21820020E08210BD00218160F7
:105190004160C1600161012141617047F0B5044681
:1051A00017481849184E194B0068096837682625B2
:1051B00015FB04F51D4481B000262F606960E8608E
:1051C0002861EE83C5F81600C5F81A102E8403EB8B
:1051D00084050021D5F8980000F063FCD5F89C0008
:1051E000002100F05EFCD5F8900000F05CFCD5F8E2
:1051F000BC0000F060FC0CB905494E6201B0F0BD86
:10520000B48C0008B88C0008B08C0008C0060020E0
:105210000806002081B0B0F92E10ADF80010008E05
:10522000ADF80200009801B07047016042600021B3
:1052300083600173C1810182C18201767047B0F938
:105240002C00704701230373C181C2820376437629
:10525000704700F032BC0000F0B581B0044608464B
:10526000069F0799C4F8A810A06115460849094A85
:1052700000911E46084B214600F034FCE561266291
:105280006762204601B0BDE8F04000F036BC00BFC8
:10529000DD8C0008E18C0008C95D000881B0DDF8F4
:1052A00004C0017182600021C3600175C0F810C0A4
:1052B00001B0704710B502780024142A0ED8DFE838
:1052C00002F01821572D475557595B610D0D0B27DB
:1052D000292B3739414E3F000A0057D003291CBF04
:1052E0000129072903D00022802100F013FC204669
:1052F00010BD0A46032A49D0012A45D10124017074
:10530000204610BD072918BF0D293FD00E2934E0D3
:105310000E2918E00F2916E0022914E0072918BF0A
:10532000102933D0042918BF11292FD0012924E0D6
:10533000112908E0122918BF072927D014291CE0D9
:10534000122900E0042913D101240170204610BD68
:105350000A46132A06D101240170204610BD0A46D0
:10536000042A13D0072A11D0052A06E006290DD0F9
:10537000072902E0082900E00929AFD101240170C2
:10538000204610BD0A0001D00C2AA7D101240170CB
:10539000204610BD40697047B0F90400704742686C
:1053A0001047000001B481B044F6E612BDF90400D4
:1053B000ADF8000001460B4811FB00F0BDF90610E6
:1053C00011FB02F2A0EB4200C01300F30F00ADF896
:1053D000020010F5004F04BF0349ADF80210009819
:1053E00002B070471AB6FFFF0180FFFF71B583B0AE
:1053F00008B200F0A5FB0190BDF90420BDF90C3006
:10540000BDF90600BDF90E1013FB02F400FB1144B8
:10541000E41304F30F04ADF8004013FB00F0BDF9F2
:1054200000500A4CA54204BF094EADF8006011FBC4
:105430000200C01300F30F00ADF80200A04204BF49
:105440000349ADF80210009804B070BD0080FFFF62
:105450000180FFFFF0B4B0F90430B0F91450B0F996
:105460001660B0F9062000244B430AB9002115E06C
:10547000514382688F1806D5002AC8BF002906DD6F
:105480006FF0004703E0002A44BF0029104FC168B5
:10549000B94203DB0169B942B8BF3946878B8160E5
:1054A0003B41C78B0A4642FA07F1CB189D4206DA08
:1054B000EC1AA4182B46846018B2F0BC7047B342B3
:1054C000BCBFF41A3346A418846018B2F0BC70470D
:1054D0000100008002B481B00091BDF90430BDF933
:1054E000062013FB03F112FB021C018849436145AE
:1054F00018D290F8B2104FEA1C6CACEB010C5FFABA
:105500008CFC00EB4C00808843434243991390137A
:1055100003EB514302EB5042DB13D213ADF80030E2
:10552000ADF80220009802B07047B0F91000704743
:1055300031B582B008B200F003FB0190BDF9043030
:10554000BDF90840BDF90610BDF90A2014FB03F5AA
:1055500012FB03F012FB015501FB1401ED13C913FB
:10556000ADF80050ADF80210009803B030BD70B433
:1055700081B002B481B0B0F85030BDF90650BDF929
:105580000420018E5D436D424A436D005119AA1AF1
:1055900001EBD17102EBD27249105210002948D5AB
:1055A000002A17D5042480F83A408C1A651404EBBD
:1055B0009534A41404EB930314140D1402EBD432A9
:1055C00001EBD53103EB6242A3EB61410C461D4672
:1055D000164675E02C14002D05EBD43414DC0321A1
:1055E000AD1A80F83A106E1405EB9635AD1411140F
:1055F00005EB930302EBD13203EB6242A2EB644171
:105600000C4615461E465BE002224D1B80F83A20F0
:105610006E1405EB9635AD140A1405EB930301EBFC
:10562000D231A3EB614101EB644214460D461E46A4
:1056300046E0002A16D4012480F83A408C1A6514FA
:1056400004EB9534A41404EB9303141402EBD4324A
:105650000D1403EB624201EBD531A3EB614114461B
:105660001D462CE02C14002D05EBD43414DC05224F
:105670004D1B80F83A206E1405EB9635AD140A14D4
:1056800005EB930301EBD231A3EB614101EB6442E3
:105690001C460D46164613E00021AD1A80F83A105C
:1056A0006E1405EB9635AD14111405EB930302EB64
:1056B000D13203EB6242A2EB64411C4615460E4612
:1056C000C186A0F84060C587848743868286B0F88B
:1056D0004E10012919D1B0F94830418EB0F854204C
:1056E000002BCCBF5118891A4186B0F94A30818EFF
:1056F000002BCCBF5118891A8186B0F94C30C18E6D
:10570000002BCCBF52188A1AC286816903B070BCC4
:1057100008478068704700002DE9F0430446274899
:10572000DFF89C90008881B0A046ADF8000009EB3E
:105730008805D5F8B80000F059FA3DF81860064021
:10574000D5F8BC0000F070FA0643200007D1BDF880
:105750000070D9F8B40000F069FA07403E4308EB46
:10576000480009EB4007F04382B2314607F1E800F8
:1057700000F0D0F907F1E80000F0A1FA0A2808D0FB
:105780000B2804BFD5F8BC0000F095F901B0BDE8C6
:10579000F083D5F8B00010B1002100F092FAD5F8EE
:1057A000BC0000F088F92046FFF7F8FCD5F8C000EF
:1057B00000F089FA01B0BDE8F08300BFBC8C00089E
:1057C000C006002070B40146FF220E79584C002319
:1057D00004F1240050F8230018B9042A0ADD1A46FF
:1057E00008E00579B54202BF00680D68A84204BF11
:1057F0001A4604235B1CDBB2042BE9DB10460428A9
:1058000041DA04F12403002543F8201044F8305015
:1058100008688368DB0711D4446824F020044460DE
:105820006FF0020303606FF00403446824F0800407
:1058300044600360846844F001048460C36A23F414
:105840007003C3620B790A2B06D203EB430443EACD
:10585000045343F0007305E0A3F10A0404EB44048D
:1058600043EA0453DC0D0C3004F00404896820186A
:105870001B0D03F01F03046807259D40AC4301FA8C
:1058800003F323430360104670BC7047284901EBC3
:105890008000406A01790A2906D201EB410241EAFF
:1058A000025141F0007105E0A1F10A0202EB42024F
:1058B00041EA025102682C3201F01F0152F8083F00
:1058C0005B0941EA4311116001230168CA6C194A5E
:1058D000083102EB4112136001680A689207FCD597
:1058E000C86C80B2704730B5114C94F82100012883
:1058F00081B01BD194F82000FFF7C8FF022194F873
:10590000203084F8211060841D4654F8351069B1A8
:10591000002284F8212004EBC5014A68014618469C
:1059200054F8353001B0BDE83040184701B030BD03
:105930003C0B002078000042002101708180C18072
:105940008181C181418201700162416201850186CC
:1059500080F82C1080F82D1080F8321080F8331069
:10596000C28EC2857047000041EC100B01BD80B5AE
:1059700051EC100B00F0B4F9F6E780B553EC112BA5
:1059800051EC100BFAF776FFEEE70000C0F3C751B9
:1059900081B1FF2906D0C110400721F0E04101F19B
:1059A0006051704741020CBF40F4E0016FF00041CC
:1059B0000020704700F0004100020AD0B0FA80FCDD
:1059C00000FA0CF001F16051A1EB0C5101EBD02178
:1059D0004005704701F000428B1AA3F16051B1F508
:1059E000801F0ADBB1F17F6F1FD242EAC102C10002
:1059F00071F1004142EB507070470B15C3F1090380
:105A0000212B10D2890241EA90518002012849419C
:105A100041F0004121FA03F0C3F12003994071F1F4
:105A2000004150417047100070476FF0000013EBC9
:105A3000103F5CBF000E42EAC050704730B4418B4B
:105A4000828B5218018B5208002301B3016A9CB269
:105A500021F814205B1C048B9DB2A54217D29CB286
:105A600021F814205B1C048B9DB2A5420FD29CB27E
:105A700021F814205B1C048B9DB2A54207D29CB276
:105A800021F814205B1C048B99B2A142DED30021C3
:105A90008280C28080F8251030BC704700210182CE
:105AA0007047816070470178012903D100690021A6
:105AB000FFF7F7BF704781680847002141820175F1
:105AC000417580F8961080F8971080F8981080F84B
:105AD000991080F89A1080F81B1180F81C1180F83A
