:020000040800F2
:10000000B80F0020118C0008398C0008697D0008A9
:100010003D8C0008418C0008458C00080000000061
:10002000000000000000000000000000498C0008F3
:100030004D8C000800000000518C0008D17D0008A4
:10004000558C0008598C00085D8C0008618C0008F4
:10005000658C0008698C0008DB8A0008E18A0008CA
:10006000E78A0008ED8A0008F38A00086D8C000812
:10007000718C0008758C0008798C00087D8C000854
:10008000818C0008858C0008897C0008898C000818
:10009000F98A00088D8C0008918C0008D58A000828
:1000A000958C0008998C00089D8C0008A18C000894
:1000B000DF7C0008A58C0008A98C0008AD8C000826
:1000C000B18C0008B58C0008B98C0008BD8C000804
:1000D000C18C0008FB7C0008C58C0008C98C000896
:1000E000CD8C0008D18C0008D58C0008BB7C0008A2
:1000F000AB7C0008D98C0008DD8C0008E18C00087E
:10010000E58C0008E98C0008ED8C0008F18C0008F3
:10011000F58C0008F98C0008FD8C0008018D0008A2
:10012000058D0008098D00080D8D0008118D00084F
:10013000158D0008198D00081D8D0008218D0008FF
:10014000258D0008298D00082D8D0008318D0008AF
:10015000358D0008398D00083D8D0008418D00085F
:10016000458D0008498D00084D8D0008518D00080F
:10017000558D0008598D00085D8D000800000000B5
:10018000618D0008658D000830B5040081B000F075
:10019000958094F83C0028B9002184F83D10204651
:1001A00000F08DFB022084F83C002068016821F0FB
:1001B000020101602068026842F00102026000F062
:1001C000D3FB054620684168CA070CD400F0CCFB7D
:1001D000401B0B28F6D3032084F83C00002184F850
:1001E0003D1001B030BD4068C10764D5A0692268E8
:1001F000012810680CBF40F0800020F080001146FC
:100200000860E0690128206801680CBF41F04001E6
:1002100021F040010160206A0128206801680CBFBC
:1002200041F0200121F020010160606A012820686E
:1002300001680CBF41F0100121F010010160A06ABB
:100240000128206801680CBF41F0080121F0080175
:100250000160E06A0128206801680CBF41F00401D8
:1002600021F004010160A268E0682169024360692D
:100270000A43616802432068491E0A43C26120683C
:10028000016849084900016000F06EFB05462068DE
:100290004168CA0705D500F067FB401B0B28F6D361
:1002A00099E74068C10706D400202064012184F842
:1002B0003C1001B030BD042084F83C00012001B0A6
:1002C00030BDDFF86835F0B448691C6844F00104BB
:1002D0001C6001221D6825F47C5582401D60186851
:1002E0004C6A40EA04201860D443DD692540DD6192
:1002F000C869B8B9D8682040D860CF68DFF8300541
:10030000D1F804C04E6900F51075CCEA074745F8EE
:10031000367000F511708E680F684D69C7EA064C9B
:1003200040F835C0C869012817D1D8681043D86093
:100330000F68DFF8FC04D1F804C04E6900F51075B1
:10034000CCEA074745F8367000F511708E68CF6823
:100350004D69C7EA064640F8356088690028586844
:100360000CBF204010435860086910B95869044018
:100370005C610869012802D1586910435861086A14
:10038000012802D1D8690243DA61002019684908BE
:1003900049001960F0BC70470A0010D190F83C2069
:1003A000222A1FBF90F83C20422A90F83C20622A63
:1003B0001BD090F83C20722A13D1022070470129EB
:1003C0000FD190F83C20322A1CBF90F83C20522AD2
:1003D0000BD090F83C20622A1CBF90F83C20722A77
:1003E00003D090F83D20012A01D10220704701225C
:1003F00080F83D200B0090F83C200BD1122A05D04C
:10040000322A12D0522A12D0222215E0422380F83A
:100410003C3013E0122A04D0222A06D0422A06D009
:1004200009E0522380F83C3008E0622204E07223A5
:1004300080F83C3002E0322280F83C200023036444
:100440000268536943F40F4343F0010353610022F0
:1004500080F83D200029006841690CBF41F00A0185
:1004600041F0500141610020704770B50446002002
:100470002268D668002100255369F60605D51B07BA
:1004800003D510264FF40075D660226816695369AB
:10049000F60605D55B0603D5102645F48065166182
:1004A00022685369DE0754D59668DFF88C331E4006
:1004B0009E4208BF01209668DFF878331E409E42B6
:1004C00008BF01219668DFF874331E409E420CBFBE
:1004D00001230023084318433BD090689168936838
:1004E0004008490A00F0010001F001015B0C0843DB
:1004F00003F00103184325D05069400840005061C3
:1005000094F83C00122804D12068416921F40F417D
:10051000416194F83C00422809D0522805D0722845
:1005200009D1622184F83C1008E0322004E0222145
:1005300084F83C1002E0012084F83C00204600F0E2
:1005400019FA01E045F400652168BD488A68024354
:100550008A602068C268416912F0030F74D089076D
:1005600072D5616BD0F8B00110F004008860226889
:10057000D2F8B00107BF400D0860C008486020688D
:10058000D0F8B02102F00202CA602068D0F8B4218D
:10059000002002F00F0248620A612068D0F8B421FE
:1005A000C2F3072008622068D0F8B8210A752068D5
:1005B000D0F8B821120A4A752068D0F8B821120C78
:1005C0008A752068D0F8B821120ECA752068D0F854
:1005D000BC210A762068D0F8BC21120A4A7620682D
:1005E000D0F8BC21120C8A762068D0F8BC21120EFB
:1005F000CA7620202168C8602068416921F00A017C
:10060000416194F83C00222818BF322804D12068A8
:10061000416921F40F41416194F83C00422809D01E
:10062000622805D0722809D1522184F83C1008E0D4
:10063000322004E0122184F83C1002E0012084F80A
:100640003C00204600F005FC20680269416912F078
:10065000030F74D0C90672D5A16BD0F8C00110F099
:10066000040088602268D2F8C00107BF400D08600E
:10067000C00848602068D0F8C02102F00202CA60B9
:100680002068D0F8C421012002F00F0248620A61FC
:100690002068D0F8C421C2F3072008622068D0F88F
:1006A000C8210A752068D0F8C821120A4A75206846
:1006B000D0F8C821120C8A752068D0F8C821120E13
:1006C000CA752068D0F8CC210A762068D0F8CC21F1
:1006D000120A4A762068D0F8CC21120C8A7620685B
:1006E000D0F8CC21120ECA7620202168086120683B
:1006F000416921F05001416194F83C00222818BF63
:10070000322804D12068416921F40F41416194F8F5
:100710003C00522809D0622805D0722809D1422114
:1007200084F83C1008E0222004E0122184F83C10F8
:1007300002E0012084F83C00204600F08AFB206C97
:10074000054325642068836941694269DB0707D551
:10075000C90505D5120403D5216C41F001012164BE
:100760008369416942699B0707D5890505D512044C
:1007700003D5216C41F0020121648369416942691A
:100780005B0707D5490505D5120403D5216C41F057
:1007900004012164816901F070014B1E41694269C5
:1007A0009B41DB0F2FD109052DD512042BD5816973
:1007B00001F0700110290AD020290CD030290ED068
:1007C000402910D0502912D0602914D017E0216C94
:1007D00041F0080112E0216C41F010010EE0216CA3
:1007E00041F020010AE0216C41F0400106E0216C5B
:1007F00041F0800102E0216C41F480712164816943
:1008000021F070018161206C78B120680421416081
:10081000012284F83C2021680A484A6902404A6162
:100820002046BDE8704000F0DBBB70BD00660040B4
:1008300000640040000300080300000400000310EF
:1008400019050100A470FFFF424810B5424C20601A
:10085000032004F14401606021634FF4C0000021D3
:100860006061A160E16001204FF4A021E06120629D
:100870002161002004F1640200216062A062E06254
:100880006263A1618AB02046FFF77EFC00210591DA
:10089000002201210791069249F6A40101910092DC
:1008A0004FF6FF710291039104920E2101220991EA
:1008B000089269462046FFF704FD0AB010BD0068A3
:1008C0002449884200D0704710B586B000222348E2
:1008D00000924FF40074016941F0007101610169F7
:1008E00001F0007100910021009A0091036843F427
:1008F00080730360016801F4807100910021009A07
:1009000000910221036843F00203036000220068A3
:1009100000F00200009000980291092005900392D7
:10092000019401A90E4800F085FB02210291049177
:1009300001940921059101A90A4800F07BFB0022DE
:100940000121142000F084FC142000F0AAFC06B061
:1009500010BD000000640040D8090020303802407B
:10096000000402400020024001484068704700BF78
:10097000BC0700207047F0B4024610689568131851
:10098000506803EB5004C00748BF4D44A3422DD02C
:1009900013F8016B16F0030004BF13F8010BC01C21
:1009A00031090F2907D113F8011B0F3103E013F8A8
:1009B000017B05F8017B401EF9D10029E6D013F830
:1009C000010BC6F38106032E08BF13F8016B00EB81
:1009D0000620404228440026B71E8F421EBF10F852
:1009E000017B05F8017B761CF6D1CFE7F0BC02F164
:1009F0000C0070472DE9F04796B000F097FC00F02E
:100A000037FA01A80021002200230EC006C0DFF83B
:100A10009405DFF89455DFF894750091002402687E
:100A200042F0100202604FF48036016801F01001BC
:100A300000910021009A00914FF40068036843F090
:100A4000020303604FF48019016801F00201009174
:100A50000021009A00914FF4602A036843F00103DB
:100A60000360016801F0010100910021009A0091EA
:100A7000036843F480730360016801F4807100919E
:100A80000021009A0091036843F08003036001682D
:100A900001F0800100910021009A00910368DFF8C5
:100AA000101543F004030360006800F00400009098
:100AB0000120009A019002910022039201A9DFF81F
:100AC000F40400F0B7FA00F04DFC04A80021002265
:100AD00000231EC01EC0684680E81E0000200121C1
:100AE000DFF8D444A0602076E06221610220E0615A
:100AF00000210120606184F8201084F83010256006
:100B00006660A762C4F80C80204600F03BFD06201A
:100B100004900322089201210020059106908DF88F
:100B20002500012207908DF82420CDF82C90CDF8D7
:100B300028A004A9204600F09BFE08200490022172
:100B40000591204604A900F093FE0920032104909A
:100B50000591204604A900F08BFE012101910A2095
:100B6000002100900322039102926946204600F082
:100B7000C2FD0221019102910D20002100900391FC
:100B80002046694600F0B7FD684600210022002398
:100B90008C46A0E80E10A0E80E1080E80E1005F5B7
:100BA0008071A164012001216066E0652265A16574
:100BB00084F8602084F86820626784F87820E6640E
:100BC0002767C4F8548004F1480000F0DBFC0121E1
:100BD00001910322049206200021009002918DF8D9
:100BE0001510012203918DF81420CDF81C90CDF83A
:100BF00018A0694604F1480000F03AFE08200221DE
:100C00000090019104F14800694600F031FE09208E
:100C100003210090019104F14800694600F028FE8C
:100C2000062001210890099100220A9208A904F1E6
:100C3000480000F060FD00F0E5FE242102A800F06D
:100C40005BFF00210022C4F8D420C4F8E820CDE9DD
:100C5000001241F63F70012204924FF080410622BB
:100C60000692C4F8D0100122C4F8DC0008920021DA
:100C700003200622C4F8D810C4F8E01002900391B3
:100C80000591079109910A9202A904F1D00000F0A0
:100C9000B1FF002000900190694604F1D00001F0FE
:100CA0004BFA11A80021002200230EC006C0CDE996
:100CB000001202A800252EC00EC02EC02EC04FF478
:100CC000AF50C4F81C01C4F8141101202021C4F84D
:100CD0002401C4F818114FF48076B84DC4F82821C7
:100CE000C4F81051C4F8206104F5887000F026FFA4
:100CF00004F5887000F03CFF06201021119012913D
:100D000004F5887011A901F065F8002000900190A9
:100D1000694604F5887001F00FFA60200021029006
:100D2000039100220591079104920692089202A96C
:100D300004F5887000F0D2FF042202A904F588703F
:100D400000F0CCFF082202A904F5887000F0C6FF6D
:100D5000702041F2DF51029003910C2202A904F5A8
:100D6000887000F0BBFF4FF480610A9100221021CF
:100D70000C910D920E921092CDF824800B9609A939
:100D800004F5887001F024FA04F5887001F086FB00
:100D900001F02CFC01F07CFC05F54060C4F89000EB
:100DA0004FF4E131C4F894100020C4F89800C4F85E
:100DB0009C00C4F8A0000C21C4F8A800C4F8AC0042
:100DC000C4F8A41004F1900001F0A0FC01F06EFD45
:100DD00001F08EFD00220221122000F039FA1220CB
:100DE00000F05FFA002201212C2000F031FA2C20C3
:100DF00000F057FA012204212B2000F029FA2B20C1
:100E000000F04FFA002203211C2000F021FA1C20E0
:100E100000F047FA01220321252000F019FA2520CD
:100E200000F03FFA00220321062000F011FA06200C
:100E300000F037FA01F002FE01F017FEFFF704FDA3
:100E400000215F48FFF7A8FA3C215E4800F01EFF32
:100E5000FEE7416B4A6841F214339A4205D1CA7DDC
:100E60008B7D43EA0223584A13800021FFF794BA8E
:100E700000B593B0302106A800F03EFE01A8002185
:100E8000002200230EC006C050480091026842F0C4
:100E900080520260006800F08050009000200099AD
:100EA00000904B48016841F4804101604FF480316B
:100EB000006800F4804000900120009A079102220F
:100EC0004FF480010C920D910422A8210E920F91F3
:100ED0000690022204211092119106A801F0CEFD85
:100EE00002210291002203920F204FF4A0510190A1
:100EF00004914FF480520592052101A801F066FF8C
:100F000001F0F2FF01F0F4FF324AA0FB0221480A8F
:100F100000F0DFF9042000F0EDF9002200214FF08D
:100F2000FF3000F095F913B000BD704700B50128FF
:100F300081B001460AD11F4800F054F908B901F008
:100F4000FDFF25490120086001B000BD022805D140
:100F5000184800F047F908BB052005E0042808D12F
:100F6000144800F03FF9C8B901B05DF804EB02F095
:100F70007CB8082807D10F4800F034F970B9174938
:100F8000087001B000BD102808D10A4800F02AF905
:100F900020B901B05DF804EB02F096B801B000BDD5
:100FA0000000000030380240002001400100000F26
:100FB0000000211000100240D4070020000401406E
:100FC000D8090020FC0A00209C0B00204038024079
:100FD00000700040986E1283143C01403E070020D0
:100FE000704770B4826F9268136A23F4805313625F
:100FF00090F87320102A18D2826F90F87240C36D57
:1010000002EB84056E6A326890F87240D318826FE2
:10101000C36502EB8405EE6B036E3268D31803667A
:1010200090F873305B1C80F8733000200880488093
:1010300070BC70472DE9F04F002281B0002392462A
:10104000DFF8C881724D4FF00F0901240E689440FB
:1010500004EA060EA64540F0BB8003269E406FEAD8
:10106000060C4E68012E18BF022E5FD0112E18BF3D
:10107000122E5BD0C4688E680CEA04049E40344390
:10108000C4604C68022C18BF122C10D1D40800EB9D
:1010900084040AF01C06D4F820B009FA06F72BEAFB
:1010A000070B0F6907FA06F646EA0B062662046884
:1010B0000CEA04060C7904F003049C4044EA060C94
:1010C000C0F800C04C68E60040F182800024009423
:1010D0004FEA920C2E6846F480462E602C6804F489
:1010E00080440094009E4B4C54F82C700AF00C0481
:1010F00009FA04F6B743484EB04228D0474EB042F2
:1011000027D0474EB04226D0464EB04225D0464E5C
:10111000B04224D0454EB04223D0454EB04222D0FA
:10112000444EB04214BF082607261DE08668CF68EB
:101130000CEA06069F403E438660466826EA0404A1
:101140004E68C6F3001696403443446092E700268A
:101150000AE0012608E0022606E0032604E0042651
:1011600002E0052600E0062606FA04F4294E3C4378
:1011700046F82C406FEA0E04D8F800C04E6804EA26
:101180000C0CF70348BF4EEA0C0CC8F800C0D8F8A6
:1011900004C04E6804EA0C0CB70348BF4EEA0C0CBE
:1011A000C8F804C0D8F808C04E6804EA0C0CF7026E
:1011B00048BF4EEA0C0CC8F808C0D8F80CC04E68FE
:1011C00004EA0C04B60248BF4EEA0404C8F80C4016
:1011D000521C9B1C0F2A0AF1040A7FF636AF01B09D
:1011E000BDE8F08F00690140481E8041C043C00F38
:1011F000704702B90904816170470F4A13680146BC
:101200000B421CBF1160FFF791BE7047003C0140CC
:101210004438024008380140000002400004024007
:1012200000080240000C024000100240001402407E
:1012300000180240001C0240143C014034490A6876
:1012400060F30A2240F2FA5060F31F420A607047CE
:1012500070B42F4C2568C5F30224C4F10703052B95
:101260002FBF0F2501259D406D1E261D072E34BF63
:101270000024E41E2940A140012303FA04F4641E63
:10128000224011430901020003D42248815470BC5A
:101290007047214B02F00F021A4402F8041C70BC84
:1012A0007047010007D4012200F01F011B4B8A4048
:1012B000400943F820207047BFF34F8F1449184866
:1012C0000A6802F4E06202430A60BFF34F8F00BF76
:1012D000FDE7401EB0F1807F01D301207047114926
:1012E0004860F02081F8130D00228A600720086012
:1012F0000020704704280B4904D1086840F004001E
:10130000086070470A6822F004020A607047000013
:101310000CED00E000E400E018ED00E000E100E08A
:101320000400FA0510E000E001F0D4BE00B50C485E
:1013300081B0016841F400710160026842F480628A
:101340000260016841F4807101600320FFF776FFBD
:10135000042001F0CBFE00F07FFF002001B000BDB3
:10136000003C02402DE9F04786B014210022684677
:1013700001F0E0FE00217A487A4C7B4D7B4E7C4F99
:10138000DFF8F081DFF8F091DFF8F0A10591026855
:1013900042F010020260016801F010010591002185
:1013A000059A0591036843F020030360016801F08A
:1013B000200105910021059A0591036843F08003FF
:1013C0000360016801F0800105910021059A0591F3
:1013D000036843F001030360016801F00101059116
:1013E0000021059A0591036843F008030360016832
:1013F00001F0080105910021059A0591036843F069
:1014000004030360016801F0040105910021059ABD
:101410000591036843F040030360016801F0400157
:1014200005910021059A05910122036843F002030A
:1014300003602021006800F0020005900598204616
:10144000FFF7D7FE002208212846FFF7D2FE01222F
:101450004FF480513046FFF7CCFE00224FF400518C
:101460003046FFF7C6FE002280213846FFF7C1FE56
:1014700000224FF480614046FFF7BBFE01224FF48B
:1014800000414846FFF7B5FE00224FF480715046F8
:10149000FFF7AFFE2020012100900191002202926F
:1014A000039269462046FFF7C5FD08200121009000
:1014B000019100220292039269462846FFF7BAFD85
:1014C00040202F490090019101220292694628464E
:1014D000FFF7B0FD4FF44050012100900191002230
:1014E0000292039269463046FFF7A4FD8020012155
:1014F0000090019100220292039269463846FFF75C
:1015000099FD4FF480600121009001910022029228
:10151000039269464046FFF78DFD4FF400400121DC
:101520000090019100220292039269464846FFF71B
:1015300081FD4FF480700121009001910022029200
:10154000039269465046FFF775FD002201211720DE
:10155000FFF77EFE1720FFF7A4FE06B0BDE8F08778
:10156000303802400010024000140240000C0240DB
:10157000000802400000024000180240000402403F
:101580000000211030B581B00446002514B90120B7
:1015900001B030BD206C30B9204600F07AFE00204A
:1015A000606484F83C00206CC10600F19D80206CD2
:1015B000DFF8A81220F4885040F002002064086888
:1015C00020F4403008600A68606802430A602068BE
:1015D000416821F48071416020684168226941EAD4
:1015E000022141602068416821F04071416021681A
:1015F0004A68A06802434A602068816821F400615B
:10160000816021688A68E06802438A602068A16A74
:10161000DFF84C229142816821F0706181600FD027
:1016200021688A68A06A02438A602068816821F084
:101630004051816021688A68E06A02438A6004E060
:101640002068816821F0405181602068816821F024
:101650000201816020688168227E41EA4201816046
:1016600094F820002168002848680FD040F40060FA
:1016700048602068416821F4604141602068416809
:10168000626A521E41EA4231416002E020F4006089
:1016900048602068C16A21F47001C1622068C16A93
:1016A000E269521E41EA0251C1622068816821F458
:1016B000007181602068816894F8302041EA4221FD
:1016C00081602068816821F4806181602068816880
:1016D000626941EA82218160002060640120216CFE
:1016E00060F30101216400E00125002084F83C0042
:1016F00001B0284630BD70B481B002460020009091
:1017000092F83C30012B08BF022000F0A480012099
:1017100082F83C0007240B6810680A2B12D30A3B9E
:10172000C56803EB43039C4025EA0404C460C36816
:101730000D688C68A5F10A0606EB4606B440234303
:10174000C3600FE0056903EB430304FA03F325EAE2
:101750000303036103690D688C6805EB4505AC4024
:10176000234303611F244B68072B11D25B1E456B7B
:1017700003EB83039C4025EA04044463436B4D68F8
:101780000C886E1E06EB8606B4402343436325E0B7
:101790000D2B11D2DB1F056B03EB83039C4025EA65
:1017A00004040463036B4D680C88EE1F06EB860689
:1017B000B4402343036311E00D3BC56A03EB83038D
:1017C0009C4025EA0404C462C36A4D680C88A5F1F4
:1017D0000D0606EB8606B4402343C362234B9842B2
:1017E00035D10868122804D11C48036843F48003EB
:1017F00003600868102818BF112828D1174803680B
:1018000043F4000303600868102820D1154D164BDF
:101810002868A0FB0331C90C01EB8104640000942B
:101820000098A0B10098401E0090009878B10098F0
:10183000401E0090009850B10098401E0090009803
:1018400028B10098401E009000980028EAD100219D
:1018500082F83C10002001B070BC704704230140A6
:101860000100000FC807002006BD37860020014098
:1018700070B490F83C20012A08BF022000F0BA8022
:10188000012280F83C2007240A6803680A2A12D340
:101890000A3ADD6802EB4202944025EA0404DC6067
:1018A000DA680D688C68A5F10A0606EB4606B440B6
:1018B0002243DA600FE01D6902EB420204FA02F2F1
:1018C00025EA02021A611A690D688C6805EB450564
:1018D000AC4022431A611F259A6B22F440129A638E
:1018E0009A6B0C69641E42EA04529A639C6B4E68C0
:1018F0000A69F61CB61A06EB8606B540AC439C6333
:101900009C6B4E680A690D88F61CB61A06EB8606B3
:10191000B5402C439C638A69394CA2429A6822F4F0
:1019200070229A600CD09C688A6914439C609C6801
:1019300024F440149C609C68CA6914439C6003E0D2
:101940009A6822F440129A604A7D002A5A6814BFAD
:1019500042F4806222F480625A600A7D002A5A684A
:1019600014BF42F4805222F480525A604A68012A1D
:1019700004D01ED3032A13D009D31AE05C69240BC8
:1019800024035C615C69CA6814435C6119E09A696C
:10199000120B12039A619C69CA6814439C6110E09F
:1019A000DA69120B1203DA61DC69CA681443DC617C
:1019B00007E01A6A120B12031A621C6ACA681443FF
:1019C0001C620D4CA34211D10A68122A04D10B4AA1
:1019D000136843F4800313600968102918BF1129A4
:1019E00004D106490A6842F400020A60002180F826
:1019F0003C10002070BC70470020014004230140CF
:101A000001000F00374838494FF4827200B5016079
:101A100042604FF40061C160022208210261C1618D
:101A200000234FF400720A218360436182610362E4
:101A300043628362C16281B001F0B2FB20B101B0A8
:101A40005DF804EBFFF771BA01B000BD10B586B0C8
:101A500004461421002201A801F06CFB2168224AEF
:101A600091423DD1002000902048416941F48051CD
:101A70004161416901F4805100910021009A009177
:101A8000036843F001030360016801F00101009164
:101A90000021009A00910221036843F002030360D1
:101AA000006800F0020000902020009A02910122BC
:101AB00003920321019004910522059201A90C488B
:101AC000FFF7B8FA0221029101220392302003218C
:101AD000019004910522059201A90648FFF7AAFA90
:101AE00006B010BD640A00200030014030380240CA
:101AF0000000024000040240002201F091BB70B4DB
:101B0000826F9268136A23F48053136290F87320F3
:101B1000102A0ED2826F90F87240436E02EB840559
:101B2000EE6B3268D318436690F873305B1C80F814
:101B3000733000200880488070BC704710B50400E6
:101B400001D1012010BD94F83D0028B9002184F88E
:101B50003C10204600F08FFC022084F83D00211D3F
:101B6000206800F062F9012084F83D00002010BDDB
:101B700010B5040001D1012010BD94F83D0028B932
:101B8000002184F83C10204600F068FD022084F813
:101B90003D00211D206800F048F9012084F83D0037
:101BA000002010BD0068012201F01F01036A02FA43
:101BB00001F18B430362026A11430162DFF82C10CA
:101BC00088421CBFDFF82820904203D1416C41F4C9
:101BD00000414164816801F00701062903D00168D2
:101BE00041F0010101600020704700000000014049
:101BF00000040140F0B581B004000D4608BF01208B
:101C000041D094F83D0028B9002184F83C102046CA
:101C100000F0C2FB022084F83D002168DFF8A80133
:101C20008A6802408A60211D206800F0FEF8226860
:101C3000DFF8980193689669176AA9680640A86951
:101C40000E4346EA0026DFF88801E9680640E869A5
:101C50000E43296946EA0026286A46EA011646EA42
:101C600000366868696927F0AA07074328680343B4
:101C700047EA0117936021688E610121206807629D
:101C800084F83D10002001B0F0BD000011B104291E
:101C900009D00AE001680A6A520852000A620A6A18
:101CA00042F0010211E0016808E001680A6A520886
:101CB00052000A620A6A42F001020A620A6A22F0CB
:101CC00010020A620A6A42F010020A6200680168A1
:101CD00041F00101016000207047000030B504466A
:101CE00081B094F83C000D46012808BF022068D05E
:101CF000012084F83C0002210C2A84F83D1059D8B8
:101D0000DFE802F0075858581B58585830585858B0
:101D100044002068294600F0DAF82068816941F023
:101D2000080181612068816921F0040181612168D5
:101D30008A69286902438A613CE02068294600F0EC
:101D4000F4F82068816941F400618161206881694B
:101D500021F480618161206881692A6941EA022158
:101D6000816127E02068294600F011F92068C169E7
:101D700041F00801C1612068C16921F00401C1611D
:101D80002168CA6928690243CA6113E020682946AC
:101D900000F02EF92068C16941F40061C16120683A
:101DA000C16921F48061C1612068C1692A6941EA81
:101DB0000221C161012084F83D00002184F83C101B
:101DC000002001B030BD0000F8BFFFFFFCFCFFFFAA
:101DD0000303FFFF10B5044694F83C00012801D12D
:101DE000022010BD012084F83C00022284F83D202E
:101DF000204600F021F930B1012084F83D00002197
:101E000084F83C1010BD2068C16821F04001C16019
:101E10002068C16821F48041C160012084F83D0040
:101E2000002184F83C10002010BD30B40368DFF8B6
:101E3000DC42A04218BFB0F1804F0CD0DFF8D022B6
:101E400090421CBFB34DA84205D0B34A90421CBF7C
:101E5000B24DA84210D123F070024B681343A04248
:101E600018BFB0F1804F1BD0A94A90421FBFA94DA7
:101E7000A842A94A904213D0A84DA8421CBFA84A24
:101E800090420DD0A74DA8421CBFA74A904207D050
:101E9000A64DA8421FBFA64A9042A64DA84203D114
:101EA00023F44072CB6813434A6923F08003134341
:101EB0000360A0428B68C3620A68826219BF974BB5
:101EC0009842096901630122426130BC704770B4D5
:101ED000026A8E4E520852000262026A43688569A5
:101EE0000C6825F073052C438D6822F0020215431F
:101EF000B0421CBF894A904207D1CA6825F0080544
:101F00001543B04225F0040502D0844EB04205D1FD
:101F10004A6923F440731A438B6913434360846115
:101F200049684163056270BC704770B4026A22F070
:101F300010020262056A436884690A6824F4E64470
:101F400044EA02248A6825F0200545EA02156F4A12
:101F500090421CBF714EB04208D1CE6825F080057A
:101F600045EA0615904225F0400502D06B4A9042A2
:101F700006D14E698A6923F44063164343EA860317
:101F80004360846149688163056270BC704770B4C6
:101F9000026A22F480720262056A4368C2690C68B0
:101FA00022F0730214438A6825F4007545EA02257D
:101FB000564A90421CBF594EB04208D1CE6825F413
:101FC000006545EA0625904225F4806502D0534A13
:101FD000904206D14E698A6923F44053164343EA7E
:101FE00006134360C4614968C163056270BC7047F1
:101FF00070B4026A454E22F480520262B042046A12
:102000004268C3690D6823F4E64343EA05238D68FB
:1020100024F4005444EA05341CBF404DA84204D1C6
:102020004D6922F4804242EA85124260C3614968E8
:102030000164046270BC70470368D3F808C0486844
:102040000A682CF0700C40EA0C0C4FEADC0C42EAF7
:10205000CC0CC3F808C04868402814D0502826D0BB
:1020600060283DD070284FD108698A68C968D3F8C4
:1020700008C02CF47F4C41EA0C010A4342EA0022DA
:102080009A60002070470868052801D10120704738
:10209000186A1A6A520852001A629A69096922F08B
:1020A000F00242EA01129A61186200207047086942
:1020B00089681A6AD3F820C04FEA5C0C4FEA4C0CCE
:1020C000C3F820C022F00A02D3F818C02CF0F00C9C
:1020D0004CEA001CC3F818C0114319620020704775
:1020E000086989681A6A22F010021A629A69D3F89C
:1020F00020C022F4704242EA00322CF0A00C9A6117
:102100004CEA011CC3F820C00020704700000140C9
:102110000004004000080040000C004000040140A2
:1021200000400140004401400048014000180040C8
:10213000001C00400020004030B490F83C20012AF0
:1021400008BF022032D0012280F83C20022380F810
:102150003D3004686568A3680A6825F0700515437A
:1021600065600268134CA24218BFB2F1804F11D0D3
:10217000114CA2421CBF114DAA420BD0104CA242DE
:102180001CBF104DAA4205D00F4CA2421CBF0F4DE0
:10219000AA4204D1496823F080030B4393600122D3
:1021A00080F83D20002180F83C10002030BC7047B2
:1021B0000000000000000140000400400008004052
:1021C000000C0040000401400040014000180040A5
:1021D00090F83C20012A01D102207047012280F8AA
:1021E0003C20D1F80CC08A684B682CF4407C42EA51
:1021F0000C0C2CF4806C43EA0C0C0A680B692CF470
:10220000006C42EA0C0C2CF4805C43EA0C0C4A692A
:10221000C9692CF4005C42EA0C0C02682CF4804C76
:1022200041EA0C0CC2F844C0002380F83C30002086
:10223000704790F81C1169B90022012180F81D2116
:1022400080F81C11D0F82001C16841F02001C16064
:10225000022070470120704782B000200090DFF814
:102260005403416841F480414160416801F4804178
:1022700000910021009A0091036843F080530360AD
:10228000006800F0805000900420009902B0FEF732
:10229000D5BF10B586B0044614210022684600F070
:1022A00049FF2068DFF81013884239D100200590DB
:1022B000DFF80803416941F480714161416901F42B
:1022C000807105910021059A0591036843F004038C
:1022D0000360016801F0040105910021059A059150
:1022E000036843F001030360016801F001010591F7
:1022F0000021059A05910321036843F0020303605E
:10230000006800F0020005900920059A00900191F4
:10231000002202926946DFF8A802FEF78BFE26E053
:10232000DFF8A012884235D100200590DFF88C023A
:10233000416941F400714161416901F40071059105
:102340000021059A0591036843F0010303600168C9
:1023500001F0010105910021059A0591036843F000
:1023600002030360006800F002000590059A402017
:102370000321009001910022029269469248FEF7E3
:1023800059FE0320009001900022029269468F4876
:10239000FEF750FE06B010BD10B586B004461421FD
:1023A0000022684600F0C6FE2068B0F1804F38D1A8
:1023B000002005908148016941F001010161016936
:1023C00001F0010105910021059A0591036843F090
:1023D00002030360016801F0020105910021059AE2
:1023E00005910221036843F001030360006800F0D7
:1023F000010005900820059A0090002202920392A5
:1024000001910122049269467048FEF713FE0022F2
:10241000029203924FF400400221009001910122A8
:1024200022E06C49884224D100200590634841692C
:1024300041F001014161416901F001010591002173
:10244000059A05910221036843F0010303600068C7
:1024500000F0010005904FF44070059A01910122AF
:102460000021009002920391049269465648FEF7BB
:10247000E1FD06B010BD81B00068574988420BD11C
:10248000002253480092016841F002010160006897
:1024900000F002000090009801B0704710B586B0BF
:1024A000044614210022684600F044FE20684B498F
:1024B000884217D1002005904048016841F004018E
:1024C00001600221006800F0040005904020059A98
:1024D0000090002202920392019102220492694626
:1024E000374830E03C4988422FD1002005903348DE
:1024F000026842F480720260016801F48071059103
:102500000021059A05910221036843F080030360CE
:10251000006800F080000590E020059A009001918D
:10252000029103910322049269462D48FEF782FD31
:102530004FF4604002210090019102910391032227
:10254000049269462748FEF775FD06B010BD10B528
:1025500086B004461421002201A800F0EBFD21689A
:10256000214A914223D1002000901448416941F052
:1025700010014161416901F0100100910021009AB0
:1025800000910221036843F002030360006800F039
:1025900002000090C020009A019000220392049251
:1025A00002910722059201A90848FEF743FD06B0F3
:1025B00010BD000040380240002001403038024089
:1025C00000080240002101400000024000040240D7
:1025D0004438024000000140000401400004004073
:1025E00000200240001C02400010014010B58AB0DB
:1025F0000020009001901C21002202A800F09AFD0A
:102600005320204C2049606000226320E06021605C
:10261000A2602261A2612046FFF7AAFA08B1FEF784
:1026200084FC00200090019069462046FFF784FD5D
:1026300008B1FEF77AFC602062210290039100222B
:102640000492069202A92046FFF748FB08B1FEF764
:102650006CFC2046FFF722FF0AB010BD81B0006875
:10266000094988420BD1002208480092016841F0D4
:1026700002010160006800F002000090009801B0C3
:1026800070470000BC0A00200004004040380240AF
:1026900010B58CB02421002202A800F04BFD0022CE
:1026A0000021002000910191164C1749A260606042
:1026B000012204924FF6FF700F2206922160E06023
:1026C000012208920021032021616161A161029031
:1026D00003910591079109910F220A9202A92046C0
:1026E000FFF788FA08B1FEF720FC00200090019067
:1026F00069462046FFF720FD08B1FEF716FC0CB036
:1027000010BD00BFFC0A00200000014010B504000D
:1027100001D1012010BD94F8390028B9002184F8B6
:1027200038102046FFF713FF242084F83900206872
:10273000C16821F40051C160204600F019F82068FA
:10274000016921F4904101612068416921F02A0169
:1027500041612068C16841F40051C1600020E0631C
:10276000202184F83910202084F83A00002010BD80
:1027700070B5044622681169E06821F440510143B4
:102780001161D3684548A168034020690B43616922
:102790000343E0690B430343D3605169A06921F40B
:1027A0004071014351613E48E169B1F5004F4AD1A2
:1027B00082421CBF3B48824222D100F0A6FB6268E5
:1027C0001921D30FA1FB0001520000F043FD364E4A
:1027D000A0FB0665AA096FF0630101FB0200C000BF
:1027E0003230314DA0FB05539809410001F4F871D6
:1027F00001EB0211226800F007004018906070BDE4
:1028000000F079FB62681921D30FA1FB000152008F
:1028100000F020FD244DA0FB05539A096FF06301E1
:1028200001FB0200C00032301F4DA0FB0553980988
:10283000410001F4F87101EB0211226800F0070079
:102840004018906070BD82421CBF1648824202D17F
:1028500000F05BFB01E000F04EFB62681921930F72
:10286000A1FB0001920000F0F5FC0F4DA0FB055309
:102870009A096FF0630101FB0200000132300A4D3A
:10288000A0FB0553980900F0F00101EB021122684A
:1028900000F00F004018906070BD0000F369FFFF6A
:1028A00000100140001401403E0AD7A310B582B0C9
:1028B00000F01EFB0B4A0C4CA0FB0221080AFEF79D
:1028C00008FD211D204600F0DDFD00F0CFFE074889
:1028D0000090231D2246012104F1080000F066FF4C
:1028E00002B010BD986E1283B0070020708B0008F4
:1028F00030B587B0002005904C4C4D484D4D0268D6
:1029000042F010020260016801F0100105910021FF
:10291000059A0591036843F010030360016801F014
:10292000100105910021059A0591036843F01003F9
:102930000360016801F0100105910021059A0591DD
:10294000036843F010030360016801F01001059172
:102950000021059A05910121036843F010030360EB
:10296000006800F0100005902846059A0091029139
:1029700001946946FEF75EFB01210222029100925A
:10298000019469462846FEF755FB04210091019405
:102990000121029128466946FEF74CFB082100916F
:1029A00001940121029128466946FEF743FB10215C
:1029B000009101940121029128466946FEF73AFBF5
:1029C0004FF4F060002100900191022202926946CA
:1029D0001948FEF72FFB012202210620FEF738FCE2
:1029E0000620FEF75EFC012202210720FEF730FCE4
:1029F0000720FEF756FC012202210820FEF728FCE2
:102A00000820FEF74EFC012202210920FEF720FCDF
:102A10000920FEF746FC012202210A20FEF718FCDD
:102A20000A20FEF73EFC07B030BD00000000211078
:102A300030380240001002400014024010B50D4C26
:102A4000002208212046FEF7D4FB0122082120465F
:102A5000FEF7CFFB142000BF401EFCD12046BDE88E
:102A6000104000220821FEF7C4BB00210248FFF7F6
:102A700099B8000000140240BC0A00202DE9F04182
:102A8000040082B000F094812078DFF83463C1073D
:102A900013D5B06800F00C00042807D0B06800F02F
:102AA0000C00082840D1706841023DD53068810390
:102AB00003D56068002800F07B812178880719D54C
:102AC000B16811F00C0F07D0B06800F00C000828B6
:102AD00065D17068410262D43068810703D5E2682D
:102AE000012A40F065813068216920F0F80040EA51
:102AF000C10030602078010740F186806069B149EB
:102B0000002870D00122C1F8802EFDF72DFF054668
:102B1000706F810778D4FDF727FF401B0228F7D993
:102B2000032002B0BDE8F0816068B0F5803F04D1B9
:102B3000306840F48030306011E0B0F5A02F30688C
:102B400006D140F480203060316841F4803105E0E6
:102B500020F480303060316821F480213160606879
:102B600070B1FDF701FF054630688103A5D4FDF77C
:102B7000FBFE401B6528F7D3032002B0BDE8F081BF
:102B8000FDF7F2FE05463068810396D5FDF7ECFEB1
:102B9000401B6528F7D3032002B0BDE8F081E06850
:102BA000884980B101220A60FDF7DEFE05463068E3
:102BB000810798D4FDF7D8FE401B0228F7D90320DF
:102BC00002B0BDE8F0810860FDF7CEFE0546316831
:102BD00088078FD5FDF7C8FE401B0228F7D90320D0
:102BE00002B0BDE8F081C1F8800EFDF7BDFE0546DC
:102BF000706F810708D5FDF7B7FE401B0228F7D993
:102C0000032002B0BDE8F0812078410766D5306C22
:102C10000025C1000BD4002000900125316C41F04B
:102C200080513164306C00F0805000900098664F05
:102C30003868C10513D4386840F480703860FDF7F7
:102C400093FE80463868C10509D4FDF78DFEA0EBE0
:102C500008000228F6D9032002B0BDE8F081A06880
:102C6000012803D1306F40F001000FE00528306FDC
:102C700006D140F004003067306F40F0010005E0FD
:102C8000400840003067306F20F00400306741F2A8
:102C90008938A06870B1FDF767FE0746306F81077D
:102CA00017D4FDF761FEC01B4045F7D3032002B0E7
:102CB000BDE8F081FDF758FE0746306F810708D563
:102CC000FDF752FEC01B4045F7D3032002B0BDE81C
:102CD000F0811DB1306C20F080503064A069002874
:102CE0006AD0B16801F00C01082944D00228354DA2
:102CF00030D100202866FDF737FE07463068810195
:102D000008D5FDF731FEC01B0228F7D9032002B019
:102D1000BDE8F081E269206A616A0243A06A400866
:102D200042EA8112401E42EA0042E06A42EA006240
:102D3000726001212966FDF717FE044630688101A3
:102D40003AD4FDF711FE001B0228F7D9032002B088
:102D5000BDE8F08100202866FDF706FE04463068D5
:102D6000810129D5FDF700FE001B0228F7D90320B9
:102D700002B0BDE8F08101281AD07068E26900F461
:102D80008001914202BF00F03F01226A91420FD1BF
:102D900047F6C071626A0140914202BF00F44031BF
:102DA000A26A914202BF00F07060E16A884203D0DB
:102DB000012002B0BDE8F081002002B0BDE8F08142
:102DC0000038024000004742007000402DE9F04109
:102DD00004000E4661D0524DD5F8000400F00F00FB
:102DE000B04207D285F80064D5F8000400F00F0067
:102DF000B04252D12068810712D5400703D5A96897
:102E000041F4E051A9602078010703D5A86840F497
:102E10006040A860A968A06821F0F0010143A960A2
:102E20002178C8072BD56068012802D129688A0358
:102E300005E0022818BF032805D129688A0105D4B6
:102E40000120BDE8F08129688A0726D5A96889088C
:102E500040EA8100A86041F28938FDF785FD074608
:102E6000A868616800F00C00B0EB810F07D0FDF797
:102E70007BFDC01B4045F3D30320BDE8F081D5F8AE
:102E8000000400F00F0086420AD285F80064D5F8ED
:102E9000000400F00F00B04202D00120BDE8F08134
:102EA0002078420705D5A968E06821F4E051014384
:102EB000A9602178080706D5A968206921F4604136
:102EC00041EAC001A96000F0A9FCAA681549164BA7
:102ED000C2F30312895CC84018601448006800F00F
:102EE00005F90020BDE8F081124901200860704713
:102EF0000D48006870470C480D4A006813680E4979
:102F0000C3F38222895CC84070470748084A0068BA
:102F100013680949C3F34232895CC8407047000016
:102F20000038024040650008C8070020C4070020A0
:102F3000083802404C004742208C000801490868CC
:102F400000F09CBCB0070020002848BF40427047FA
:102F500010B5594C00F09CFC6060E0682061A168ED
:102F60006068091AE160E06810BD10B5524C534B1F
:102F70002DED028BE168216142F21071B3F900007E
:102F800010FB01F0821300EB5240C01300EE900AD8
:102F9000B8EEE08AB0EE480ABEEEEE0A84ED030A0F
:102FA00000F076FC6060B0EE480ABDEC028B10BD0C
:102FB00030B5414C81B0E168B4F91C00B4F91E2071
:102FC0004143B4F9200091FBF2F590B1616AE268E7
:102FD000B4F92230504390FBF3F041186162084687
:102FE00040F6B831884202DC3549884202DA616233
:102FF00000E06062606A451900F04AFC00EE100AC9
:10300000D4ED181A94ED172AB8EEC00ADFED290A9C
:1030100020EE200AD4ED160AD4ED192A84ED150A03
:1030200030EE601A61EE811A32EE602A32EE011A39
:1030300041EE221A84ED160ABDEEE10A10EE101AD6
:1030400009B24819C4ED170A6428C8BF642004DC1B
:1030500010F1640FB8BF6FF063006564A16400B243
:1030600001B030BD14484068704742F28E31124AB8
:1030700048439060704781837047018401B9416281
:10308000704780ED030A704780ED040A704770476F
:103090007047704770477047B0F91C007047064B87
:1030A0000849986880FB0121081300EBD07000B23A
:1030B000704700000000B43B080600209C0B002075
:1030C00048F4FFFF87EB33730149086800F0EEBB5B
:1030D000B007002070470146002091F87420012AB3
:1030E00003D10022402081F87420704730B50F4D85
:1030F0000F4B2A7804464FF47A711868B1FBF2F24C
:1031000081B0B0FBF2F0FEF7E4F858B9102C09D208
:10311000002221464FF0FF30FEF79AF8AC60002005
:1031200001B030BD012001B030BD00BFBC070020A0
:10313000C807002062F30F2262F31F42401810F00C
:10314000030308D0C91A1FD3DB0748BF00F8012DBD
:1031500028BF20F8022D130030B41446154610394C
:1031600028BF20E93C00FAD8490728BF20E90C0015
:1031700048BF40F8042D890028BF20F8022D48BF21
:1031800000F8012D30BC7047C91818BF00F8012D98
:10319000CB0728BF00F8012D704700000100020096
:1031A00010B5040001D1012010BD0021A16294F8E6
:1031B000510020B984F850102046FEF747FC022049
:1031C00084F851002068016821F0400101606268C4
:1031D000A068E168A369024320690A436169024368
:1031E0000A4303F40073E069216A1A430243A06AA8
:1031F00023680A4302431A60A169606A2268090CC5
:1032000001F00401014351602068C16921F40061AB
:10321000C16100206065012184F8511010BD0E00CD
:1032200000B500BF130096469446103928BFA0E8A9
:103230000C50FAD85FEA417C28BF0CC048BF40F868
:10324000042BC90728BF20F8022B48BF00F8012B28
:1032500000BD0000BBBBE1B1B2F5803F80F07E80D5
:10326000022A1ED98C46B1FBF2F102FB11C31B04EA
:1032700043EA1043B3FBF2FC02FB1C3380B240EA8A
:103280000343B3FBF2F002FB103240EA0C40002390
:103290007047022A05D98446B0FBF2F002FB10C247
:1032A00070474AB105D100F0010249085FEA3000D9
:1032B000704700220023704700F0FCBA0B000200A8
:1032C000002100207047904271EB030CF6D3B3F558
:1032D000803F2FD2F0B5B3FA83F7B1FA81F4A7F1AA
:1032E0000F0E3D1B5340CEF1200602FA0EF2F341C1
:1032F0005340B5F10F0746D80F3C2C444140C4F170
:103300002006A040F1414140B1FBF3F603FB16114A
:10331000A2FB0645001BA94102D2761E8018594126
:1033200080EA010221FA0EF362FA0EF200215A40FD
:103330003046F0BD30B4B1FBF3FC03FB1C11A2FB23
:103340000C45001BA94103D2ACF1010C8018594176
:1033500030BC02460B46604600217047B2F1807FC8
:1033600065D3F0B5B2FA82F7B1FA81F4C7F10F066E
:103370003D1B22FA06F307F1110EF24120355A40A7
:10338000B5F10F07B8D94140C4F12006A040F14182
:103390004140B1FBF3FC03FB1C11A2FB0C45001BDD
:1033A000A94103D2BCF1010C801859410F2F12D34F
:1033B0000F3FC90341EA5041B1FBF3F603FB16117D
:1033C000A2FB0645D4EBC030A94102D2761E80187C
:1033D000594146EACC3C07B34140C7F12006B8400A
:1033E000F1414140B1FBF3F603FB1611A2FB064588
:1033F000001BA94102D2761E8018594180EA0102C1
:1034000021FA0EF3C7F1200462FA0EF20CFA07F06B
:103410005A402CFA04F13043F0BD80EA010221FA4F
:103420000EF3002162FA0EF260465A40F0BD8C465F
:10343000B1FBF2F102FB11C31B0243EA1063B3FBC1
:10344000F2FC02FB1C331B024CEA002043EA10632F
:10345000B3FBF2FC02FB1C331B024CEA002043EAE4
:103460001063B3FBF2FC02FB1C331B024CEA00208E
:1034700043EA1063B3FBF2FC02FB1C324CEA00206F
:10348000002370472DE9F0430446664E81B00D4697
:1034900006F1E80000F00FFA6348644FDFF890810E
:1034A000DFF89091C6F8C4000021634886F87C10CC
:1034B000C6F8BC0000F004FA00F06EFA384600F0DE
:1034C00099FAC6F894705D485D4FC6F8900038468A
:1034D00000F0A4FAD6F890103B464A46404600F069
:1034E000FAFAD6F89410D6F89000C6F8B0803A46AA
:1034F00000F0F8FA484600F007FBDFF84881DFF8F3
:103500004891404600F002FB484600F0FFFA4F4861
:103510004F49C6F8A000C6F8A810C6F89880C6F8AB
:103520009C904C484C49DFF83481C6F8A400C6F89A
:10353000AC104B48C6F8B40000F0F2FA4948D6F88F
:10354000B410C6F8C000C0F81011C0F80C614046B5
:1035500000F0F3FA4448C6F8C800C6F8B88000F096
:10356000FFFA002000F004FB012086F82400D6F8C2
:10357000900000F03BFB3061D6F8900000F036FB85
:10358000009006F1CC01BDF80200B082C6F88C10A4
:103590003346D6F8902006F1E80106F1CC0000F0A1
:1035A00030FBD6F8900000F036FB0146D6F88C00D0
:1035B000002200F033FBD6F88C0020603764012233
:1035C000D6F89410D6F89800B162F0620020D6F8D0
:1035D0009C1031637063F0637064B06406F1E800BE
:1035E000D6F8BC10B1633065D6F89010D6F8B400A8
:1035F000F164B0650020D6F8B8107165306600211E
:10360000F165B066F06630677067B067D6F8C010D5
:10361000716606F12801296086F87C2001B0BDE8BA
:10362000F08300BFC00600201804002040010020E5
:1036300094030020E00200206402002030020020F9
:103640001803002090010020E00100205C0600200B
:10365000000000200806002020000020B003002009
:10366000D80300202C0000200004002070B448483B
:1036700081B04FF4903101604FF40052026001605C
:103680004FF48042016800914FF4A031009B01602B
:10369000026001602024016800914FF4C031009A5B
:1036A00001604FF400420260016003680093009DD6
:1036B000384BC0F80034C0F80044C0F8003440244F
:1036C000D0F800340093009D334BC0F80034C0F8AC
:1036D0000044C0F800348025D0F800440094009ED7
:1036E0002E4CC0F80044C0F80054C0F8004408252F
:1036F000D0F800040090009C29482A4CC0F80044EF
:10370000C0F80054C0F80044D0F800540095009E62
:10371000016002600160016800914021009A03602D
:10372000016003600822036800930099C0F8004814
:10373000C0F80028C0F800480122D0F80018009115
:103740004FF00111009BC0F80014C0F80024C0F82D
:1037500000140223D0F800240092009C124AC0F802
:103760000024C0F80034C0F80024D0F800240092EF
:103770000122009BC0F80018C0F80028C0F800180B
:10378000D0F800080090009901B070BC704700BFED
:103790001C1C0240200001004000010080000100CC
:1037A0001C00024008000100020001002DE9F04762
:1037B000DFF850800D4616461F46C8F8B080044614
:1037C000114991E80C5688E80C56DFF8409082B019
:1037D000484600F02AFA0A980D490E4B0E4A01900D
:1037E00000914946D8F8B00000F022FAD8F8B000AD
:1037F00000943B463246294600F03CFA02B0BDE850
:10380000F08700BF24090020700B0020CC040020AA
:10381000298C0008332200082184000830B5144C9C
:10382000606800F00C00042803D0082803D0114879
:1038300030BD114830BD226820680023410202F0EB
:103840003F0204D525680C49C5F3881003E02068C1
:103850000849C0F38810A1FB0001FFF7FBFC2168B9
:10386000C1F30141491C4900B0FBF1F030BD00BF7C
:10387000043802400024F40000127A0010B5044617
:103880000321206800F002FA012808BF207610BD4D
:10389000054900B5D1F8900081B000F067FA01B099
:1038A0005DF804EB00F064BAC00600200068072150
:1038B00000F0ECB9704700210170418081807047B1
:1038C00070B4856FAA682B686C68166876087600F5
:1038D000166095F8901031B16FF080061661D168CE
:1038E00041F08001D160516941F00101516195F8C9
:1038F0008C10022910D195F88D10012904BF95F87C
:103900008E1003290BD1012515630325516941F060
:1039100001015161156302E090F8461019B9B0F841
:103920007010491E51624FF48011194E194DB24268
:1039300005D12A6842F001022A600A4605E02E6895
:1039400046F002062E604FF4F01282666FF0040516
:103950009A6842F001029A60A26842F00102A260F5
:103960001D605A6842F080025A60DA6A22F47002DE
:10397000DA629A6B22F440129A63A26B22F440122C
:10398000A263C1660021A0F84E1070BC704700BF52
:10399000000001400C2004E01448154981B0026881
:1039A000D20712D4036843F001030360026802F0F7
:1039B00001020092009A0B6943F001030B61016858
:1039C00049084900016001B0704708680B6802228D
:1039D00062F306130B6000090A6942F001020A61F2
:1039E0000A6860F306120A6001B07047403802406E
:1039F00004000040018842888180C280018C826B73
:103A000041844263016BB0F84220C162A0F84020BB
:103A1000C18F8187002181608162704770B4024646
:103A20000023106A43624FF0FF31B2F86E30B1FBF1
:103A3000F3F39366B2F86C10C1EB01139B00536271
:103A400000F1180392F877101C68090524F0F004BF
:103A500044EA11441C6092F877101C68090524F4AC
:103A6000704444EA11241C606FF001010161C368D5
:103A700043F00103C3600023016841F001010160CC
:103A800092F87500002824DD10F0030100F0098091
:103A900002F128050024DEB25B1C45F82640491ED1
:103AA000F6D1800800F0158002F128040021DDB273
:103AB00044F825105B1CDDB244F825105B1CDDB218
:103AC00044F825105B1CDDB25B1C44F82510401E39
:103AD000EAD170BC7047016042600021836081734D
:103AE000C17370470161426190F82A100170B0F90A
:103AF0002C20B0F92E1012044260090400228160CB
:103B00004280C2608261704700F034B90188428807
:103B10008180C2800022018C418482608262704771
:103B200010B5044604F10C0000F03CF984F82600BE
:103B30002046BDE8104000F0EBB910B504462078EF
:103B400048B9201D00F02EF984F826002046BDE873
:103B5000104000F00ABA618A21820020E08210BD84
:103B6000002181604160C1600161012141617047B4
:103B700030B583B0044602A80021016001A800917D
:103B8000016026221749029B12FB04F20A441360CB
:103B9000019D5560009BD3600023009D1561D38378
:103BA000009DC2F816500025019B1584C2F81A30FA
:103BB00001EB84050021D5F8980000F0D9F9D5F87B
:103BC0009C00002100F0D4F9D5F8900000F0D2F963
:103BD000D5F8BC0000F0D6F914B9034900204862BA
:103BE00003B030BDC00600200806002081B0B0F947
:103BF0002E10ADF80010008EADF80200009801B054
:103C0000704701604260002183600173C1810182BD
:103C1000C18201767047B0F92C007047012303730D
:103C2000C181C28203764376704700F0ADB90000CF
:103C3000F0B581B004460846069F0799C4F8A8105D
:103C4000A06115460849094A00911E46084B2146C5
:103C500000F0AFF9E56126626762204601B0BDE879
:103C6000F04000F0B1B900BF318C0008358C00087D
:103C7000B152000881B0DDF804C0017182600021FA
:103C8000C3600175C0F810C001B0704710B502786C
:103C90000024142A0ED8DFE802F01821572D4755CA
:103CA00057595B610D0D0B27292B3739414E3F00CA
:103CB0000A0057D003291CBF0129072903D000227D
:103CC000802100F08EF9204610BD0A46032A49D013
:103CD000012A45D101240170204610BD072918BFD3
:103CE0000D293FD00E2934E00E2918E00F2916E0E7
:103CF000022914E0072918BF102933D0042918BF5E
:103D000011292FD0012924E0112908E0122918BF18
:103D1000072927D014291CE0122900E0042913D117
:103D200001240170204610BD0A46132A06D1012441
:103D30000170204610BD0A46042A13D0072A11D06C
:103D4000052A06E006290DD0072902E0082900E02F
:103D50000929AFD101240170204610BD0A0001D00D
:103D60000C2AA7D101240170204610BD406970477C
:103D700080687047002101708180C1808181C1818C
:103D800041820170016241620185018680F82C1038
:103D900080F82D1080F8321080F83310C28EC28562
:103DA0007047000070B40146FF220E79564C002384
:103DB00004EB8300406A58B10579B54202BF006840
:103DC0000D68A84208D05B1CDBB2042BF0DB06E0D8
:103DD000042AF8DD1A46F6E71A460423F3E71046EC
:103DE000042842DA04F12403002543F8201044F8A3
:103DF00030500B689868C00711D45C6824F0200428
:103E00005C606FF0020018606FF004005C6824F0E2
:103E100080045C6018609C6844F001049C60D86A6F
:103E200020F47000D86208790A2806D200EB40041A
:103E300040EA045040F0007005E0A0F10A0404EBF1
:103E4000440440EA045003F10C04C30D03F00403DE
:103E500089681B19000D00F01F001C6807258540AC
:103E6000AC4301FA00F020431860104670BC704764
:103E7000254901EB8000406A01790A2906D201EB4D
:103E8000410241EA025141F0007105E0A1F10A024C
:103E900002EB420241EA025102682C3252F8083F1A
:103EA00061F30403136001210268D36C174B0832DD
:103EB00003EB4213196001680A689207FCD5C86CCD
:103EC00080B2704710B5104C94F82100012819D128
:103ED00094F82000FFF7CCFF6084022084F82100D2
:103EE00094F82000034654F8331059B1002284F8A6
:103EF000212004EBC3014A68618C54F83330BDE8DB
:103F00001040184710BD00003C0B00207800004214
:103F100030B4418B828B5218018B52080023E9B1D7
:103F2000016A9DB221F815205B1C058B9CB2AC4246
:103F300014D221F814205B1C058B9CB2AC420DD22C
:103F400021F814205B1C058B9CB2AC4206D221F8F0
:103F500014205B1C048B99B2A142E1D30021828022
:103F6000C28080F8251030BC704700210182704764
:103F7000816070470278012A03D100690021FFF7B0
:103F8000F7BF70478168084700214182017541757C
:103F900080F8961080F8971080F8981080F89910A3
:103FA00080F89A1080F81B1180F81C1180F81D1100
:103FB000704781B030B1DDF804C0016042608360B9
:103FC000C0F80CC001B0704710B50446A069616A22
:103FD0008847802084F8AC00216AA069BDE81040C1
:103FE000084770B403461C785D889E8820460D43C0
:103FF00031430A2825EA0202998003D1110005D134
:104000000B2402E0110001D00A2420461C705A80C3
:1040100070BC70472DE9F04D2DED0A8B43EC182B49
:1040200055EC184B84B041EC1A0B24F0000635F027
:10403000004708BF002E00F0DA820022DFF8303699
:1040400000F02CFB00F0D382DFF8BC3500F026FB3B
:104050000AD151EC180B08464100491511F1010F26
:1040600002D1000300F0C3825BEC1AAB4FEA4B03B2
:1040700043EADA735A15DB1712F1010F00F0E681FB
:104080002AF000063BF0004708BF002E1FBF690062
:1040900041EAD471481510F1010F00F0D781690091
:1040A00041EAD4716000002908BF002804D1B0EEB5
:1040B000489AF0EE689A1BE040F23342A2EB51526C
:1040C000352A06DB04F0000205F0004343EC192B0F
:1040D0000EE0202A03DD203AD540954000E001D1D2
:1040E000002403E0002AC4BFD440944045EC194B9F
:1040F0005FEADB700BD051EC180B53EC192B00F07E
:10410000CDFA04D0AFF300809FED2DAB71E26A468B
:1041100051EC1A0B00F0D2FA41EC1B0BC80F35D052
:1041200051EC1B0B21F0004141EC1B0B51EC190B26
:104130004B0043EAD0734200002B08BF002A04D191
:10414000B0EE490AF0EE690A19E040F23444A4EBFB
:104150005354352C04DB00F0000001F000410CE06A
:10416000202C03DD203CE140A14000E001D10020F3
:1041700003E0002CC4BFE040A04041EC100B51EC28
:10418000190B53EC102B00F089FA01D1002600E046
:104190000126009801281BD151EC1B0BDFF86C2481
:1041A000DFF86C3400F0C2FA12D200224FF08043E4
:1041B00000F0D6FA00279FED04AB41EC1B0B27E083
:1041C000FFFFFFFFFFFFFF7F000000000000F03F48
:1041D00051EC1B0B0022DFF83C3400F0C1FA9FEDDC
:1041E000769B53EC192B00F091FB00F0BFFCA0F183
:1041F0002004204600F0D6FC0022DFF81C3400F03A
:10420000AFFA53EC192B00F081FB41EC1A0B67015C
:1042100051EC1B0B53EC1A2B00F036FC41EC190B44
:1042200051EC1B0B53EC1A2B00F070FB02460B46B3
:1042300051EC190B00F0C8FC41EC1B0B53EC1B2B91
:1042400000F08EFA41EC1C0BDFF8D023DFF8D033FE
:1042500000F086FADFF8CC23DFF8CC3300F056FB11
:1042600053EC1C2B00F07CFADFF8C023DFF8C033DE
:1042700000F04CFB53EC1C2B00F072FADFF8B42377
:10428000DFF8B43300F042FB53EC1C2B00F068FA6B
:10429000DFF8A823DFF8A83300F038FB53EC1C2B21
:1042A00000F05EFADFF89C23DFF89C3300F02EFB71
:1042B00053EC1C2B00F054FADFF89023DFF8903316
:1042C00000F024FB53EC1C2B00F04AFA53EC192BA2
:1042D00000F0DAFB04460D460020DFF8941353EC9F
:1042E0001A2B00F0D1FB00224FF0804300F038FA87
:1042F00022462B4600F00AFB53EC1B2B00F030FA51
:1043000041EC100BDFF84C03784400F55270074481
:1043100051EC190B53EC102B00F0F8FA41EC190B8F
:10432000009800F03FFCD7E9002300F0EFFA41ECE1
:104330001A0B51EC190BC84AC84B00F011FA53EC98
:104340001A2B00F0E3FA53EC182B00F009FA0022C4
:10435000C34B00F0EBF941EC1B0B6BD30122C14BBB
:1043600000F056FD63D9C80F51EC1B0B19BF00229A
:10437000BD4B0022BD4B00F0C9FA00F0F7FB002254
:10438000BB4BCDE901238046CDF8008053EC192BBF
:1043900051EC180B00F0E4F904460D46D7E9020190
:1043A000D7E9042300F0B2FA53EC182B00F0D8F947
:1043B0009FEDB0BB04E000BF000000000000E03F44
:1043C00053EC1B2B00F0CCF922462B4600F09EFA52
:1043D00007468B4653EC1A2B51EC180B00F0C0F932
:1043E00004460D46404600F0DDFB02460B462046E3
:1043F000294600F049FB53EC1B2B00F0B1F93A467B
:104400005B4600F083FADDE9012300F01BFD41EC7F
:104410001A0B31F0004108BF00280BD051EC1A0BE9
:104420004A00521512F1010F06D1080304D19FED85
:1044300099AB01E09FED93AB002E00F0DA8051ECD8
:104440001A0B81F0004141EC1A0BD2E04FF0FF361D
:10445000B34208BFB24209D14FEA0B3151EA1A51B7
:104460004FEA0A3008BF002840F0C380690041EAE3
:10447000D4714815C917B14208BFB0420CD12B0303
:1044800043EA14532203002B08BF002A04D0B0EEE5
:1044900048AAF0EE68AAACE0012610F1010F63D043
:1044A000294620464B0043EAD0734200002B08BF48
:1044B000002A04D1B0EE489AF0EE689A19E040F272
:1044C0003347A7EB5357352F04DB00F0000001F012
:1044D00000410CE0202F03DD203FF940B94000E00F
:1044E00001D1002003E0002FC4BFF840B84041ECE8
:1044F000190B51EC180B53EC192B00F0CFF818BF27
:1045000000265B0043EAD273520051EC190B002BDA
:1045100008BF002A04D1B0EE490AF0EE690A19E09A
:1045200040F23447A7EB5357352F04DB00F000006F
:1045300001F000410CE0202F03DD203FF940B9409D
:1045400000E001D1002003E0002FC4BFF840B840D4
:1045500041EC100B46B151EC190B53EC102B00F051
:104560009DF80CBF0026012651EC1A0B08464100AD
:10457000491511F1010F07D1000305D15FEADB7086
:1045800017D1EC0F30D027E051EC180B0846410052
:10459000491511F1010F12D1000310D16A4651ECF7
:1045A0001A0B00F08BF8EC0F009813D100281BDCDD
:1045B00012E0EC0F01D1002E12E06EB107E0002EE8
:1045C00014BF4FEADB700020EC0F08D120B19FED43
:1045D0002BAB0EE0002807DD9FED2AAB09E0002899
:1045E00018BF9FED2AAB04D19FED2AAB01E09FEDF0
:1045F00004AB04B051EC1A0BBDEC0A8BBDE8F08D96
:10460000000000000000F03F0000F0BFCD3B7F66DF
:104610009EA0E63F000050400000903FF7DE29BF1B
:10462000D8F8C23FF4B3FECC1A99C33F62CB68D925
:104630006F46C73FC6C912DAC471CC3F4AE98A94B3
:104640002449D23FF75F97999999D93FBC55555561
:104650005555E53FFC1E0000FE822B654715F73FD0
:104660000000E0C00000E0400000E0BF0000E03FCC
:104670000000F03FEF39FAFE422EE63F0000000056
:1046800000000080000000000000000000000000AA
:104690000000F0FF000000000000F07F904205D114
:1046A000994204D041EA030C50EA4C0C70474FF495
:1046B000001C1CEB410F38BF8942704710B51446EF
:1046C00000F002F8226010BDC1F30A5343B14A0062
:1046D00012F5001F28D2A3F2FE32A1EB025170475F
:1046E00050EA410C20D001F0004C31EA0C01B1FA43
:1046F00081F204BFB0FA80F3D2180B3AB2F1200372
:104700002CBF00FA03F1914041EA0C013EBFC2F117
:10471000200C20FA0CF319439040524240F2FD3332
:10472000D21A01EB035170470022704741EA030C93
:1047300050EA4C0C52EA0C0C4FF4001C09D307D081
:104740001CEB410F9CBF1CEB430F8B4208BF824206
:1047500070471CEB430FFBD8994208BF904270474B
:1047600030B540F2FF7C1CEA11541DBF1CEA135502
:10477000644565453FE0641981EA030C6FF35F53BC
:104780000CF0004C43F48013C90241F0004141EAAF
:10479000505EC5021100A5FB020200284FF0000088
:1047A000EEFB01204FF00001E3FB052118BF42F0B2
:1047B0000102401800214941E3FB0E01A4F5806489
:1047C0000D0302D292184041494154F1010470DDB9
:1047D000450872F1004250F1000051EB0451A1F57F
:1047E000801102D441EA0C0130BD40F2FF7E4CEA58
:1047F0000E51002030BD0CEA1355644518BF6545C5
:1048000081EA030C0CF0004C41D050EA410E1CBF71
:1048100052EA430E02E06146002030BD24422C449F
:104820001BD15FEA050EF6D0090302BF0146002046
:10483000AEF1140EB1FA81F5AEEB050401FA05FEF6
:104840000C35C5F1200100FA05F5C8404EEA000E0E
:104850006FF35F5343F480139CE733F00043B3FAE4
:1048600083F504BFB2FA82FE75440B3D641BB5F1BB
:10487000200E2FBF02FA0EF3AB40C5F1200E22FA34
:104880000EFE38BF43EA0E03AA40641C7CE750EAE0
:10489000410E14BF52EA430E6FF000014FF40015B1
:1048A00015EB430F8EBF194615EB410F9DE7B4D8AA
:1048B00030BDD4F10104B4F120050FDAC4F12005B4
:1048C000520828BF42F0010210FA05FE01FA05F570
:1048D0007244E2BFE0402843E1400FE0352C9ADC0F
:1048E000C5F1200452EA400220FA05F218BF42F056
:1048F000010231FA05F0A1400A43002172F10042A1
:1049000050F1000051EB0C0130BD000070B491EA91
:10491000030F4FF0004540F1BF806B40841A71EBEC
:10492000030604D26E40001BB141121973414FF4CB
:10493000001C1CEB410F34BF7CEB430683E00C0DE5
:10494000A4EB1356362E00F37C80012E45EAC323D8
:1049500041DC43EA525312BFD20292025B082405A3
:1049600045EAC12141EA5051D2EBC020994125D4FA
:1049700007D1B0FA80F610FA06F162D00020203696
:1049800008E0B1FA81F6B140C6F1200220FA02F245
:104990001143B0404FEAF474B4EB465434F00106CE
:1049A0004FEA74040AD8D6F50016760D04F00044D8
:1049B000F04061FA06F25040F1404840C00A40EA37
:1049C000415021F0004128BF5FEA500550F100003E
:1049D00044EBD12135E0DB0A45EAC121C90AB6F131
:1049E00020050EDD42EA0242120CC5F1200603FA50
:1049F00006F6EB4042EA06056D42984161F100017E
:104A00000DE062FA06F5F240554063FA06FC82EAD0
:104A10000C02F3405A406D42904161EB030111F4E6
:104A2000801F05D1641E620502D06D0040414941DE
:104A300021F48011430875F1004350F1000041EB6F
:104A4000045170BC70471CEB410F15D223F000439A
:104A500052EA43060BD04FEA4C0CBCEB410F04D892
:104A60000C0D661E342EB7DDEBE7801A994150EA33
:104A7000410608BF0021E4E708BF1CEB430F28BF35
:104A80006FF00001DDE7000070B491EA030F4FF012
:104A900000457FF543AF6B40841A71EB030603D2E8
:104AA000001BB141121973414FF4001C1CEB410F64
:104AB00034BF7CEB430442E00C0DA4EB1356352EBF
:104AC0004FDC45EAC323DB0A45EAC121C912B6F12E
:104AD00020050DDD63FA05F6EB4086EA0305124278
:104AE00018BF45F00105C01851F100010CD213E0C8
:104AF00062FA06F5F2405540F3415A40B340F340A4
:104B00005A408018594107D349085FEA30005FEAEC
:104B1000350528BF45F0010501F58011420875F102
:104B2000004250F1000041EB04514E0016F5001F09
:104B300070BC38BF70470020090D090570471CEB99
:104B4000410F10D252EA43060BD0BCEB410F05D8FF
:104B50000C0DAB43661E342EB6DD02E0AB4380186D
:104B6000594170BC704770BC70470000C1F30A53D4
:104B700040F21E42D31A0CDDCA0283F3070342EA55
:104B8000505242F00042DA4002EBE17282EAE170F8
:104B900070476FEAE17203F2E13008B182F0004041
:104BA0007047000010F0004160B148BF4042B0FAC9
:104BB00080F29040D21CC2F5846241EA025202EBBC
:104BC000D021400570470000F0B540F2FF7581EA42
:104BD000030C0CF0004C15EA11541DBF15EA1357D5
:104BE000AC42AF42E5E0BC41C1F31301C3F3130390
:104BF000801A994143F4801304D2641E001849417D
:104C000080185941C90241EA5051B1FBF3F603FB48
:104C10001611A2FB0675D7EBC020A94102D2761E61
:104C200080185941C90241EA5051B1FBF3FE03FB20
:104C30001E11A2FB0E75D7EBC020A94103D2AEF125
:104C4000010E80185941890241EA9051760546EAE1
:104C50008E2EB1FBF3F603FB1611A2FB0675D7EB04
:104C60008020A94102D2761E80185941C90241EA2A
:104C700050514EEA060EB1FBF3F603FB1611A2FBF0
:104C80000675D7EBC020A94102D2761E8018594183
:104C9000C90241EA5051B1FBF3F703FB1711A2FB24
:104CA0000735D3EBC020A94167F100070CBF0042D4
:104CB00047F0010766F3D5274FEA1E31B80814F50F
:104CC000806412DDBD0775F1004250EB0E5051EBD0
:104CD000045111F5801F5CBF41EA0C01F0BD4CF09E
:104CE0007F6141F0E0410020F0BDBD076D0840EA62
:104CF0000E5041F48011D4F10104B4F120060ADA17
:104D0000C4F120060200E04001FA06F3E140184336
:104D1000B24015430EE0342C13DCC6F1200445EA02
:104D200040056D0820FA06F2154321FA06F0A1406D
:104D30000D43002175F1004250F1000051EB0C01D0
:104D4000F0BD00205FEA0C01F0BDCFB992185B41C5
:104D5000B3FA83F704BFB2FA82F6BF190B3FB7F17B
:104D600020062FBF02FA06F3BB40C7F1200622FA45
:104D700006F638BF3343BA401CB1E419641E33E76A
:104D80007F4231F00041B1FA81F404BFB0FA80F6FD
:104D9000A4190B3CB4F120062FBF00FA06F1A14084
:104DA000C4F1200620FA06F638BF3143A0403C1B70
:104DB0001AE7AC421ABF05EA1357AF4212E050EAB5
:104DC00041061CBF52EA4306BFE750EA410730469E
:104DD00061461CBF41EA0551F0BD52EA430C08BFD1
:104DE000C143F0BD00204FF4001616EB410F98BFF1
:104DF00016EB430F08BF16EB410F24BFC14305E07C
:104E000016EB430F0CBF61464CEA0551F0BD0000A4
:104E100041EA030C50EA4C0C52EA0C0C4FF4001C13
:104E200009D307D01CEB410F9CBF1CEB430F9942E9
:104E300008BF904270471CEB410FFBD88B4208BF64
:104E4000824270472DE9FC412DED0A8B43EC182B73
:104E50004B0043EAD0735A15DB17DDF8488012F196
:104E6000010F41EC190B1DD020F0000431F000457A
:104E700008BF002C16D055EC184B6F0047EAD477CA
:104E80007E1516F1010F0DD035F0004508BF002C3E
:104E900008D000229F4BFFF749FC78D29FED9E0B74
:104EA000002480E04FF0FF36B34208BFB24208D181
:104EB0000D0345EA10550403002D08BF002C40F0F7
:104EC000248153EC182B5C0044EAD2746515E41776
:104ED000B44208BFB54207D11D0345EA1255140379
:104EE000002D08BF002C26D133F0004308BF002A54
:104EF00010D108464100491511F1010F1BD10003E3
:104F000019D1AFF30080BDEC0A8B30466FF0004141
:104F1000BDE8FC8153EC182B5C00641514F1010F03
:104F20000CD11A030AD108464100491511F1010FAD
:104F300001D10003E5D051EC180BE7E031F000415E
:104F400004BF0028424600F0C88051EC190B084607
:104F50004100491511F1010F0CD100030AD151ECA8
:104F6000190B53EC182BBDEC0A8B02B0BDE8F041D5
:104F7000FFF7F6BB9FED680B0022DB0F51EC100B27
:104F800063F3DF72BDEC0A8B1146BDE8FC810122A0
:104F9000634BFFF73DFF12D89FED620BAFF300802C
:104FA00051EC100B0C4653EC182BD80F60F3DF7448
:104FB00051EC100BBDEC0A8B2146BDE8FC815B4A2D
:104FC0005B4BFFF7CDFB41EC100B9FED5AAB51EC67
:104FD0001A0B53EC102B0C46D80F60F3DF7451EC16
:104FE0001A0B2146FFF792FCFFF7C0FD0646FFF7BC
:104FF000D9FD41EC1B0B4FF07842504BFFF7B0FB53
:1050000053EC192BFFF782FC04460D4651EC1B0BA9
:105010004B4A4C4BFFF7A4FB22462B46FFF776FC8E
:1050200041EC190B21F000410022474BFFF77EFBBA
:1050300051D351EC190B53EC192BFFF791FB41ECB9
:105040001B0B424A424BFFF78BFB424A424BFFF796
:105050005DFC53EC1B2BFFF783FB41EC1C0B51EC6D
:105060001B0B3E4A3E4BFFF77BFB3E4A3E4BFFF796
:105070004DFC53EC1B2BFFF773FB53EC1A2BFFF784
:1050800045FC53EC192BFFF76BFB41EC190B51EC72
:105090001C0B53EC192BFFF739FC9FED34AB53EC91
:1050A0001A2BFFF733FC04460D4651EC1C0B53EC56
:1050B000192BFFF7E9FC53EC1A2BFFF727FC0246EC
:1050C0000B4620462946FFF77FFD53EC182BFFF7D0
:1050D00047FB41EC180B08EB060251EC180B00F0F3
:1050E00049F841EC100B31F0004108BF002808D00E
:1050F00051EC100B4A00521512F1010F03D10803B5
:1051000001D1AFF3008051EC100B00BFBDEC0A8B56
:10511000BDE8FC8100C89CC0000000000000000049
:1051200000C89C40000000000000F07FFE822B655C
:105130004715F73F000000000000E03F422EE6BFA9
:10514000F2E4D5BCE7E84BBE0000903C112E57813D
:10515000A03F503F5843128C8F71BC3F4BE8A54194
:10516000B752013F0BBDF3DAE8708C3F000000003E
:105170000000F03F124254D440F2FF7C1CEA11536D
:105180000FD0634531D09B1863453CBF01EB025102
:10519000704701F0004141EA0C510020AFF300805C
:1051A000704750EA410320D001F0004C91EA0C0115
:1051B0001CD0B1FA81F30B3B9A420DD9D21A994017
:1051C00051EA0C01C3F1200C20FA0CFC6144984018
:1051D000531C40F2FF7CD7E7914041EA0C01C2F139
:1051E000200C20FA0CF3194390407047B0FA80F37A
:1051F0001533202BE0D3202AEED3203A203B9A42CD
:1052000009D9D21A00FA03F141EA0C010020531C1B
:1052100040F2FF7CB8E700FA02F141EA0C010020FD
:105220007047524240F2FF7C1CEA11530DD0634597
:10523000DBD0B2EB030C3CBFA1EB025170470CF189
:10524000010221EA035141F4801150EA410CCCD013
:1052500001F0004C352A27DC30B481EA0C01B2F1B0
:10526000200309DAC2F12003044601FA03F5D04015
:105270002843D1409C400CE0C3F12002450020FAB5
:1052800003F418BF44F0010421FA03F091400C43E9
:10529000002174F1004550F1000051EB0C01244253
:1052A00030BC7FF47BAF70476146002076E700009A
:1052B000F0B589B004460F46154600207A091E460F
:1052C0008DF800000BD0521E0021204600F08EFA0F
:1052D00018B90B208DF801006FE207F01F07122F9D
:1052E00000F26882DFE817F069021300AA00740177
:1052F000660266027E01A401C701090213022402AC
:105300003602B80166026602660266026902297800
:10531000052092298DF8010000F28C80DFE801F071
:105320004A8A8A528A5D5D5D5D5D5D5D5D5D5D5D44
:1053300067678A8A5D5D5D5D5D8A8A8A59598A8A56
:105340008A8A8A8A8A8A8A8A8A8A8A8A8A8A8A8ABD
:105350008A8A8A8A8A8A8A8A8A8A8A8A8A8A8A8AAD
:105360008A5D8A8A8A8A6767678A8A8A8A8A8A5D60
:105370008A8A8A5D5D5D5D5D5D5D8A678A8A8A8AEB
:105380008A5D8A8A5D5D8A8A8A8A8A8A8A8A8A8A04
:105390008A8A8A8A5267676767678A8A8A67678A9A
:1053A0008A8A8A8A678A5D5D5D777777775D5D77C0
:1053B000775D5D006A780021204600F017FA8DF8CD
:1053C0000000FAE16A78204600F010FA8DF800003B
:1053D000F3E101218DF80010F2E16A78A87802EB80
:1053E0000022204600F002FA8DF80000E5E168781E
:1053F000AA782B7900EB0222E87802EB004202EB5C
:105400000362204600F0F2F98DF80000D5E16878DB
:10541000AA7800EB0223E8782A7903EB004303EB38
:105420000263019308469DED010A00F0D1FA8DF860
:105430000000C2E102218DF80110BEE129780322AB
:1054400088298DF8012000F2B881DFE811F0890089
:10545000A50089008900A500970097009700970094
:105460009700970097009700970097009700970084
:105470009700970097009700970097009700970074
:10548000970097009700B601B601A5009700970016
:1054900097008900B601B601B601B601B601B601A2
:1054A000B601B601B601B601B601B601B601B60144
:1054B000B601B601B601B601B601B601B601B60134
:1054C000B601B601B601B601B601B601B601B60124
:1054D0009700B601B601B601B601A500A500A5006A
:1054E00097009700970097008900A5009700970004
:1054F00097009700970097009700970097009700F4
:1055000097008900A500B6019700970097009700C3
:105510009700B601B6019700970089008900A500A1
:10552000A500A500A500A500890097009700A5008B
:10553000B601970097008900A500A500A500A50069
:10554000A500A500A500A500A500A500A50089004F
:10555000B6018900B300B300B3009700970097002D
:105560006A46204600F070FA01909DF8000001287C
:1055700040F02381012301AAF0212DE16A46204653
:1055800000F062FA01909DF80000012840F01581BA
:10559000022301AAF0211FE16A46204600F054FAD6
:1055A00001909DF80000012840F00781042301AA22
:1055B000F02111E16A46204600F046FA01909DF87C
:1055C0000000012840F0F980042301AAF02103E142
:1055D000297807208DF80100204600F021FC8DF885
:1055E0000000EAE001A800210022002300252EC0CF
:1055F0002EC000200DF10401D4F8A820125C092A65
:1056000004D0CA70401C491C1C28F5DDD4F8A82021
:10561000531D195C8DF8041001A9D4F8A820024488
:10562000D3794B70D4F8A8201044437A8B70B7E03C
:1056300028796979EB7800EB01222878697800EB0A
:105640000121A87801EB004101EB0361204600F045
:1056500035FC8DF80000B0E02879697900EB012273
:105660002878697800EB012109B2204600F03EFC61
:105670008DF80000A1E000F043FC074600F046FC76
:105680000646FDF70CFD0546FDF7ECFC554AB2F960
:1056900000208DF8047001AB391259701873391459
:1056A00099701D7231148DF80A101E7129148DF82D
:1056B0000E103F1601128DF811101A74DF701114BC
:1056C00037123616DE718DF816102E122D16DD7279
:1056D0005F71051400168DF813008DF8125010122A
:1056E0008DF8150012168DF817205E72A069E56915
:1056F000142301AAF021A8475FE02878697800EB1D
:10570000012000B200F008FC8DF8000055E0A878F8
:10571000E97800EB01222878697800EB012112B2C8
:1057200009B2204600F01AFC01218DF8001047E074
:1057300001950C218DF801108DF8086001A82A4D03
:10574000294600F018FC00288DF8000040D02B7985
:105750002A6837E0002201A9D4F8A800805CB8B11B
:105760000870521CD4F8A800805C88B14870521CA4
:10577000D4F8A800805C00280AD08870521CD4F8A5
:10578000A800805C20B1C870521C091D202AE3DBF0
:10579000202A05DA01A8C2F12001104400F0EEFB36
:1057A000A069E569202301AAF021A84701208DF80E
:1057B000000005E001228DF801209DF8000038B1BD
:1057C00000230022A069E469F021A04709B0F0BDE0
:1057D00001230DF10102FF21A069E469A04709B08E
:1057E000F0BD00BF9C0B0020AC0B002070B582B058
:1057F00016468368027D53F82240C36853F822207E
:105800000125A1B3032900F08580052979D0062957
:105810007AD007297BD0082900F09780092900F069
:105820009B800A2900F09B800B2900F09B800C29AB
:1058300000F09B800D2900F0A5800E2900F0A980C2
:105840000F2900F0AD80412900F0B1805B2915D00F
:10585000842940D086291ED0872924D08D2940D084
:105860008E2946D0912926D092292CD0A6E0F1B2DB
:1058700000F087FB0546284602B070BDC6EB061057
:105880008000504980FB01310144491101EBD17185
:10589000002209B253E04C48006831B2FDF7EBFB3F
:1058A000284602B070BD4848006831B2FDF7E5FBFC
:1058B000284602B070BD4448006831B2FDF7E9FBEC
:1058C000284602B070BD4048006831B2FDF7E2FBE7
:1058D000284602B070BD3046FDF7C7FB284602B02F
:1058E00070BD3A48006831B200F05CFB284602B057
:1058F00070BD3648006831B200F056FB284602B051
:1059000070BD106831B23FE0106831B243E01068FA
:1059100031B247E0F0B250B9204600F075FC0146C4
:105920000022204600F074FC284602B070BDF6B29A
:10593000012E44D1204600F074FC0022014620468E
:10594000FEF76CF9284602B070BD204600F06CFCF2
:105950000090ADF800600EE0506831B214E050687D
:1059600031B218E0506831B21CE0204600F05CFC17
:105970000090ADF802602046009900F05BFC2846DC
:1059800002B070BD906831B200F063FC284602B0EE
:1059900070BD906831B200F05EFC284602B070BD68
:1059A000906831B200F059FC284602B070BD31B2A7
:1059B000204600F054FC284602B070BD0025284661
:1059C00002B070BD898888886407002054070020D1
:1059D00010B5012489280AD08A280ED08B2812D02D
:1059E0008C2816D08F281AD090281ED023E0134977
:1059F0000868FDF746FB204610BD10490868FDF712
:105A000043FB204610BD0E48006800F0C5FA204652
:105A100010BD0B48006800F0C2FA204610BD0948CE
:105A20000068FDF734FB204610BD06480068FDF70E
:105A30002FFB204610BD0024204610BD600700202B
:105A4000540700206407002070B5034682B0DC686C
:105A5000187D54F820509C6854F8204000200AB16A
:105A600001261670862900F2D081DFE811F0870048
:105A70008D009300DA0099009D009F00B200CA00DB
:105A8000F800FA00FC00D20006010C011201CE0160
:105A9000CE01CE01CE01CE01CE01CE01CE01CE018E
:105AA000B400BA001801CE01CE01C00065016D013D
:105AB000CE0175017E0186018E01960165016D01A1
:105AC0009E01A601AE01B601BE01C6011E0139014B
:105AD000CE01CE01CE01CE01CE01CE01CE01CE014E
