:020000040800F2
:10000000B00F0020AD720008F172000849690008C5
:10001000F5720008F9720008FD7200080000000087
:100020000000000000000000000000000173000854
:10003000057300080000000009730008B16900089A
:100040000D73000811730008157300081973000878
:100050001D7300082173000883710008897100086E
:100060008F710008957100089B71000825730008C6
:10007000297300082D7300083173000835730008D8
:10008000397300083D73000869680008417300086F
:10009000A171000845730008497300087D710008CC
:1000A0004D73000851730008557300085973000818
:1000B000BF6800085D73000861730008657300087D
:1000C000697300086D730008717300087573000888
:1000D00079730008DB6800087D73000881730008ED
:1000E00085730008897300088D7300089B680008F9
:1000F0008B680008917300089573000899730008D5
:100100009D730008A1730008A5730008A973000877
:10011000AD730008B1730008B5730008B973000827
:10012000BD730008C1730008C5730008C9730008D7
:10013000CD730008D1730008D5730008D973000887
:10014000DD730008E1730008E5730008E973000837
:10015000ED730008F1730008F5730008F9730008E7
:10016000FD73000801740008057400080974000894
:100170000D740008117400081574000800000000D8
:10018000197400081D74000830B5040081B000F037
:10019000818094F83C0028B9002184F83D10204665
:1001A00000F08BFB022084F83C002068016821F0FD
:1001B000020101602068026842F00102026000F062
:1001C000CFFB054620684168CA0766D400F0C8FB2B
:1001D000401B0B28F6D3032084F83C00002184F850
:1001E0003D1001B030BD016821F080010160E0697F
:1001F0000128206801680CBF41F0400121F0400156
:100200000160206A0128206801680CBF41F02001CC
:1002100021F020010160606A0128206801680CBF9C
:1002200041F0100121F010010160A06A012820684E
:1002300001680CBF41F0080121F008010160E06A8B
:100240000128206801680CBF41F0040121F004017D
:100250000160A268E0682169024360690A4361683D
:1002600002432068491E0A43C261206801684908A8
:100270004900016000F074FB054620684168CA0728
:1002800016D500F06DFB401B0B28F6D3A3E7042026
:1002900084F83C00012001B030BD4168CA07F6D5A2
:1002A000A16901299FD1026842F0800202609EE7A5
:1002B0004068C107EBD400202064012184F83C1081
:1002C00001B030BDF0B44A69DFF8A433012000FA70
:1002D00002F2186840F0010018601C6824F47C5495
:1002E0001C6018684C6A40EA04201860D443DD6939
:1002F0002540DD61C869B8B9D8682040D860CF68AA
:10030000DFF87003D1F804C04E6900F51075CCEA2F
:10031000074745F8367000F511708E680F684D6913
:10032000C7EA064C40F835C0C869012817D1D8681B
:100330001043D8600F68DFF83C03D1F804C04E6961
:1003400000F51075CCEA074745F8367000F51170D6
:100350008E68CF684D69C7EA064640F835608869FF
:10036000002858680CBF204010435860086910B935
:10037000586904405C610869012802D1586910433A
:100380005861086A012802D1D8690243DA61002065
:100390001968490849001960F0BC70470A0010D17B
:1003A00090F83C20222A1FBF90F83C20422A90F867
:1003B0003C20622A1BD090F83C20722A13D10220E4
:1003C000704701290FD190F83C20322A1CBF90F8C9
:1003D0003C20522A0BD090F83C20622A1CBF90F897
:1003E0003C20722A03D090F83D20012A01D102203E
:1003F0007047012280F83D200B0090F83C200BD183
:10040000122A05D0322A12D0522A12D0222215E006
:10041000422380F83C3013E0122A04D0222A06D06E
:10042000422A06D009E0522380F83C3008E06222DC
:1004300004E0722380F83C3002E0322280F83C2055
:10044000002303640268536943F40F4343F001033C
:100450005361002280F83D200029006841690CBFEB
:1004600041F00A0141F0500141610020704770B530
:10047000044600202268D668002100255369F6064C
:1004800005D51B0703D510264FF40075D6602268EA
:1004900016695369F60605D55B0603D5102645F4A3
:1004A0008065166122685369DE0751D59668744BE2
:1004B0001E409E429668714B08BF01201E409E421E
:1004C00096686D4B08BF01211E409E420CBF012360
:1004D0000023084318433BD0906891689368400814
:1004E000490A00F0010001F001015B0C084303F030
:1004F0000103184325D0506940084000506194F82A
:100500003C00122804D12068416921F40F41416167
:1005100094F83C00422809D0522805D0722809D10D
:10052000622184F83C1008E0322004E0222184F8A3
:100530003C1002E0012084F83C00204600F016FA4E
:1005400001E045F4006521684E488A6802438A60EC
:100550002068C168406911F0030F05D0800703D5FA
:100560000021204600F092F820680169406911F0EE
:10057000030F05D0C00603D50121204600F086F800
:10058000206C054325642068836941694269DB0763
:1005900007D5C90505D5120403D5216C41F0010129
:1005A00021648369416942699B0707D5890505D59F
:1005B000120403D5216C41F0020121648369416971
:1005C00042695B0707D5490505D5120403D5216C9F
:1005D00041F004012164816901F070014B1E416901
:1005E00042699B41DB0F2FD109052DD512042BD574
:1005F000816901F0700110290AD020290CD030291E
:100600000ED0402910D0502912D0602914D017E004
:10061000216C41F0080112E0216C41F010010EE064
:10062000216C41F020010AE0216C41F0400106E01C
:10063000216C41F0800102E0216C41F48071216461
:10064000816921F070018161206C78B120680421FA
:100650004160012284F83C2021680B484A6902402D
:100660004A612046BDE8704000F081B970BD0000CD
:100670000066004000640040000003100003000812
:100680000300000419050100A470FFFF70B50A0003
:1006900002680CBF436B836B0C0102F5D8752A59B5
:1006A00012F004029A60056805F5D872155907BF63
:1006B0006D0D1D60ED085D60026802F5D8752E595C
:1006C00006F00206DE6002682244D2F8B4511962D4
:1006D00005F00F051D6102682244D2F8B451C5F33C
:1006E0000722DA6102682244D2F8B8511D75026807
:1006F0002244D2F8B8512D0A5D7502682244D2F81E
:10070000B8512D0C9D7502682244D2F8B8512D0EB7
:10071000DD7502682244D2F8BC511D76026822447D
:10072000D2F8BC512D0A5D7602682244D2F8BC5141
:100730002D0C9D7602682244D2F8BC41240EDC7652
:100740000B00026806D12024D4600268536923F0AC
:100750000A0305E0202313610268536923F0500364
:10076000536190F83C20222A18BF322A04D1026833
:10077000536923F40F435361002990F83C100CD1C6
:10078000422911D0622902D0722904D016E0322207
:1007900080F83C2015E0522111E0522904D0622952
:1007A00006D0722906D009E0122280F83C2008E029
:1007B000222104E0422280F83C2002E0012180F85E
:1007C0003C1000F0D0F9002070BDF0B40246106873
:1007D00095681318506803EB5004C0071DD54D44AD
:1007E0001BE013F8017B05F8017B491EF9D1A0B18C
:1007F000B60813F8011B06F00306032E08BF13F812
:10080000016B01EB06214942801C294405D011F8F7
:10081000016B05F8016B401EF9D1A3420ED013F80D
:10082000016B16F0030104BF13F8011BC91C30094A
:100830000F28DAD113F8010B0F30D6E7F0BC02F124
:100840000C007047414810B5414C2060032004F172
:100850004401606021634FF4C00000216061A16029
:10086000E16001204FF4A021E061206221610020BD
:1008700004F1600200216062A062E0626263A16133
:100880008AB02046FFF780FC00210591002201215B
:100890000791069249F6A401019100924FF6FF716B
:1008A0000291039104920E21012209910892694656
:1008B0002046FFF707FD0AB010BD006823498842B3
:1008C00000D0704710B586B00022224800924FF445
:1008D0000074016941F000710161016901F000716A
:1008E000009100990092036843F4807303600168EB
:1008F00001F480710091009900920222036843F094
:1009000002030360006800F00200009000991248A2
:1009100002920021039109220592019401A900F09D
:1009200039FB02200290049009220592019401A94A
:100930000A4800F02FFB00220121142000F03DFCAA
:10094000142000F063FC06B010BD000000640040FD
:100950008808002030380240000402400020024095
:1009600001484068704700BFBC07002070477047CF
:10097000F0B58BB000F0BCFC00F005F901A8002137
:10098000002200230EC006C0DFF8A8450FF2F45580
:100990000091206840F010002060216801F01001F3
:1009A0000091002100980091226842F0020222602A
:1009B000206800F00200009000980091226842F048
:1009C00001022260206800F0010000900098009170
:1009D000226842F480722260206800F480700090E7
:1009E00000980091226842F080022260206800F0A6
:1009F00080000090009800910121226842F00402DA
:100A000022602068DFF8302500F004000090009894
:100A1000DFF8280501910292039301A900F0BAFAC8
:100A200000F082FC00F011F900F078F900F086FD8A
:100A300002A80021002200230EC00EC00EC0012219
:100A400004924FF0804006220692D5E90067DFF855
:100A5000F05428646964002041F63F71A864E96499
:100A600028650122089200210320CDE90067A965CD
:100A70000290039105910791099106220A9202A919
:100A800005F1400000F02EFE00210091019105F1DA
:100A90004000694601F0C8F800F09CF901F05EF9E9
:100AA00001F0B4F900200090216841F002012160BA
:100AB000206800F0020000900098DFF88814296098
:100AC00000204FF4E132A860E86028610C21A861A1
:100AD000E8616A606961284601F0DAF901F0A4FA78
:100AE00001F0C4FA00220221122000F066FB12205D
:100AF00000F08CFB002201212C2000F05EFB2C205A
:100B000000F084FB012204212B2000F056FB2B2057
:100B100000F07CFB002203211C2000F04EFB1C2077
:100B200000F074FB01220321252000F046FB252064
:100B300000F06CFB00220321062000F03EFB0620A3
:100B400000F064FB01F034FB01F049FBFFF77AFE93
:100B50000021DFF8F403FFF721FC3C21DFF8EC0370
:100B600000F00CFEFEE7416B4A6841F214339A42F2
:100B700006D14A7D097D41EA0221DFF8D4231180A4
:100B80000021FFF70BBCF0B593B006A800210022AE
:100B9000002300241EC01EC01EC001AD0026002779
:100BA0008E46A5E8C040C0C500914FF48033DFF801
:100BB000A403016841F080510160006800F080509A
:100BC00000900098DFF890030092026842F480429F
:100BD00002600122006800F48040009006A800999D
:100BE000069202214FF480020C910D920421A8225A
:100BF0000E910F920221042207931091119201F09D
:100C0000F7FA0F210191022202924FF480514FF422
:100C1000A052059104920394052101A801F0A4FCBF
:100C200001F031FD01F033FDCC4AA0FB0221480A5E
:100C300000F004FB042000F012FB002200214FF022
:100C4000FF3000F0BAFA13B0F0BDF0B58DB004A8D3
:100C500000210022002300241EC01EC0C04CC14839
:100C600020606D46012020610026BF48A062002759
:100C70008C468E464FF4803185E8C0506160A2609A
:100C8000227684F82020E26284F8302002204FF49B
:100C90000061E0610122E1606261204601F04CFDEB
:100CA0000621049101220592032108914FF460224C
:100CB0000A924FF480110B9101228DF824200696A0
:100CC0008DF82560079604A9204601F099FE0821B9
:100CD00004910222059204A9204601F091FE092107
:100CE00004910322059204A9204601F089FE0A21FD
:100CF0000091012203210291019203966946204648
:100D000001F045FD0D21009102220192029203960D
:100D10006946204601F03BFD0DB0F0BDF0B58DB049
:100D2000684600210022002300241EC01EC08F4CF4
:100D30008F48206008AD0120206100268A48A0620B
:100D400000278C468E464FF4803185E8C0506160A4
:100D500001204FF40061E0616061A260227684F8B6
:100D60002020E262E16084F83020204601F0E4FCBB
:100D70000621009101220192032104914FF4602287
:100D800006924FF48011079101228DF814200296EB
:100D90008DF8156003966946204601F031FE082162
:100DA0000091022201926946204601F029FE0921A4
:100DB0000091032201926946204601F021FE06209F
:100DC0000121089009910A9608A9204601F0DFFC4C
:100DD0000DB0F0BDF0B597B011A80021002200239E
:100DE0000EC006C069A46846D4E90067CDE907676C
:100DF00000241EC00EC009AD002600278C468E467A
:100E0000A5E8C050A5E8C0505A4C5B48206061601E
:100E100041F23A202022E0600121A2604FF4807567
:100E20006161A3612561204600F000FC204600F0CE
:100E300017FC062111911022129211A9204600F0F0
:100E400041FD0796089607A9204600F0EDFE6020B8
:100E50000090002202920492069201960396059653
:100E60006946204600F0B2FC04226946204600F0A4
:100E7000ADFC08226946204600F0A8FC702141F232
:100E800039220091019269460C22204600F09EFC16
:100E90004FF480610A914FF40060102109900C9189
:100EA0000B950D960E96109609A9204600F006FFA8
:100EB000204601F07CFF17B0F0BD704700B5012857
:100EC00081B001460AD11D4800F03EF908B902F090
:100ED0000FF82A490120086001B000BD022805D1A1
:100EE000164800F031F908BB052005E0042808D1B8
:100EF000124800F029F9C8B901B05DF804EB02F01E
:100F0000AFB8082807D10D4800F01EF970B91C4988
:100F1000087001B000BD102808D1084800F014F98D
:100F200020B901B05DF804EB02F0AEB801B000BD2D
:100F30000000000030380240000021100010024084
:100F40000C0900200010014088080020B40A00208D
:100F5000940B00204038024000700040986E1283CD
:100F6000E4090020002001400100000F2C0A0020AD
:100F700000210140F40A002000040140143C01401B
:100F80003E070020000000000000000000000000FC
:100F9000000000002DE9F04F03460C464FF000081A
:100FA00081B0C146C24672487249734A012526681B
:100FB00005FA08F505EA060EAE4540F0B7800326AF
:100FC00006FA09F66FEA060C6668012E18BF022EB3
:100FD00003D0112E18BF122E11D19E68E7680CEABB
:100FE000060607FA09F73E439E605E6826EA050595
:100FF0006668C6F3001606FA08F635435D60DD68DC
:10100000A6680CEA050506FA09F63543DD60656851
:10101000022D18BF122D12D14FEAD80503EB85051A
:101020000AF01C062F6A4FF00F0B0BFA06FB27EA9B
:101030000B07D4F810B00BFA06F63E432E621D687B
:101040000CEA0506257905F0030505FA09F535438F
:101050001D606568ED0069D5002600964FEA980C82
:10106000156845F480451560166806F480460096BC
:101070000F26009D51F82C700AF00C05AE4027EAAF
:1010800006063E4FBB4208BF002723D03C4FBB4261
:1010900008BF01271ED03B4FBB4208BF022719D013
:1010A000394FBB4208BF032714D0384FBB4208BF9B
:1010B00004270FD0364FBB4208BF05270AD0354F53
:1010C000BB4208BF062705D0334FBB420CBF0727E2
:1010D000082700BF07FA05F5354341F82C506FEAA1
:1010E0000E0C056866680CEA0505F70348BF4EEA72
:1010F00005050560456866680CEA0505B70348BF45
:101100004EEA05054560856866680CEA0505F70244
:1011100048BF4EEA05058560C56866680CEA0505A6
:10112000B60248BF4EEA0505C0F80C5008F10108A8
:10113000B8F10F0F0AF1040A09F102097FF636AF80
:1011400001B0BDE8F08F000000690140481E8041F9
:10115000C043C00F704702B90904816170470F4A4C
:10116000136803421CBF1060FFF7A8BE7047000061
:10117000003C014008380140443802400000024071
:101180000004024000080240000C0240001002402F
:101190000014024000180240001C0240143C0140B0
:1011A000364B19684FF6FF020002114000F4E06070
:1011B0000843334908431860704730B42F4B1C680C
:1011C000C4F30223C3F10704052C28BF04241D1D0A
:1011D000072D34BF0023DB1E012505FA04F4641E2D
:1011E0002140994005FA03F35B1E1A40114309019F
:1011F000020003D42348815430BC7047224B02F0D4
:101200000F021A4402F8041C30BC7047010007D4D6
:10121000012200F01F011D4B8A40400943F82020A5
:101220007047BFF34F8F154919480A6802F4E0620E
:1012300002430A60BFF34F8F00BFFDE7401EB0F1CD
:10124000807F01D30120704712494860F02081F867
:10125000130D00228A6007200860002070470428D0
:101260000C4904D1086840F00400086070470A681F
:1012700022F004020A607047000000000CED00E05C
:101280000000FA0500E400E018ED00E000E100E0F5
:101290000400FA0510E000E000F000B8704770B4F8
:1012A000826F9268136A23F48053136290F873205C
:1012B000102A18D2826F90F87240C36D02EB840539
:1012C0006E6A326890F87240D318826FC36502EB81
:1012D0008405EE6B036E3268D318036690F87330A2
:1012E0005B1C80F8733000200880488070BC704719
:1012F00000B50C4881B0016841F4007101600268DA
:1013000042F480620260016841F480710160032050
:10131000FFF746FF042001F0BDFE01F03BFC00207A
:1013200001B000BD003C02402DE9F04786B06846A0
:101330000021002200230EC006C005917648774C9C
:101340000168774D774E784FDFF8E081DFF8E09164
:10135000DFF8E0A141F010010160026802F0100224
:101360000592002205990592036843F0200303606B
:10137000016801F02001059105990592036843F089
:1013800080030360016801F08001059105990592D1
:10139000036843F001030360016801F00101059156
:1013A00005990592036843F008030360016801F0A2
:1013B0000801059105990592036843F00403036051
:1013C000016801F00401059105990592036843F055
:1013D00040030360016801F0400105910599059201
:1013E0000122036843F0020303602021006800F03B
:1013F000020005902046059BFFF7ADFE0022082164
:101400002846FFF7A8FE01224FF480513046FFF72F
:10141000A2FE00224FF400513046FFF79CFE00224E
:1014200080213846FFF797FE00224FF48061404646
:10143000FFF791FE01224FF400414846FFF78BFE73
:1014400000224FF480715046FFF785FE2021009165
:101450000122002102910391019269462046FFF783
:1014600099FD08210091012201920021029103912E
:1014700028466946FFF78EFD40202F4900900191D4
:101480000122029269462846FFF784FD4FF440513D
:101490000091012200210291039101926946304698
:1014A000FFF778FD80210091012200210291039134
:1014B000019269463846FFF76DFD4FF48061009157
:1014C0000122002102910391019269464046FFF7F3
:1014D00061FD4FF40041009101220021029103912E
:1014E000019269464846FFF755FD4FF4807100911F
:1014F0000122002102910391019269465046FFF7B3
:1015000049FD002201211720FFF757FE1720FFF7A2
:101510007DFE06B0BDE8F087303802400010024082
:1015200000140240000C024000080240000002408B
:1015300000180240000402400000211036483749DC
:101540004FF4827200B5016042604FF40061C160E7
:10155000022208210261C16100234FF400720A21B6
:10156000836043618261036243628362C16281B0CE
:1015700001F0B4FD20B101B05DF804EBFFF79DBCB4
:1015800001B000BD30B587B001A9002200230024BE
:101590001CC10CC10068214DA8423AD120480092DC
:1015A000416941F480514161416901F480510091E8
:1015B00000990092036843F001030360016801F0A1
:1015C00001010091009900922021036843F0020379
:1015D00003600222006800F00200009000981148A9
:1015E00001910292012103910322052105910492A8
:1015F00001A9FFF7CFFC30210191022201210391C3
:101600000292052103220591049201A90648FFF7E1
:10161000C1FC07B030BD00008C0900200030014043
:1016200030380240000002400004024010B50400BF
:1016300001D1012010BD94F83D0028B9002184F8A3
:101640003C10204601F0A0FB022084F83D00211D43
:10165000206800F062F9012084F83D00002010BDF0
:1016600010B5040001D1012010BD94F83D0028B947
:10167000002184F83C10204600F0ABFB022084F8E7
:101680003D00211D206800F048F9012084F83D004C
:10169000002010BD0068012201F01F01036A02FA58
:1016A00001F18B430362026A11430162DFF82C10DF
:1016B00088421CBFDFF82820904203D1416C41F4DE
:1016C00000414164816801F00701062903D00168E7
:1016D00041F001010160002070470000000001405E
:1016E00000040140F0B5040081B00D4608BF0120A0
:1016F00041D094F83D0028B9002184F83C102046E0
:1017000001F0DBFA022084F83D002168DFF8A8012F
:101710008A6802408A60211D206800F0FEF8226875
:10172000DFF8981193689769166AA8680F40074315
:10173000A869DFF88C1147EA0027E8680F40E969DB
:101740000743286947EA0127296A47EA001747EA59
:1017500001376868696926F0AA06064328680343CA
:1017600046EA0116936021688F61012120680662B4
:1017700084F83D10002001B0F0BD000011B1042933
:1017800009D00AE001680A6A520852000A620A6A2D
:1017900042F0010211E0016808E001680A6A52089B
:1017A00052000A620A6A42F001020A620A6A22F0E0
:1017B00010020A620A6A42F010020A6200680168B6
:1017C00041F00101016000207047000030B504467F
:1017D00081B094F83C0001280D4608BF022068D073
:1017E000012084F83C0002210C2A84F83D1059D8CD
:1017F000DFE802F0075858581B58585830585858C6
:1018000044002068294600F0DAF82068816941F038
:10181000080181612068816921F0040181612168EA
:101820008A69286902438A613CE02068294600F001
:10183000F4F82068816941F4006181612068816960
:1018400021F480618161206881692A6941EA02216D
:10185000816127E02068294600F011F92068C169FC
:1018600041F00801C1612068C16921F00401C16132
:101870002168CA6928690243CA6113E020682946C1
:1018800000F02EF92068C16941F40061C16120684F
:10189000C16921F48061C1612068C1692A6941EA96
:1018A0000221C161012084F83D00002184F83C1030
:1018B000002001B030BD0000F8BFFFFFFCFCFFFFBF
:1018C0000303FFFF10B5044694F83C00012801D142
:1018D000022010BD012084F83C00022284F83D2043
:1018E000204600F021F930B1012084F83D000021AC
:1018F00084F83C1010BD2068C16821F04001C1602F
:101900002068C16821F48041C160012084F83D0055
:10191000002184F83C10002010BD30B4DFF8DC3228
:101920000468984218BFB0F1804F0CD0DFF8D02285
:1019300090421CBFB34DA84205D0B34A90421CBF91
:10194000B24DA84210D14A6824F070041443984262
:1019500018BFB0F1804F1BD0A94A90421FBFA94DBC
:10196000A842A94A904213D0A84DA8421CBFA84A39
:1019700090420DD0A74DA8421CBFA74A904207D065
:10198000A64DA8421FBFA64A9042A64DA84203D129
:10199000CA6824F4407414434A6924F08004144350
:1019A000046098428C68C4620A68826219BF974BCF
:1019B0009842096901630122426130BC7047F0B46A
:1019C000026A520852000262066A446885690B681E
:1019D0008A6825F073051D4326F002061643874BDF
:1019E00098421CBF894FB84207D1CA6826F0080642
:1019F0001643984226F0040602D0844B984205D143
:101A00004B698A6924F440741C4314434460856123
:101A1000496841630662F0BC704770B4026A22F004
:101A200010020262056A436884690A6824F4E64485
:101A300044EA02248A6825F0200545EA02156F4A27
:101A400090421CBF714EB04208D1CE6825F080058F
:101A500045EA0615904225F0400502D06B4A9042B7
:101A600006D14E698A6923F44063164343EA86032C
:101A70004360846149688163056270BC704770B4DB
:101A8000026A22F480720262056A4368C4690A68C5
:101A90008E6824F07304144325F40075574A45EA10
:101AA000062590421CBF594EB04208D1CE6825F49D
:101AB000006545EA0625904225F4806502D0534A28
:101AC000904206D14E698A6923F44053164343EA93
:101AD00006134360C4614968C163056270BC704706
:101AE00070B4026A454E22F480520262B042046A27
:101AF0004268C3690D6823F4E64343EA05238D6811
:101B000024F4005444EA05341CBF404DA84204D1DB
:101B10004D6922F4804242EA85124260C3614968FD
:101B20000164046270BC70470368D3F808C04A6857
:101B300008682CF0700C42EA0C0C4FEADC0C40EA0E
:101B4000CC0CC3F808C04A68402A14D0502A26D0CA
:101B5000602A3DD0702A4FD108698A68C968D3F8D5
:101B600008C02CF47F4C41EA0C010A4342EA0022EF
:101B70009A60002070470868052801D1012070474D
:101B8000186A1A6A520852001A629A69096922F0A0
:101B9000F00242EA01129A61186200207047086957
:101BA00089681A6AD3F820C04FEA5C0C4FEA4C0CE3
:101BB000C3F820C022F00A02D3F818C02CF0F00CB1
:101BC0004CEA001CC3F818C011431962002070478A
:101BD000086989681A6A22F010021A629A69D3F8B1
:101BE00020C022F4704242EA00322CF0A00C9A612C
:101BF0004CEA011CC3F820C00020704700000140DF
:101C00000004004000080040000C004000040140B7
:101C100000400140004401400048014000180040DD
:101C2000001C00400020004030B490F83C20012A05
:101C300008BF022032D0012280F83C20022380F825
:101C40003D3004686568A3680A6825F0700515438F
:101C500065600268124CA24218BFB2F1804F11D0E9
:101C6000104CA2421CBF104DAA420BD00F4CA242F6
:101C70001CBF0F4DAA4205D00E4CA2421CBF0E4DF8
:101C8000AA4204D1496823F080030B4393600122E8
:101C900080F83D20002180F83C10002030BC7047C7
:101CA000000001400004004000080040000C00401B
:101CB00000040140004001400018004090F83C2022
:101CC000012A01D102207047012280F83C20D1F87E
:101CD0000CC08A684B682CF4407C42EA0C0C2CF453
:101CE000806C43EA0C0C0A680B692CF4006C42EA25
:101CF0000C0C2CF4805C43EA0C0C4A69C9692CF486
:101D0000005C42EA0C0C02682CF4804C41EA0C0C9A
:101D1000C2F844C0002380F83C300020704770B403
:101D2000826F9268136A23F48053136290F87320D1
:101D3000102A0ED2826F90F87240436E02EB840537
:101D4000EE6B3268D318436690F873305B1C80F8F2
:101D5000733000200880488070BC704770B500BFA9
:101D600028A08AB0D0E90023CDE9002302A90020F1
:101D700000240025002671C131C153211E4C1F4A89
:101D80006160A06063212061A0612260E160204663
:101D9000FFF766FC08B1FFF790F8009501956946DA
:101DA0002046FFF741FF08B1FFF787F86222039250
:101DB0006021029100220692049502A92046FFF7B5
:101DC00005FD08B1FFF779F8204600F0F0FF0AB0F2
:101DD00070BD81B00068094988420BD100220848D3
:101DE0000092016841F002010160006800F0020009
:101DF0000090009801B07047740A00200004004071
:101E0000403802400000000000000000D0B58CB057
:101E100002A80021002200230EC00EC00EC01848E8
:101E200019A40391D4E90067164C0591A2602060C3
:101E3000012204924FF6FF700F220692E060012209
:101E400008920320CDE90067616021616161A161B1
:101E50000290079109910F220A9202A92046FFF7EA
:101E600041FC08B1FFF729F80021009101912046BB
:101E70006946FFF7D9FE08B1FFF71FF80CB0D0BDD7
:101E800000000140B40A0020000000000000000033
:101E900010B5040001D1012010BD94F8390028B913
:101EA000002184F83810204600F0D6FF242084F862
:101EB00039002068C16821F40051C160204600F05B
:101EC00017F82068016921F4904101612068416997
:101ED00021F02A0141612068C16841F40051C160CC
:101EE0000020E063202184F8391084F83A1010BDF6
:101EF00070B5044622681169E06821F4405101433D
:101F00001161D3684448A168034020690B436169AB
:101F10000343E0690B430343D3605169A06921F493
:101F20004071014351613D48E169B1F5004F48D12D
:101F300082421CBF3A48824221D100F0B5FB626860
:101F40001921D30FA1FB0001520001F023F9354EF6
:101F5000A0FB0665AA09642101FB1200C000323013
:101F6000304DA0FB05539809410001F4F87101EBD5
:101F70000211226800F007004018906070BD00F068
:101F800089FB62681921D30FA1FB0001520001F007
:101F900001F9244DA0FB05539A09642101FB1200AD
:101FA000C00032301F4DA0FB05539809410001F4D9
:101FB000F87101EB0211226800F0070040189060F0
:101FC00070BD82421CBF1648824202D100F06CFBF9
:101FD00001E000F05FFB62681921930FA1FB000193
:101FE000920001F0D7F80F4DA0FB05539A09642128
:101FF00001FB1200000132300A4DA0FB0553980985
:1020000000F0F00101EB0211226800F00F0040180F
:10201000906070BD00000000F369FFFF00100140F8
:10202000001401403E0AD7A310B582B000F02FFB88
:102030000B4A0C4CA0FB0221080AFFF7FFF8211DF8
:10204000204601F0BFF901F0B1FA07480090231DC6
:102050002246012104F1080001F048FB02B010BD46
:10206000986E1283B00700204472000830B587B024
:10207000002005904A4C4B484B4D016841F010013F
:102080000160026802F01002059200220599059293
:10209000036843F010030360016801F0100105912B
:1020A00005990592036843F010030360016801F08D
:1020B0001001059105990592036843F01003036030
:1020C000016801F01001059105990592012103684D
:1020D00043F010030360006800F0100005900598BD
:1020E00000910291019469462846FEF753FF0121B1
:1020F000022202910092019469462846FEF74AFFA7
:102100000421009101940121029128466946FEF7BD
:1021100041FF08210091019401210291284669465E
:10212000FEF738FF10210091019401210291284609
:102130006946FEF72FFF4FF4F060002100900191F7
:102140000222029269461948FEF724FF0122022169
:102150000620FFF732F80620FFF758F80122022187
:102160000720FFF72AF80720FFF750F80122022185
:102170000820FFF722F80820FFF748F80122022183
:102180000920FFF71AF80920FFF740F80122022181
:102190000A20FFF712F80A20FFF738F807B030BD21
:1021A00000002110303802400010024000140240AC
:1021B00010B50D4C002208212046FEF7CCFF01226D
:1021C00008212046FEF7C7FF142000BF401EFCD1A7
:1021D0002046BDE8104000220821FEF7BCBF0021C8
:1021E0000248FFF757BA000000140240740A0020AA
:1021F0002DE9F041040082B000F03D812078DFF845
:102200005C63C10713D5B06800F00C00042807D048
:10221000B06800F00C00082841D1706841023ED53A
:102220003068810303D56068002800F0248121789C
:10223000880719D5B16811F00C0F07D0B06800F00D
:102240000C00082866D17068410263D430688107A9
:1022500003D5E068012840F00E813168206921F043
:10226000F80141EAC00131602178080740F1078197
:102270006069BB49002872D00122C1F8802EFEF7A8
:102280006FFB0546706F810700F1F980FEF768FB70
:10229000401B0228F6D9032002B0BDE8F081606837
:1022A000B0F5803F04D1306840F48030306011E0F8
:1022B000B0F5A02F306806D140F48020306031683E
:1022C00041F4803105E020F480303060316821F441
:1022D00080213160606870B1FEF742FB05463068CE
:1022E0008103A4D4FEF73CFB401B6528F7D30320F1
:1022F00002B0BDE8F081FEF733FB0546306881038C
:1023000095D5FEF72DFB401B6528F7D3032002B0BF
:10231000BDE8F081E068924988B101220A60FEF7C9
:102320001FFB05463068810700F1D380FEF718FBDC
:10233000401B0228F6D9032002B0BDE8F0810860F6
:10234000FEF70EFB0546316888078DD5FEF708FBC2
:10235000401B0228F7D9032002B0BDE8F081C1F884
:10236000800EFEF7FDFA0546706F810740F1878009
:10237000FEF7F6FA401B0228F6D9032002B0BDE8AA
:10238000F0810528306F06D140F004003067306FCF
:1023900040F0010005E0400840003067306F20F059
:1023A00004003067A06888B1FEF7DAFA074641F208
:1023B0008938306F810700F19C80FEF7D1FAC01B8D
:1023C0004045F6D3032002B0BDE8F081FEF7C8FA1D
:1023D000074641F28938306F810740F18A80FEF765
:1023E000BFFAC01B4045F6D3032002B0BDE8F08120
:1023F000FEF7B6FAC01B022840F28F80032002B01D
:10240000BDE8F081FEF7ACFA001B022840F29D8087
:10241000032002B0BDE8F08100202866FEF7A0FA94
:1024200004463068810140F19480FEF799FA001B60
:102430000228F6D9032002B0BDE8F08101281AD0A5
:102440007068E26900F48001914202BF00F03F0130
:10245000226A91420FD147F6C071626A01409142EF
:1024600002BF00F44031A26A914202BF00F07060E6
:10247000E16A88426DD0012002B0BDE8F081207889
:1024800041073BD5306C0025C1000AD400950125D9
:10249000316C41F080513164306C00F0805000901C
:1024A0000098304F3868C1051BD4386840F48070FC
:1024B0003860FEF755FA80463868C10511D4FEF73A
:1024C0004FFAA0EB08000228F6D9032002B0BDE8BD
:1024D000F0813068216920F0F80040EAC1003060E6
:1024E000C2E6A06801287FF44CAF306F40F00100D5
:1024F00057E71DB1306C20F080503064A06940B3C4
:10250000B16801F00C01082998D00228144D83D13C
:1025100000202866FEF724FA0746306881013FF55F
:1025200067AFE269206A616A0243A06A400842EA32
:102530008112401E42EA0042E06A42EA0062726092
:1025400001212966FEF70CFA0446306881017FF507
:1025500059AF002002B0BDE8F08100BF0038024052
:1025600000004742007000402DE9F04104000E4693
:1025700000F08680514DD5F8000400F00F00B04205
:1025800007D285F80064D5F8000400F00F00B042CF
:1025900076D12068810712D5400703D5A96841F498
:1025A000E051A9602078010703D5A86840F4604095
:1025B000A860A968A06821F0F0010143A960217812
:1025C000C8074FD56068012802D129688A0305E051
:1025D000022818BF032805D129688A0105D40120E3
:1025E000BDE8F08129688A074AD5A968890840EAC8
:1025F0008100A86041F28938FEF7B2F90746A86861
:10260000616800F00C00B0EB810F2BD0FEF7A8F949
:10261000C01B4045F3D30320BDE8F081207841077B
:1026200005D5AA68E06822F4E0520243AA60217846
:10263000080706D5A968206921F4604141EAC00174
:10264000A96000F049F8AA681D491E4BC2F30312A5
:10265000895CC84018601C48006800F01BFD002021
:10266000BDE8F081D5F8000400F00F008642D5D215
:1026700085F80064D5F8000400F00F00B042CDD01A
:102680000120BDE8F08112490120086070470D4823
:10269000006870470B480D4A006813680D49C3F382
:1026A0008222895CC84070470648084A006813685F
:1026B0000849C3F34232895CC84070470038024081
:1026C000C8710008C8070020C4070020083802406D
:1026D0004C004742D872000830B5144C606800F0D6
:1026E0000C00042803D0082803D0114830BD11483D
:1026F00030BD226820680023410202F03F0204D569
:1027000025680C49C5F3881003E020680849C0F328
:102710008810A1FB000100F03DFD2168C1F30141DB
:10272000491C4900B0FBF1F030BD00BF0438024045
:102730000024F40000127A0030B581B00446002570
:1027400014B9012001B030BD206C28B9204600F03A
:102750003EFA656484F83C50206CC10610D4206CAD
:1027600020F4885040F002002064204600F0C2F8B7
:102770006564216C21F0020141F00101216400E057
:102780000125002084F83C0001B0284630BD70B41B
:1027900081B002460020009092F83C30012B08BF27
:1027A000022000F0A480012082F83C0007240B687E
:1027B00010680A2B12D30A3BC56803EB43039C4005
:1027C00025EA0404C460C3680D688C68A5F10A0694
:1027D00006EB4606B4402343C3600FE0056903EBF4
:1027E000430304FA03F325EA0303036103690D6855
:1027F0008C6805EB4505AC40234303611F244B68FF
:10280000072B11D25B1E456B03EB83039C4025EA2B
:1028100004044463436B4D680C886E1E06EB860609
:10282000B4402343436325E00D2B11D2DB1F056B1E
:1028300003EB83039C4025EA04040463036B4D68A7
:102840000C88EE1F06EB8606B4402343036311E0B9
:102850000D3BC56A03EB83039C4025EA0404C46274
:10286000C36A4D680C88A5F10D0606EB8606B440D8
:102870002343C3625F4B984235D10868122804D1C4
:102880005D48036843F4800303600868102818BF9C
:10289000112828D15848036843F4000303600868EE
:1028A000102820D15249514C0868A0FB0443DB0C8E
:1028B00003EB83056D0000950098A0B10098401EC1
:1028C0000090009878B10098401E0090009850B198
:1028D0000098401E0090009828B10098401E00907B
:1028E00000980028EAD1002182F83C10002001B0B5
:1028F00070BC7047404A116821F440311160136880
:1029000041680B4313600268536823F4807353607B
:102910005168036941EA03215160516821F0407117
:102920005160536881680B435360936823F40063DC
:1029300093609368C1680B4393603049836A8B420C
:1029400010D0936823F0706393609368816A0B439F
:102950009360936823F0405393609368C16A0B437C
:10296000936007E0916821F070619160916821F0B7
:1029700040519160916821F0020191609168037E5D
:1029800041EA4301916090F82010002951680CD071
:1029900041F400615160516821F460415160516817
:1029A000436A5B1E41EA433101E021F4006151605A
:1029B000D16A21F47001D162D16AC3695B1E41EA18
:1029C0000351D162916821F400719160916890F88F
:1029D000303041EA43219160916821F48061916037
:1029E0009168406941EA80219160704706BD378651
:1029F000C807002000200140042301400100000F0F
:102A000070B490F83C20012A08BF022000F0BA8080
:102A1000012280F83C2007240A6803680A2A12D39E
:102A20000A3ADD6802EB4202944025EA0404DC60C5
:102A3000DA680D688C68A5F10A0606EB4606B44014
:102A40002243DA600FE01D6902EB420204FA02F24F
:102A500025EA02021A611A690D688C6805EB4505C2
:102A6000AC4022431A611F259A6B22F440129A63EC
:102A70009A6B0C69641E42EA04529A639C6B4E681E
:102A80000A69F61CB61A06EB8606B540AC439C6391
:102A90009C6B4E680A690D88F61CB61A06EB860612
:102AA000B5402C439C638A69394CA2429A6822F44F
:102AB00070229A600CD09C688A6914439C609C6860
:102AC00024F440149C609C68CA6914439C6003E031
:102AD0009A6822F440129A604A7D002A5A6814BF0C
:102AE00042F4806222F480625A600A7D002A5A68A9
:102AF00014BF42F4805222F480525A604A68012A7C
:102B000004D01ED3032A13D009D31AE05C69240B26
:102B100024035C615C69CA6814435C6119E09A69CA
:102B2000120B12039A619C69CA6814439C6110E0FD
:102B3000DA69120B1203DA61DC69CA681443DC61DA
:102B400007E01A6A120B12031A621C6ACA6814435D
:102B50001C620D4CA34211D10A68122A04D10B4AFF
:102B6000136843F4800313600968102918BF112902
:102B700004D106490A6842F400020A60002180F884
:102B80003C10002070BC704700200140042301402D
:102B900001000F0082B0002000900022DFF818032F
:102BA000416841F480414160416801F480410091F5
:102BB00000990092036843F080530360006800F0BE
:102BC000805000900098042002B0FEF7E9BA30B5BA
:102BD00087B069460022002300241CC10CC1006894
:102BE000DFF8D852A84233D1DFF8D4020592416908
:102BF00041F480714161416901F480710591059949
:102C00000592036843F004030360016801F00401C6
:102C1000059105990592036843F00103036001687B
:102C200001F001010591059905920921036843F01E
:102C3000020303600322006800F00200059005987B
:102C4000A0480091019202946946FEF7A3F921E0A1
:102C50009D4988422FD19A480592416941F40071FB
:102C60004161416901F4007105910599059203687C
:102C700043F001030360016801F00101059105992A
:102C80000592036843F002030360006800F002004D
:102C9000059005988D4802944021009103220192ED
:102CA0006946FEF777F90320009001900294694687
:102CB0008748FEF76FF907B030BD10B586B069469A
:102CC0000022002300241CC10CC10068B0F1804F19
:102CD00033D17B480592016941F00101016101692D
:102CE00001F00101059105990592036843F0020383
:102CF0000360016801F00201059105990592082120
:102D0000036843F0010303600222006800F0010041
:102D1000059005986E48009101920121049102945A
:102D200003946946FEF736F94FF400410091022200
:102D300001920294039401211FE06749884221D146
:102D40005F480592416941F001014161416901F02B
:102D500001010591059905924FF44071036843F014
:102D6000010303600222006800F00100059005984D
:102D70000091019201210291039404916946534804
:102D8000FEF708F906B010BD81B0006853498842CB
:102D90000BD100224F480092016841F0020101600E
:102DA000006800F002000090009801B0704730B554
:102DB00087B069460022002300241CC10CC10068B2
:102DC000474DA84215D13E4805920222016841F0C4
:102DD000040101604021006800F00400059005989E
:102DE00038480091019202210491029303936946AD
:102DF0002EE03A4988422DD131480592016841F4CC
:102E000080710160026802F48072059202220599C5
:102E10000593E021036843F080030360006800F03D
:102E20008000059005982F4800910192032104919C
:102E3000029203926946FEF7ADF84FF4604002211A
:102E40000090019102910391032204926946264861
:102E5000FEF7A0F807B030BD30B587B001A9002259
:102E6000002300241CC10CC10068204DA84220D1C1
:102E700013480092416941F010014161416901F03C
:102E80001001009100990092C021036843F00203F1
:102E900003600222006800F00200009000980C48D5
:102EA00001910292072105910394049401A9FEF770
:102EB00071F807B030BD00004038024000200140EA
:102EC000303802400008024000210140000002406A
:102ED0000004024044380240000001400004014068
:102EE0000004004000200240001C0240001001408D
:102EF0000148006800F04ABCB0070020002848BF25
:102F00004042704710B55C4C00F099FC6060E0688E
:102F10002061A1686068091AE160E06810BD0000E6
:102F200010B5554C55492DED028BE0682061DFED61
:102F30004F0AB1F9002000EE102AB8EEC00A60EE88
:102F4000200A9FED4B1A20EE818AFAEE001A68EEF5
:102F5000211AFDEEE11AC4ED031A00F070FC606066
:102F6000B0EE480ABDEC028B10BD000030B5424CFB
:102F700081B0E168B4F91C00B4F91E204143B4F9F2
:102F8000200091FBF2F578B1616AE268B4F9223071
:102F9000504390FBF3F0411840F6B8308142616233
:102FA00002DC3748814200DA606200F048FC00EE43
:102FB000100AD4ED181A94ED172AB8EEC00ADFED06
:102FC0002D0A20EE200AD4ED160AD4ED192A626AE1
:102FD00084ED150A30EE601A61EE811A32EE602A35
:102FE00032EE011A41EE221A84ED160ABDEEE10A14
:102FF00010EE101A09B2501908186428C4ED170A07
:10300000C8BF642004DC10F1640FB8BF6FF0630028
:1030100055192DB26564A16400B201B030BD818341
:103020007047018401B94162704780ED030A70471F
:1030300080ED040A704770477047704770477047CB
:10304000B0F91C0070470C480E4A816881FB0232BF
:10305000101300EBD07000B270470748406870470B
:1030600042F28E31044A48439060704700401C464B
:10307000000000380000B43B08060020940B00203C
:1030800048F4FFFF87EB33730148006800F0F8BB9A
:10309000B007002030B50F4D0F4B2A7804464FF48F
:1030A0007A711868B1FBF2F281B0B0FBF2F0FEF772
:1030B000C5F858B9102C09D2002221464FF0FF3034
:1030C000FEF77BF8AC60002001B030BD012001B0FC
:1030D00030BD00BFBC070020C807002010B50400A9
:1030E00001D1012010BD0021A16294F8510020B946
:1030F00084F850102046FEF745FA022084F851006B
:103100002068016821F0400101606268A168E06800
:1031100023680A432169024360690A43A1690243A3
:1031200001F40071E0690A43216A0243A06A0A437C
:1031300002431A60A169606A2268090C01F0040167
:10314000014351602068C16921F40061C161002020
:103150006065012184F8511010BD30B4002513E0E2
:1031600050F8042BD30744BFA9F101039A18091F93
:10317000042942F8045BFAD213468C0744BF158039
:103180009B1CC90748BF1D7050F8041B0029E7D1DC
:1031900030BC7047BBBBE1B1B2F5803F80F07E80B0
:1031A000022A1ED98C46B1FBF2F102FB11C31B04AB
:1031B00043EA1043B3FBF2FC02FB1C3380B240EA4B
:1031C0000343B3FBF2F002FB103240EA0C40002351
:1031D0007047022A05D98446B0FBF2F002FB10C208
:1031E00070474AB105D100F0010249085FEA30009A
:1031F000704700220023704700F046BB0B0002001E
:10320000002100207047904271EB030CF6D3B3F518
:10321000803F2FD2F0B5B3FA83F7B1FA81F4A7F16A
:103220000F0E3D1B5340CEF1200602FA0EF2F34181
:103230005340B5F10F0746D80F3C2C444140C4F130
:103240002006A040F1414140B1FBF3F603FB16110B
:10325000A2FB0645001BA94102D2761E80185941E7
:1032600080EA010221FA0EF362FA0EF200215A40BE
:103270003046F0BD30B4B1FBF3FC03FB1C11A2FBE4
:103280000C45001BA94103D2ACF1010C8018594137
:1032900030BC02460B46604600217047B2F1807F89
:1032A00065D3F0B5B2FA82F7B1FA81F4C7F10F062F
:1032B0003D1B22FA06F307F1110EF24120355A4068
:1032C000B5F10F07B8D94140C4F12006A040F14143
:1032D0004140B1FBF3FC03FB1C11A2FB0C45001B9E
:1032E000A94103D2BCF1010C801859410F2F12D310
:1032F0000F3FC90341EA5041B1FBF3F603FB16113E
:10330000A2FB0645D4EBC030A94102D2761E80183C
:10331000594146EACC3C07B34140C7F12006B840CA
:10332000F1414140B1FBF3F603FB1611A2FB064548
:10333000001BA94102D2761E8018594180EA010281
:1033400021FA0EF3C7F1200462FA0EF20CFA07F02C
:103350005A402CFA04F13043F0BD80EA010221FA10
:103360000EF3002162FA0EF260465A40F0BD8C4620
:10337000B1FBF2F102FB11C31B0243EA1063B3FB82
:10338000F2FC02FB1C331B024CEA002043EA1063F0
:10339000B3FBF2FC02FB1C331B024CEA002043EAA5
:1033A0001063B3FBF2FC02FB1C331B024CEA00204F
:1033B00043EA1063B3FBF2FC02FB1C324CEA002030
:1033C000002370472DE9F0430446664E81B00D4658
:1033D00006F1E80000F059FA6348644FDFF8908185
:1033E000DFF89091C6F8C4000021634886F87C108D
:1033F000C6F8BC0000F04EFA00F0B8FA384600F00B
:10340000E7FAC6F894705D485D4FC6F890003846FC
:1034100000F0F2FAD6F890103B464A46404600F0DB
:1034200048FBD6F89410D6F89000C6F8B0803A461B
:1034300000F046FB484600F055FBDFF84881DFF816
:103440004891404600F020FC484600F01DFC4F48E3
:103450004F49C6F8A000C6F8A810C6F89880C6F86C
:103460009C904C484C49DFF83481C6F8A400C6F85B
:10347000AC104B48C6F8B40000F010FC4948D6F830
:10348000B410C6F8C000C0F81011C0F80C61404676
:1034900000F011FC4448C6F8C800C6F8B88000F037
:1034A0001DFC002000F022FC012086F82400D6F844
:1034B000900000F057FC3061D6F8900000F052FC0C
:1034C000009006F1CC01BDF80200B082C6F88C1065
:1034D0003346D6F8902006F1E80106F1CC0000F062
:1034E0004CFCD6F8900000F052FC0146D6F88C0057
:1034F000002200F04FFCD6F88C00206037640122D7
:10350000D6F89410D6F89800B162F0620020D6F890
:103510009C1031637063F0637064B06406F1E8007E
:10352000D6F8BC10B1633065D6F89010D6F8B40068
:10353000F164B0650020D6F8B810716530660021DE
:10354000F165B066F06630677067B067D6F8C01096
:10355000716606F12801296086F87C2001B0BDE87B
:10356000F08300BFC00600201804002040010020A6
:1035700094030020E00200206402002030020020BA
:103580001803002090010020E00100205C060020CC
:10359000000000200806002020000020B0030020CA
:1035A000D80300202C0000200004002070B44848FC
:1035B00081B04FF4903101604FF40052026001601D
:1035C0004FF48043016800914FF4A031009A0160EC
:1035D000036001602025016800914FF4C031009A1A
:1035E00001604FF40042026001608026036800938E
:1035F000009C384BC0F80034C0F80054C0F80034C8
:103600004025D0F800340093009C334BC0F80034C0
:10361000C0F80054C0F80034D0F800440094009D75
:103620002E4CC0F80044C0F80064C0F800440825DF
:10363000D0F800040090009C29482A4CC0F80044AF
:10364000C0F80054C0F80044D0F800540095009E23
:10365000016002600160016800914021009A0360EE
:103660000160036008220368009301230099C0F8F9
:103670000048C0F80028C0F800480224D0F800181C
:1036800000914FF00111009AC0F80014C0F8003406
:10369000C0F80014D0F800240092009B124AC0F831
:1036A0000024C0F80044C0F80024D0F800240092A0
:1036B0000122009BC0F80018C0F80028C0F80018CC
:1036C000D0F800080090009901B070BC704700BFAE
:1036D0001C1C02402000010040000100800001008D
:1036E0001C00024008000100020001002DE9F04F1B
:1036F000DFF854900D4616461F46C9F8B09083B0C7
:103700001249DDF8308091E80C5C89E80C5C0446D5
:10371000DFF83CA0504600F044FB0E49D9F8B00059
:103720000D4B0E4A0091CDF80480514600F04EFB3F
:10373000D9F8B00000943B463246294600F068FBB9
:1037400003B0BDE8F08F00BFD4070020680B002055
:10375000CC040020E1720008A73D0008B16D00080C
:103760000949088810B10A88501E08804A88022A30
:1037700002D34888421E4A808888022802D388885B
:10378000421E8A80704700BFCC07002010B5044657
:103790000321206800F048FB012808BF207610BDF7
:1037A0002DE9F0412C4CD4F8900084B000F0ACFB33
:1037B000054600F0ABFB0646D4F8BC0001A900F0BA
:1037C000A8FB019800F0B2FB0746314600F0D2FB9F
:1037D0000090B4F91010BDF90000091AD4F898004F
:1037E00000F0FCFBADF80800B4F91210BDF90200BE
:1037F000091AD4F89C0000F0F1FBADF80A00029918
:10380000D4F8C40000F02AFC8046284600F051FCA1
:103810003146404600F050FC0546D4F8BC0029462D
:1038200000F069FC0199009AC4F816806760C4F83A
:103830001A5026842160E26004B0BDE8F081064899
:1038400000B5D0F8900081B000F05EFB01B05DF8EB
:1038500004EB00F022BD0000C0060020074890F8ED
:103860007C10012900D0704700B581B0002000F025
:1038700019FD01B05DF804EB00F0FBBDC0060020AF
:103880000068072100F0D0BA704700210170418024
:103890008180704770B4856FAC682A686B68266851
:1038A00076087600266095F8901031B16FF08006AA
:1038B0002661E16841F08001E160616941F0010148
:1038C000616195F88C10022910D195F88D100129AD
:1038D00004BF95F88E1003290BD10125256303251C
:1038E000616941F001016161256302E090F84610D1
:1038F00019B9B0F87010491E61624FF48011194E69
:10390000194DB44205D12C6844F001042C600C46DA
:1039100005E02E6846F002062E604FF4F01484662F
:103920006FF00405946844F0010494609C6844F0CE
:1039300001049C601560546844F080045460D46AAB
:1039400024F47004D462946B24F4401494639A6B4E
:1039500022F440129A63C1660021A0F84E1070BC98
:10396000704700BF000001400C2004E016481749D2
:1039700081B00268D20712D4036843F001030360E8
:10398000026802F001020092009A0B6943F0010301
:103990000B61016849084900016001B0704708687F
:1039A0000A6822F0700242F020020A6000F0700003
:1039B0000A6942F001020A610B6823F070031843A0
:1039C000086001B0704700BF40380240040000406A
:1039D000018842888180C280018C826B418442636D
:1039E000016BB0F84220C162A0F84020C18F8187EE
:1039F000002181608162704770B402460021106A24
:103A000041624FF0FF33B2F86E10B3FBF1F19166F3
:103A1000B2F86C30C3EB03118900516200F1180356
:103A200092F877101C68090524F0F00444EA114468
:103A30001C6092F877101C68090524F4704444EA6D
:103A400011241C606FF001010161C36843F00103A0
:103A5000C3600023016841F00101016092F8750024
:103A6000002824DD10F0030100F0098002F1280590
:103A70000024DEB25B1C45F82640491EF6D18008C2
:103A800000F0158002F128040021DDB244F8251071
:103A90005B1CDDB244F825105B1CDDB244F8251038
:103AA0005B1CDDB25B1C44F82510401EEAD170BCE3
:103AB000704701604260002183608173C173704769
:103AC0000161426190F82A100170B0F92C20B0F920
:103AD0002E10120442600904002281604280C260FC
:103AE0008261704700F0EEBC80ED0B0A704780EDFC
:103AF0000D0A704781877047A0F84010704700009A
:103B0000F0B581B004462DED028B88B002A80022EA
:103B1000C0E9002204AD06A8C5E90022C0E90022E0
:103B2000CDE90022A06AD4ED0B0A00EE101AB8EE1F
:103B3000C00A091A20EE200A01EE101AB8EEC11AC6
:103B4000D4ED0D0A21EE208ADFED4D0AB4EE600AB5
:103B5000F1EE10FAA8BFB1EE080A08DAB9EE081AB9
:103B6000B4EE410AF1EE10FA48BFB0EE410AB4EEED
:103B7000608AF1EE10FAA8BFB1EE088A08DAF9EE11
:103B8000080AB4EE608AF1EE10FA48BFB0EE608A1F
:103B900002A904A8FFF753FA06A9B0EE480A68463E
:103BA000FFF74DFA0798069B36499DED001ADDEDAB
:103BB000010A9DED050AC0EBC00201EB8200C3EBD8
:103BC000C30501EB8501029D039AA38F01EB8506D6
:103BD00001EB8207D6ED001A97ED002A21EE211A9B
:103BE00000EE821ADDED041A9DED002A00EB850639
:103BF00021EE211AD6ED001AB4F8406000EB8207DE
:103C000062EE211A97ED002A40EE821A01EE801A28
:103C1000BDEEC11A11EE105A13FB05F3A4F844309F
:103C20009DED001A029B01EB830501EB8201D5EDAE
:103C3000311A91ED312A21EE211A00EE821ADDEDC2
:103C4000041A9DED002A00EB830321EE211AD3ED27
:103C5000311A00EB820062EE211A90ED312A40EE1B
:103C6000821A01EE801ABDEEC10A10EE101A16FB80
:103C700001F1A4F8461008B0BDEC028B01B0F0BD14
:103C80000100C040E0660008018842888180C2804F
:103C90000022018C418482608262704710B5044624
:103CA00004F10C0000F054FB84F826002046BDE827
:103CB000104000F01EBC10B50446207848B9201D05
:103CC00000F046FB84F826002046BDE8104000F0D6
:103CD00040BC618A21820020E08210BD0021816009
:103CE0004160C1600161012141617047F0B5044646
:103CF00017481849184E194B006809683768262577
:103D000015FB04F51D4481B000262F606960E86052
:103D10002861EE83C5F81600C5F81A102E8403EB4F
:103D200084050021D5F8980000F016FCD5F89C0019
:103D3000002100F011FCD5F8900000F00FFCD5F840
:103D4000BC0000F013FC0CB905494E6201B0F0BD97
:103D5000C0720008C4720008BC720008C0060020CF
:103D60000806002081B0B0F92E10ADF80010008ECA
:103D7000ADF80200009801B0704701604260002178
:103D800083600173C1810182C18201767047B0F9FD
:103D90002C00704701230373C181C28203764376EE
:103DA000704700F0E5BB90F81C1169B900220121B1
:103DB00080F81D2180F81C11D0F82001C16841F065
:103DC0002001C1600220704701207047F0B581B02A
:103DD00004460846069F0799C4F8A810A061154636
:103DE0000849094A00911E46084B214600F0D5FBC0
:103DF000E56126626762204601B0BDE8F04000F050
:103E0000D7BB00BFE9720008ED7200083148000816
:103E100081B0DDF804C0017182600021C3600175CA
:103E2000C0F810C001B0704710B502780024142A01
:103E30000ED8DFE802F01821572D475557595B611E
:103E40000D0D0B27292B3739414E3F000A0057D063
:103E500003291CBF0129072903D00022802100F07B
:103E6000B4FB204610BD0A46032A49D0012A45D199
:103E700001240170204610BD072918BF0D293FD02D
:103E80000E2934E00E2918E00F2916E0022914E06B
:103E9000072918BF102933D0042918BF11292FD0A2
:103EA000012924E0112908E0122918BF072927D089
:103EB00014291CE0122900E0042913D10124017007
:103EC000204610BD0A46132A06D10124017020465F
:103ED00010BD0A46042A13D0072A11D0052A06E08D
:103EE00006290DD0072902E0082900E00929AFD1F1
:103EF00001240170204610BD0A0001D00C2AA7D170
:103F000001240170204610BD40697047B0F90400DB
:103F10007047426810470146002091F87420012A3A
:103F200003D10022402081F87420704701B481B091
:103F300044F6E612BDF90400ADF8000001460B4856
:103F400011FB00F0BDF9061011FB02F2A0EB4200DC
:103F5000C01300F30F00ADF8020010F5004F04BFCE
:103F60000349ADF80210009802B070471AB6FFFF7F
:103F70000180FFFF71B583B008B200F03BFB0190F8
:103F8000BDF90420BDF90C30BDF90600BDF90E10D5
:103F900013FB02F400FB1144E41304F30F04ADF827
:103FA000004013FB00F0BDF900500A4CA54204BFCD
:103FB000094EADF8006011FB0200C01300F30F00C2
:103FC000ADF80200A04204BF0349ADF8021000980A
:103FD00004B070BD0080FFFF0180FFFFF0B4B0F9B6
:103FE0000430B0F91450B0F91660B0F9062000247E
:103FF0004B430AB9002115E0514382688F1806D55A
:10400000002AC8BF002906DD6FF0004703E0002A40
:1040100044BF0029104FC168B94203DB0169B942AE
:10402000B8BF3946878B81603B41C78B0A4642FA4D
:1040300007F1CB189D4206DAEC1AA4182B468460CF
:1040400018B2F0BC7047B342BCBFF41A3346A41890
:10405000846018B2F0BC70470100008002B481B0E7
:104060000091BDF90430BDF9062013FB03F112FBEA
:10407000021C01884943614518D290F8B2104FEAFA
:104080001C6CACEB010C5FFA8CFC00EB4C008088E4
:10409000434342439913901303EB514302EB5042C5
:1040A000DB13D213ADF80030ADF80220009802B057
:1040B0007047B0F91000704731B582B008B200F017
:1040C00099FA0190BDF90430BDF90840BDF9061018
:1040D000BDF90A2014FB03F512FB03F012FB015596
:1040E00001FB1401ED13C913ADF80050ADF8021037
:1040F000009803B030BD70B481B002B481B0B0F8A4
:104100005030BDF90650BDF90420018E5D436D426B
:104110004A436D005119AA1A01EBD17102EBD27218
:1041200049105210002948D5002A17D5042480F8D8
:104130003A408C1A651404EB9534A41404EB9303F1
:1041400014140D1402EBD43201EBD53103EB6242AF
:10415000A3EB61410C461D46164675E02C14002D5C
:1041600005EBD43414DC0321AD1A80F83A106E1438
:1041700005EB9635AD14111405EB930302EBD13228
:1041800003EB6242A2EB64410C4615461E465BE01F
:1041900002224D1B80F83A206E1405EB9635AD14C3
:1041A0000A1405EB930301EBD231A3EB614101EB60
:1041B000644214460D461E4646E0002A16D40124E9
:1041C00080F83A408C1A651404EB9534A41404EB7F
:1041D0009303141402EBD4320D1403EB624201EB8F
:1041E000D531A3EB614114461D462CE02C14002D63
:1041F00005EBD43414DC05224D1B80F83A206E14F4
:1042000005EB9635AD140A1405EB930301EBD2319F
:10421000A3EB614101EB64421C460D46164613E0D8
:104220000021AD1A80F83A106E1405EB9635AD14E6
:10423000111405EB930302EBD13203EB6242A2EBC4
:1042400064411C4615460E46C186A0F84060C587ED
:10425000848743868286B0F84E10012919D1B0F9BF
:104260004830418EB0F85420002BCCBF5118891A29
:104270004186B0F94A30818E002BCCBF5118891A83
:104280008186B0F94C30C18E002BCCBF52188A1AEF
:10429000C286816903B070BC08478068704700001F
:1042A000010002002DE9F04304462748DFF89C9006
:1042B000008881B0A046ADF8000009EB8805D5F86C
:1042C000B80000F0EDF93DF818600640D5F8BC00E4
:1042D00000F004FA0643200007D1BDF80070D9F8B9
:1042E000B40000F0FDF907403E4308EB480009EB3D
:1042F0004007F04382B2314607F1E80000F065F96B
:1043000007F1E80000F035FA0A2808D00B2804BFAE
:10431000D5F8BC0000F02AF901B0BDE8F083D5F86B
:10432000B00010B1002100F026FAD5F8BC0000F072
:104330001DF92046FFF7DAFCD5F8C00000F01DFAA1
:1043400001B0BDE8F08300BFC8720008C0060020BD
:1043500070B40146FF220E79584C002304F124006A
:1043600050F8230018B9042A0ADD1A4608E0057936
:10437000B54202BF00680D68A84204BF1A46042374
:104380005B1CDBB2042BE9DB1046042841DA04F1A4
:104390002403002543F8201044F83050086883684F
:1043A000DB0711D4446824F0200444606FF002035A
:1043B00003606FF00403446824F0800444600360E9
:1043C000846844F001048460C36A23F47003C36208
:1043D0000B790A2B06D203EB430443EA045343F060
:1043E000007305E0A3F10A0404EB440443EA045318
:1043F000DC0D0C3004F00404896820181B0D03F058
:104400001F03046807259D40AC4301FA03F32343CF
:104410000360104670BC7047284901EB8000406A79
:1044200001790A2906D201EB410241EA025141F029
:10443000007105E0A1F10A0202EB420241EA0251D9
:1044400002682C3201F01F0152F8083F5B0941EA73
:104450004311116001230168CA6C194A083102EB4B
:104460004112136001680A689207FCD5C86C80B2DB
:10447000704730B5114C94F82100012881B01BD150
:1044800094F82000FFF7C8FF022194F8203084F848
:10449000211060841D4654F8351069B1002284F85B
:1044A000212004EBC5014A680146184654F835300E
:1044B00001B0BDE83040184701B030BD340B0020DA
:1044C00078000042002101708180C1808181C1811A
:1044D00041820170016241620185018680F82C10E1
:1044E00080F82D1080F8321080F83310C28EC2850B
:1044F000704730B4418B828B5218018B52080023D5
:1045000001B3016A9CB221F814205B1C048B9DB29C
:10451000A54217D29CB221F814205B1C048B9DB2DB
:10452000A5420FD29CB221F814205B1C048B9DB2D3
:10453000A54207D29CB221F814205B1C048B99B2CF
:10454000A142DED300218280C28080F8251030BCD9
:10455000704700210182704781607047017801290E
:1045600003D100690021FFF7F7BF70478168084752
:10457000002141820175417580F8961080F89710EE
:1045800080F8981080F8991080F89A1080F81B1124
:1045900080F81C1180F81D11704781B030B1DDF832
:1045A00004C0016042608360C0F80CC001B0704775
:1045B00010B50446A069616A8847802084F8AC0081
:1045C000216AA069BDE81040084730B403465C8802
:1045D0009D8818780C4324EA020229430A285A804D
:1045E000998002D122B90B2001E00AB10A2018708B
:1045F00030BC7047A0F500410904890D11F44070EA
:1046000081B028D0B0F5807F37D0B0F5007F05D0DD
:10461000B0F5407F12D0009801B070471F48CAB271
:1046200030F81230ADF80230C1F1FF01C9B230F9F3
:104630001100ADF80000009801B07047174AC1F1B1
:10464000FF00C0B232F81030ADF80230C9B232F912
:10465000111049421DE01148CAB230F912305B42D4
:10466000C1F1FF01ADF80230C9B230F9110040428A
:10467000ADF80000009801B07047084AC1F1FF0092
:10468000C0B232F910305B42ADF80230C9B232F933
:104690001110ADF80010009801B07047E0640008F8
:1046A00010B504462078A8B994F82600FFF7B4FEA8
:1046B0004FF6FF71884207D0218B238A4A1E03FBE5
:1046C0000200B0FBF1F02082204600F062F8E082A8
:1046D000E08A10BD0020E082E08A10BDC169084771
:1046E000F0B5044681B094F82600FFF795FE4FF62A
:1046F000FF729042014636D0226A94F8250022F8D3
:1047000010100023208B0025F8B1EEB232F81660AD
:104710006D1C9B19EFB2874217D2EEB232F81660C9
:104720006D1C9B19EFB287420FD2EEB232F81660C1
:104730006D1C9B19EFB2874207D2EEB232F81660B9
:104740006D1C9B19EFB28742DFD3B3FBF0F0E08022
:10475000A180228B94F82500521E9042B4BF401CC9
:10476000002084F82500204600F020F8208101B0C8
:10477000F0BD00787047C173704710B504464FF420
:10478000807100F021F80022A4F80021A4F8022191
:1047900010BD018A428B8A4201D208207047828B69
:1047A000914201D200207047C08A7047C188428B75
:1047B0008A4201D202207047808B814201D20420BC
:1047C0007047002070470000002200F001B8000090
:1047D000401810F0030308D0C91A1FD3DB0748BFE5
:1047E00000F8012D28BF20F8022D130030B4144624
:1047F0001546103928BF20E93C00FAD8490728BFE0
:1048000020E90C0048BF40F8042D890028BF20F89B
:10481000022D48BF00F8012D30BC7047C91818BFE1
:1048200000F8012DCB0728BF00F8012D70470000CC
:10483000F0B589B004460F46154600207A091E4699
:104840008DF800000BD0521E0021204600F0B2FA75
:1048500018B90B208DF8010094E207F01F07122F02
:1048600000F28D82DFE817F08E021300AA007401B7
:104870008B028B027E01C801ED012F0239024A0230
:104880005C02DD018B028B028B028B028E02297887
:10489000052092298DF8010000F28C80DFE801F0FC
:1048A0004A8A8A528A5D5D5D5D5D5D5D5D5D5D5DCF
:1048B00067678A8A5D5D5D5D5D8A8A8A59598A8AE1
:1048C0008A8A8A8A8A8A8A8A8A8A8A8A8A8A8A8A48
:1048D0008A8A8A8A8A8A8A8A8A8A8A8A8A8A8A8A38
:1048E0008A5D8A8A8A8A6767678A8A8A8A8A8A5DEB
:1048F0008A8A8A5D5D5D5D5D5D5D8A678A8A8A8A76
:104900008A5D8A8A5D5D8A8A8A8A8A8A8A8A8A8A8E
:104910008A8A8A8A5267676767678A8A8A67678A24
:104920008A8A8A8A678A5D5D5D777777775D5D774A
:10493000775D5D006A780021204600F03BFA8DF833
:1049400000001FE26A78204600F034FA8DF800007B
:1049500018E201218DF8001017E26A78A87802EBBE
:104960000022204600F026FA8DF800000AE268785E
:10497000AA782B7900EB0222E87802EB004202EBE6
:104980000362204600F016FA8DF80000FAE168781C
:10499000AA7800EB0223E8782A7903EB004303EBC3
:1049A0000263019308469DED010A00F0F5FA8DF8C7
:1049B0000000E7E102218DF80110E3E129780322EC
:1049C00088298DF8012000F2DD81DFE811F08900EF
:1049D000A50089008900A50097009700970097001F
:1049E000970097009700970097009700970097000F
:1049F00097009700970097009700970097009700FF
:104A0000970097009700DB01DB01A5009700970056
:104A100097008900DB01DB01DB01DB01DB01DB014E
:104A2000DB01DB01DB01DB01DB01DB01DB01DB01A6
:104A3000DB01DB01DB01DB01DB01DB01DB01DB0196
:104A4000DB01DB01DB01DB01DB01DB01DB01DB0186
:104A50009700DB01DB01DB01DB01A500A500A50060
:104A600097009700970097008900A500970097008E
:104A7000970097009700970097009700970097007E
:104A800097008900A500DB01970097009700970029
:104A90009700DB01DB019700970089008900A500E2
:104AA000A500A500A500A500890097009700A50016
:104AB000DB01970097008900A500A500A500A500CF
:104AC000A500A500A500A500A500A500A5008900DA
:104AD000DB018900B300B300B30097009700970093
:104AE0006A46204600F0B4FA01909DF800000128C3
:104AF00040F04881012301AAF02152E16A46204694
:104B000000F0A6FA01909DF80000012840F03A81DB
:104B1000022301AAF02144E16A46204600F098FAF7
:104B200001909DF80000012840F02C81042301AA87
:104B3000F02136E16A46204600F08AFA01909DF89D
:104B40000000012840F01E81042301AAF02128E181
:104B5000297807228DF80120204600F063FC8DF8AB
:104B600000000FE101A800210022002300252EC033
:104B70002EC0D4F8A8201278092A01A822D0C27029
:104B80005FF001010DF10703D4F8A820525C092A57
:104B900018D05A54491CD4F8A820525C092A11D0C4
:104BA0005A54491CD4F8A820525C092A0AD05A54F5
:104BB000491CD4F8A820525C092A03D05A54491C35
:104BC0001C29E1DDD4F8A820531D5D5C8DF804504C
:104BD000D4F8A8200A44D3794370D4F8A82011440B
:104BE00001AA4B7A8370A069E5692023F021A847C8
:104BF00001208DF80000C8E028796979EB7800EB96
:104C000001222878697800EB0121A87801EB0041A6
:104C100092B201EB0361204600F052FC8DF80000D7
:104C2000B0E02879697900EB01222878697800EBF7
:104C3000012192B209B2204600F05AFC8DF8000022
:104C4000A0E000F05FFC074600F062FC0646FEF7BD
:104C5000FAF90546FEF701FA5449B1F900208DF83A
:104C6000047001AB391259703914997018733112EC
:104C700059711E7129121D7259723F160112DF708F
:104C80008DF811101A7437143616DE7111142E14A3
:104C90002D16DD728DF80A70051400168DF81300BC
:104CA0008DF80E6010128DF8150012168DF8125046
:104CB0008DF816108DF81720A069E569142301AA54
:104CC000F021A8475EE02878697800EB012000B267
:104CD00000F09EF98DF8000054E0A878E97800EB28
:104CE00001222878697800EB012112B209B220462E
:104CF00000F014FC01218DF8001046E001950C2114
:104D00008DF801108DF8086001A8294D294600F0A2
:104D100012FC00288DF800003FD02B792A6836E07D
:104D2000002201A9D4F8A800805CB0B18854521CBC
:104D3000D4F8A800805C80B18854521CD4F8A80034
:104D4000805C002809D08854521CD4F8A800805CEC
:104D500018B18854521C202AE4DB202A05DA01A865
:104D6000C2F120011044FFF72FFDA069E56920235F
:104D700001AAF021A84701218DF8001005E00122C9
:104D80008DF801209DF8000038B100230022A069B1
:104D9000E469F021A04709B0F0BD01230DF1010243
:104DA000FF21A069E469A04709B0F0BD940B002081
:104DB000A40B002070B582B016468368027D53F8BC
:104DC0002250C36853F822200124A1B3032900F024
:104DD0008580052979D006297AD007297BD0082932
:104DE00000F09780092900F09B800A2900F09B8041
:104DF0000B2900F09B800C2900F09B800D2900F00E
:104E0000A5800E2900F0A9800F2900F0AD8041296E
:104E100000F0B1805B2915D0842940D086291ED0AE
:104E2000872924D08D2940D08E2946D0912926D09B
:104E300092292CD0A6E0F1B200F07FFB0446204678
:104E400002B070BDC6EB06108000504980FB0131F6
:104E50000144491101EBD171002209B253E04C48E1
:104E6000006831B2FEF7DBF8204602B070BD48485A
:104E7000006831B2FEF7D5F8204602B070BD444854
:104E8000006831B2FEF7D9F8204602B070BD404844
:104E9000006831B2FEF7D2F8204602B070BD30464D
:104EA000FEF7DEF8204602B070BD3A48006831B225
:104EB000FEF720FE204602B070BD3648006831B2D1
:104EC000FEF71AFE204602B070BD106831B23FE016
:104ED000106831B243E0106831B247E0F0B250B927
:104EE000284600F034FB01460022284600F033FB40
:104EF000204602B070BDF6B2012E44D1284600F023
:104F000033FB002201462846FEF744FF204602B04C
:104F100070BD284600F02BFB0090ADF800600EE05D
:104F2000506831B214E0506831B218E0506831B2C4
:104F30001CE0284600F01BFB0090ADF802602846FC
:104F4000009900F01BFB204602B070BD906831B2A2
:104F500000F023FB204602B070BD906831B200F033
:104F60001EFB204602B070BD906831B200F019FB04
:104F7000204602B070BD31B2284600F014FB204636
:104F800002B070BD0024204602B070BD89888888B8
:104F9000640700205407002010B5012489280AD096
:104FA0008A280ED08B2812D08C2816D08F281AD0A1
:104FB00090281ED023E013490868FEF736F82046F3
:104FC00010BD10490868FEF733F8204610BD0E48A2
:104FD0000068FEF789FD204610BD0B480068FEF70B
:104FE00086FD204610BD09480068FEF724F82046DB
:104FF00010BD06480068FEF71FF8204610BD0024CB
:10500000204610BD600700205407002064070020E0
:105010000146012021B1022911D008D30020704798
:10502000094ADFF828C010708CF800007047064A63
:10503000DFF818C0107000238CF800307047024A67
:1050400000211170704700BF3D0700203E0700207F
:1050500070B5034682B0DC689D68187D54F8204026
:1050600055F8205000200AB101261670862900F25A
:10507000CE81DFE811F087008D009300DA009900FF
:105080009D009F00B200CA00F800FA00FC00D200A8
:1050900006010C011201CC01CC01CC01CC01CC01E8
:1050A000CC01CC01CC01CC01B400BA001801CC0178
:1050B000CC01C00063016B01CC0173017C01840150
:1050C0008C01940163016B019C01A401AC01B4014A
:1050D000BC01C4011E013701CC01CC01CC01CC01C3
:1050E000CC01CC01CC01CC01CC01CC01CC01CC0158
:1050F000CC01CC0150015401FE00CC01CC01CC010B
:10510000CC01CC01CC01CC01CC01CC01CC01CC0137
:10511000CC01CC01CC01CC01CC01CC01CC01CC0127
:10512000CC01CC01CC01CC01CC01CC01E000CC0104
:10513000CC01CC01CC01CC01CC01CC01CC01CC0107
:10514000CC01CC01CC01CC01CC01CC01CC01CC01F7
:10515000CC01EC00F200C400CC01C700CE01CC01B0
:10516000CC01CC01CC01CC01CC01CC01CC01CC01D7
:10517000CC01CC01CC01CC01CE01CC01A800AD000A
:10518000CC01A10002B0BDE87040184600F00FBA93
:10519000A06A02B0BDE8704000F00BBAA06A02B08D
:1051A000BDE87040FFF7E5BA284600F0DDF9B9E048
:1051B000206867E020686BE002B0BDE87040964868
:1051C0000068FDF73DBF02B0BDE87040FDF745BF88
:1051D00002B0BDE87040FDF736BF20685EE0206B8E
:1051E00002B0BDE8704000F0EAB9E06A02B0BDE884
:1051F000704000F0EAB9284600F0FAF992E08748DA
:1052000002B070BD042002B070BD284600F0AFF9B6
:105210000090BDF9000002B070BD284600F0A7F96B
:105220000090BDF9020002B070BD284602B0BDE892
:10523000704000F0E7B9284600F0E4F9012828465C
:1052400002D100F0E1F96DE000F08EF96AE020682B
:1052500002B0BDE8704000F0DFB9206802B0BDE8E0
:10526000704000F0DBB960680CE0606810E06068D6
:1052700014E0284600F07BF90090BDF9020002B06E
:1052800070BDA06802B0BDE8704000F0C9B9A06868
:1052900002B0BDE8704000F0C6B9A06802B0BDE839
:1052A000704000F0C3B9E06B02B0BDE8704000F0A0
:1052B000C0B919691A7D51F822200021130F022B61
:1052C00014BF012BA169C2F30362022A14BF012A91
:1052D000E169002900F09D8002B0BDE870400846F9
:1052E000FEF714BE19691A7D51F8223000211A0FF9
:1052F000022A14BF012AA169C3F30362022A14BF60
:10530000012AE169002900F0848002B0BDE8704004
:10531000084600F091B9606A00F098F902E0606A0E
:1053200000F096F9C0EB001188003D4A80FB023284
:105330000244501100EBD07002B070BD284600F05E
:105340008AF90090BDF9000002B070BD284600F057
:1053500082F90090BDF9020002B070BD61690029B8
:1053600057D002B0BDE87040084600F07BB928462F
:1053700000F07BF90090BDF9000002B070BD284636
:1053800000F073F90090BDF9020002B070BD28462C
:1053900000F072F90090BDF9000002B070BD28461F
:1053A00000F06AF90090BDF9020002B070BD284615
:1053B00000F0DDF80090BDF9000002B070BD284695
:1053C00000F0D5F80090BDF9020002B070BD28468B
:1053D00000F059F90090BDF9000002B070BD2846F8
:1053E00000F051F90090BDF9020002B070BD2846EE
:1053F00000F051F90090BDF9000002B070BD2846E0
:1054000000F049F90090BDF9020002B070BD02B190
:10541000107002B070BD00BF640700207A84A6340B
:105420008988888830B581B08268007D0124491E52
:1054300052F820500D293ED8DFE801F007090B266D
:105440003E162B31373D3D3D3D09284612E02846AA
:1054500015E0284600F027F906282DD1284600F04F
:1054600025F9204601B030BD284600F01CF900287F
:10547000284604D1FEF78AF9204601B030BDFEF778
:10548000FFF9204601B030BDFBF7CBFE204601B04E
:1054900030BD284600F00DF9204601B030BD284649
:1054A00000F00AF9204601B030BD284600F008F9A6
:1054B000204601B030BD0024204601B030BD0000C0
:1054C00030B5C1EB011381B09B000849856883FBAF
:1054D00001411944037D55F82300491101EBD171B5
:1054E00009B2FEF757FC012001B030BD89888888D9
:1054F00010B58368047D53F8240000F02CF80120D7
:1055000010BD00000148006800F07EB8B007002020
:105510000148006800F06CB8B007002082B0ADF818
:105520000010ADF802208268037D009952F8230034
:1055300002B000F023B8002070470246012092F824
:1055400004C0614501D30020704711757047806821
:10555000B0F91E0070470182C2820223012100229D
:105560000373017642767047406800F0B1B881B0AD
:10557000806801690091084601B0704702B40321B8
:105580000173BDF8002042820122BDF80210818221
:1055900002760021417601B0704781807047C1805A
:1055A0007047418470478068418281827047007DE6
:1055B000704701468888498840EA014070470146A3
:1055C000C88849884843000C7047017869B9018A46
:1055D000026A8A1AB0F91E10808C4A43D31302EB78
:1055E000134200EB224000B27047808A00B270473D
:1055F00000B581B04068FEF787FC01B05DF804EBB0
:1056000000F06CB8407E7047014600200A7B012AFA
:1056100008BFB1F90E007047008B7047408B704790
:10562000B0F904007047B0F906007047B0F92200E5
:105630007047B0F904017047B0F90C10B0F91400CC
:10564000C1EBC13191FBF0F000B27047C08B7047E5
:10565000B0F92400704781B08068C16800910846A5
:1056600001B0704790F84800704781B080680168C9
:105670000091084601B0704781B080684168009190
:10568000084601B0704781B08068D0F816100091CC
:10569000084601B0704781B08068D0F81A100091B8
:1056A000084601B070470068FFF763B8406800F033
:1056B00018B8006800F019B800680121FEF7B4BB03
:1056C00010B504466068FEF74DFBA168086110BD87
:1056D0004068C11300EB114000147047B0F90C0092
:1056E00070470021C16081617047014600200A783F
:1056F0000B2A04D10920087000228A8001207047FB
:105700000246906F8068538E4363B2F834C0C0F88D
:1057100038C0D38EC3630164006A118F000B012966
:1057200000F0010002D1002101201187704730B440
:10573000816F8A6890F84710002943D102F118015F
:1057400000250C6824F0730444F060040C60146AB3
:1057500044F001041462146A24F0040414625563D2
:10576000846F94F88F40012C0DD10C6824F4E6442A
:1057700044F480540C60136A23F010031362136A1C
:1057800043F040030EE0022C0DD10C6824F4E644F3
:1057900044F400540C60136A43F010031362136A5C
:1057A00023F04003136251F8043F23F0730343F0E6
:1057B00070030B60116A21F480711162116A21F487
:1057C000806111620FF229110FF271124160426182
:1057D0000FF2B111544AC1608260012180F8471074
:1057E00030BC7047816F90F847208968012A00D04B
:1057F000704730B401F11802146824F0730444F0C7
:10580000600414600C6A44F001040C62846F94F824
:105810008F40012C03D10C6A44F0040404E0022CF4
:1058200003D10C6A24F004040C62B0F870406408E0
:105830004C63156825F4E64545F4C04515600B6AD0
:1058400043F010030B62836F93F88F30012B03D169
:105850000B6A43F0400304E0022B03D10B6A23F0F0
:1058600040030B62B0F870305B088B6352F8043F62
:1058700023F0730343F0600313600A6A42F48072FA
:105880000A62826F92F88F20012A03D10A6A42F4D9
:10589000806204E0022A03D10A6A22F480620A626A
:1058A000B0F870205208CA632049214A4160426121
:1058B00020491D4AC1608260002180F8471030BC39
:1058C00070470246906FB2F8703080685943090CF7
:1058D00051864163032382F83A30006A118F000B2E
:1058E000012900F0010002D1002101201187704739
:1058F000826F9268136A23F480531362026E836F7F
:1059000090F83A0003EB800CDCF83C301868A2EB0E
:1059100040020948824203DD47F6FF70824200DB05
:1059200002460A804A807047F3600008896F0008C9
:10593000655E0008D15F00080180FFFF816F896804
:1059400000224A636FF001020A610B695FEAC37CBF
:10595000FBD50A614A6C42F400424A64816F91F8B7
:105960008F20022A0CD18A69C9688A61816FCA694D
:10597000096912048A61806F016A406909048161C2
:105980007047000070B4816F8A686FF00101116187
:105990001369DC07FCD5116101235363B0F8704033
:1059A000641F14641369DC07FCD51161536C43F464
:1059B00080635364536C43F400435364836F93F8E0
:1059C0008F40022C16D1DC689B69156A40F255564F
:1059D000354203D0A361836FDC6904E01B04A3613B
:1059E000836FDC6924041B699C61806F036A4069D2
:1059F0001B0483611161D06840F00100D06070BC6D
:105A000070474FF48011C166B0F8701090F87220A2
:105A100080F83A20491E89B2FFF772BE30B581B0D6
:105A20000022ADF8002069469A4D9B4C284600F0B4
:105A30003BF9D4F8C00000F0D5F904F1E800FEF716
:105A400098FE122800F22481DFE810F013005600BF
:105A5000930020009100B300C800080118011D0147
:105A60002201220122015F006B007500340040001A
:105A70004A008A4D284600F0F1F9002800F008811C
:105A800000212846FEF777FE0321FDE0834D2846DE
:105A900000F0E6F928B901212846FEF76CFE012145
:105AA000F2E0D4F8BC0000F0DDF9052000F000FAC7
:105AB0001021E9E000F002FA002800F0E980D4F8B3
:105AC000BC00002100F004FA1121DDE0D4F8BC0094
:105AD000012100F0FDF9002800F0DA801221D3E066
